:020000040002F8
:1030000040C00020ED330200F5330200F733020028
:10301000F9330200FB330200FD3302000000000020
:103020000000000000000000000000001532020057
:103030000134020000000000593202000534020091
:103040007D37020007340200A13B02000734020072
:10305000073402000734020045350200073402003D
:10306000073402000734020007340200073402006C
:10307000073402000734020007340200073402005C
:1030800007340200CD370200073402000734020083
:103090000734020007340200D93802000734020066
:1030A000073402000734020007340200073402002C
:1030B0000734020007340200000000000000000096
:1030C000073402000734020007340200073402000C
:1030D0000734020007340200073402000000000039
:1030E00000000000000000000000000000000000E0
:1030F00000000000000000000000000000000000D0
:1031000000000000000000000000000000000000BF
:1031100000000000000000000000000000000000AF
:10312000000000000000000000000000000000009F
:10313000000000000000000000000000000000008F
:10314000000000000000000000000000000000007F
:10315000000000000000000000000000000000006F
:10316000000000000000000000000000000000005F
:10317000000000000000000000000000000000004F
:10318000000000000000000000000000000000003F
:10319000000000000000000000000000000000002F
:1031A000000000000000000000000000000000001F
:1031B000000000000000000000000000000000000F
:1031C00000000000000000000000000000000000FF
:1031D00000000000000000000000000000000000EF
:1031E00000000000000000000000000000000000DF
:1031F00000000000000000000000000000000000CF
:10320000DFF80CD000F060F9004800476966020062
:1032100040C00020264B19680868B0E8F04F80F3E2
:103220000988BFF36F8F4FF0000080F3118870475B
:10323000000000000748006880F3088862B661B6A5
:10324000BFF34F8FBFF36F8F4FF4F07080F311888F
:1032500000DF000000300200EFF30980BFF36F8F42
:10326000134B1A681EF0100F08BF20ED108A20E9DA
:10327000F04F106008B44FF0200080F31188BFF3C6
:103280004F8FBFF36F8F07F0C7FE4FF0000080F342
:10329000118808BC19680868B0E8F04F1EF0100FDC
:1032A00008BFB0EC108A80F30988BFF36F8F7047B6
:1032B000D029002030B4044654E8000F0D4644E8FD
:1032C0000053002BF8D1156030BC704730B4044671
:1032D00054E8000F40EA010544E80053002BF7D101
:1032E000156030BC704730B4044654E8000F00EA63
:1032F000010544E80053002BF7D1156030BC70473E
:1033000030B4044654E8000F80EA010544E8005355
:10331000002BF7D1156030BC704730B4044654E838
:10332000000F00EB010544E80053002BF7D11560B6
:1033300030BC704730B4044654E8000FA0EB0105E0
:1033400044E80053002BF7D1156030BC70470000F3
:1033500030B4044654E8000F0D4644E80053002BF7
:10336000F8D1156030BC704730B4044654E8000F03
:1033700040EA010544E80053002BF7D1156030BC4A
:10338000704730B4044654E8000F00EA010544E8F1
:103390000053002BF7D1156030BC704730B40446A1
:1033A00054E8000F80EA010544E80053002BF7D1F0
:1033B000156030BC704730B4044654E8000F00EB91
:1033C000010544E80053002BF7D1156030BC70476D
:1033D00030B4044654E8000FA0EB010544E8005364
:1033E000002BF7D1156030BC7047000006488047BD
:1033F00006480047FEE7FEE7FEE7FEE7FEE7FEE7DA
:10340000FEE7FEE7FEE7FEE7353902000132020083
:1034100000487047ECBF020040EA01039B0703D05D
:1034200009E008C9121F08C0042AFAD203E011F803
:10343000013B00F8013B521EF9D27047D2B201E0C5
:1034400000F8012B491EFBD270470022F6E710B5A9
:1034500013460A4604461946FFF7F0FF204610BD02
:10346000421C10F8011B0029FBD1801A704730B5AF
:1034700004460020034600E05B1C934203D2E05C5C
:10348000CD5C401BF8D030BD034611F8012B00F88D
:10349000012B002AF9D11846704730B50B4601467A
:1034A00000202022012409E021FA02F59D4205D3E3
:1034B00003FA02F5491B04FA02F52844151EA2F18D
:1034C0000102F1DC30BD0000064C074D06E0E0686B
:1034D00040F0010394E8070098471034AC42F6D35B
:1034E000FFF792FEB4C80200D4C8020070B58C1871
:1034F00010F8015B15F0070301D110F8013B2A1108
:1035000006D110F8012B03E010F8016B01F8016BF4
:103510005B1EF9D12B0705D40023521E0DD401F8F0
:10352000013BFAE710F8013BCB1A921C03E013F8B9
:10353000015B01F8015B521EF9D5A142D8D30020EE
:1035400070BD00002DE9F04F89B04FF00008002059
:1035500008904FF4807007900126002413E007982C
:1035600003F064FE48B100BF81480068304020B1DC
:10357000079803F04DFE48EA060876000798001DFC
:1035800080B20790641C082CE9D34FF4BE7003F09E
:103590004DFE50B14FF4BE7003F03AFE48F00048C3
:1035A00008AA0121002003F019FE08F0FF0000B373
:1035B000012600241BE006EA0800B0B100BF6D48F8
:1035C00050F82400C0F30420074600BF694850F8B3
:1035D0002400C0F301408146204602F01BF9054655
:1035E00015B149463846A84700BF7600641C082C30
:1035F000E1D308F0004000287ED00020069005901E
:10360000002505E04FF0FF3004A941F825006D1CAE
:10361000002DF7D000BF0020069000246FE0564830
:10362000005D0390039820F0C00753480057401CEA
:10363000002863D004A9384603F0A8F900285DD01B
:1036400003984FEA901A384602F02CF9814602F0AE
:10365000E1F80290029810B9BAF1030F4BD1BAF118
:10366000030F11D1394605A80246CB0801F0070126
:1036700012F803C04FF0010E0EFA01FE4CEA0E0CD8
:1036800002F803C000BF00BF00BF00BF4FF0A04161
:10369000084600F5E06151F82710C1F3014900BF69
:1036A00008A9384603F072F98346BBF1000F02D037
:1036B000B9F1020F05D0BBF1000F1BD1B9F1030F17
:1036C00018D1BAF1030F0FD1B9F1020F01D10320C4
:1036D00000E0022001903846019903F03DFD069874
:1036E000401CC0B2069000BF029818B1514638463F
:1036F000029A904700BF00E036E000BF641C042C33
:103700008DD3069858B3012703AA0121002003F0A6
:1037100065FD00250AE003A850F8250008A951F826
:103720002510884201D0002702E06D1C002DF2D048
:1037300000BF17B10020069010E000250CE003A8A0
:1037400050F8250008A941F8250005A850F82500E3
:1037500004A941F825006D1C002DF0D000BF06988B
:1037600000287FF458AF00BF09B0BDE8F08F00001B
:10377000046300401065004024B0002010B54FF4F1
:10378000807003F0A9F960B14FF4807003F0ADF9D7
:10379000012003F0B3F901200B494870002002F02A
:1037A000B7F84FF4827003F097F958B14FF4827074
:1037B00003F09BF9022003F0A1F90120024988706F
:1037C00002F0A6F810BD0000C0AF00202DE9F041C6
:1037D0004FF4A0711A4804F031FA002400BF00BF72
:1037E000EFF311800546202000F0F0FA00BF2E46CE
:1037F00000BF1448006807464FF48071104804F079
:103800001DFA07F0FBFF381A20F07F45012D04D97F
:1038100007F0E4FF022800D0012502E007F0FAFFDC
:103820000443281EA5F10105F8D124B14FF08050C2
:103830000549086040BF304600F0C8FABDE8F08195
:10384000001001400415014004ED00E010B500F047
:10385000B9F910BD2DE9F047074688461646C2461D
:1038600007EB47011B4800EBC109D9F8140020B150
:10387000012811D0022826D11EE0484600F0DAF9CE
:103880000546B54201D2002405E034463246514691
:10389000484600F016FA18E0484600F0CBF9054615
:1038A000B54201D2284600E0304604462246514641
:1038B000484600F006FA08E032465146484600F015
:1038C000C7F9044601E0002400BF00BF2046BDE860
:1038D000F0870000D0B5002008B5002000906946B0
:1038E0000E48006807F098F90098B0B100BF4FF09B
:1038F00080500B49086040BF00BF00BF00BFBFF34E
:103900004F8F00BF00BF00BF00BF00BF00BFBFF3AD
:103910006F8F00BF00BF00BF00BF08BDA02A0020FE
:1039200004ED00E001480249086070470090D003B0
:10393000B029002010B502F0A7FA28B18848008805
:10394000C0F304208749086002F0F2FA10B18648FB
:103950008649486702F004FB30B18148E0380068CE
:10396000C0F342308249086002F024FB28B181484C
:10397000006820F080707F49086002F033FB48B196
:1039800000207D4908604FF08041C1F8100178495E
:10399000091F086002F050FB18B10320744964311C
:1039A000086002F061FB68B10520744908600120DD
:1039B00072497831086000207049083108603F2062
:1039C000091F086002F068FB002855D06448E03009
:1039D00000686B4908606248E4300068091D0860AF
:1039E0005F48E8300068091D08605D48EC300068F9
:1039F000091D08605A48F0300068091D08605848E1
:103A0000F4300068091D08605548F83000685C49CA
:103A1000203108605248FC300068091D0860594890
:103A20000068091D08605748001D0068091D0860EE
:103A3000544808300068091D086052480C3000687E
:103A4000091D08604F48103000684D49403108603A
:103A50004C4814300068091D08604A481830006856
:103A6000091D086047481C300068091D086045486A
:103A700020300068091D086002F0DCF930B13848D8
:103A8000CC38006800F04F003F49086002F026FA89
:103A900040B13E48006800F0010018B16FF001002D
:103AA0003A49086033487438006840F4700031497E
:103AB0007439086000BF00BF00BFBFF34F8F00BF65
:103AC00000BF00BF00BF00BF00BFBFF36F8F00BFCC
:103AD00000BF00BF2E48006800F00100E0B30120E5
:103AE0002C49086000BF2C4800680028FBD02848FB
:103AF000006820F001004FF01021C1F80C0200BF57
:103B0000254800680028FBD000202249086000BF3B
:103B1000214800680028FBD000BF00BF00BF00BFE5
:103B200000BFBFF34F8F00BF00BF00BF1148F03888
:103B3000006800F4E06019490843001D0D49F039A0
:103B4000086000BF00BF00BFBFF34F8F00BF00BFC2
:103B500000BF00BF00BFFDE7FFE7FFF7E3FE10BDBA
:103B600024030010403501400DF0ADBA00C00740FD
:103B70003C050040FCED00E00C0100401056004008
:103B800020C5004024040010E40E00400004004062
:103B90000C12001004E5014000E401400000FA05A9
:103BA00010B50648007F20B10449054806F0A7FC7F
:103BB00003E00249024806F001FC10BD2CB00020D1
:103BC0000020004010B5124C02202061606111A05D
:103BD000A0611349E1614FF4007121620021A162EB
:103BE0006162E1620BA0A0640E49E16410212165CD
:103BF0000021A1656165E1650BA1E01DFFF744FCB3
:103C00000AA12046FFF740FC2020A07110BD000053
:103C1000B8B500205465726D696E616C00000000DB
:103C200030B6002030B80020525454005345474766
:103C30004552000010B501460A69CB689A4204D883
:103C40008C68641EE41AA01801E0D41A601E10BD2E
:103C50002DE9F0470446894617464FF0000AE5680B
:103C600000BFD4F81080A84503D9A8EB0500461E74
:103C700004E0A5EB0800401CA1680E1AA068401BD8
:103C8000B04201D9304601E0A068401B0646BE4262
:103C900001D2304600E0384606466168481932468F
:103CA0004946FFF7B9FBB244B144BF1B3544A06895
:103CB000A84200D10025E560002FD2D15046BDE8D2
:103CC000F0872DE9F047044689461546E668A06866
:103CD000871BAF4208D9616888192A464946FFF711
:103CE0009BFB7019E06010E0B84661688819424695
:103CF0004946FFF791FBA5EB070809EB0701424690
:103D00006068FFF789FBC4F80C80BDE8F08700000D
:103D10000FB4084B10B504A902AA039800F062F88A
:103D2000044602A9002000F007F9204610BC5DF807
:103D300014FB0000393F020002E008C8121F08C14E
:103D4000002AFAD170477047002001E001C1121F1C
:103D5000002AFBD1704700000146202908DA012023
:103D600088400A4A104008B1012070470020FCE753
:103D7000402909DAA1F12000012202FA00F008B17D
:103D80000120F2E70020F0E70120EEE7FC06FFBD8E
:103D900000BFEFF31081084672B6704700BFEFF323
:103DA0001081084672B670470146082901D30020E9
:103DB000704719B1012901D0042901D10020F7E78A
:103DC0000120F5E7C1B281F311887047C1B281F3D8
:103DD00011887047C1B281F311887047C1B281F375
:103DE000118870472DE9FF4F89B09B460446002596
:103DF00006E025280BD05A460B999047641C6D1C91
:103E000020780028F5D10DB02846BDE8F08F0027B6
:103E1000B8460122474900E0074314F8013F203B20
:103E200002FA03F00842F7D120782E2819D114F8AD
:103E3000010F47F004072A280ED06FF02F022078D8
:103E4000A0F1300109290CD808EB880102EB4101EF
:103E500000EB0108641CF2E70A98641C50F8048B1C
:103E60000A9020780028CED0642808D0692806D08F
:103E700075281ED05A460B9990476D1C58E00A9938
:103E80004FF00A0901C90A91002802DA40422D21A7
:103E900002E0390504D52B218DF82010012103E023
:103EA000F90704D02021F7E78A4608AE0DE000218B
:103EB000FAE70A994FF00A0901C90A91F7E749465A
:103EC000FFF7EBFA303106F8011D0028F7D1ADEB12
:103ED000060000F12009780701D44FF00108C84519
:103EE00002DDA8EB090000E000208046002706E084
:103EF00008A85A46C05D0B9990476D1C7F1C57451A
:103F0000F6DB04E030205A460B9990476D1CB8F15F
:103F10000001A8F10108F5DC05E016F8010B5A468E
:103F20000B9990476D1CB9F10001A9F10109F4DC6E
:103F3000641C65E7092801000A68531C0B601070B7
:103F40007047F0B505460B4600215C680EE0665CE4
:103F5000481C275CAF4206D1881C20445060701E6C
:103F600010800020F0BD701C014400BF18888842FA
:103F7000EDD80520F6E710B501220221002001F05E
:103F800055F9044600BF1CB1072C01D0204610BDD6
:103F900000BF07220221012001F048F9044600BFBA
:103FA0001CB1072C01D02046F1E700BF0A220021F6
:103FB000084601F03BF9044600BF1CB1072C01D0B4
:103FC0002046E4E700BF0020E1E710B504460220E8
:103FD00000F0E8FF10BD000010B5002407E007491D
:103FE000096811F83400012102F052FE641C0448F3
:103FF00000788442F3D3002010BD0000302A002056
:10400000342A00202DE9F84306460C461746052FB2
:1040100002D20720BDE8F88302F038FF38B902F079
:1040200005FF054600BF0DB12846F3E700BF16485F
:10403000066016480470164807600020154908609D
:104040001549086015E006EBC408144800680090A4
:1040500098F802008DF8010098F80000104A6946AF
:1040600002F06CFE054600BF0DB12846D2E700BF46
:1040700000BF201EA4F10101CCB2E4D1094A002105
:10408000094800F02BF9C5E7302A0020342A002027
:10409000382A00203C2A0020402A00208CBD020043
:1040A000D1610200FD5B020088BD02002DE9FC41E8
:1040B00006460F46144600BF03F09CFC00BF00BF3D
:1040C00003F0AEF90028FBD100BF00BF012E0CD0D9
:1040D0006FF48050304488B1B0F5405F24D06FF465
:1040E00040510844002833D111E0264909880122B3
:1040F00042EA014024A103F063FB33E0214909882F
:10410000012242EA014028A103F05AFB2AE0254699
:104110002B881C4909884FF0010C4CEA01402BA167
:104120006A6803F063FB1DE02546A86804F07AF88E
:10413000804628886968CDE9001012490988012362
:1041400043EA0140434628A1AA6803F073FB09E053
:104150000C490988012242EA01403A4628A103F0AD
:1041600039FB00BF00BF00BF2B48006800F0010012
:1041700000B100BE00BF22463946304600F05EF86E
:10418000BDE8FC81FC2A0020534F46544445564963
:1041900043453A20415353455254494F4E204641DE
:1041A000494C454400000000534F4654444556498D
:1041B00043453A20494E56414C4944204D454D4FC8
:1041C0005259204143434553530000004153534546
:1041D0005254494F4E204641494C45442061742079
:1041E00025733A25750000004552524F522025751F
:1041F000205B25735D2061742025733A25750000CE
:10420000554E4B4E4F574E204641554C54206174ED
:104210002030782530385800F0ED00E0FEB5044637
:104220000E461546B0B2ADF80000019502946A46FC
:10423000002144F20100FFF739FFFEBD18B501234C
:1042400000939DF800301E4B186059609A606FF41F
:104250008043034463B1012B19D1194BDA60DB6849
:104260001B88174CA3612346DB685B68E3610EE0A3
:10427000134B1A611B699B68114C636123461B69D0
:104280001B88A36123461B695B68E36100BF00BF15
:104290000B4B1B680A4B5B68094B9B68084BDB6840
:1042A000074B1B69064B5B69054B9B69044BDB693C
:1042B00072B600BF9DF80030002BFBD162B618BD6E
:1042C0006CB0002070B50546284605F049FB044651
:1042D000207B10B1A1682068884770BD2DE9F843A4
:1042E0000546884616462C684FF0000906B115B9F8
:1042F0000720BDE8F883207B08B10820F9E7606853
:10430000D0B9002020606060A060E060B8F1000FCC
:1043100001D1002700E00127A660094823463A465C
:104320004FF47A71009007A007F000FC60606068AD
:1043300020B94FF00E0901E00820DAE74846D8E737
:10434000C542020020000000002070472DE9FC4714
:1043500005460E4617462C46D4F80480B8F1000FE7
:1043600002D10820BDE8FC87207B002806D040460B
:1043700007F054FC002801D00020F3E7276000BFBD
:10438000EFF30580A8B30020019001AB324609216C
:104390000090404607F00CFC012801D00420E1E722
:1043A00007F032FA8146002001AB4A460621009010
:1043B000404607F0FDFB012801D00420D2E7019818
:1043C000B0B100BF4FF080501A49086040BF00BF35
:1043D00000BF00BFBFF34F8F00BF00BF00BF00BFD3
:1043E00000BF00BFBFF36F8F00BF00BF00BF00BFA3
:1043F0001BE0FFE7022000233246042100904046E4
:1044000007F0D6FB012801D00420ABE707F0F6F94E
:104410008146022000234A4601210090404607F0D1
:10442000C7FB012801D004209CE701202073002055
:1044300098E7000004ED00E07CB5044625466E6870
:10444000002E01D108207CBD00BFEFF3058030B302
:104450000020019001AB024608210090304607F091
:10446000A7FB012801D00420EDE70198B0B100BFFF
:104470004FF080501249086040BF00BF00BF00BF2E
:10448000BFF34F8F00BF00BF00BF00BF00BF00BF22
:10449000BFF36F8F00BF00BF00BF00BF0BE0022063
:1044A00000231A4603210090304607F081FB0128C3
:1044B00001D00420C7E70020287300BFC3E7000035
:1044C00004ED00E010B50446204605F0B3FB10BD36
:1044D00070B5044625460E488068B0B1ADB9FFF707
:1044E0005DFC06460A4800680A49086008484068BA
:1044F0004FF0E021C1F804010020054988601EB991
:1045000000BF62B600BF00BF00BF00BF70BD0000AB
:104510008CB0002000E100E010B50446084909888D
:10452000032242EA014007A103F04AF900F016F81D
:1045300006F0A2FD05F0B0FA012005F01DFE10BD49
:10454000FC2A00206170706C69636174696F6E2071
:10455000737461727465642E0000000038B507F052
:104560004DF904460220002322460121009007480D
:10457000006807F01DFB012807D000BF04A24FF41C
:1045800014710420FFF74AFE00BF38BD80290020C7
:104590002E2E5C2E2E5C2E2E5C6D61696E2E6300BD
:1045A000002112E00B48D0F81024012306E000BFE0
:1045B000107A884201D1002302E05268002AF6D125
:1045C00000BF0BB108467047491C0A29EADB4FF0CF
:1045D000FF30F8E798B100207047000010B504469E
:1045E00000BF0CB90E2010BD00BF00BF0648007808
:1045F000012801D00820F6E700BF044801682046E2
:1046000005F0FAF9EFE700002C2A0020202A00200C
:104610000146002200BF09B90E20704700BF0020EC
:10462000054B18600120054B18700020044B1860E2
:10463000044801601046F0E7282A00202C2A0020B8
:10464000242A0020202A002070B504460E4600BF10
:1046500004B970BD00BF00BF06B9FAE700BF00BFD4
:104660001D480078012800D0F3E700BF35462088B8
:10467000112815D0302804D0322807D0332814D17F
:1046800009E0211D284604F04BFB0FE0211D2846C0
:1046900003F0F8FE0AE0211D284604F057F905E072
:1046A000211D284604F0FAF900E000BF00BF95F88C
:1046B000C80278B1208830280CDB20884F2809DC1C
:1046C000A088B5F8CA12884204D1B5F8CA122846A3
:1046D00001F050FB00BFBCE72C2A002070B5044657
:1046E0000D4600BF0CB90E2070BD00BF00BF0B48C7
:1046F0000078012801D00820F6E700BF08480068CC
:1047000008B90820F0E794F8C70208B11120EBE7D8
:104710002946204601F02EFBE6E700002C2A002067
:10472000282A00202DE9FC47054688462E1D2888AA
:104730001F287DD00CDC13287BD004DC102814D07B
:10474000122877D1C3E01B2875D01D28F9D108E0C5
:10475000212871D0222870D03B286FD05628F0D164
:1047600020E1284603F0A8FD36E19D49098803228F
:1047700042EA01409BA103F023F800BF30880128E2
:1047800001DA012000E0002007463FB900BF9AA2ED
:1047900040F2C9110020FFF741FD00BF00BF308883
:1047A000C0EBC0009849084471680160318981807C
:1047B000B17A8171A9880022944800F053FA044626
:1047C00000BF27463FB100BF8BA24FF4E7713846C8
:1047D000FFF724FD00BF00BF072000F055FD044691
:1047E00000BF27463FB100BF83A240F2D111384637
:1047F000FFF714FD00BF00BF854800680190A8883E
:1048000001A98FDF044600BF27463FB100BF7AA24F
:1048100040F2DB113846FFF701FD00BF00BFA98859
:104820007C48FFF75BFF044600BF27467FB106E0E8
:104830003CE028E0CFE00CE06BE085E099E000BFD1
:104840006DA240F2E1113846FFF7E8FC00BF00BF5F
:10485000C2E0307901280AD161490988032242EA7D
:1048600001406DA102F0ACFF05F016F90AE03079C5
:10487000022807D15A490988032242EA01406AA165
:1048800002F09EFFA8E0A88800231A4685217FDF5A
:10489000044600BF27463FB100BF57A240F2F311C4
:1048A0003846FFF7BBFC00BF00BF95E03088311DE4
:1048B00075DF044600BF27463FB100BF4EA24FF44C
:1048C000FD713846FFF7AAFC00BF00BF84E068898D
:1048D00000EB4001C1EBC010642190FBF1F7288987
:1048E00000EB4001C1EBC010642190FBF1F9E889B5
:1048F00000EB80004100A889CDE900013849098812
:10490000032242EA01403B464A464FA102F092FF91
:1049100062E033490988042242EA014055A102F0CD
:104920004FFF00200190A88801A98FDF044600BF37
:1049300027463FB100BF30A240F211213846FFF7B1
:104940006DFC00BF00BF47E025490988042242EA08
:1049500001404DA102F034FF287A48B9AB7A6A7A57
:104960001F490988032747EA01404AA102F03EFF98
:1049700032E01B490988042242EA01404AA102F0C0
:104980001FFFA888132176DF044600BF27463FB1EA
:1049900000BF19A240F22A213846FFF73FFC00BFB2
:1049A00000BF19E00E490988042242EA014044A1EF
:1049B00002F006FFA888132176DF044600BF2746D1
:1049C0003FB100BF0CA240F232213846FFF726FC6F
:1049D00000BF00BF00E000BF00BFBDE8FC870000D3
:1049E000FC2A0020436F6E6E656374656420746FEB
:1049F00020746172676574002E2E5C2E2E5C2E2E44
:104A00005C6D61696E2E630077290020382B0020D1
:104A10005CBC0200A82600205363616E2074696D9F
:104A20006564206F75742E00436F6E6E65637469E4
:104A30006F6E20526571756573742074696D65645D
:104A4000206F75742E000000436F6E6E656374698D
:104A50006F6E20696E74657276616C20757064612A
:104A60007465643A2025752C2025752C2025752C1D
:104A70002025750050485920757064617465207256
:104A80006571756573742E005048592075706461A6
:104A900074652E005048592074783D25642C20728E
:104AA000783D25642E0A00004741545420436C6928
:104AB000656E742054696D656F75742E000000007A
:104AC00047415454205365727665722054696D6570
:104AD0006F75742E0000000070B505460E462888DC
:104AE000102802D011282CD115E01748006860B9B1
:104AF00000F086FF044600BF34B11448006818B1C6
:104B0000204612490968884700BF0F480068401CCA
:104B10000D49086016E00C480068401E0A4908600C
:104B20000846006860B9FFF726FA044600BF34B1B2
:104B30000648006818B1204604490968884700BF44
:104B400000E000BF00BF70BDAC290020A8290020F4
:104B50002DE9F04107460C46207820B1012837D0D6
:104B6000022848D139E025490988032242EA014058
:104B700023A102F025FE618804F10E02384600F000
:104B800071F8054600BF2E4636B100BF21A2C421F0
:104B90003046FFF743FB00BF00BF384600F072F914
:104BA000054600BF2E4636B100BF1AA2C7213046C7
:104BB000FFF734FB00BF00BF10490988032242EA17
:104BC000014018A102F0FCFD002005F009FB12E0F5
:104BD000217BA06800F06CF90DE0012005F000FBDE
:104BE00006490988032242EA01401AA102F0E8FDC1
:104BF00004F052FF00BF00BFBDE8F081FC2A002096
:104C0000446973636F7665727920636F6D706C654C
:104C100074652E002E2E5C2E2E5C2E2E5C6D61692E
:104C20006E2E6300436F6E6E656374656420746FEF
:104C3000206465766963652077697468204E6F72B9
:104C400064696320554152542053657276696365E7
:104C50002E000000446973636F6E6E656374656453
:104C60002E00000010B5034600BF0BB90E2010BD8A
:104C700000BF59802AB15488DC80108898809488BD
:104C80001C810020F3E7000070B586B004460D4695
:104C9000154B0FCB01AE0FC600BF14B90E2006B0E6
:104CA00070BD00BF00BF0DB90E20F8E700BF214660
:104CB00001A862DF064600BF0EB13046EFE700BF35
:104CC00020788DF816000120ADF814004FF6FF7023
:104CD00060802868E0600020A0800021218105A874
:104CE000FFF77CFCDBE7000018BD020070B586B062
:104CF00005460E46344604B10DB906B070BD608855
:104D00004FF6FF71884204D06088A988884200D09D
:104D1000F3E72888112806D0392816D129462046DD
:104D200003F0CCFF12E0A888618888420CD1E068CB
:104D300050B102208DF804004FF6FF70608001A989
:104D40002046E268904700BF00E000BF00BF00BF00
:104D5000D3E770B586B005460C46142101A8FEF7CE
:104D600074FB04F10E06207800283AD1A0880128AF
:104D700037D1A0792978884233D1002022E000EB96
:104D8000C00136F81110022902D0032917D107E01B
:104D900000EBC00106EB41010A89ADF816200FE0D7
:104DA00000EBC00106EB41010989ADF8121000EBE0
:104DB000C00106EB41014A89ADF8142000E000BFB4
:104DC00000BF401C217A8142D9D8E86848B1608888
:104DD000ADF8060000208DF8040001A92846EA6815
:104DE000904706B070BD0000FEB504460E4615465D
:104DF00000BF0CB90E20FEBD00BFF42D09DD134924
:104E00000988022242EA014011A102F0D9FC0720E0
:104E1000F1E760884FF6FF71884209D10B49098894
:104E2000022242EA01400FA102F0CAFC0820E2E798
:104E3000134A07CA8DE807002089ADF80200ADF8D3
:104E400006500296608869469CDFD4E7C02A00209D
:104E5000436F6E74656E7420746F6F206C6F6E6735
:104E60002E000000436F6E6E656374696F6E20687C
:104E7000616E646C6520696E76616C69642E0000F9
:104E800034BD020010B5044600BF0CB90E2010BDA1
:104E900000BF60884FF6FF71884201D0E08808B9F2
:104EA0000820F4E7E1886088012200F08BFCEEE73F
:104EB00070B504460D4609490988042242EA0140BA
:104EC00007A102F07DFC05490988042242EA01405D
:104ED0002A46214602F004FC70BD0000FC2A002096
:104EE000526563656976696E6720646174612E003E
:104EF00038B503F041F8044600BF25463DB100BF78
:104F000015A240F20A312846FFF788F900BF00BF1A
:104F1000002000906946012002F0ACFE044600BF6C
:104F200025463DB100BF0CA24FF444712846FFF75F
:104F300075F900BF00BF684602F05CFF044600BF81
:104F400025463DB100BF04A24FF445712846FFF746
:104F500065F900BF00BF38BD2E2E5C2E2E5C2E2EB4
:104F60005C6D61696E2E630001460148405C7047CC
:104F70005FBC020010B50146094B585C00BF4FF002
:104F8000A044234600BFD3F81045C44004F00104F8
:104F90000CB1012000E00020024682F0010010BDAB
:104FA0005FBC020010B502460949885C00BF4FF0A3
:104FB000A0442146D1F80435012484409C43C1F823
:104FC0000845012484401C40C1F80C4500BF10BDB9
:104FD0005EBC020010B504460249085D012102F0E2
:104FE000E0F810BD5EBC020010B504460249085D41
:104FF000002102F0D6F810BD5EBC020010B50146DB
:10500000094B585C00BF4FF0A044234600BFD3F8C3
:105010000445C44004F001040CB1012000E000206C
:10502000024682F0010010BD5EBC02007CB5002487
:105030000CE00948055D002000900346012211465E
:105040000190284602F047F800BF641C002CF0D005
:1050500000F004F87CBD00005EBC020010B5002426
:1050600003E02046FFF7B6FF641C002CF9D010BD0A
:1050700010B5002403E02046FFF7B6FF641C002CA7
:10508000F9D010BD02464FF0FF30002106E0054B7D
:105090005B5C934201D1084602E0491C0229F6D329
:1050A00000BF70475FBC020070B505460C46002685
:1050B0000648056014B1204604F02AFF0448006841
:1050C00010B9FEF758FF0646304670BDA8290020EB
:1050D000AC29002010B5002000F0CEFA044600BF35
:1050E0001CB1062C01D0204610BD00BF012000F0ED
:1050F000C3FA044600BF1CB1062C01D02046F3E7DA
:1051000000BF0020F0E700002DE9F04106460F4601
:105110004FF0000800243046FFF7B4FF0446022C8D
:105120003ED20FB3012F02D0022F38D130E004EB72
:105130004400214911F8008004EB44000844407801
:1051400050B11E4A4FF480611D480068FFF7FEF819
:1051500005460DB91948067004EB44001649084489
:105160008078184908551AE015480068FFF764F977
:105170001448005D04EB44010F4A114489788842C9
:1051800005D104EB44001146084490F8028006E083
:1051900004EB44000849084490F8018000BF00BFB8
:1051A000B8F1000F06D00848006818B1404606491B
:1051B00009688847BDE8F0819C290020A2290020C9
:1051C0006CBC0200A32900209829002010B50446D9
:1051D0002046FFF7CFFE10BD70B50546042D04D064
:1051E0000A2D16D104F00AFE14E00B494888132159
:1051F00076DF0446082C0BD000BF26463EB100BF28
:1052000006A240F27B213046FFF708F800BF00BF3E
:1052100000E000BF00BF70BD382B00202E2E5C2E9A
:105220002E5C2E2E5C6D61696E2E630030B50346D8
:105230000020022B23D2012A07D1012903D103F137
:105240000E04E4B200E00024224679B1012902D024
:10525000022911D104E003EB43040A4D2A550DE065
:1052600003EB4304074D2C44627007E003EB430457
:10527000044D2C44A27001E0072000BF00E007208D
:1052800030BD00009C29002070B50446002505486B
:10529000007800F0010018B1204600F059F80546EA
:1052A000284670BD902900202DE9F04105460F46A3
:1052B00000241E4805601E48076005F00200F8B192
:1052C000002606E0012211463046FFF7AFFF0446F4
:1052D000761C022E01D2002CF4D02CB933220221EC
:1052E0001448FEF78FFE044614B9FEF775FE044617
:1052F0002CB9114A00211148FEF7F0FF044600BF07
:1053000005F0010008B1FFF791FE2CB90C4A00210D
:105310000C48FEF7E3FF04462CB90B4A01210B4869
:10532000FEF7DCFF04462046BDE8F081902900200E
:105330009829002070BC0200595702006CBC020082
:10534000E164020064BC0200CB3F020068BC0200C2
:105350002DE9F041044600260025C248007820B11E
:105360000020C049087001F0A7F8182C77D2DFE8B8
:1053700004F00C11123E6A98C3D0D6F2F0EFEEEDB5
:10538000ECEBEAE9E8E7E6E5E4E301F095F8B64896
:10539000047063E100BF0020FFF730FE58B1002029
:1053A000FFF718FE022C02D14FF4E16001E04FF448
:1053B0007A60054609E00020FFF716FE022C01D1B5
:1053C000C82001E04FF4C8700546A74804704FF4A8
:1053D000FA7000EB85204FF47A71B0FBF1F70022F0
:1053E0003946A2480068FEF7B1FF064636E10020C4
:1053F000FFF704FE58B10020FFF7ECFD032C02D1AB
:105400004FF4487001E04FF47A60054609E000204F
:10541000FFF7EAFD032C01D1C82001E04FF4C8706A
:105420000546914804704FF4FA7000EB85204FF464
:105430007A71B0FBF1F7002239468C480068FEF71C
:1054400085FF06460AE10020FFF7D8FD60B1002085
:10545000FFF7C0FD042C03D14FF47A6002E0FCE0BA
:105460004FF47A6005460AE00020FFF7BDFD042CEA
:1054700002D14FF4C87001E04FF4C87005467A4875
:1054800004704FF4FA7000EB85204FF47A71B0FB92
:10549000F1F70022394675480068FEF757FF0646C7
:1054A000DCE00020FFF7AAFD50B10020FFF792FDDD
:1054B000052C01D1C82001E04FF47A60054609E0CF
:1054C0000020FFF791FD052C01D1C82001E04FF429
:1054D000C8700546644804704FF4FA7000EB8520EC
:1054E0004FF47A71B0FBF1F7002239465F4800684B
:1054F000FEF72CFF0646B1E00020FFF753FD5A48A7
:1055000004700022662159480068FEF71FFF064616
:10551000A4E00020FFF768FD534804709EE00120DE
:1055200050490870FFF73EFD002266214F48006891
:10553000FEF70CFF064691E08AE088E07CE073E02D
:105540006AE064E039E037E035E033E031E02BE059
:105550001CE00EE0FFE7012042490870FFF722FD42
:1055600000224FF4007141480068FEF7EFFE064646
:1055700074E001203B490870FFF714FD002266210A
:105580003A480068FEF7E2FE064667E0012035492A
:105590000870FFF707FD00224FF4007133480068E0
:1055A000FEF7D4FE064659E0FFF762FD2E48047070
:1055B00054E000BF00BF00BF00BF2D480068FEF7E9
:1055C0003BFF0646C4F11105D5B1CEB9012D10D966
:1055D000A8B2C82148434FF4FA7101EB802049007A
:1055E00090FBF1F70022394621480068FEF7AEFE35
:1055F00006460220FFF7F8FC01201E49087005E06E
:105600000220FFF7E7FC00201A49087026E000F0AE
:1056100053FF1548047021E000F04EFF0020FFF713
:10562000E3FC1148047019E000F046FF0120FFF789
:10563000DBFC0D48047011E000F03EFF0020FFF796
:10564000D3FC0120FFF7D0FC0748047006E000BF40
:10565000FFF70EFD0448047000E000BF00BF3046B5
:10566000BDE8F0818D2900208C29002064BC020057
:1056700068BC02009429002070B504462046FFF75C
:1056800073FC0546032101F04EFD002070BD0000B3
:105690002DE9F84F05460E46AF1C4FF002084FF0BB
:1056A0000109002000906846FEF70CFF1B480068C7
:1056B00030601A48006819494968411A17488068DB
:1056C000401CA0EB010A07EB080B0BE000F05AFFAF
:1056D0001248006811494968411A10488068401C06
:1056E000A0EB010AD345F1D80C4800680B49896842
:1056F00008400A490C3101EB8004206820F00300C7
:10570000C01C20600548006838440C3908609DF8CA
:105710000000FEF7DDFE4846BDE8F88F98B1002096
:1057200070B504460D46A168481CA0602068455429
:10573000D4E90110884202D3204601F0C6FB70BDB7
:105740000448406803490968884201D10120704734
:105750000020FCE798B1002010B504462078022113
:10576000FFF7D2FC10BD000038B511490320FFF748
:105770009BFD044600BF25463DB100BF0DA240F28F
:105780003F312846FEF74AFD00BF00BF69460020B2
:10579000FFF78AFC044600BF25463DB100BF05A2C5
:1057A00040F242312846FEF739FD00BF00BF38BD48
:1057B000D95102002E2E5C2E2E5C2E2E5C6D61695E
:1057C0006E2E63007FB506460C4615468DF80C50CC
:1057D00000208DF80D00064A07CA8DE80700ADF8D5
:1057E000024003A80290694630469CDF04B070BDB9
:1057F00028BD02004FF0FF31054A42F8201008286A
:1058000004DBFF23A0F1080150325354704700001D
:10581000D4AF00200146024850F821007047000034
:10582000D4AF00202DE9F04F03460C464FF0FF396E
:105830000AB1002000E0082084460AB1082000E0F8
:105840000C208046614624E0154850F82100401C99
:10585000F0B91D460846274616464FFA80FBDFF88A
:1058600040A00AF1300A0AF805B0DFF834A04AF87F
:1058700020704EB94FFA85FBA0F1080ADFF820E04E
:105880000EF1500E0EF80AB000BF4FFA81F902E097
:10589000491C4145D8D300BF4846BDE8F08F000001
:1058A000D4AF0020014601484056704704B00020A4
:1058B000F8B504460E4694F8C60200EB8001C1EB31
:1058C000801004EB400594F8C502B8B194F8C522E5
:1058D000521ED1B294F8C62202EB8203C3EB8212AD
:1058E00004EB420501EBC10305F10A0202EB4300A0
:1058F0000289521C92B2ADF8002002E0E888ADF8AF
:1059000000002889ADF802006946304696DFF8BDF0
:1059100070B505460DB9094C01E0084C083409E0A2
:10592000204600F0B2FD064606B904E0284671683C
:10593000884700BFF4E700BF70BD0000C8AF00207B
:1059400070B501F0F3F8044600BF25463DB100BF35
:1059500004A240F2F2212846FEF760FC00BF00BF1F
:1059600070BD00002E2E5C2E2E5C2E2E5C6D6169AB
:105970006E2E63007CB50446002000900190E0B2DA
:105980008DF800006946022067DF054600BF2E46FD
:105990003EB100BF0AA24FF454713046FEF73EFC00
:1059A00000BF00BF9DF8001001F0010208490988FE
:1059B000042343EA014007A101F00CFF7CBD000075
:1059C0002E2E5C2E2E5C2E2E5C6D61696E2E630079
:1059D000FC2A002053657474696E6720636F6E6ED5
:1059E000656374696F6E206576656E742065787482
:1059F000656E73696F6E20746F2025640D0A000058
:105A000010B5012200210846FFF710FC044600BF34
:105A10001CB1072C01D0204610BD00BF0722022177
:105A20000120FFF703FC044600BF1CB1072C01D086
:105A30002046F1E700BF042202210020FFF7F6FB19
:105A4000044600BF1CB1072C01D02046E4E700BF8C
:105A50000020E1E77CB504460D46A91D01EBC40119
:105A60008A7914490988042343EA0140234612A194
:105A700001F0BCFE002000900190A81D00EBC400C6
:105A80008079ADF80000A81D00EBC4008079ADF866
:105A9000020000226946204690DF06464EB10549C5
:105AA0000988012242EA014033462246114901F0A9
:105AB0009DFE7CBDB42A00205265717565737469C2
:105AC0006E6720746F207570646174652064617402
:105AD00061206C656E67746820746F202575206F77
:105AE0006E20636F6E6E656374696F6E203078250B
:105AF000782E0000F8C1020010B504462146024885
:105B0000FFF727F910BD0000382B002070B50848BA
:105B1000FEF77EFD044600BF25463DB100BF05A24D
:105B200040F267312846FEF779FB00BF00BF70BD29
:105B3000F95A02002E2E5C2E2E5C2E2E5C6D6169B1
:105B40006E2E63002DE9F84F04460F4690464FF045
:105B5000000B94F8C60200EB8001C1EB801004EB4F
:105B6000400594F8C50200EBC00105F10A0000EB06
:105B7000410A94F8C502401C2979884207D16B4636
:105B800000225146204600F0D4FB834627E094F8DB
:105B9000C5621FE02879401EB04202D14FF00009D3
:105BA00006E0701C00EBC00105F10A0000EB4109A2
:105BB0006B464A465146204600F0BBFB10B14FF001
:105BC000010B0AE0CA4694F8C502401C84F8C502DD
:105BD000701CC6B22879B042DCDC00BF00BFBBF14C
:105BE000000F04D1012038700020BDE8F88F00209C
:105BF00038706946404697DFF7E700002DE9F04727
:105C00008146002532E01C48006800EBC50421787D
:105C1000012000FA01F619480068304020B3174807
:105C20000068B04315490860207801F0F5F8074690
:105C3000217801208840124909680840217807FA34
:105C400001F188420FD16078012800D100E00020E6
:105C5000784080F00108606820B108F0FF012078EA
:105C60006268904700BF00BF681CC5B20548007855
:105C70008542C8DBBDE8F087302A0020402A00209A
:105C80003C2A0020342A00202DE9F04104460D462C
:105C9000164694F8C60200EB8001C1EB801004EBBD
:105CA0004008404603F088FE0746B7B31C4800682A
:105CB000062832D21B481A49096800EBC1104680F9
:105CC0001849174A126801EBC211081D7622414695
:105CD000FDF7A2FB3DB100201249114A126801EB09
:105CE000C211087006E002200E490D4A126801EB4D
:105CF000C21108700B480A49096800EBC110C76758
:105D000007480068401C06490860084600680649C4
:105D10000968884201D103F0D1F8BDE8F0810000A4
:105D2000242A0020C0AC0020282A00202DE9F041C0
:105D3000A0B004460D46164694F8C60200EB80015A
:105D4000C1EB801004EB4008404603F035FE0746E7
:105D500057B17C22064901A8FDF75EFBADF806604D
:105D6000029501A8B84700BF20B0BDE8F08100004F
:105D700084BC02002DE9F04104460D464FF4337116
:105D80002046FDF762FBA4F8CA5200201D490860B6
:105D900084F8C90284F8C60284F8C50294F8C602E1
:105DA00000EB8001C1EB801004EB400794F8C602C1
:105DB000154901EB8000006838603A88134909886A
:105DC000042343EA01402B46114901F00FFD3A46F6
:105DD0000121284694DF0646112E0CD000BF16B1D3
:105DE0003046BDE8F08100BF012084F8C7020020E2
:105DF00084F8C80204E0012084F8C70284F8C802CD
:105E00000020EEE7242A0020A8AC0020A82A0020C9
:105E100098C0020001200549096809B1002003E08B
:105E20000349096801B100207047000044AC00201C
:105E3000F829002013480078062820D11148001DB9
:105E4000007800F00F00D0B90E480830007800F05C
:105E5000F000302801D1012070470A48083000784E
:105E600000F0F000402801D10120F5E70548083096
:105E7000007800F0F000502801D10120ECE700206C
:105E8000EAE70000E00F00F013480078062820D170
:105E90001148001D007800F00F00D0B90E480830FE
:105EA000007800F0F000302801D1012070470A4846
:105EB0000830007800F0F000402801D10120F5E71B
:105EC00005480830007800F0F000502801D101208A
:105ED000ECE70020EAE70000E00F00F0134800784C
:105EE000062820D11148001D007800F00F00D0B91D
:105EF0000E480830007800F0F000302801D1012071
:105F000070470A480830007800F0F000402801D1BE
:105F10000120F5E705480830007800F0F00050282F
:105F200001D10120ECE70020EAE70000E00F00F0DB
:105F30000A48007806280ED10848001D007800F0B5
:105F40000F0040B905480830007800F0F000302814
:105F500001D1012070470020FCE70000E00F00F0B5
:105F600013480078062820D11148001D007800F061
:105F70000F00D0B90E480830007800F0F00030284B
:105F800001D1012070470A480830007800F0F00085
:105F9000402801D10120F5E705480830007800F0DD
:105FA000F000502801D10120ECE70020EAE70000D2
:105FB000E00F00F00A48007806280ED10848001DBE
:105FC000007800F00F0040B905480830007800F074
:105FD000F000302801D1012070470020FCE70000CC
:105FE000E00F00F013480078062820D11148001D6A
:105FF000007800F00F00D0B90E480830007800F0AB
:10600000F000302801D1012070470A48083000789C
:1060100000F0F000402801D10120F5E705480830E4
:10602000007800F0F000502801D10120ECE70020BA
:10603000EAE70000E00F00F00A48007806280ED1D9
:106040000848001D007800F00F0040B905480830EE
:10605000007800F0F000302801D1012070470020C6
:10606000FCE70000E00F00F00A48007806280ED197
:106070000848001D007800F00F0040B905480830BE
:10608000007800F0F000302801D101207047002096
:10609000FCE70000E00F00F00A48007806280ED167
:1060A0000848001D007800F00F0040B9054808308E
:1060B000007800F0F000502801D101207047002046
:1060C000FCE70000E00F00F070B505460C462088A4
:1060D00040F67721884216D10B490988032242EA0B
:1060E00001400AA101F06CFBA088C01E0E49088087
:1060F00005490988032242EA01400B490B880A88B6
:106100000AA101F073FB70BDFC2A00204154542009
:106110004D54552065786368616E676520636F6DC7
:10612000706C657465642E0074290020426C6520D3
:106130004E5553206D61782064617461206C656EEA
:106140006774682073657420746F20307825582830
:106150002564290070B51349134800F031FC04464A
:1061600000BF25463DB100BF10A240F25A3128467B
:10617000FEF754F800BF00BFF7210B4800F011FCF8
:10618000044600BF25463DB100BF08A240F25D3184
:106190002846FEF743F800BF00BF0120FFF7EAFBE7
:1061A00070BD0000C9600200482B00202E2E5C2E1E
:1061B0002E5C2E2E5C6D61696E2E63000148008896
:1061C000704700007429002000487047382B0020D9
:1061D0002DE9F04105460F46012000FA05F4184864
:1061E0000068FEF729F906460EB1BDE8F0811548B2
:1061F00000682040E0B9284600F00EFE28B11248A1
:10620000006820431049086004E00F480068A0437C
:106210000D4908600B48006820430A4908600022C5
:106220000A48016806480068FEF790F8064604E050
:1062300004480068A0430349086000BFD5E7000098
:1062400088BD0200402A00203C2A0020382A002075
:106250002DE9FC5F83460E4691461F46DDE90C455D
:10626000002E01DA704200E0304682464FF001080D
:1062700003E09AFBF9FA08F10108CA45F9DA474543
:1062800000D9B84634B1002E03DB05F00400042821
:1062900000D1641E05F0020000B167B105F00100F5
:1062A00048B944B104E0641E20215846FFF738FA8B
:1062B0000CB1A045F7D3002E05DA76422D215846C1
:1062C000FFF72EFA07E005F00400042803D12B2184
:1062D0005846FFF725FA05F0020002280DD105F017
:1062E000010050B94FB944B104E0641E3021584652
:1062F000FFF716FA0CB1A045F7D33B464A463146A4
:106300005846CDE9004504F007FABDE8FC9F10B5FA
:1063100002460B8992F8C60200EB8004C4EB8010A1
:1063200002EB40000089834201DA012010BD002009
:10633000FCE770B50446E2B90D8994F8C60200EB9B
:106340008006C6EB801004EB40000089854201D135
:10635000002070BD0889401C188094F8C60200EB2C
:106360008005C5EB801004EB4000008958800120B7
:10637000EFE70889401CD588A84201D10020E8E752
:106380000889401C1880D088401E58800120E0E712
:106390002DE9F84F05468A4600240AF110086DE001
:1063A00018F80460601C18F80070022F01D0032F49
:1063B0001ED14FF0000915E004EB4900801C00EBF2
:1063C00008016A46022063DF8346BBF1000F07D154
:1063D000BDF800002988884202D10120BDE8F88F6D
:1063E00009F1010906EBD671B9EB610FE4D341E085
:1063F000042F01D0052F23D14FF0000919E004EB41
:106400008900801C00EB08016A46042063DF834694
:10641000BBF1000F0BD1BDF800002988884206D1DE
:106420009DF80200A978884201D10120D6E709F140
:106430000109F11706EB9171B9EBA10FDFD319E058
:10644000062F01D0072F15D1A01C08EB00016A46CA
:10645000102063DF8346BBF1000F0BD1BDF80000B5
:106460002988884206D19DF80200A978884201D186
:106470000120B3E7701C204484B200BF9AF80F00DB
:10648000B4EBD00F8CDB0020A8E70146086808B108
:1064900002680A607047026803E08A4200D17047D0
:1064A0001268002AF9D103680BB1036800E00023E9
:1064B0000B60016000BFF2E710B50848007850B1EA
:1064C000002405E0022C02D02046FEF783FD641C68
:1064D000002CF7D001E0FEF7C1FD10BD942900208B
:1064E00010B504460448007800F0010018B10348D4
:1064F0000078FEF72DFF10BD902900208C29002088
:1065000010B54FF4827000F0F0FA022000F0FCFAAF
:10651000082000F007FB10BD10B50C2000F002FBB6
:1065200000BF00F0F7FA0028FBD10149887010BDC8
:10653000C0AF0020F72101801721418000210171A7
:106540004171FB2181711B21C171704770B5002021
:1065500001F000FA044600BF25463DB100BF05A288
:1065600040F2FB212846FDF759FE00BF00BF00F0B6
:1065700045FF70BD2E2E5C2E2E5C2E2E5C6D61694B
:106580006E2E63002DE9FF5F2F4800F087F92E483B
:10659000001F00F083F92D484468D0F8088004EA11
:1065A00008002A490C3101EB80090FE0641CB9F89E
:1065B0000000C0F38910D9F8001000EB915004449A
:1065C00004EA080021490C3101EB800999F8000028
:1065D00000F003000028E9D000250BE02046641CF1
:1065E00000EA080019490C3151F8200001A941F8CE
:1065F00025006D1C022DF1D3019800F00300012845
:1066000009D002280CD10421019801EB9050401EC2
:1066100004EB900405E00198C0F38310044400E00B
:1066200000BF00BF084F3F1F4FF0000B6A4659469E
:106630003846FCF7A6FE824600BF00BF56460EB1A4
:1066400002484460BDE8FF9FB0B5002098B100202B
:1066500008E000BF00BF00F0E3FE0028FBD100BF50
:1066600004F064FCF5E700001FB5434801684FF0F3
:106670001020D0F8040281423ED101203F49086039
:1066800000BF3F4800680028FBD001203A4908605D
:1066900000BF3B4800680028FBD000213648001DA1
:1066A000016000BF364800680028FBD00020334955
:1066B000086000BF324800680028FBD000BF00BF60
:1066C00000BF00BF00BFBFF34F8F00BF00BF00BFC0
:1066D0002C48006800F4E0602B490843001D29495C
:1066E000086000BF00BF00BFBFF34F8F00BF00BFF7
:1066F00000BF00BF00BFFDE7FFF722F9FFF726FF4D
:106700000020224A0123CDE9012000930390034693
:106710004FF480721EA1204804F05CFF012807D0CE
:1067200000BF1EA24FF46A710420FDF777FD00BF81
:106730001448001D006840F004001249091D08605B
:10674000FEF7D6FB03F0D0FCFFF70EF8FFF702FDD3
:10675000FFF7DCF903F030FB0021144801F05CFC8A
:1067600004F0AEFB07E000BF0CA240F2C2310F20E4
:10677000FDF754FD00BFF6E70012001004E50140EC
:1067800000E401400CED00E00000FA05842900203F
:106790004C4F474745520000516602002E2E5C2E9A
:1067A0002E5C2E2E5C6D61696E2E63001945020011
:1067B0002DE9FF5F07468B46144698460397039FD3
:1067C000FD88B94608F10400B0FBF5F0029008F12D
:1067D0000400B0FBF5F105FB1100019008F1040085
:1067E00020442844401EB0FBF5F0C0B2009004E005
:1067F000D9F800900298401E029002980028F7D124
:10680000824601982E1AA64201D9204600E0304661
:10681000064620E00E9848B109F10402019BD11808
:106820000BEB0A003246FCF7F7FD08E00BEB0A0120
:1068300009F10402019BD0183246FCF7EDFD00205F
:106840000190D9F80090A41BB244A54201D920467A
:1068500000E028460646002CDCD1BDE8FF9F000082
:1068600070B503460C46ACB101F0A8F8054600220D
:106870000CE002EB4200084E06EB800148881E68DF
:10688000B04202D11A60002070BD521CAA42F0D35F
:106890000520F9E70020F7E7A82A0020F8B504460C
:1068A00001256A4629462046FCF75EFD064600980B
:1068B000F8BDF8B504460026002000906846FDF7B4
:1068C00001FE206800686168884215D92068006868
:1068D000401E226810600178204600F033F806461A
:1068E000207A21680978401AC5B220680079A84248
:1068F00001DA2068057100BF9DF80000FDF7E8FD92
:106900003046F8BD0246D068081A138AB0FBF3F08F
:10691000C0B27047F8B504460D462E4600200090E0
:106920006846FDF7CFFD31462046FFF7EBFF2168B3
:106930000A68511C2368196010709DF80000FDF76B
:10694000C7FDF8BD0246138AD06801FB03007047FB
:1069500010B5014600BF09B90E2010BD00BF087A6E
:106960000B79C01AC2B2D1E90030186005E008689E
:106970000368581C0C6820601A70101EA2F10103F5
:10698000DAB2F4D10B68187100BFE6E730B5024601
:106990000B46D40802F00702012090401D5D2840FC
:1069A00030BD024600BF0AB90E20704700BF17294C
:1069B00001DBF72901DD0720F7E751800020F4E72C
:1069C00070B504460E4600BF0CB90E2070BD00BF66
:1069D0002661F72020806080FB202071002505E0E3
:1069E000A11D01EBC500FFF7A5FD6D1C002DF7D023
:1069F0000020EBE72DE9F041064688464546B4887D
:106A0000012C01DBBDE8F0813088242820D006DC91
:106A1000102809D011280CD0232823D11DE03A28B2
:106A20000CD055281ED10EE03146284601F0F8FD65
:106A300019E03146284602F040F814E03146284675
:106A400002F0E0F80FE03146284602F041F80AE093
:106A50003146284601F05CFE05E03146284601F04B
:106A6000F3FE00E000BF00BFA81D00EBC4000079EA
:106A700048B3A81D30F8341020469EDF0746B7B94A
:106A80000021A81D00EBC40001710121A81D00EB2D
:106A9000C4004171A91D31F834200C490988042330
:106AA00043EA014023460A4900F0A0FE0AE0112F04
:106AB00008D006490988012242EA01403A460549C0
:106AC00000F088FE00BF00BF9CE70000B42A002051
:106AD000E0C0020028C1020001464FF0804040584B
:106AE00008B1012070470020FCE708B500224FF0F4
:106AF00080410A500958009100BF08BD0149086053
:106B0000704700000803004001490860704700001A
:106B10000403004002480068C0F3004070470000D2
:106B200018040040012291070A50704710B5002454
:106B30001648007808B1852425E0002013498860B4
:106B400048600861C86000BF00BF4109890001F1C9
:106B5000E021D1F8001101228240114009B1012148
:106B600000E0002119B90721002000F061F800BF02
:106B700001F0AAFA20B902200549086000BF00BF51
:106B8000012002490870204610BD0000C0AF00205F
:106B90001805004008B5002000906846FDF792FCFB
:106BA0000748C068401E0649C8600846C06808B962
:106BB000FFF7B2FC9DF80000FDF78AFC08BD00005D
:106BC000C0AF002038B504461848807890B114B1A1
:106BD000012061688847002000906846FDF772FC3C
:106BE0001248C068401C1149C8609DF80000FDF7BC
:106BF0006FFC19E0002000906846FDF763FC24B1AB
:106C000021460A481030FFF746FC0848C06808B91A
:106C1000FFF776FC0548C068401C0449C8609DF831
:106C20000000FDF755FC00BF38BD0000C0AF0020DC
:106C300070B50B4601461A46002907DA5407260E9E
:106C4000104C01F00F052D1F665503E05407250E6B
:106C50000D4C655400BF00BF00F01F0201219140A0
:106C60000A4A440942F8241000BF00BF00F01F0286
:106C7000012191404209920002F1E022C2F8001184
:106C800000BF70BD18ED00E000E400E080E200E02D
:106C90002DE9F04706460D46304602F037F9E0B1DF
:106CA0003046FEF7FFFD083822490F5CBC11032C6B
:106CB00008D1304600F069FA08B1032000E0022054
:106CC000804605E0012C01D1022000E0032080462F
:106CD0004146304600F040FA2AE0304602F022F900
:106CE00030B33046FEF7DEFD0446A00000F58070AC
:106CF00087B22046104951F8201041F001020E4998
:106D000041F8202000BF384600F082FA7DB13046BD
:106D1000FEF7C8FD8146FEF77DFD8046B8F1000F05
:106D200004D0012101FA04F000F08CFA00BF00BF8A
:106D3000BDE8F08724B00020106500402DE9FC4735
:106D400004460E4617464FF00008204602F0D0F8E1
:106D500010B14FF0080855E0F27839462046FEF7AA
:106D600061FD0546681C002849D0B07880B100BF9D
:106D700000BF4FF0A042104600F5E06252F8242018
:106D800022F0020100F5E06242F8241000BF0CE09E
:106D900096F80190002000904B4602460146019073
:106DA000204600F0ACF900BF00BFF078D0B13078D9
:106DB000164951F82510164A1140144A42F8251078
:106DC000114651F825104FF4F85202EA04224FF40C
:106DD000403303EA00431A4311430C4A42F825109A
:106DE00000BF0EE0A5F108000A49085C317840EACE
:106DF000811042B2A5F1080006490A5401E04FF0A3
:106E0000040800BF4046BDE8FC8700001065004054
:106E1000FFE0FCFF24B0002010B50446204600F03F
:106E2000B4F908B1012010BD0020FCE770B5164888
:106E300090F8540010B10825284670BD002404E0E5
:106E4000204602F07FF8601CC4B2202CF8DB00243E
:106E500004E02046FEF7CEFC601CC4B20C2CF8DB2C
:106E600007210620FFF7E4FE4FF4BE7000F0D0F9D2
:106E70004FF0004000F0E6F90120034981F854008A
:106E800000252846D9E70000D4AF0020034890F839
:106E9000540008B1012070470020FCE7D4AF002067
:106EA0000FB438B50446059810B938BC5DF814FB2A
:106EB0000020009006A800906A462046059900F040
:106EC00012F80020009000BFEFE770B50446A068FC
:106ED00000B970BDD4E90403A26821689847002076
:106EE000A06000BFF5E72DE9FC5F82460D46144621
:106EF0000DB9BDE8FC9F00BF2E786D1C06B9E1E01E
:106F0000252E70D100274FF0010900BF2E782B2EBF
:106F10000CD02D2E02D0302E0CD103E047F001070B
:106F20006D1C0AE047F002076D1C06E047F00407FD
:106F30006D1C02E04FF0000900BF00BFB9F1000F67
:106F4000E4D14FF0000800BF2A2E06D12168081DA9
:106F50002060086880446D1C0DE02E78302E01DB27
:106F6000392E00DD07E06D1CA6F1300008EB88012A
:106F700000EB4108E8E700BF4FF0000B2E782E2E03
:106F800010D16D1C00BF2E78302E01DB392E00DDB4
:106F900007E06D1CA6F130000BEB8B0100EB410B01
:106FA000F1E700BF2E7800BF6C2E01D0682E02D111
:106FB0006D1C2E7800E000E0F6E700BF692E21D0BE
:106FC00008DC252E6DD0582E39D0632E0CD0642EBF
:106FD0006CD116E0702E4CD0732E3ED0752E1FD083
:106FE000782E63D12AE065E02168081D2060D1F881
:106FF000009009F0FF00019050460199FEF790FBC8
:1070000055E000BF2168081D2060D1F800905B4664
:107010000A2249465046CDE90087FFF719F946E0B4
:107020002168081D2060D1F800905B460A2249467D
:107030005046CDE9008703F06FFB38E000BF2168C0
:10704000081D2060D1F800905B461022494650464A
:10705000CDE9008703F060FB29E02168081D20606E
:10706000086801903B4642465046019902F0C2FF33
:107070001DE02168081D2060D1F8009030215046A5
:10708000FEF74EFB78215046FEF74AFB0020082110
:107090000B461022CDE900104946504603F03CFB58
:1070A00005E025215046FEF73BFB00E000BF00BF96
:1070B0006D1C03E031465046FEF732FB287800286D
:1070C0007FF41AAF00BF9AF80C0010B15046FFF7DA
:1070D000FCFE00BF0DE7F0B5DDE9054500BF4FF050
:1070E000A0473E4641EA420747EA830747EA0427AA
:1070F00047EA054C06F5E06747F820C0F0BDF0B55B
:10710000DDE9054500BF4FF0A0473E4641EA420792
:1071100047EA830747EA042747EA054C06F5E06794
:1071200047F820C0F0BD10B50A4600BF4FF0A0439D
:10713000194601F5E06353F8203023F4403401F59B
:10714000E06343F8204053F8203043EA024401F55D
:10715000E06343F8204010BD10B50A4600BF4FF071
:10716000A043194601F5E06353F8203023F440347E
:1071700001F5E06343F8204053F8203043EA02442D
:1071800001F5E06343F8204010BD014600BF4FF019
:10719000A040024600BFD2F81005C84000F0010030
:1071A000704710B561B900BF00BF4FF0A042134651
:1071B000012404FA00F2C3F80C2500BF00BF0CE064
:1071C00000BF00BF4FF0A0421346012404FA00F2B2
:1071D000C3F8082500BF00BF00BF10BD38B50B467F
:1071E000074C24680094014606E05DF82140D4F87D
:1071F00010551560121D491CC4188C42F5D838BDB5
:1072000040BD02000146014808447047006000404C
:1072100038B504462046FFF7F5FF002101602046FF
:10722000FFF7F0FF0068009000BF38BD10B50446BE
:107230002046FFF7E7FF0068012800D110BD0020BD
:10724000FCE700000149086070470000046300404B
:1072500070B504460E46FDF7A3F90546681C08B94B
:10726000284670BDE8B2207200BF0A48D0F810046A
:1072700028B90848C0F810440020606008E00548BC
:10728000D0F81004406860600248D0F810044460F0
:107290002846E6E798B10020704710B5FCF7D6FA0B
:1072A00010BD704738B504460D4604484023044AD3
:1072B00029460090204600F005F838BD799D02006F
:1072C00098B000202DE9F04F93B082460E46174645
:1072D0009846DDF87090304600F067FC18210DA844
:1072E000FCF7B3F80D97CDF83880CDF8489000251D
:1072F0002B46082207A9304600F084FC082509988F
:107300000A90089880B2ADF82C0000208DF830006B
:10731000079800F00300012820D107984FEA902B2E
:107320000798C0F3C2008DF82E000798C0F38000C4
:107330008DF82F000798C0F38314A2002B4601A9F3
:10734000304600F05FFC05EB84050DA80AAB224631
:1073500001A90090584600F067FB2CE0079800F068
:107360000300022827D107984FEA905B0798C0F3E3
:10737000C2008DF82E000798C0F380008DF82F0012
:1073800000BFBBF1080F01D2584600E008200446B8
:107390002B46224605A9304600F034FC2544ABEBD1
:1073A000040B0DAB0AAA214605A800F077FABBF141
:1073B000000FE6D100BF304600F00CFC13B0BDE872
:1073C000F08F000010B502460B4C04EBC2030129FC
:1073D00006D0022906D0032906D0042908D105E0E9
:1073E000022007E0042005E0187903E0587901E065
:1073F000002000BF00BF10BDD4C8020010B54FF080
:10740000FF34FFF74AFF04210448FFF721FF044639
:1074100000BF01200149487200BF10BD442A00206E
:107420002DE9F04F8BB0FEF78BF918B100200BB0AF
:10743000BDE8F08F0020A849C1F8180400BF00BFC4
:1074400000BFBFF34F8F00BF00BF00BF08464468B6
:10745000856804EA05000C3101EB800A002600274C
:10746000002007900FE0641CBAF80000C0F38910F8
:10747000DAF8001000EB9150044404EA0500964944
:107480000C3101EB800A9AF8000000F0030000289C
:10749000E9D04FF000080BE02046641C28408E49DC
:1074A0000C3151F8200008A941F8280008F1010822
:1074B000B8F1020FF0D3089800F0030002287CD145
:1074C0000898800D069050210898B1EB905F02DD7E
:1074D0000898800D00E05020834608986BF39F5079
:1074E00008900BF1080005900898C0F3C2000790BF
:1074F0007A48059900F0FCFA0646002E5BD030462B
:1075000000F053FB3B46082208A9304600F088FBF8
:10751000083704EA0500691C081A4FEA8009CB45C0
:1075200036D9B9F1000F06D004EA05006A490C31DA
:1075300001EB800001E068480C300490B9F1000FC5
:1075400001D0484600E05846C0B20390B9F1000FA0
:1075500002D061480C3000E000200290B9F1000F29
:1075600002D0ABEB090000E00020C0B201903B4626
:107570003046DDE9032100F053FB039807440298ED
:1075800028B13B463046DDE9012100F049FB0DE022
:1075900004EA050050490C3101EB800004903B46A1
:1075A0005A463046049900F03BFB00BF0698C01CC9
:1075B00004EB900400BF50E0FFE7089800F00300E0
:1075C00001283FD10898C0F38310062803DA0898F1
:1075D000C0F3831000E00620089960F38911089138
:1075E0000898C0F3831000F102090898C0F3C200A4
:1075F00007904FEA8901394800F07AFA064606B347
:10760000304600F0D2FA3B46082208A9304600F086
:1076100007FB08374FF000080EE02046641C2840A6
:107620002D4A0C3202EB80013B460422304600F02A
:10763000F7FA3F1D08F101080898C0F38310404590
:10764000EBD80AE0089800F00300032805D122488F
:10765000D0F8180408B90020E9E6C6B31E48D0F8EF
:107660001094D0F8180418B1304600F0B3FA2DE0A9
:1076700016E04FF0000B00BF99F80900012800D177
:107680008346BBF1000F08D000BFD9F80000314697
:1076900002684846904700BF00BFD9F8049000BF79
:1076A000B9F1000FE5D1304600F094FA00200690C1
:1076B00006A8FCF707FF0848D0F8180408B90648E0
:1076C00044609DF81800FCF703FF00BF00BFFEF701
:1076D00037F880F00100AAE698B10020B0BE0200A1
:1076E0002DE9F84F05468946164634488768F11C4F
:1076F00088086946FDF7CCFF002851D0DDF800A0CE
:107700000098801C00902D488068401C00993940EA
:10771000401A4FEA800846450AD800993940274A5E
:107720000C3202EB810032464946FBF775FE13E04E
:1077300000993940214A0C3202EB81004246494609
:10774000FBF76AFEA6EB080086B209EB0801324699
:107750001A480C30FBF760FE2A0C0AF10100384091
:1077600016490C3141F820200AEA070001EB800499
:107770002909206861F382002060206865F3C50054
:1077800020600021206861F38F102060206866F37C
:107790009F502060206820F00300801C206000BF04
:1077A000064890F81C0430B100BF00BFFFF738FE58
:1077B0000028FBD100BFBDE8F88F000098B1002081
:1077C00070B504460D4600231A462946204602F0AD
:1077D000DBFB70BDF8B505460E4614460094012348
:1077E0006A463146284602F0CFFBF8BD2DE9FC4140
:1077F00006460F4614461D460094019502236A462C
:107800003946304602F0C0FBBDE8FC812DE9FE435D
:1078100006460F4614461D46DDF828800094019563
:10782000CDF8088003236A463946304602F0ACFBA7
:10783000BDE8FE832DE9FF4706460F4614461D4668
:10784000DDE90C8900940195CDF80880CDF80C9005
:1078500004236A463946304602F096FBBDE8FF87AE
:107860002DE9F04F87B006460F4614461D46DDE968
:1078700012ABDDE9108901940295CDF80C80CDF8AA
:107880001090CDF814A0CDF818B0062301AA3946FF
:10789000304602F079FB07B0BDE8F08F2DE9F05FCC
:1078A00007460E4690461D46082E01D9BDE8F09FBA
:1078B00095F80C90002028732946404601F06AFB99
:1078C00000240CE0B44205D23A5D1CA12846FFF723
:1078D000E7FA03E01BA12846FFF7E2FA641C082C34
:1078E000F0D319A12846FFF7DBFA00241AE0B442CE
:1078F00013D217F804A0FBF78BFD006810F80A00FC
:1079000000F03E0008B1504600E02E2083465A4663
:107910000EA12846FFF7C4FA03E00DA12846FFF7A1
:10792000BFFA641C082CE2D301222946404601F02C
:107930000FFB85F80C9000BFB8E70000202530321F
:1079400078000000202020007C000000256300005B
:10795000200000002DE9F041074600BFFF2012493A
:107960008860002008604860C1F81804C1F8140459
:1079700081F81C040D4800F027F9054615B128468A
:10798000BDE8F0810A480B49401AC608002406E009
:1079900004EB4401084A02EB81000480641CB442F9
:1079A000F6D30020ECE7000098B10020B0BE020042
:1079B00034C90200D4C80200A82A002002480349A2
:1079C000401AC0087047000034C90200D4C8020041
:1079D00013B50C4621466846FEF742FF28B9044815
:1079E000009A00EBC20108681CBD0020FCE7000003
:1079F000D4C8020070B50B48D0F8104401200949E2
:107A000081F81C040AE000BF0120607200BF254617
:107A1000286841682846884700BF6468002CF2D176
:107A200070BD000098B100202DE9FF4707460C46C5
:107A3000164698460C9D95F80C9000202873294610
:107A4000404601F0A7FA072E47D2DFE806F0040906
:107A50000F161F2A370039462846FFF721FA3DE066
:107A6000394628462268FFF71BFA37E03946284690
:107A7000D4E90023FFF714FA30E0A06800903946FB
:107A80002846D4E90023FFF70BFA27E0D4E90201E6
:107A9000CDE9000139462846D4E90023FFF700FA72
:107AA0001CE0D4E902122069CDE9001202903946A7
:107AB0002846D4E90023FFF7F3F90FE0D4E90223C5
:107AC000D4E90410CDE90023CDE902103946284657
:107AD000D4E90023FFF7E4F900E000BF00BF002273
:107AE0002946404601F034FA85F80C90BDE8FF873E
:107AF0002DE9F84F07468A46388AA0F104080AF1B2
:107B000004004044401EB0FBF8F0C0B2009038467C
:107B1000FEF7CFFE044614B90020BDE8F88F002020
:107B2000207101216171A4F8068025460098A0F11A
:107B3000010B2C462F604FF0000912E03846FEF78B
:107B4000B8FE064636B16079401C60712E60376021
:107B5000354604E0204600F008F80020DDE709F192
:107B60000109D945EAD32046D7E72DE9F05F04465D
:107B7000274697F805802646A8F1010B002501E06D
:107B800036686D1C5D45FBD3D6F800A0264600255F
:107B900007E0D6F8009031465046FEF7BBFE4E4651
:107BA0006D1C4545F5D3BDE8F09F2DE9F84304462B
:107BB00027463D1D01266A4631462846FBF7ADFBA8
:107BC000804600BFBDE8F88310B504462046FEF7A6
:107BD000BFFE10BD2DE9FC47044627463D1D01268A
:107BE0006A4631462846FBF7A5FB8146009801907E
:107BF0000DF1040898F8000010B92046FFF7B5FF12
:107C0000BDE8FC87F8B504460D4616461F46012020
:107C10003B463246294600902046FEF7C9FDF8BD96
:107C2000F8B504460D4616461F4600203B46324630
:107C3000294600902046FEF7BBFDF8BD08B500229E
:107C400042504258009200BF08BDC0F80813704768
:107C5000C0F804137047012242507047014609B929
:107C60000E2070470248006808600020F9E7000015
:107C700048BF0200FEB506460C462046FFF7EEFF61
:107C800005460DB12846FEBD0020009001900290EF
:107C90008DF8006001208DF802000321ADF804107A
:107CA00069462020226869DF054665B1284600F054
:107CB000B9FA074648490988012242EA01403A4692
:107CC0004649FFF787FD00200090019002908DF853
:107CD000000001208DF801008DF802006946402067
:107CE000226869DF054665B1284600F09BFA074621
:107CF00039490988012242EA01403A463849FFF7EA
:107D000069FD00200090019002908DF80060F7203E
:107D1000ADF8020069462320226869DF054665B197
:107D2000284600F07FFA07462B490988012242EADB
:107D300001403A462B49FFF74DFD0020009001908D
:107D4000029001208DF800006946226869DF05462F
:107D500065B1284600F066FA07461F4909880122E6
:107D600042EA01403A462049FFF734FD00200090E6
:107D7000019002904FF4B06000906946A120226803
:107D800069DF054665B1284600F04CFA07461249FE
:107D90000988012242EA01403A461449FFF71AFDD8
:107DA00000200090019002908DF800006946A0200C
:107DB000226869DF054665B1284600F033FA0746B8
:107DC00005490988012242EA01403A460849FFF77D
:107DD00001FD002057E70000142B00201CC7020003
:107DE00064C70200B0C702007CC60200C8C6020019
:107DF00028C602002DE9F04104462568204660DFD0
:107E000006462068A84216D013490988022242EA91
:107E100001402A4611A12368FFF7E8FC01F0C4FDE8
:107E20002168471A0C490988022242EA01403A4671
:107E300016A1FFF7CFFC66B1304600F0F3F9074614
:107E400005490988012242EA01403A4618A1FFF794
:107E5000C1FC3046BDE8F081142B002052414D207A
:107E600073746172747320617420307825782C20CB
:107E700063616E2062652061646A75737465642055
:107E8000746F20307825782E0000000052414D207C
:107E900073697A652063616E2062652061646A752A
:107EA0007374656420746F20307825782E0000008C
:107EB00073645F626C655F656E61626C6528292022
:107EC00072657475726E65642025732E0000000063
:107ED0002DE9F041ECB080461DE04FF4CE700490E7
:107EE00004A905A861DF044604B115E005AD1149F8
:107EF00001A800F03EF909E000BF03980646376884
:107F000028467168B84701A800F054F900BF0398EB
:107F10000028F1D100BFE0E700BF052C07D000BF6B
:107F200005A240F221112046FCF778F900BF6CB0A1
:107F3000BDE8F0813CBF02002E2E5C2E2E5C2E2E62
:107F40005C2E2E5C2E2E5C2E2E5C636F6D706F6E21
:107F5000656E74735C736F66746465766963655C83
:107F6000636F6D6D6F6E5C6E72665F7364685F6287
:107F70006C652E630000000038B51648007808B123
:107F8000082038BD012014490870002001F0BCFE13
:107F9000112801D10020F4E7002001F0D3FE0F48A2
:107FA000006800900E49684610DF04460CB1204678
:107FB000E7E70120074908700020074908700949D0
:107FC000087002F051F801F073FF012001F0BAFED1
:107FD0000020D6E79C2A00209E2A002018BF02001D
:107FE000AD4002009D2A00203EB50A49684600F0D7
:107FF000C0F809E0684600F0B9F8044625686068F2
:10800000A847684600F0D6F8684600F0AFF80028A8
:10801000F0D13EBD0CBF02007FB504460D461549A8
:108020000988042242EA014013A1FFF7C9FB19485D
:1080300004600020184A0223CDE901200093039038
:108040002B464FF4807215A1154803F0C3FA06467B
:10805000012E0ED007490988012242EA014011A1F0
:10806000FFF7AEFB00BF174A6C210420FCF7D6F8DF
:1080700000BF7FBD202B00204372656174696E676D
:10808000206120536F66744465766963652074616E
:10809000736B2E00A42A0020A02A0020424C450029
:1080A0005D9E0200536F6674446576696365207453
:1080B00061736B206E6F7420637265617465642EEA
:1080C00000000000F8C70200014800787047000077
:1080D0009C2A00202DE9FF41074618E003A848DF4D
:1080E000044604B114E01049684600F042F809E083
:1080F00000BF029805462E6869680398B047684635
:1081000000F058F800BF02980028F1D100BFE5E761
:1081100000BF052C06D000BF04A26B212046FCF74F
:108120007DF800BFBDE8FF815CBF02002E2E5C2EF3
:108130002E5C2E2E5C2E2E5C2E2E5C2E2E5C636F03
:108140006D706F6E656E74735C736F667464657664
:108150006963655C636F6D6D6F6E5C6E72665F7395
:1081600064685F736F632E630000000001468868D7
:10817000704770B504460D4625602868606020464B
:1081800000F001F870BD14E0D0E90021526891427E
:1081900002D10021816070474168096842685268D5
:1081A000914203D0416809688160F4E74168083171
:1081B0004160E9E710B50446A06800B910BD216828
:1081C000A06889680844A060D4E901104968884221
:1081D00005D16068083060602046FFF7D4FF00BF1B
:1081E000ECE7000070B502460D4B03F1F00413E01C
:1081F000E61AF01000EBD076761003EBC6010D689E
:10820000954201D90C4606E0954202D201F10803DD
:1082100001E0486870BD00BFA342E9D30020F9E740
:10822000B4BD020030B504462046FFF7DBFF05462B
:108230000DB9024830BD2846FCE70000A0BD020091
:108240000146D1F88004C1F88004704702465058B6
:1082500008B1012070470020FCE708B50022425019
:108260004258009200BF08BDC0F80813704702468C
:10827000D2F80403084008B1012070470020FCE751
:108280000122425070470146D1F88004C1F88004B1
:1082900070470246505808B1012070470020FCE7A3
:1082A00008B5002242504258009200BF08BD014666
:1082B00040F23C50405870472DE9FF478146002767
:1082C00009F1040808F10406354696F90E0010F18C
:1082D000280F2DDB08F11400039098F81300C00854
:1082E000ADF80800BA466A4602A90920FBF729FE44
:1082F00004465CB16A4602A90820FBF722FE044648
:108300000CB1BDE8FF874FF0010A01E04FF0010A10
:10831000BAF1000F0BD03048FBF7A2F838B1BDF826
:1083200000202D480199FBF7A2F800B9012709E0C8
:1083300096F90E2029490988042343EA014028A11F
:10834000FFF748FA6FB131462A48FEF721F8074691
:108350003FB922490988032242EA014026A1FFF7DA
:108360002FFA002F35D00123294A2A4928468CDFCD
:1083700004464CB119490988012242EA01402246CB
:1083800025A1FFF727FA24E00020FCF77DFF044633
:1083900000BFA246BAF1000F07D000BF28A24FF4D9
:1083A000D4715046FBF73AFF00BF00BFA879697946
:1083B0002A79EB78CDE90032CDE90210AB786A7802
:1083C000064909884FF0030C4CEA014020A1FFF751
:1083D00047FA00BF95E700003CBC0200FC2A0020E1
:1083E0007265706F72742D3E72737369203D202523
:1083F0006400000058BC020069735F757569645FB2
:1084000070726573656E74203D2066616C736500E3
:1084100048BC020050BC0200436F6E6E6563746915
:108420006F6E2052657175657374204661696C6565
:10843000642C20726561736F6E202564000000005B
:108440002E2E5C2E2E5C2E2E5C6D61696E2E6300CE
:10845000436F6E6E656374696E6720746F2074611C
:108460007267657420253032582D253032582D25FD
:108470003032582D253032582D253032582D2530A8
:10848000325800002DE9FE4F07460D4600200290AD
:108490002888B7F8CA12884201D0BDE8FE8F97F845
:1084A000C60200EB8001C1EB801007EB4004688836
:1084B000002878D105F1060A94F804B09AF8000073
:1084C000019001985844062804DC21790198084459
:1084D000207101E0062020715E464FF0000931E076
:1084E00006EBC60104F10A0000EB410109EB890229
:1084F0000AF1020000EB420002680A6042684A602A
:1085000000890881002106EBC60204F10A0000EB95
:108510004200418106EBC60204F10A0000EB420072
:10852000818106EBC60204F10A0000EB4200C18122
:1085300006EBC60204F10A0000EB42000182761C41
:1085400009F101092079B042CAD8701E00EBC001C0
:1085500004F10A0000EB4100009038460099FDF755
:10856000D6FE10B12079062802D10120029019E030
:10857000207987F8C50229883846FDF799F98046A1
:10858000B8F1000F0ED0002087F8C7022A884146B4
:108590003846FDF7CBFB03201E4908702888488029
:1085A0007BE700E001E001200290029880B3002008
:1085B00087F8C5022A8801A93846FDF7C3FA804624
:1085C000B8F1000F0DD0002087F8C7022A88414675
:1085D0003846FDF7ABFB03200E4908702888488019
:1085E0005BE79DF8040090B12B8822880A4909882E
:1085F000042646EA01400949FFF7F8F82A880121D4
:108600003846FDF741FB2988384600F0FBFB00BFE8
:1086100000BF42E7C0AC0020A82A002040C00200F2
:108620002DE9F04105468846B8F80470A81D00EB16
:10863000C7042879A07198F80F00012802D00228F9
:1086400006D102E02888208003E06888208000E0CE
:1086500000BF00BF20886188884228DD2288194930
:108660000988042343EA01403B4617A1FFF7BEF8FF
:10867000218838469EDF064616B90120607116E053
:10868000112E0BD1012020710E490988042242EAE3
:1086900001403A461C49FFF79DF808E0094909885E
:1086A000012242EA014032461849FFF793F8A079C7
:1086B000E179884203DD29463846FDF7CBF9BDE86C
:1086C000F0810000B42A00205265717565737469E9
:1086D0006E6720746F207570646174652041545416
:1086E000204D545520746F20257520627974657370
:1086F000206F6E20636F6E6E656374696F6E2030DD
:108700007825782E0000000058C2020028C102001F
:1087100070B590B004460E463422311D03A8FAF716
:108720007BFEBDF80C50BDF81000C1B2A01D00EBDF
:10873000C500C171A11D01EBC501CA792249098893
:10874000042343EA01402B4620A1FFF74FF8BDF870
:1087500012201D490988042343EA014027A1FFF79D
:1087600039F8BDF8102018490988042343EA01406C
:1087700027A1FFF72FF8BDF8162013490988042315
:1087800043EA014027A1FFF725F8BDF814200E4960
:108790000988042343EA014026A1FFF71BF820695A
:1087A00080B1284903C9CDE90101ADF80650A01DEB
:1087B00000EBC500C0798DF8080001A920462269A8
:1087C000904700BF10B070BDB42A002044617461AE
:1087D000206C656E677468207570646174656420D0
:1087E000746F202575206F6E20636F6E6E656374E5
:1087F000696F6E2030782530782E00006D61785FCB
:1088000072785F6F63746574733A20257500000099
:108810006D61785F74785F6F63746574733A202557
:10882000750000006D61785F72785F74696D653AFC
:10883000202575006D61785F74785F74696D653AA5
:108840002025750010BD02002DE9FC47074688462B
:1088500000200090019008F104042188B81D00EB6D
:10886000C10994F804A0228818490988042343EA1E
:108870000140534616A1FEF7B9FF99F8060050458E
:1088800002DA99F8060000E050460646ADF80060AE
:10889000ADF8026023880D490988042242EA0140AC
:1088A00032461BA1FEF7A2FF20880022694690DF16
:1088B000054645B105490988012242EA01402A4698
:1088C0002149FEF787FFBDE8FC870000B42A00209D
:1088D00050656572206F6E20636F6E6E656374699C
:1088E0006F6E2030782578207265717565737465B8
:1088F0006420612064617461206C656E6774682017
:108900006F662025752062797465732E0000000063
:108910005570646174696E672064617461206C6570
:108920006E67746820746F20257520627974657392
:10893000206F6E20636F6E6E656374696F6E20309A
:108940007825782E00000000B0C102002DE9F84320
:1089500005460C462088B5F8CA12884201D0BDE809
:10896000F88395F8C60200EB8001C1EB801005EB9F
:108970004008A71D95F8C50200EBC00108F10A00E8
:1089800000EB4106608800283ED100BF38E000EBD4
:108990004002B91C01EB42014988B1F5245F0FD0B8
:1089A0006FF42452114491B1012902D007291CD13E
:1089B00014E000EB4002B91C31F81210718114E090
:1089C00000EB4002B91C31F81210B1810DE000EB50
:1089D0004002B91C31F81210F18106E000EB4002B0
:1089E000B91C31F81210318200BF00BF718931B15A
:1089F000B18921B1F18911B1318A01B103E0401C83
:108A000039888142C3D800BF0020009095F8C50284
:108A1000401C98F80410884202D1012000901CE00C
:108A200095F8C502401C85F8C5022288694628468B
:108A3000FDF788F88146B9F1000F0DD0002085F8C8
:108A4000C702228849462846FDF770F903201049DD
:108A500008702088488082E700BF9DF80000A0B120
:108A60002388B8F800200B4909884FF0040C4CEA21
:108A700001400949FEF7BAFE228801212846FDF788
:108A800003F92188284600F0BDF900BF67E7000020
:108A9000C0AC0020A82A002040C002000A88B0F81C
:108AA000CA329A4208D1002280F8C72280F8C82230
:108AB0004FF6FF72A0F8CA22704770B504460D4603
:108AC000AA88A11D01EBC200FDF734FD70BD0000B6
:108AD0002DE9FC4706468846B8F80450B8F80690D9
:108AE000B01D00EBC50425490988042242EA014073
:108AF0004B462A4622A1FEF779FEB9F1170F01DA9B
:108B0000172000E0484681462088484501DD484658
:108B100000E0208860800020207100952388628812
:108B2000164909884FF0040C4CEA014023A1FEF7D6
:108B30006DFE21882846ADDF074647B10F490988F9
:108B4000012242EA01403A462C49FEF743FE607991
:108B500008B1BDE8FC87306968B1294903C9CDE98E
:108B60000001ADF802506088ADF804006946304657
:108B70003269904700BF00BFEBE70000B42A002035
:108B800050656572206F6E20636F6E6E65637469E9
:108B90006F6E203078257820726571756573746505
:108BA0006420616E20415454204D5455206F66203E
:108BB00025752062797465732E000000557064611C
:108BC00074696E6720415454204D545520746F20B1
:108BD00025752062797465732028646573697265F0
:108BE000643A20257529206F6E20636F6E6E656371
:108BF00074696F6E20307825782E00006CC10200F9
:108C000008BD02002DE9FC4105460E46B788B6F8BE
:108C10000A80A81D00EBC7042088404501DD4046BE
:108C200000E0208860806088172801DA172000E0C3
:108C300060886080628810490988042343EA014003
:108C40003B460EA1FEF7D2FD286978B1607968B184
:108C5000194903C9CDE90001ADF802706088ADF88B
:108C60000400694628462A69904700BF00206071C9
:108C70002071BDE8FC810000B42A0020415454203A
:108C80004D5455207570646174656420746F20259F
:108C900075206279746573206F6E20636F6E6E65E8
:108CA0006374696F6E203078257820287265737040
:108CB0006F6E7365292E000000BD020030B585B0CF
:108CC00004460D46A088D8B16889A188884217D18A
:108CD000E068A8B101208DF8000005F110000290B5
:108CE000A87B8DF80C0069462046E268904705494C
:108CF0000988042242EA014003A1FEF761FD00BF9A
:108D000005B030BDC02A0020436C69656E742073C5
:108D1000656E64696E6720646174612E00000000F6
:108D20002DE9F04105460C4695F8C60200EB80019E
:108D3000C1EB801005EB40062088B5F8CA128842C6
:108D400001D0BDE8F081608828BB32881C490988C1
:108D5000042343EA01401BA1FEF73CFD04F1060891
:108D6000D8F802003060D8F80600C6F8060021885E
:108D70002846FCF79DFD074667B1002085F8C7022D
:108D8000228839462846FCF7D1FF03201449087091
:108D90002088488011E0328809490988042343EA81
:108DA000014010A1FEF716FD228800212846FCF79D
:108DB0006BFF2188284600F025F800BFC1E70000BE
:108DC000A82A0020466F756E642073657276696309
:108DD00065205555494420307825782E0000000044
:108DE000C0AC0020536572766963652055554944CF
:108DF0002030782578206E6F7420666F756E642E33
:108E0000000000002DE9F04104460D4694F8C90227
:108E1000401C84F8C90294F8C902234909688842B1
:108E200038D2002084F8C50294F8C602401C84F8A9
:108E3000C60294F8C60200EB8001C1EB801004EB7F
:108E4000400694F8C602194901EB800000683060C2
:108E500000203071328816490988042343EA014012
:108E60002B461449FEF7C2FC32460121284694DF06
:108E7000074677B1002084F8C7022A4639462046C3
:108E8000FCF754FF03200C49087008464580BDE8F4
:108E9000F08107E0002084F8C7020320064908702B
:108EA0000846458000BFF2E7282A0020A8AC002031
:108EB000A82A002098C00200C0AC002010B50024F1
:108EC00007E0084A02EBC41002EBC412D16F8847D6
:108ED000641C054800688442F3D3002003490860FD
:108EE00010BD0000C0AC0020282A0020242A002049
:108EF000014605484056012202EBE07008B101200E
:108F000070470020FCE7000004B000200146044840
:108F10004056082801DB012070470020FCE70000D4
:108F200004B00020014606484056002805DB0448EE
:108F30004056082801DA012070470020FCE70000B5
:108F400004B00020FF2201490A54704704B00020F9
:108F500070B504460D461646E07960B9207A28B10E
:108F600009480AA102682846FDF79AFF08A1284689
:108F7000FDF796FF04E01EB105A12846FDF790FF1E
:108F80002846FDF7A2FF70BD782A00202573000057
:108F90000D0A000070B504460D46E079D8B9207A74
:108FA00058B1A179A088FEF70DFA0B4951F820605D
:108FB00032460AA12846FDF773FFA0880021FEF77C
:108FC00007FD0646A079064951F82020334605A141
:108FD0002846FDF765FF70BD782A00202573000044
:108FE000642A00203C25733E2025733A20000000AF
:108FF00010B504460E48006844600E48006884427C
:1090000007D20B480168091D0B48006801F00CFCF1
:109010000CE007480168091D0848006801F004FCDD
:1090200007480068844201D20548046010BD000072
:10903000D0290020E8290020D8290020D4290020A8
:10904000042A00202DE9F04105460F461FB9A8006B
:1090500000F00EFC00E03846064656B1482000F00D
:1090600007FC04460CB1266304E0304601F028FCFE
:1090700000E0002424B1A900A522206BFAF7DEF954
:109080002046BDE8F081000010B501F0FDFB10485E
:109090000068D0B90F4801F0B7FB0F4801F0B4FBEE
:1090A0000C480E4908600C480D4908600022102148
:1090B000202002F035F8064908600846006820B113
:1090C00008A10348006801F02BFD01F0E9FB10BD89
:1090D000142A002080AC002094AC00200C2A002030
:1090E000102A0020546D72510000000070B523E07A
:1090F00001F08AFF1348006808B9012000E0002051
:10910000054602F08FFCBDB901F0BEFB0D48C068FA
:10911000C468201D01F05CFB0B480068401E0A4932
:1091200008600A480068401E0849086001F0B8FB62
:10913000204600F062F800BF044800680028D7D13C
:1091400070BD000058AC0020E4290020DC2900207C
:1091500070B504460D46206C70B1216CE06808447F
:10916000E0606168E068884201D32068E0602846DA
:10917000226CE168FAF750F970BD2DE9F041044620
:109180000E4615460027206C40B9206878BB606801
:1091900002F0C4FB07460020606028E07DB931463C
:1091A000226CA068FAF738F9216CA0680844A06026
:1091B000D4E9011088421AD32068A06017E0314634
:1091C000226CE068FAF728F9216CE068401AE06048
:1091D0002168E068884203D2216C6068401AE06030
:1091E000022D04D1A06B10B1A06B401EA063A06B38
:1091F000401CA0633846BDE8F08110B50446206BE2
:1092000001F05EFB204601F05BFB10BD08490968D8
:10921000C96A09B100200AE006490968012901D993
:10922000002004E004490968044A1268881A70475B
:10923000D0290020CCAB0020042A0020E8290020FF
:109240000146084A126812680AB9012200E00022A9
:109250000A600A6822B9034A1268D268106800E0FE
:10926000002070470C2A002030B54FF40043174807
:1092700000F007042CB1C01D20F00700134C041BA4
:109280001B1B0246124C22600024114D6C60D0184A
:10929000083820F007000F4C206000240D4D2D6889
:1092A0006C600C4D2D682C601146441A4C60094CC2
:1092B00024680C60084D4C682C60084D4C682C608C
:1092C0004FF00044064D2C6030BD0000BC2B002048
:1092D000B4290020BC290020C4290020C029002076
:1092E000C829002000BFFFF701FF174800680128C8
:1092F00016D900BF4FF080501449086040BF00BF2E
:1093000000BF00BFBFF34F8F00BF00BF00BF00BF53
:1093100000BF00BFBFF36F8F00BF00BF00BF00BF23
:1093200001F06AFAFFF772FF0446022C0BD301F03A
:109330006BFEFFF76BFF0446022C02D3204601F0C0
:1093400021FB02F06FFBCEE7CCAB002004ED00E088
:109350002DE9F04704460F4615469946DDF8208072
:10936000002607E0B95D04F134008155B85D00B90D
:1093700002E0761C042EF5D300BF002137200155F2
:10938000042D00D30325E562A5630020E063201DC2
:1093900001F047FA04F1180001F043FA2461C5F125
:1093A0000400A06164620020206484F84400BDE8E9
:1093B000F087000010B5002407E004EB84010F4A99
:1093C00002EB810001F020FA641C042CF5D30C4858
:1093D00001F01AFA0B4801F017FA0B4801F014FAE1
:1093E0000A4801F011FA0A4801F00EFA0448094946
:1093F000086004480849086010BD0000CCAB00209C
:109400001CAC002030AC002044AC002058AC002044
:109410006CAC0020D4290020D829002010B50146CA
:10942000164800E0006803688B42FBD3024643689D
:1094300013448B4204D143684C6823444360014683
:109440000A464B6813440468A34211D10C4C0368CC
:109450002468A34208D04B680468646823444B60C6
:1094600003681B680B6005E0054B1B680B6001E09F
:1094700003680B60884200D0016010BDB429002051
:10948000BC2900202DE9F04104460D4616461F4632
:109490004FF0000865602461B5420CD8F01BA1694B
:1094A000884202D34FF0010811E0211D09480068ED
:1094B00001F0BAF90BE0BE4204D2BD4202D34FF034
:1094C000010804E0211D0448006801F0ADF94046A0
:1094D000BDE8F081102A00200C2A002070B5054656
:1094E00001F0D2F9A86B08B9012400E0002401F0D2
:1094F000D7F9204670BD70B5054601F0C5F9A86BD7
:10950000E96B884201D1012400E0002401F0C8F990
:10951000204670BDF8B505460E4610480068C06884
:10952000C468201D01F054F9E069012812D1A06936
:1095300041192B4632462046FFF7A4FF012809D1E6
:10954000002003462A4601460090204602F030FBE8
:10955000074600BF2046616A8847F8BD0C2A0020F4
:10956000F0B587B057E00398002805DA04AED6E9D5
:109570000020B168904700BF039800284BDB059C92
:10958000606908B9012000E0002010B9201D01F039
:109590001FF902A800F0A2F8054603980A2838D25D
:1095A000DFE800F00905072628330608272900BF51
:1095B00000BF00BF00BF0498A269811803462A4675
:1095C0002046FFF75FFF012811D12046616A8847D6
:1095D000E06901280BD1002000900498A16942188D
:1095E00000231946204602F0E3FA074600BF11E0C7
:1095F00000BF0FE000BF0498A061A06941192B468D
:109600002A462046FFF73EFF04E0204601F058F9C5
:1096100000E000BF00BF00231A4603A9034800680A
:1096200001F0A4FD00289ED107B0F0BD142A00204F
:10963000F8B504460E4601F0E7FC684600F04EF827
:109640000546009840BB46B9AC4206D802F0EAF99C
:1096500029462046FFF75EFF20E0611B10480068A6
:1096600001F074FA02F0DEF9C0B900BF4FF080508B
:109670000C49086040BF00BF00BF00BFBFF34F8F61
:1096800000BF00BF00BF00BF00BF00BFBFF36F8FB0
:1096900000BF00BF00BF01E002F0C4F9F8BD000048
:1096A000142A002004ED00E00A490968096809B994
:1096B000012100E0002121B14FF0FF31064A116085
:1096C00006E004490968C968C868034A416811602E
:1096D00070470000D4290020042A002070B50446F9
:1096E00002F08CF8054607480068854204D200F075
:1096F0000BF80120206001E0002020600148056097
:10970000284670BD1C2A00202DE9F84326E01D489C
:109710000068C06805681B480068C068C468201DF0
:1097200001F056F82046616A8847E069012815D1A2
:10973000A0694619AE4207D966602461211D11480F
:10974000006801F071F809E0002003462A4601464E
:109750000090204602F02CFA804600BF09480068BD
:10976000006808B9012000E000200028CFD005489B
:109770000768054800680349086003480760BDE8BA
:10978000F88300000C2A0020102A00202020FAF77D
:1097900019FB00BFFEE7000010B5014600200A4695
:1097A0000B4C5369A34201D1012300E0002373B1A4
:1097B000084C936AA34201D1012300E0002333B98E
:1097C000936A0BB9012300E0002303B1012010BD0F
:1097D0006CAC002044AC002008B500BF6846FFF721
:1097E0002FFD044620460099FFF722FFFFF7B8FE41
:1097F000F4E710B5044601F047F811E0606A08B9D3
:10980000012000E0002038B904F1240002F0C8F87B
:1098100018B101F0FBF900E005E0A06C401EA06467
:10982000A06C0028EADC00BF4FF0FF30A06401F01C
:1098300037F801F029F811E0206908B9012000E0AB
:10984000002050B904F1100002F0AAF808B101F0AC
:10985000DDF9606C401E606400E002E0606C00288E
:10986000EADC00BF4FF0FF30606401F019F810BD72
:109870002DE9F04105464FF0000801F0C5FB2B48EB
:10988000006808B9FFF7F0FC294800682840002864
:1098900047D145B1083505F0070020B105F00700B4
:1098A000C0F108000544002D3BD0224800688542E5
:1098B00037D8214E3046046801E0264624686068A7
:1098C000A84202D220680028F7D1184800688442D4
:1098D00027D0306800F10808206830606068401BBD
:1098E000102807D967196068401B786065603846A2
:1098F000FFF794FD0F4960680968081A0D49086070
:10990000084600680D490968884203D20948006882
:109910000A490860064960680968084360600020D9
:10992000206002F07FF84046BDE8F081BC290020AD
:10993000C8290020C0290020B4290020C429002003
:109940000648006830B10549096801F13C00C96B5F
:10995000491C01600148006870470000D0290020C0
:1099600070B50446264600F08FFF356A00F098FF78
:10997000284670BD08B5001F00230093084B1B68E4
:109980000093009B0360001F0160001F054B0360F4
:1099900014380260001F6FF002030360203808BD16
:1099A00080BC02008D97020002480068810201F12C
:1099B000005070470C0100100246002110E00B48D7
:1099C00000EB810080789378984208D1074830F8FE
:1099D00021001388984202D1054800687047491C4D
:1099E000044800688142EAD30020F7E7A8AC0020D1
:1099F000202A0020282A002070B504460D46204663
:109A0000FFF7DAFF08B1002070BD0A480068062899
:109A10000DD209480749096800EB810021680160FF
:109A200004480068401C034908600020ECE704205B
:109A3000EAE70000282A0020A8AC002070B50546FF
:109A40000C46E07D40B94FF484712846FEF705FCD2
:109A500000BFD5F8180570BD4FF484712846FEF795
:109A6000FCFB00BFD5F81805C0B2627EE1688854DF
:109A7000607E401C607600BFEDE77FB504460D4672
:109A8000164601208DF800008DF8085001966846B2
:109A9000D4E9001290477FBD70B510480078E0B15E
:109AA0000F488ADF044600BF254635B100BF0DA22E
:109AB00080212846FAF7B2FB00BF00BF0120FBF768
:109AC000E3FB044600BF254635B100BF05A2832154
:109AD0002846FAF7A3FB00BF00BF70BD762900201F
:109AE00050BC02002E2E5C2E2E5C2E2E5C6D616909
:109AF0006E2E630070B504462046FAF72DF910B9B2
:109B000042F2010070BD2046002806DA184900F034
:109B10000F02121F895C490902E01649095C4909D4
:109B20000D462846FAF740F910B942F20200E9E77B
:109B30001148806868B160090F4951F8200004F0AD
:109B40001F0201219140084361090B4A42F821009C
:109B50000CE000BF04F01F0101208840610989006A
:109B600001F1E021C1F8000100BF00BF0020C9E7FA
:109B700018ED00E000E400E08CB0002070B5044671
:109B80000D462046FAF7E8F810B942F2010070BD20
:109B90002846FAF709F910B942F20200F7E7204621
:109BA0002946002807DA4A07160E064A00F00F0376
:109BB0001B1FD65403E04A07130E034A135400BF79
:109BC0000020E4E718ED00E000E400E070B5044692
:109BD000FAF7DEF8054614488068D8B90120124922
:109BE000886012480068124908400F490860104810
:109BF0004FF0E021C1F880010C488038D0F8840093
:109C0000094948604FF0FF310848001D01600020FD
:109C1000207001E0012020701DB900BF62B600BFB6
:109C200000BF002070BD00008CB0002080E100E08B
:109C3000FC06FFBD70B50446FAF7B0F805461448B7
:109C40008068D8B90120124988601248006812491A
:109C500008400F49086010484FF0E021C1F880012A
:109C60000C488038D0F88400094948604FF0FF3133
:109C70000848001D01600020207001E001202070D4
:109C80001DB900BF62B600BF00BF002070BD00005C
:109C90008CB0002080E100E0FC06FFBD38B5044632
:109CA0000D4624B1012C0BD0032C26D11EE0002040
:109CB00001218140124A430942F8231000BF1DE0F0
:109CC000002000906846FAF7FDFB0E48007808B9BE
:109CD000FCF72CFF0B48C068401C0A49C8600120F3
:109CE00088709DF80000FAF7F3FB07E007210020D9
:109CF000FCF79EFFFCF74EFF00E000BF00BF38BD41
:109D000080E100E0C0AF0020FEB505460C49684682
:109D1000FEF72FFA0DE06846FEF728FA044626689B
:109D200028466168B04708B91120FEBD6846FEF7B5
:109D300041FA6846FEF71AFA0028ECD100BFF4E7B2
:109D4000D4BE0200FEB505460A496846FEF711FA80
:109D50000AE06846FEF70AFA044626682846616863
:109D6000B0476846FEF726FA6846FEF7FFF9002876
:109D7000EFD1FEBDF0BE02002DE9F04781460E4650
:109D80001546B5B100274FF00A0800BFF1192A4661
:109D90000020F9F75FFD044627442D1B2CB9A8F1DC
:109DA0000108B8F1000F00D101E0002DEED100BF95
:109DB00000BFBDE8F087000038B50A48009069464A
:109DC0000948FAF761FF044600BF25463DB100BFD0
:109DD00006A240F277312846FAF720FA00BF00BF0A
:109DE00038BD0000514B0200382B00202E2E5C2E77
:109DF0002E5C2E2E5C6D61696E2E630070B5FBF7D4
:109E000069F9044600BF25463DB100BF0BA24FF4DF
:109E100018712846FAF702FA00BF00BF32DF044685
:109E200000BF25463DB100BF04A24FF4197128467A
:109E3000FAF7F4F900BF00BF70BD00002E2E5C2EB3
:109E40002E5C2E2E5C6D61696E2E630070B504462B
:109E50000D4614B90020FBF75BFD70BD04460C49AC
:109E60000988042242EA01400AA1FDF7A9FC0F4833
:109E7000006818B120460D490968884706E0FEF7DA
:109E8000B3F84FF0FF31012000F0D4FBF7E70000FA
:109E9000202B0020456E74657220736F66746465B4
:109EA000766963655F7461736B2E0000A42A0020DD
:109EB00070B51620FFF71EFE044600BF254635B1DB
:109EC00000BF04A299212846FAF7A8F900BF00BFF5
:109ED00070BD00002E2E5C2E2E5C2E2E5C2E2E5C75
:109EE0002E2E5C2E2E5C636F6D706F6E656E7473BC
:109EF0005C736F66746465766963655C636F6D6DD2
:109F00006F6E5C6E72665F7364682E6300000000A3
:109F100010B504460120FBF759F910B1022020705A
:109F200008E00020FBF752F910B10B20207001E08F
:109F30000020207010BD0000F0B50446059D260CE1
:109F40005F1C2F40DFF83CC04CF8276003EA050790
:109F50000CEB87004FEA141C07686CF3820707605C
:109F6000076864F3C5070760076862F3891707602D
:109F7000076861F39F270760076827F003077F1CC6
:109F80000760F0BDA4B100202DE9FC47804689465A
:109F900016461C461648876801A92046FBF778FB41
:109FA000C8B1019800F1020A00250AE056F8252000
:109FB00050460AF1010A38400D490C3141F8202081
:109FC0006D1CA542F2D30097224649464046019BAC
:109FD000FFF7B2FF00BF064890F81C0430B100BF85
:109FE00000BFFDF71DFA0028FBD100BFBDE8FC87CC
:109FF00098B100202DE9F04781460C461546984659
:10A00000002608F00100A0B105E0641C761C39466A
:10A010004846FBF785FB2778002FF6D104E06D1E3C
:10A0200020214846FBF77CFBB5421BD9002DF6D119
:10A0300018E01CB12046F9F713FA064604E06D1E3D
:10A0400020214846FBF76CFBB54201D9002DF6D123
:10A0500005E0641C761C39464846FBF761FB27780F
:10A06000002FF6D1BDE8F08770B507211620FFF765
:10A0700085FD044600BF254635B100BF0BA2B821BF
:10A080002846FAF7CBF800BF00BF07211520FFF7DD
:10A0900075FD044600BF254635B100BF03A2BA21B5
:10A0A0002846FAF7BBF800BF00BF70BD2E2E5C2E0D
:10A0B0002E5C2E2E5C2E2E5C2E2E5C2E2E5C636F64
:10A0C0006D706F6E656E74735C736F6674646576C5
:10A0D0006963655C636F6D6D6F6E5C6E72665F73F6
:10A0E00064682E630000000038B5FAF72DF90446C5
:10A0F00000BF25463DB100BF0FA240F223312846E4
:10A10000FAF78CF800BF00BF0F4800230122D102EC
:10A1100000900EA001F00AFD0E4908600846006894
:10A1200000B107E000BF04A24FF44C710420FAF71D
:10A1300075F800BF38BD00002E2E5C2E2E5C2E2E32
:10A140005C6D61696E2E6300D94502004241545432
:10A15000000000008029002070B50446002514B1DD
:10A16000012C06D103E000F07FF8012501E0012574
:10A1700000BF00BF284670BD1FB504460C480068EC
:10A18000A8B900200A4ACDE9012003464FF4007225
:10A1900008A100940390094801F01CFA012806D098
:10A1A00000BF07A272210420FAF738F800BF1FBDD4
:10A1B00088290020746B5F4D61696E0001A2020066
:10A1C0002E2E5C2E2E5C2E2E5C6170705F6D616990
:10A1D0006E5F7461736B2E630000000070470000B7
:10A1E00010B504460023032221460448006801F00C
:10A1F00085FA012800D110BD0020FCE78829002045
:10A200004FF0FF340E490988042242EA01400DA1B3
:10A21000FDF7D6FAFFF7E2FF10E02146012000F03B
:10A2200009FA054606490988042242EA01402A46FD
:10A230000AA1FDF7CFFA2846FFF78EFFEDE70000F1
:10A24000FC2A0020456E7465722022746B5F4D619C
:10A25000696E22207468726561642E00746B5F4DB4
:10A2600061696E3A202575002DE9F047FBF7A6FFDE
:10A2700005462846FFF7FCFA06460027002003E0C3
:10A280000A213154411C88B2A842F9DB002E54D077
:10A2900001F0B4FA804600BFFBF796FF81462A46DC
:10A2A0003146FAF7A1FD04460CB92F4408E0112C01
:10A2B00001D0132C03D1012000F066FC00E008E07F
:10A2C00001F09CFAA0EB0800B0F5205F00D300E09D
:10A2D000E2E700BF0A20B7FBF0F919490988032219
:10A2E00042EA01404A4617A1FDF774FA0A20B7FB7B
:10A2F000F0F94A4619A13046F9F70AFD00BF304689
:10A30000F9F7AEF81FFA80F9FBF75EFF82464A467E
:10A310003146FAF769FD044604B909E0112C01D071
:10A32000132C03D1012000F02FFC00E000E0E6E751
:10A3300000BF304600F0C4FA00BFBDE8F08700005F
:10A34000FC2A00207370656564203D20257520621D
:10A35000797465732F736563000000007370656521
:10A3600064203D2025752062797465732F736563C1
:10A370000A00000070B505460C464FF48E71284661
:10A38000FDF76BFFA18AA068465CA08A401CA082F2
:10A390003046C5F81C0500BF70BD7FB504460D46AC
:10A3A00000208DF800008DF80850A0680190002072
:10A3B000A0756846D4E9001290477FBD2DE9FF41A2
:10A3C00005460C464FF400712846FDF750FF48B390
:10A3D0004FF492712846FDF739FF18B34FF492718C
:10A3E0002846FDF73AFF4FF401712846FDF73CFF80
:10A3F000A07E18B904212846FDF742FF02208DF8FF
:10A4000000002846FDF71CFF0390E17D8DF8081041
:10A41000E06801900020E07520766846D4E90012DB
:10A42000904736E004212846FDF721FF002830D070
:10A430004FF484712846FDF709FF50B321462846A2
:10A44000FFF7FCFAE07D617E884222D1207E70B168
:10A45000E668677E207EE0752069E0600020207657
:10A460006076324639462046FFF707FB11E0A07EB2
:10A4700018B904212846FDF703FF4FF4017128465F
:10A48000FDF7F2FE0020E075617EE2682046FFF7EE
:10A49000F4FA4FF48E712846FDF7D8FE98B1A08AE1
:10A4A000A17D884204DA21462846FFF763FF0AE0CF
:10A4B0004FF48E712846FDF7D0FEA07D18B1A17D26
:10A4C0002046FFF76AFF4FF4A2712846FDF7BEFE53
:10A4D00098B14FF4A2712846FDF7BFFEA07E18B1D7
:10A4E00000212846FDF7CCFEE07D30B10020E0756C
:10A4F000617EE2682046FFF7C0FABDE8FF812DE9E2
:10A50000FF4105460C464FF492712846FDF7C1FE07
:10A51000D8B14FF492712846FDF7C2FE02208DF8A3
:10A5200000002846FDF7AFFE03902846FDF7BFFE6A
:10A53000C1B28DF80810E06801900020E075207627
:10A540006846D4E9001290472FE04FF488712846FE
:10A55000FDF79FFE48B34FF488712846FDF7A0FE33
:10A560002846FDF7A4FEC6B2E07DB0421CD1207E95
:10A5700098B1E7682020D5F800128143C5F8001291
:10A5800000BF207EE0752069E060002020763A461A
:10A5900031462046FFF771FA06E00020E0753146AB
:10A5A0002046E268FFF769FA00BF4FF4A27128461F
:10A5B000FDF76FFE88B14FF4A2712846FDF770FEDB
:10A5C000E07D50B10020E0752846FDF770FEC6B270
:10A5D00031462046E268FFF750FA4FF49071284662
:10A5E000FDF757FE78B14FF490712846FDF758FEFD
:10A5F000A07D40B100BF40F24C504059C6B2314638
:10A600002046FFF7CAFEBDE8FF8110B500BFEFF39B
:10A61000118004462020F9F7DDFB204610BD10B55F
:10A6200000BFEFF3118004462020F9F7D7FB204646
:10A6300010BD00002DE9F04106460C4600F024F95B
:10A6400030480068006C00283CD101202D49096881
:10A6500081F84400B4B32B480068001D00F0B8F83E
:10A6600050B92848006890F82C10012088402649ED
:10A670000968814324480160601C30B921480168A1
:10A68000091D224800F0EAF805E021480068071992
:10A690003846FEF7ADFC00BF4FF080501D49086002
:10A6A00040BF00BF00BF00BFBFF34F8F00BF00BF60
:10A6B00000BF00BF00BF00BFBFF36F8F00BF00BF70
:10A6C00000BF00BF00F0ECF800F0DEF80D480068B5
:10A6D000056C65B126B100200A490968086406E0E6
:10A6E0000849096801F14000096C491E0160002019
:10A6F0000449096881F8440000F0D2F82846BDE812
:10A70000F0810000D0290020EC2900206CAC002052
:10A71000E829002004ED00E02DE9FF4F81B08846D4
:10A7200016461F46DDE90E4B45464FF0010A03E091
:10A73000B5FBF6F50AF1010AB542F9D2574500D941
:10A74000BA460BF0010098B994B10BF00200022850
:10A7500003D117B93020009001E02020009004E0E0
:10A76000641EDDE90010FAF7DBFF0CB1A245F7D358
:10A77000012509E0012F01D97F1E04E0B8FBF5F99E
:10A78000B14500D201E07543F4E700BF00BFB8FB5C
:10A79000F5F909FB15880D4810F809100198FAF72A
:10A7A000BFFFB5FBF6F5002DF1D10BF0010048B16C
:10A7B00044B104E0641E20210198FAF7B1FF0CB106
:10A7C000A245F7D305B0BDE8F08F000090BD0200B0
:10A7D00001460A69D1E901309860D1E90103586066
:10A7E0005068884201D18868506000200861106874
:10A7F000401E10601068704710B50248006800F0F5
:10A8000005FB10BD8429002000F1080141604FF0D4
:10A81000FF31816000F10801C16001610021016028
:10A82000704700210161704710B502460B685C1C3F
:10A830000CB9106907E002F1080000E040684468C4
:10A8400024689C42FAD944684C604C68A1608860D6
:10A8500041600A611468641C146010BD42684A605B
:10A8600093688B60936859609160086103685B1C12
:10A87000036070470348006840F4700001490860B5
:10A880007047000088ED00E010B52020F9F79AFA33
:10A8900002480068401C0149086010BDCC29002016
:10A8A00010B506480068401E044908600846006864
:10A8B00010B90020F9F786FA10BD0000CC2900205D
:10A8C00070B506463546D6B1083D2C460C49606841
:10A8D0000968084098B1206888B909496068096822
:10A8E0008843606000F090FB06496068096808448E
:10A8F000044908602046FEF791FD01F093F870BD11
:10A90000C8290020C029002010B50020FCF75AF902
:10A910001F201849086000BF01211748FDF798F96A
:10A9200008211548FDF797F900211348FDF793F921
:10A9300002201149C1F8440300BF11200F21002853
:10A9400007DA4A07140E0D4A00F00F031B1FD454F8
:10A9500003E04A07130E0A4A135400BF11200121D5
:10A9600081404209920002F1E022C2F8001100BFCA
:10A9700010BD0000081501400010014018ED00E076
:10A9800000E400E02DE9F84F04465E48844200D917
:10A99000044600BF002000906846FFF717F90746FD
:10A9A00000BFB846B8F1000F06D000BF564AF821E4
:10A9B0004046F9F733FC00BF00BF00BF00BF53485B
:10A9C000056800BFFBF726FA00286DD0281920F093
:10A9D0007F4901214E48FDF738F94D4800214A468C
:10A9E00000F5A86343F8212000BF4FF4A071FDF7E4
:10A9F00025F94FF480314648FDF72AF900BF00BF22
:10AA000000BFBFF34F8F00BF00BF00BFA046B8F12B
:10AA100000041DD0FDF758FB80B13EDF074600BFA4
:10AA2000BA46BAF1000F07D000BF374A4FF48E7113
:10AA30005046F9F7F3FB00BF00BF09E000BF20BF9D
:10AA4000344800683449D1F8041108430028F6D08E
:10AA50004FF480312E48FDF7F8F84FF4A0712C48E0
:10AA6000FDF7ECF84FF480712948FDF7E7F8012174
:10AA70002748FDF7EDF800BF244800688246AAEB9E
:10AA8000050020F07F47112001218140214A8032BA
:10AA9000430942F8231000BFA74200D9274617B147
:10AAA000384600F03BFA00BF00271C488068C0B160
:10AAB000BFB9F9F76DF98046184800681649086073
:10AAC000164840684FF0E021C1F804010020134906
:10AAD0008860B8F1000F03D100BF62B600BF00BFAD
:10AAE00000BF002600BF00BF37463FB100BF064A87
:10AAF00040F249113846F9F791FB00BF00BFBDE8AD
:10AB0000F88F0000FDFFFF00F0BF020004150140B8
:10AB10000010014000E200E000E100E08CB0002005
:10AB2000024600200BE0084B53F8303033B9064B97
:10AB300043F8301003EBC0035A6002E0401C0228C7
:10AB4000F1D300BF70470000BCAB002070B50546D4
:10AB50000E462C46FFF798FE606C401C08B900209A
:10AB60006064A06C401C08B90020A064FFF798FE48
:10AB7000A06B20B9314604F1240000F0C7F820464C
:10AB8000FEF737FE70BD000070B504460026DCB14C
:10AB900000F03AFA19480068051919480068001DC4
:10ABA000FFF716FE50B91648006890F82C100120E7
:10ABB0008840144909688143124801602846FEF71D
:10ABC00017FA00F02FFF0646B6B900BF4FF08050CD
:10ABD0000D49086040BF00BF00BF00BFBFF34F8FEB
:10ABE00000BF00BF00BF00BF00BF00BFBFF36F8F3B
:10ABF00000BF00BF00BF00BF70BD0000E8290020FB
:10AC0000D0290020EC29002004ED00E001200149BA
:10AC100008607047F82900202DE9F04105460E46EE
:10AC20002C46FFF7FCFC804694F84470022084F820
:10AC30004400206C401C2064012F26D11548006878
:10AC4000A8B9201DFFF7C4FD94F82C1001208840FE
:10AC500011490968084310490860E16A01EB810164
:10AC60000E4A02EB8100211DFFF7F8FD04E004F11C
:10AC700018010B48FFF7F2FD0A49E06A0968C96A42
:10AC8000884202D90EB1012030604046F9F7A6F89B
:10AC9000BDE8F081082A0020EC290020CCAB002080
:10ACA00044AC0020D029002070B506460C4613485D
:10ACB000016818313046FFF7B7FD10480068001DE5
:10ACC000FFF786FD50B90D48006890F82C10012060
:10ACD00088400B490968814309480160601C30B90C
:10ACE00006480168091D0748FFF7B8FD05E006485A
:10ACF000006805192846FEF77BF970BDD0290020B1
:10AD0000EC2900206CAC0020E829002070B5064634
:10AD10000C460F48016818313046FFF79FFD0C487C
:10AD20000068001DFFF754FD50B90948006890F80D
:10AD30002C100120884007490968814305480160BB
:10AD40000548006805192846FEF752F970BD000055
:10AD5000D0290020EC290020E829002070B5054604
:10AD60002C46002D4BD02649E06A0968C96A884202
:10AD700045D2A06900F0004028B921480068C06AA7
:10AD8000C0F10400A061E16A01EB81011D4A02EB00
:10AD900081016069884201D1012000E0002050B3A8
:10ADA000201DFFF715FD78B9E06A00EB800015491A
:10ADB00051F8200040B994F82C1001208840124925
:10ADC00009688143104801600D480068C06AE0626C
:10ADD00094F82C10012088400B49096808430A495F
:10ADE0000860E16A01EB8101064A02EB8100211D46
:10ADF000FFF734FD03E002480068C06AE06270BDFE
:10AE0000D0290020CCAB0020EC29002070B50546ED
:10AE10002C46002C3ED02048006884423AD0FFF7F0
:10AE200033FD2046FEF7B8FC012831D1201DFFF785
:10AE3000CFFC94F82C100120884018490968084379
:10AE400016490860E16A01EB8101154A02EB8100B5
:10AE5000211DFFF703FD1049E06A0968C96A8842AD
:10AE600016D300BF4FF080500E49086040BF00BFAE
:10AE700000BF00BFBFF34F8F00BF00BF00BF00BFC8
:10AE800000BF00BFBFF36F8F00BF00BF00BF00BF98
:10AE9000FFF706FD70BD0000D0290020EC2900203E
:10AEA000CCAB002004ED00E00349096801600349D0
:10AEB0000968416070470000FC290020E829002053
:10AEC0001FB500200F4ACDE9000202900346802200
:10AED0000DA103900E4800F07DFB0446012C02D129
:10AEE00000F044FE0446012C0AD12020F8F776FF3A
:10AEF00001200849086000200749086000F0DCF8DC
:10AF00001FBD0000E029002049444C45000000001E
:10AF1000E5920200F0290020E82900200249096892
:10AF20000144014A11607047E829002070B50546C8
:10AF3000FFF7AAFC15B92D48006800E02846044632
:10AF4000201DFFF745FC78B9E06A00EB8000284936
:10AF500051F8200040B994F82C1001208840254970
:10AF60000968814323480160A06A18B104F1180000
:10AF7000FFF72EFC211D2048FFF770FCFFF790FC27
:10AF80001A480068844226D11C480068B0B100BF4E
:10AF90004FF080501A49086040BF00BF00BF00BF9B
:10AFA000BFF34F8F00BF00BF00BF00BF00BF00BF97
:10AFB000BFF36F8F00BF00BF00BF15E00E480068F1
:10AFC00010490968884203D10020084908600BE055
:10AFD00000F022F808E00948006828B1FFF754FCA7
:10AFE000FEF762FBFFF75CFC70BD0000D02900207B
:10AFF000CCAB0020EC2900206CAC0020F029002014
:10B0000004ED00E0E429002002480068401C0149EA
:10B0100008607047082A00201248006818B1012013
:10B02000114908601DE000200F4908600F480068C2
:10B03000B0FA80F0C0F11F0101EB81020C4B03EB71
:10B04000820042685268426000F1080243689342FD
:10B0500002D14268526842604268D268054B1A6069
:10B0600000BF7047082A0020F8290020EC290020A2
:10B07000CCAB0020D029002008B500200090684605
:10B0800033DF009834DF05490988032242EA014092
:10B0900003A1009AFCF79EFB08BD0000FC2A0020DB
:10B0A00072657365745F726561736F6E203D2030E9
:10B0B00078253032580000006FF001000F21002881
:10B0C00007DA4A07140E124A00F00F031B1FD4546C
:10B0D00003E04A07130E0F4A135400BFFFF714FC96
:10B0E00000200D490860FFF7C5FB0C48006840F0E0
:10B0F00040400A49086006480838006840F01000DF
:10B10000034908390860F8F795F8FEF73FFB00009F
:10B1100018ED00E000E400E0CC29002034EF00E06E
:10B120002DE9F04707460D4692464FF000090DB94C
:10B13000C84603E007FB05F000F1010808F14C00E8
:10B14000FEF796FB06466EB134460DB9246002E068
:10B1500006F14C002060E76325640121204600F0E1
:10B16000D5F8A1464846BDE8F08700002DE9FF4329
:10B1700083B0054688461E464FF000092C4600BFA6
:10B18000FFF782FBA06B002859D0E76841462046B4
:10B19000FDF7DEFF56BBA06B401EA063206810B910
:10B1A000FEF7CEFB6060206908B9012000E00020B6
:10B1B00000283ED104F1100000F0F2FB012838D144
:10B1C00000BF00075049086040BF00BF00BF00BF7C
:10B1D000BFF34F8F00BF00BF00BF00BF00BF00BF65
:10B1E000BFF36F8F00BF00BF00BF22E0E760606A5F
:10B1F00008B9012000E00020D8B904F1240000F0D3
:10B20000CFFBB0B100BF4FF080503F49086040BF56
:10B2100000BF00BF00BFBFF34F8F00BF00BF00BF24
:10B2200000BF00BF00BFBFF36F8F00BF00BF00BFF4
:10B2300000BFFFF735FB012007B0BDE8F08305989C
:10B2400018B9FFF72DFB0020F6E7B9F1000F04D184
:10B2500001A8FFF729FE4FF00109FFF721FBFFF7D7
:10B26000D3FEFFF711FB606C401C08B9002060643E
:10B27000A06C401C08B90020A064FFF711FB05A9D1
:10B2800001A800F079F980BB2046FEF727F968B3E2
:10B29000206830B9FFF7F8FA6068FFF75FFDFFF745
:10B2A000FFFA04F124000599FFF7FEFC2046FEF7A3
:10B2B000A0FA00F0B7FB00287FF462AF00BF4FF0A8
:10B2C00080501149086040BF00BF00BF00BFBFF3FE
:10B2D0004F8F00BF00BF00BF00BF00BF00BFBFF364
:10B2E0006F8F00BF00BF00BF4AE706E0FFE72046C0
:10B2F000FEF77FFA00F096FB42E72046FEF779FA68
:10B3000000F090FB002097E704ED00E070B50546E3
:10B310000E462C46FFF7B8FAD4E90F12206801FB5D
:10B32000020060600020A0632068A060E06B401E07
:10B33000226C216800FB0210E0604FF0FF30606477
:10B34000A0640EBB206908B9012000E0002018BBF2
:10B3500004F1100000F024FB01281DD100BF0007FC
:10B360000F49086040BF00BF00BF00BFBFF34F8F51
:10B3700000BF00BF00BF00BF00BF00BFBFF36F8FA3
:10B3800000BF00BF00BF07E004F11000FFF73CFA68
:10B3900004F12400FFF738FAFFF782FA012070BDAC
:10B3A00004ED00E02DE9FF4383B0074688461D46C3
:10B3B0004FF000093C4600BFFFF766FAA06BE16B57
:10B3C000884201D3022D45D12A4641462046FDF749
:10B3D000D4FE0646606A08B9012000E00020D8B912
:10B3E00004F1240000F0DCFA01282DD100BF000791
:10B3F0004549086040BF00BF00BF00BFBFF34F8F8B
:10B4000000BF00BF00BF00BF00BF00BFBFF36F8F12
:10B4100000BF00BF00BF17E0B6B100BF4FF08050C3
:10B420003949086040BF00BF00BF00BFBFF34F8F66
:10B4300000BF00BF00BF00BF00BF00BFBFF36F8FE2
:10B4400000BF00BF00BF00BFFFF72AFA012007B00E
:10B45000BDE8F083059818B9FFF722FA0020F6E757
:10B46000B9F1000F04D101A8FFF71EFD4FF001094B
:10B47000FFF716FAFFF7C8FDFFF706FA606C401CED
:10B4800008B900206064A06C401C08B90020A064CA
:10B49000FFF706FA05A901A800F06EF868BB204680
:10B4A000FEF729F818B304F110000599FFF7FCFB2B
:10B4B0002046FEF79EF900F0B5FA00287FF47CAF35
:10B4C00000BF4FF080501049086040BF00BF00BF70
:10B4D00000BFBFF34F8F00BF00BF00BF00BF00BF62
:10B4E00000BFBFF36F8F00BF00BF00BF64E72046FF
:10B4F000FEF77FF900F096FA5EE72046FEF779F94D
:10B5000000F090FA0020A2E704ED00E02DE9F047FA
:10B510000546894616461F462C46FFF776F88246B2
:10B52000A06BE16B884201D3022F1CD13A464946F9
:10B530002046FDF722FEA06C401C70B9606A08B975
:10B54000012000E0002058B904F1240000F028FA9E
:10B5500030B12EB10120306002E0A06C401CA0642C
:10B560004FF0010801E04FF000085046F8F732FCB8
:10B570004046BDE8F087000070B504460D46FFF771
:10B5800083F9124802682868401C08B9002619E0AF
:10B590000F4920680968884204D06068904201D849
:10B5A00001260FE06068101A2968884209D22868CD
:10B5B0006168511A401A28602046FFF775FC002682
:10B5C00000E00126FFF76CF9304670BDE829002045
:10B5D000FC2900202DE9FF4F81B080461546994691
:10B5E000DDE90E7A28461099FDF72CFD0446002C63
:10B5F0004FD0681E216B01EB800B2BF0070B0095E1
:10B600003A462046119B0299FDF7A2FE4A46414662
:10B610005846FEF7AFF92060BAF1000F01D0CAF822
:10B620000040FFF731F92E480068401C2C490860A3
:10B630002C48006840B92B4804600846006801287F
:10B640000CD1FDF7B7FE09E02748006830B925485E
:10B650000068C06AB84201D82248046023480068E4
:10B66000401C2249086094F82C1001208840204991
:10B67000096808431E490860E16A01EB81011D4A1F
:10B6800002EB8100211DFFF7E9F80126FFF708F919
:10B6900001E04FF0FF36012E1DD113480068D0B1F4
:10B6A00010480068C06AB84215D200BF300712497E
:10B6B000086040BF00BF00BF00BFBFF34F8F00BF97
:10B6C00000BF00BF00BF00BF00BFBFF36F8F00BF50
:10B6D00000BF00BF00BF304605B0BDE8F08F0000DE
:10B6E000E4290020D0290020F0290020002A002091
:10B6F000EC290020CCAB002004ED00E02DE9F04760
:10B7000081460D4616461F464FF0010A4C46FFF78C
:10B71000BBF80FB1206C386094F84480022084F8A4
:10B720004400052E17D2DFE806F01503070B0D00C5
:10B73000206C284320640EE0206C401C20640AE04A
:10B74000256408E0B8F1020F01D0256401E04FF054
:10B75000000A00E000BF00BFB8F1010F31D1201D89
:10B76000FFF736F894F82C10012088401749096833
:10B77000084316490860E16A01EB8101144A02EBB3
:10B780008100211DFFF76AF81249E06A0968C96A59
:10B79000884216D900BF4FF080500F49086040BF63
:10B7A00000BF00BF00BFBFF34F8F00BF00BF00BF8F
:10B7B00000BF00BF00BFBFF36F8F00BF00BF00BF5F
:10B7C00000BFFFF76DF85046BDE8F087EC29002078
:10B7D000CCAB0020D029002004ED00E00549096829
:10B7E00009B9012005E00449096809B9022000E00F
:10B7F00000207047F0290020082A0020014908682D
:10B8000070470000E82900200021014A10687047B5
:10B81000E82900202DE9F04100273548006800287C
:10B820005AD134480068401C32490860084606680E
:10B830008EB93148D0F80080304800682E49086041
:10B840002E48C0F800802E480068401C2C49086033
:10B85000FDF72AFF00BF2B48006886423BD300BF9C
:10B8600025480068006808B9012000E0002020B1E8
:10B870004FF0FF30234908602CE01F480068C06883
:10B88000C4686568AE4202D21E48056022E0201DF1
:10B89000FEF79EFFA06A18B104F11800FEF798FFAA
:10B8A00094F82C100120884017490968084316496C
:10B8B0000860E16A01EB8101144A02EB8100211D5D
:10B8C000FEF7CCFF1249E06A0968C96A8842C7D30B
:10B8D0000127C5E700BF04E00E480068401C0D4981
:10B8E00008600D48006800B101273846BDE8F081C6
:10B8F000082A0020E8290020D4290020D829002087
:10B90000FC290020042A0020EC290020CCAB0020D8
:10B91000D0290020F4290020F829002070B5054620
:10B920002C460026ADB3E06B401EE063A16BE06ADD
:10B9300088422ED0E06B60BB201DFEF749FF78B92E
:10B94000E06A00EB8000144951F8200040B994F8F7
:10B950002C10012088401149096881430F4801607B
:10B96000A06BE062E06AC0F10400A06194F82C10C2
:10B970000120884009490968084308490860E16ACC
:10B9800001EB8101044A02EB8100211DFEF766FFF5
:10B990000126304670BD0000CCAB0020EC29002011
:10B9A00070B50646F068C46804F11800FEF710FF91
:10B9B00016480068A8B9201DFEF70AFF94F82C105D
:10B9C0000120884012490968084311490860E16A6A
:10B9D00001EB81010F4A02EB8100211DFEF73EFFC2
:10B9E00004E004F118010C48FEF738FF0B49E06A47
:10B9F0000968C96A884204D90125012008490860FC
:10BA000000E00025FDF750FE284670BD082A002002
:10BA1000EC290020CCAB002044AC0020D029002031
:10BA2000F829002070B50025FEF72EFF3648006883
:10BA3000401E354908600846006800285FD1334839
:10BA4000006800285BD024E03148C068C46804F175
:10BA50001800FEF7BDFE201DFEF7BAFE94F82C106C
:10BA6000012088402B49096808432A490860E16A97
:10BA700001EB8101284A02EB8100211DFEF7EEFE59
:10BA80002649E06A0968C96A884202D3012024492C
:10BA900008601F48006808B9012000E00020002865
:10BAA000D2D02048006878B10AE0FFF7B3FE10B1A9
:10BAB00001201B4908601B480068401E19490860A6
:10BAC000184800680028F0D115480068012816D1F0
:10BAD000012500BF00071449086040BF00BF00BF38
:10BAE00000BFBFF34F8F00BF00BF00BF00BF00BF4C
:10BAF00000BFBFF36F8F00BF00BF00BF00BFFEF7E6
:10BB0000CFFE284670BD0000082A0020E42900204E
:10BB100044AC0020EC290020CCAB0020D029002030
:10BB2000F8290020F429002004ED00E02DE9F04779
:10BB300006460D4617469846DDF820900DB90024BC
:10BB400010E02820FDF794FE04465CB1FDF79CFA56
:10BB50002660A561E761C4F82080C4F82490201D08
:10BB6000FEF75FFE2046BDE8F08700001FB5002409
:10BB7000FDF78AFA0948006868B10020084A0223E4
:10BB8000CDE90120009303900346942205A10748C4
:10BB9000FFF720FD0446204604B010BD142A002003
:10BBA000182A0020546D722053766300D997020042
:10BBB0002DE9FF4705460C4616461F46DDF8308046
:10BBC0004FF000091448006810B3009401960295E4
:10BBD000062C15DAFFF702FE022808D100234246A0
:10BBE00069460D480068FFF7DDFB814610E0002341
:10BBF0001A46694608480068FFF7D4FB814607E00B
:10BC000000233A46694604480068FFF77FFC8146F6
:10BC1000484604B0BDE8F087142A002070B50446F9
:10BC20002646FEF731FE706908B9012000E00020C9
:10BC300080F00105FEF734FE284670BD506C617936
:10BC40006D61746541697200060078000000900122
:10BC50000100A00050000000010002000202110DCE
:10BC6000000000005C2B00207C2B00209C2B00207F
:10BC70000D00030009510200000000000000000058
:10BC800000000001010000000000000000000000B2
:10BC900000000000000000000000000000000000A4
:10BCA0000000000000000000000000000000000094
:10BCB0000000000000000000000000000000000084
:10BCC0000000000000000000000000000000000074
:10BCD0000000000000000000000000000000000064
:10BCE0000000000000000000000000000000000054
:10BCF0000000000000000000000000000000000044
:10BD0000770A000000000000770A00000000000031
:10BD10007ADA0000000000009ECADC240EE5A9E0EB
:10BD200093F3A3B50000406E010100000000020083
:10BD30000000000002010000000000000000000000
:10BD4000000000506E72665F6472765F6770696FA4
:10BD500074655F696E6974006E72665F6472765FA7
:10BD60006770696F74655F6F75745F696E69740081
:10BD70006E72665F6472765F6770696F74655F6923
:10BD80006E5F696E697400004CB000200300000013
:10BD90003031323334353637383941424344454601
:10BDA000556E6B6E6F776E206572726F7220636F67
:10BDB000646500000000000084C50200010000006E
:10BDC00044C4020002000000C4C2020003000000DC
:10BDD000B8C40200040000000CC502000500000009
:10BDE00004C4020006000000A4C302000700000013
:10BDF000F4C402000800000018C40200090000009A
:10BE000064C402000A0000006CC502000B000000C0
:10BE1000ACC202000C00000030C402000D000000A3
:10BE200090C502000E000000E4C402000F000000F4
:10BE300020C502001000000054C5020011000000DF
:10BE4000A4C5020080000000E4C3020081000000DD
:10BE500068C302008200000028C3020083000000C3
:10BE600008C302008400000044C3020085000000F3
:10BE7000BCC3020086000000CCC402009000000099
:10BE800084C3020091000000E8C2020000820000AA
:10BE900034C502000182000080C40200028200005A
:10BEA0009CC40200A5720200A372020099720200F3
:10BEB000582A0020502A0020582A0020D8B00020FC
:10BEC000180000000000000000000000000000005A
:10BED00000000000C4BE0200D4BE02000800000042
:10BEE00074C902007CC902000000000000000000CC
:10BEF000E0BE0200F0BE02000800000064C90200BB
:10BF000074C902000000000000000000FCBE020036
:10BF10000CBF020008000000020000070000000043
:10BF20000000000034C902004CC902004CC90200E4
:10BF300054C9020054C902005CC902001CBF0200BF
:10BF40003CBF020008000000A82600205CC90200D7
:10BF500064C9020000000000000000004CBF0200A5
:10BF60005CBF0200080000000040404040404040EC
:10BF700040404141414141404040404040404040BC
:10BF80004040404040404040400502020202020260
:10BF900002020202020202020220202020202020AF
:10BFA00020202002020202020202909090909090C3
:10BFB0001010101010101010101010101010101081
:10BFC00010101010020202020202888888888888F5
:10BFD00008080808080808080808080808080808E1
:10BFE00008080808020202024000000069BF0200BF
:10BFF0002E2E5C2E2E5C2E2E5C2E2E5C2E2E5C2E7B
:10C000002E5C65787465726E616C5C6672656572D3
:10C01000746F735C706F727461626C655C434D53D6
:10C0200049535C6E726635325C706F72745F636D1B
:10C030007369735F7379737469636B2E63000000B7
:10C04000446973636F76657279206F6620736572D9
:10C0500076696365207769746820555549442030B6
:10C0600078257820636F6D706C65746564207769DE
:10C0700074682073756363657373206F6E20636FDC
:10C080006E6E656374696F6E2068616E646C6520A6
:10C09000307825782E0000005374617274696E67E1
:10C0A00020646973636F76657279206F66207365AB
:10C0B0007276696365207769746820555549442014
:10C0C00030782578206F6E20636F6E6E65637469BB
:10C0D0006F6E2068616E646C6520307825782E0064
:10C0E00052657175657374696E6720746F20757021
:10C0F0006461746520415454204D545520746F2060
:10C100002575206279746573206F6E20636F6E6E83
:10C11000656374696F6E20307825782028726574A5
:10C120007279292E0000000073645F626C655F679E
:10C13000617474635F65786368616E67655F6D7471
:10C14000755F7265717565737428292072657475E1
:10C15000726E656420756E657870656374656420C1
:10C1600076616C756520307825782E0073645F6287
:10C170006C655F67617474735F65786368616E672F
:10C18000655F6D74755F7265706C792829207265C2
:10C190007475726E656420756E657870656374651C
:10C1A000642076616C756520307825782E0000005B
:10C1B00073645F626C655F6761705F646174615F27
:10C1C0006C656E6774685F7570646174652829209A
:10C1D000287265706C79292072657475726E656459
:10C1E00020756E65787065637465642076616C7522
:10C1F0006520307825782E0073645F626C655F6718
:10C2000061705F646174615F6C656E6774685F75AF
:10C21000706461746528292028726571756573746E
:10C2200029206F6E20636F6E6E656374696F6E2078
:10C23000307825782072657475726E656420756E2D
:10C2400065787065637465642076616C756520300F
:10C250007825782E0000000073645F626C655F676C
:10C26000617474635F65786368616E67655F6D7440
:10C27000755F726571756573742829206F6E206310
:10C280006F6E6E656374696F6E20307825782072EA
:10C29000657475726E656420627573792C20776998
:10C2A0006C6C2072657472792E0000004E52465FED
:10C2B0004552524F525F494E56414C49445F4441AA
:10C2C000544100004E52465F4552524F525F534F09
:10C2D00046544445564943455F4E4F545F454E4191
:10C2E000424C4544000000004E52465F4552524FBA
:10C2F000525F464541545552455F4E4F545F454E3F
:10C3000041424C45440000004E52465F4552524F58
:10C31000525F4D555445585F554E4C4F434B5F4609
:10C3200041494C45440000004E52465F4552524F31
:10C33000525F4D555445585F4C4F434B5F46414902
:10C340004C4544004E52465F4552524F525F4D5548
:10C350005445585F434F4E445F494E49545F4641F0
:10C36000494C4544000000004E52465F4552524F32
:10C37000525F4D555445585F494E49545F464149B7
:10C380004C4544004E52465F4552524F525F415019
:10C39000495F4E4F545F494D504C454D454E5445B5
:10C3A000440000004E52465F4552524F525F4E4F7E
:10C3B000545F535550504F52544544004E52465FBF
:10C3C0004552524F525F4D4F44554C455F414C5280
:10C3D000454144595F494E495449414C495A4544A5
:10C3E000000000004E52465F4552524F525F4D4F83
:10C3F00044554C455F4E4F545F494E495449414C5A
:10C400005A4544004E52465F4552524F525F4E4F7E
:10C41000545F464F554E44004E52465F4552524F70
:10C42000525F494E56414C49445F53544154450074
:10C430004E52465F4552524F525F444154415F5302
:10C44000495A45004E52465F4552524F525F53562D
:10C45000435F48414E444C45525F4D495353494E0A
:10C46000470000004E52465F4552524F525F494EC0
:10C4700056414C49445F4C454E475448000000002B
:10C480004E52465F4552524F525F4452565F545788
:10C49000495F4552525F414E41434B004E52465F09
:10C4A0004552524F525F4452565F5457495F45526E
:10C4B000525F444E41434B004E52465F4552524FED
:10C4C000525F494E5445524E414C00004E52465F19
:10C4D0004552524F525F53544F524147455F465564
:10C4E0004C4C00004E52465F4552524F525F4E55E3
:10C4F0004C4C00004E52465F4552524F525F494EDF
:10C5000056414C49445F504152414D004E52465FA6
:10C510004552524F525F4E4F5F4D454D0000000057
:10C520004E52465F4552524F525F464F5242494427
:10C5300044454E004E52465F4552524F525F445260
:10C54000565F5457495F4552525F4F5645525255B8
:10C550004E0000004E52465F4552524F525F494EC8
:10C5600056414C49445F4144445200004E52465F9C
:10C570004552524F525F494E56414C49445F464CDA
:10C58000414753004E52465F535543434553530072
:10C590004E52465F4552524F525F54494D454F559A
:10C5A000540000004E52465F4552524F525F425572
:10C5B000535900004F766572666C6F77000000007B
:10C5C0007761726E696E670064656275670000006E
:10C5D0001B5B313B33306D001B5B306D0000000096
:10C5E0001B5B313B33316D001B5B313B33326D00E4
:10C5F0001B5B313B33336D001B5B313B33346D00D0
:10C600001B5B313B33356D001B5B313B33366D00BB
:10C610001B5B313B33376D00696E666F00000000B5
:10C620006572726F7200000073645F626C655F63B5
:10C6300066675F73657428292072657475726E650C
:10C6400064202573207768656E20617474656D7051
:10C6500074696E6720746F2073657420424C455F67
:10C6600047415454535F4346475F534552564943ED
:10C67000455F4348414E4745442E000073645F6266
:10C680006C655F6366675F736574282920726574E3
:10C6900075726E6564202573207768656E206174FD
:10C6A00074656D7074696E6720746F207365742093
:10C6B000424C455F434F4D4D4F4E5F4346475F569B
:10C6C000535F555549442E0073645F626C655F6328
:10C6D00066675F73657428292072657475726E656C
:10C6E00064202573207768656E20617474656D70B1
:10C6F00074696E6720746F2073657420424C455FC7
:10C7000047415454535F4346475F415454525F542A
:10C7100041425F53495A452E0000000073645F6236
:10C720006C655F6366675F73657428292072657442
:10C7300075726E6564202573207768656E2061745C
:10C7400074656D7074696E6720746F2073657420F2
:10C75000424C455F434F4E4E5F4346475F47415013
:10C760002E00000073645F626C655F6366675F73D1
:10C77000657428292072657475726E65642025734E
:10C78000207768656E20617474656D7074696E677A
:10C7900020746F2073657420424C455F4741505FA1
:10C7A0004346475F524F4C455F434F554E542E0012
:10C7B00073645F626C655F6366675F736574282985
:10C7C0002072657475726E656420257320776865C4
:10C7D0006E20617474656D7074696E6720746F206B
:10C7E00073657420424C455F434F4E4E5F4346474E
:10C7F0005F474154542E00002E2E5C2E2E5C2E2EB0
:10C800005C2E2E5C2E2E5C2E2E5C636F6D706F6E18
:10C81000656E74735C736F66746465766963655C7A
:10C82000636F6D6D6F6E5C6E72665F7364685F667A
:10C8300072656572746F732E63000000626C655FD1
:10C8400064625F6469736300626C655F67617474DE
:10C8500000000000626C655F6E757300636C6F634F
:10C860006B0000006770696F746500007561727419
:10C870000000000062616C6C6F630000617070000A
:10C880006E72665F736468006E72665F7364685F81
:10C89000626C65006E72665F7364685F6672656580
:10C8A00072746F73000000006E72665F7364685F7D
:10C8B000736F63007CC90200A8260020900400006A
:10C8C000EC340200C8C90200382B00200895000093
:10C8D000483D02003CC802000000040048C80200B5
:10C8E0000000040054C80200000004005CC80200FC
:10C8F0000000000064C80200000000006CC80200D4
:10C900000000000074C80200000000007CC80200A3
:10C910000000040080C802000000030088C8020074
:10C920000000030094C8020000000400A8C8020030
:10C9300000000300F5690200482B00204946020070
:10C94000A8260020D94A020000000000ED4C020099
:10C95000382B002025470200000000004D9E0200F9
:10C9600000000000D17E020000000000D58002001F
:10C97000000000009D9C02000000000001FF01FF7C
:10C9800001CC14FFFF14023A010C5090D003920323
:10C990003CFFFF0419A4BE024BB4C51C1420C60200
:10C9A0001AC00C1A18081AC8081AD8041AD0041A7F
:10C9B000E0041AE8041AF0042AF82C19201A0804D2
:08C9C0001A1004019C000000A4
:0400000500023201C2
:00000001FF
