:020000040002F8
:1030000088A60020B1320200B9320200BB320200B1
:10301000BD320200BF320200C132020000000000D7
:10302000000000000000000000000000C3320200A9
:10303000C532020000000000C7320200C93202009F
:103040005D3C0200CB320200ED3F0200CB320200B9
:10305000CB320200CB3202004D3A0200CB320200EA
:10306000CB320200CB320200CB320200CB32020064
:10307000CB320200CB320200CB320200CB32020054
:1030800009400200B53C0200CB320200CB32020004
:10309000CD3C0200CB320200D13C0200CB32020018
:1030A000CB320200CB320200CB320200CB32020024
:1030B000CB320200CB320200000000000000000012
:1030C000CB320200CB320200CB320200CB32020004
:1030D000CB320200CB320200CB32020000000000F3
:1030E00000000000000000000000000000000000E0
:1030F00000000000000000000000000000000000D0
:1031000000000000000000000000000000000000BF
:1031100000000000000000000000000000000000AF
:10312000000000000000000000000000000000009F
:10313000000000000000000000000000000000008F
:10314000000000000000000000000000000000007F
:10315000000000000000000000000000000000006F
:10316000000000000000000000000000000000005F
:10317000000000000000000000000000000000004F
:10318000000000000000000000000000000000003F
:10319000000000000000000000000000000000002F
:1031A000000000000000000000000000000000001F
:1031B000000000000000000000000000000000000F
:1031C00000000000000000000000000000000000FF
:1031D00000000000000000000000000000000000EF
:1031E00000000000000000000000000000000000DF
:1031F00000000000000000000000000000000000CF
:10320000DFF80CD000F042FA00480047A16302004A
:1032100088A6002030B4044654E8000F0D4644E868
:103220000053002BF8D1156030BC704730B4044611
:1032300054E8000F40EA010544E80053002BF7D1A1
:10324000156030BC704730B4044654E8000F00EA03
:10325000010544E80053002BF7D1156030BC7047DE
:1032600030B4044654E8000F80EA010544E80053F6
:10327000002BF7D1156030BC704730B4044654E8D9
:10328000000F00EB010544E80053002BF7D1156057
:1032900030BC704730B4044654E8000FA0EB010581
:1032A00044E80053002BF7D1156030BC7047000094
:1032B0000648804706480047FEE7FEE7FEE7FEE7D0
:1032C000FEE7FEE7FEE7FEE7FEE7FEE7F13C020071
:1032D000013202002DE9F05F0546002092469B4630
:1032E00088460646814640241BE02846414647461C
:1032F000224600F072F953465A46C01A914110D343
:1033000011461846224600F059F92D1A67EB0108BC
:103310004F4622460120002100F050F917EB00092A
:103320004E41201EA4F10104DFDC484631462A4606
:103330004346BDE8F09F40EA01039B0703D009E044
:1033400008C9121F08C0042AFAD203E011F8013B91
:1033500000F8013B521EF9D27047D2B201E000F8EA
:10336000012B491EFBD270470022F6E710B5134629
:103370000A4604461946FFF7F0FF204610BD421CDE
:1033800010F8011B0029FBD1801A704710B50022EC
:1033900000E0521C835C8C5CA34201D1002BF8D16D
:1033A000D8B2E1B2401A10BD30B504460020034641
:1033B00000E05B1C934203D2E05CCD5C401BF8D084
:1033C00030BD000070B500B91068002512E00B4652
:1033D00002E0A64203D05B1C1C78002CF9D1E3B2BA
:1033E0002B4305D02CB125B1002100F8011B04E0CE
:1033F0000546401C0678002EE9D11060284670BDB5
:10340000004ADFE7707800202DE9F0410E460546BE
:10341000002400E0641C285D00F0EFF80746305DF2
:1034200000F0EBF8381A02D1295D0029F2D1BDE88D
:10343000F08100000FB400B58DB010A909900B9079
:1034400000914FF0FF300A9000200C900548069044
:10345000054807906A4609A80F9900F0E9F80DB0F1
:103460005DF814FB4D3602006B3602002DE9FF5F5C
:103470001D464FF0FF3BD5E9014691465F464FF0B0
:103480000008A9697F1C01988847296A82468847F5
:103490000028F6D11AF101000CD024F4C064002EEB
:1034A00019DD600614D5BAF12B0F09D0BAF12D0F32
:1034B0000ED103E0584604B0BDE8F09F44F48064A8
:1034C000A9697F1C01988847761E8246002E02DD7E
:1034D000BAF1300F03D0B9F1000F26D032E0761EDA
:1034E000A96944F400747F1C019888478246002E25
:1034F00005DDBAF1780F06D0BAF1580F03D0B9F153
:10350000000F10D01EE0B9F1000F02D0B9F1100F7A
:1035100018D1761EA96924F400747F1C019888478D
:103520008246102002E0082000E00A20814609E0DF
:1035300008FB0908761EA96944F400747F1C0198F1
:1035400088478246002E05DD4946504600F05BF86C
:103550000028EDDAE96901988847A00502D46FF0E8
:103560000100A8E7E00727D1600614D5600502D561
:10357000C8F1000000E04046296801F104022A6019
:103580000968220501D5087016E0220701D50880D8
:1035900012E0086010E0286800F10401296000686A
:1035A000210502D580F8008006E0210702D5A0F8A9
:1035B000008001E0C0F8008038467CE7202A04DB68
:1035C000203A00FA02F1002070479140C2F1200336
:1035D00020FA03F3194390407047202A04DB203A75
:1035E00021FA02F00021704721FA02F3D040C2F123
:1035F00020029140084319467047A0F14101192962
:1036000000D8203070473A2800D2303820F020020D
:10361000412A01D3A2F13700884201D34FF0FF3095
:103620007047000002681144137801601846704723
:10363000D1600449516104491162002111611146B0
:1036400000F03CB825360200B1360200426842B1B3
:10365000016811F8013B23B1521EC0E9001218465F
:1036600070470121C160881E704742685AB1C36823
:10367000016843B983688B4205D0491E521CC0E9DA
:103680000012002070474FF0FF307047064C074D86
:1036900006E0E06840F0010394E807009847103422
:1036A000AC42F6D3FFF7B0FDD8850200F8850200E2
:1036B000C0B24FF4F05100F097B900002DE9F34F7C
:1036C0008BB04FF0000801F10C000C464FF0010BDD
:1036D00046460DF1080A0190626901210198904760
:1036E00005002DD0252D2CD0216A8847C0B16269F4
:1036F000012101989047216A88470028F7D1411E8F
:1037000062690198904700E0761CA1690B98884790
:10371000216A88470028F7D1E1690B988847DBE7E1
:10372000A1690B9888470746A84201D1761CD3E7C8
:10373000E1690B9888477F1C02D1B8F1000F6FD068
:1037400045E1002762693D463946019890472A289D
:1037500004D162690121019890470125DFF8849224
:103760006269012101989047A0F130010A290AD22B
:103770004F45E5DC07EB870100EB4107303FDFD425
:1037800045F01005ECE7E90601D46FF000476C281E
:103790000AD04C2814D0682815D06A280DD0742877
:1037A0001CD07A281AD01DE0626901210198904747
:1037B0006C2802D045F0040514E045F002050DE048
:1037C00045F020050AE062690121019890476828C8
:1037D00002D045F0080505E045F400656269012165
:1037E00001989047C4E9015765283DD019DC582855
:1037F00079D00CDC452837D004DC252826D0412898
:1038000031D131E046282FD047282CD12CE05B283D
:103810007FD0612828D063287BD0642823D159E049
:10382000CFE06F2847D008DC66281DD067281BD062
:10383000692821D06E2816D127E0702844D073283B
:1038400067D0752846D078280DD14CE0A1690B9837
:103850008847054625283FF469AFE1690B988847FA
:103860006D1C3FF46AAFB2E023466A466FF0010078
:103870000B99AFF300809DE045F040006060A80721
:1038800023464FF0000235D43DE0206800F10401EA
:1038900021600068290501D506701DE7290701D5BB
:1038A000068019E7A90704D54FEAE671C0E900616F
:1038B00012E7066010E745F040006060A807234665
:1038C0004FF0080216D41EE040F60E0125EA010072
:1038D000606016E045F040006060A80723464FF0A6
:1038E0000A0207D40FE045F040006060A80708D541
:1038F000234610226FF001000B99AFF3008059E0CE
:1039000007E0234610226FF001000B99FFF7AEFD90
:1039100050E04FF000094F464B46632802D05B2829
:1039200006D040E0E80601D40120A06001273AE07B
:1039300062690121019890475E2805D14FF0010985
:103940006269494601989047216939B900210B46BF
:10395000524642F82130491C0829FADBB0B32169EC
:1039600069B9C11700EBD1614B110AEB830221F059
:103970001F01411A012013688840034313606269E4
:103980000121019890475D28E8D1B9F1000F09D0D5
:103990000020514651F82020D24341F82020401CFD
:1039A0000828F7DB02AB224600976FF001000B9965
:1039B000AFF3008000280CDA401C08D1BBF1000FE7
:1039C00005D04FF0FF300DB0BDE8F08FFFE7404667
:1039D000F9E7E90701D108F1010806444FF0000BAF
:1039E0007AE60000CCCCCC0C7F2801D9002208E07C
:1039F000064A02EB5002C007127800D1120902F009
:103A00000F02012090400840704700009885020096
:103A100030B58C1810F8012B12F00F0301D110F8FB
:103A2000013B120906D110F8012B03E010F8015BED
:103A300001F8015B5B1EF9D101E001F8013B521E68
:103A4000FBD1A142E6D3002030BD00002DE9F047B4
:103A500000268CB0DFF85C91B0464FF480750124ED
:103A600037460596284603F0B7FA38B1D9F804036B
:103A7000204203D0284603F0A5FA26432D1D6400FA
:103A80007F1CADB2082FEDD34FF4BE74204603F077
:103A9000A3FA48B1204603F095FA46F0004605AA7D
:103AA0000121002003F07AFA434D16F0FF0F14D0E5
:103AB0000127002437420CD0404800EB84010868FD
:103AC0000968C0F3042055F82420C1F3014102B174
:103AD00090477F00641C082CECD3002E67DA4FF06F
:103AE000FF30CDE9088000263446281910F8507FB1
:103AF00090F9000027F0C008401C44D009A94046B6
:103B000002F0F0FC58B34FEA9719404601F016FE58
:103B100055F820701FB1B9F1030F03D00FE0B9F1D0
:103B2000030F30D108A84FEAD80108F00702435C20
:103B30004FF0010C0CFA02FC43EA0C0343544FF023
:103B4000A04101EB8800D0F8000705A9C0F3014AA5
:103B5000404602F0C7FC18B1BAF1020F03D012E0E0
:103B6000BAF1030F0FD1B9F1030F08D1BAF1020F67
:103B70001BD00221404603F0ECF9761CF6B217B1D7
:103B800049464046B847641C042CAED3002E0ED0E4
:103B90006A460121002003F001FA05990098884245
:103BA00005D00590089809909DE70321E2E70CB045
:103BB000BDE8F08700600040788400201065004078
:103BC000F8B50F46002116460C4600911D466A4680
:103BD0003946FFF7F7FB09E046F82400641C6A4603
:103BE00039460020FFF7EEFBAC4201DA0028F3D1A2
:103BF0002046F8BD00F01F020121914040094FF01E
:103C0000E02202EB8000C0F88012704700F01F0233
:103C10000121914040094FF0E02202EB8000C0F802
:103C20000011704700F01F020121914040094FF040
:103C3000E02202EB8000C0F8001270474907090E2D
:103C4000002803DA00F00F00024A00E0024A815423
:103C50007047000014ED00E000E400E02DE9F041C1
:103C60004FF48077384602F01BFD0124104EA50763
:103C700048B1384602F01BFD0120C5F808037470F6
:103C8000002001F085FD4FF48277384602F008FDF0
:103C900000280BD0384602F00AFD0220C5F80803C0
:103CA000B470BDE8F041012001F072BDBDE8F081C3
:103CB0006484002004480021016441648164C1647B
:103CC0000160416004F084B80011014003F0CEBFF0
:103CD00010B50021054A084600F002FD002803D077
:103CE000BDE8104000F0C8BC10BD00005D4B0200F4
:103CF000F0B5AD480023021D01780125101D4FF0DD
:103D0000805406290BD11678360708D10678C6F3F9
:103D10000316032E06D0042E04D0052E02D0062949
:103D200007D00EE0B4F82463A04FC6F304263E602B
:103D300002E01678360704D10678C6F30316032E80
:103D400002D0062904D00FE09A4F994E7E670EE00C
:103D50001678360708D10678C6F30316032E06D068
:103D6000042E04D0052E02D0062907D00EE0D4F888
:103D70004462914FC6F342363E6002E01678360741
:103D800004D10678C6F30316032E02D0062906D006
:103D900011E08A4E376827F0807737600EE016789A
:103DA000360708D10678C6F30316032E06D0042E74
:103DB00004D0052E02D0062907D00EE0804E3360D5
:103DC00073607D4E361F336002E01678360704D1EB
:103DD0000678C6F30316032E02D0062905D00CE0A0
:103DE000754F032664373E600AE01678360704D123
:103DF0000678C6F30316032E02D006290DD014E070
:103E0000704F05263E606F4E783635606D4E083631
:103E100033603F263F1D3E6002E01678360704D12E
:103E20000678C6F30316052E02D0062957D062E0A5
:103E3000654E3668654F3E60634E361D36683F1DE1
:103E40003E60614E083636683F1D3E605E4E0C3661
:103E500036683F1D3E605C4E103636683F1D3E6042
:103E6000594E143636683F1D3E60574E1836366838
:103E7000564F20373E60544E1C3636683F1D3E601C
:103E8000514E203636683F1D3E604F4E2436366810
:103E90003F1D3E604C4E283636683F1D3E604A4E00
:103EA0002C3636683F1D3E60474E30363668474FE9
:103EB00040373E60444E343636683F1D3E60424EC9
:103EC000383636683F1D3E603F4E3C3636683F1DF3
:103ED0003E603D4E403636683F1D3E6002E016783B
:103EE000360708D10678C6F30316032E06D0042E33
:103EF00004D0052E02D0062907D019E0D4F85812B4
:103F0000334A01F04F01116002E0117809070FD127
:103F10000078C0F30310032803D0042801D005283B
:103F200006D12C480168C90702D06FF00101016079
:103F300022487438016841F470010160BFF34F8F6B
:103F4000BFF36F8F4FF01021D1F80002002803DB80
:103F5000D1F80402002822DA1F4A15601F480468BD
:103F6000002CFCD01524C1F800420568002DFCD0BF
:103F7000C1F8044201680029FCD0136001680029DF
:103F8000FCD0BFF34F8F0D48F0380168144A01F49C
:103F9000E06111430160BFF34F8F00BFFDE712499D
:103FA00010480860F0BD0000E00F00F0403501400F
:103FB0000DF0ADBA00C007403C050040FCED00E04C
:103FC0000C010040105600400404001020C50040C1
:103FD000E40E00400004004004E5014000E401401C
:103FE0000400FA050090D003F87700200448017F10
:103FF00004480029024901D004F04DB803F0BCBFC9
:10400000D084002000200040084882B000684FF0B3
:10401000000110F0010F07D0054801600068009012
:104020000448406802B0004702B0704704030140F2
:10403000000101400C7800200FB4054B10B503A916
:10404000044A029800F04AF810BC5DF814FB000026
:10405000035B0200687800200FB4084B10B504A978
:1040600002AA039800F03AF8044602A9002000F0E2
:1040700064FA204610BC5DF814FB00003B450200CA
:1040800002E008C8121F08C1002AFAD17047704721
:10409000002001E001C1121F002AFBD1704700007F
:1040A0000121202803DA81400548014003E040282F
:1040B00002DA2038814009B10120704700207047A2
:1040C000FC06FFBD082806D228B1012803D0042829
:1040D00001D0012070470020704700002DE9FF4FFC
:1040E0008DB00F4605460026DEE1252874D1002458
:1040F0006D1CF149A246A14601222B78203B02FA11
:1041000003F0084202D004436D1CF6E728782A2801
:1041100010D06FF02F022878A0F13001092915D8AE
:104120000AEB8A0102EB410144F0020400EB010AB0
:104130006D1CF0E757F804ABBAF1000F03DA44F452
:104140000054CAF1000A44F002046D1C28782E289D
:1041500017D115F8010F44F004042A280ED06FF08F
:104160002F022878A0F1300109290AD809EB89012A
:1041700002EB410100EB01096D1CF2E757F8049BCB
:104180006D1C28786C280FD006DC4C2817D06828C6
:104190000DD06A2814D104E0742810D07A280FD1E9
:1041A0000DE044F400140AE044F4801401E044F407
:1041B00040146978814202D16D1C04F580146D1C95
:1041C0002A786E2A20D00DDC632A33D005DC002A41
:1041D0006FD0582A12D1A2E011E0642A6AD0692A6D
:1041E0000CD167E0732A2FD004DC6F2A6FD0702ABD
:1041F00004D199E0752A6BD0782A6AD01046DDE99F
:104200000F129047761C4EE1C4F30250022806D0EC
:1042100003280AD0042801CF0AD0066043E101CF69
:104220004FEAE671C0E900613DE101CF06803AE165
:10423000067038E117F8040B8DF8000000208DF8A7
:104240000100EB46012003E057F804BB4FF0FF30BC
:1042500061074FF0000102D40DE008F1010188462A
:1042600049450FDA8045F8DB1BF808100029F4D126
:1042700008E008F1010188468142FADB1BF80810CA
:104280000029F6D1DDE90F23AAEB0800814621467B
:1042900000F03BF9304400EB080604E0DDE90F12C2
:1042A0001BF8010B9047B8F10108F7D221464846A8
:1042B000F4E0FDE00A21C4F302534FF0000B089133
:1042C000022B07D001CFC117032B09D00AE034E03D
:1042D00023E024E0FF1D27F00707F7E8020105E0CF
:1042E00000B2C117042B01D140B2C117002907DA6F
:1042F0004FF0000CD0EB0C006CEB01012D2302E021
:10430000230504D52B238DF82430012303E0E30794
:1043100001D02023F7E7984650E00A210EE0102054
:104320004FF0000B08900CE010214FF0000B44F010
:1043300004044FF00809089103E008214FF0000B36
:104340000891C4F30253022B04D001CF0021032BA8
:1043500006D006E0FF1D27F00707F7E8020103E09B
:1043600080B2042B00D1C0B24FF00008230725D53E
:10437000702A2AD0DDF820C08CF0100C5CEA0B0CFF
:1043800009D150EA010306D030238DF824308DF88E
:10439000252002239846DDF820C08CF0080C5CEA4A
:1043A0000B0C0BD150EA010301D1630706D5302372
:1043B0008DF824304FF00108A9F10109582A09D0DD
:1043C0003EA20B9208AA0A9211E040238DF82430F5
:1043D0000123DFE73EA2F4E75B46089AFEF77AFF87
:1043E0000B9B9B5C0A9AA2F101020A92137050EA9D
:1043F0000102F1D10A98ADEB000000F1200B60073B
:1044000002D524F4803401E04FF00109D94502DDE2
:10441000A9EB0B0000E0002000EB0B0141440890E9
:10442000AAEB010AE00306D4DDE90F23214650463A
:1044300000F06BF80644002008E009A911F8090013
:10444000DDE90F129047761C09F1010081464045D5
:10445000F3DBE0030CD5DDE90F232146504600F0E5
:1044600054F8064404E0DDE90F1230209047761C32
:104470000899481E08900029F5DC08E00A980A9976
:104480000078491C0A91DDE90F129047761CBBF1B8
:104490000001ABF1010BF1DC21465046DDE90F23B1
:1044A00000F020F806446D1C287800287FF41DAE2B
:1044B00011B03046BDE8F08F0928010030313233A9
:1044C0003435363738396162636465660000000050
:1044D000303132333435363738394142434445463A
:1044E000000000002DE9F041044600251E46174655
:1044F000880405D406E039462020B04705F10105BF
:10450000641EF8D52846BDE8F0812DE9F041044647
:1045100000251E469046C80301D5302700E020271D
:10452000880405D506E041463846B04705F1010547
:10453000641EF8D52846BDE8F0810A68531C0B605C
:104540001070704770B500230D884C680DE0E618B8
:10455000E15C7678864206D1E018801C491E5060E6
:104560001180002070BD0B445B1C9D42EFD80520DC
:1045700070BD10B501220221002000F049FF08B1F2
:10458000072810D107220221012000F041FF08B1C5
:10459000072808D100210A22084600F039FF08B197
:1045A000072800D1002010BD022000F02BBE000023
:1045B00070B50024064D06E06868012110F834004B
:1045C00002F022F9641C28788442F5D3002070BDE3
:1045D00018780020F8B515460C460646052A01D283
:1045E0000720F8BD02F0ECF918B902F0BBF9002879
:1045F000F7D1114900204E600C70C1E902500F4DF7
:1046000008610DE006EBC4006968009181788DF8BF
:10461000011000780A4A694602F044F90028E0D106
:104620002000A4F10104E4B2ECD1BDE8F840054A51
:104630000021024800F0DAB818780020A8840200AF
:10464000355B02000959020009480068C00700D024
:1046500000BEBFF34F8F0648E4380168054A01F4F5
:10466000E06111430160BFF34F8F00BFFDE7000021
:10467000F0ED00E00400FA050EB500210091CDE94F
:1046800001106A4644F20100FFF7DEFF0EBD10B5CF
:104690008268C3689A1A03D001F020FA002010BD86
:1046A000052010BD29B112B1531E134203D00920B9
:1046B00070470E2070470160838000218160C160D7
:1046C0000846704710B58268C3689A1A83889A4270
:1046D00003D801F00DFA002010BD042010BD000029
:1046E0002DE9F84F254C8146924660880E4681425E
:1046F00041D800274FF6FF788DF80070684600F02B
:1047000097F922786078A188884201DA401C00E09D
:104710000020C0B2904204D19DF8000000F0AAF938
:1047200027E065786078884201DA401C00E00020CC
:1047300060709DF8000000F09DF9454519D0A06813
:10474000B9F1000F40F835A00DD066B16188E0687E
:10475000324605FB01004946FEF7EDFDA06800EB7F
:10476000C500868002E000EBC50087800020BDE820
:10477000F88F0420FBE70920F9E700002C780020DF
:1047800010B50E4C03E0401C00E0002020702078A3
:104790006178814210D022786188E068A36802FBCA
:1047A000010003EBC20153F832208988904720783A
:1047B000A1888842E9DAE6E710BD00002C780020E5
:1047C00030B5CB0008339DB293074FF0000401D001
:1047D000072030BD044B9A602A44DA605C701C707C
:1047E00058809980002030BD2C780020074B9B78A2
:1047F00023B12AB120B10068037C1BB108207047A7
:1048000007207047417442610020704710850020E6
:1048100070B503F049F8104800240D21047044706D
:104820000E4D817014206C602C706C70FFF7E2F9F3
:1048300007211420FFF702FA1420FFF7E7F90848D0
:10484000046007211120FFF7F9F90548001F0068EF
:10485000A860002070BD0000108500203C7800207A
:10486000081501402DE9FC47DFF8789099F80230EF
:1048700073B368B3052902D20720BDE8FC874369FA
:1048800033B3437C012B25D00027044600258846FE
:1048900016468DF80050684600F0CAF801A803F0EB
:1048A00073FCC8B1012101700F4944600968C0E977
:1048B0000218C0E904769DF8040089F801009DF80B
:1048C000000000F0D7F81420FFF7ACF92846D4E731
:1048D0000820D2E70F46D8E704259DF8000000F035
:1048E000C9F8F3E7108500200415014006498978CE
:1048F00039B130B1416921B100210174022103F0C5
:1049000043BA0820704700001085002070B50A4E99
:1049100001460A48B578FFF7BAFE04464DB10020BB
:10492000B070711C0122C81D02F090F808B1FFF7A9
:10493000A3FE204670BD000050780020588600205D
:10494000F0B5284E89B01F460D00044672603BD07A
:10495000A888296882B22448FFF7A4FE002834D131
:10496000A889A96882B220481030FFF79BFE002872
:104970002BD120221D496846FEF7DDFC60690690B8
:10498000207C00B101208DF814008DF81C70607C33
:1049900000B10E208DF81500E0680290A068039029
:1049A00020680190606800900E48114A69460830FE
:1049B00002F018F8002808D1B0702068401C04D01C
:1049C0009DF81D0018B106E0072009B0F0BD0548AC
:1049D000083002F093F803490122491CC81D02F077
:1049E00035F8F2E75078002058860020B0840200A5
:1049F000D97E020010B501460B48FFF763FE0400A4
:104A000010D10A4802F0C4F960B9084906480839CB
:104A1000FFF73DFE30B9054901220839034802F08D
:104A200031F90446204610BD6886002058780020E1
:104A300030B5EFF3108172B60B4A9468012324B1AC
:104A40000370002900D162B630BD9360074B1D682A
:104A5000074C254015601C605C6854605A175A600A
:104A600000220270EDE700004C86002080E100E0AB
:104A7000FC06FFBD09498A68002A0ED000280CD127
:104A8000EFF3108072B60B68054A13604B685360F1
:104A900000228A60002800D162B670474C86002050
:104AA00000E100E02DE9F041064608680C46294F78
:104AB000411C4FF0010505D005FA00F1396020686E
:104AC00002F02DFA6068411C02D0002102F01EFAAB
:104AD0003079214901EB4010A169007F002830683E
:104AE000C0F8241524D0607D217D32680843C2F8C7
:104AF0006C05D4E900123068C0F80C15C0F8142514
:104B000023E0A068411C02D0002102F0FFF9E06818
:104B1000411C04D085403D60E06802F000FAD4E911
:104B200002123068C0F80825C0F81015BDE8F08101
:104B3000607D227D31681043C1F86C05D4E9001214
:104B40003068C0F81425C0F80C15207D0128D8D095
:104B5000ECE7000008050050D084002002F05CBBA8
:104B6000B8210148FEF700BC94800020FFF7F8BF91
:104B70000249C86C896C084002F0E2BF94800020B2
:104B800070B540B10C4D297839B1044602F046FEAB
:104B900028B1002070BD0E2070BD082070BDE868EF
:104BA000062807D20549226801EB8001401C0A60F3
:104BB000E860EEE7042070BDFC7700204C81002007
:104BC00040B1054900220123CA600B70C1E901020E
:104BD000104670470E207047FC77002070B5040027
:104BE0002DD000292BD020480078002827D02088FD
:104BF0000D46112815D0302804D0322807D033288C
:104C00001ED109E0211D284602F07CFD18E0211D7F
:104C1000284602F043FC13E0211D284602F0FAFC6E
:104C20000EE0A088B5F8CA12884209D1002085F8A4
:104C3000C70285F8C8024FF6FF70A5F8CA0270BD1A
:104C400095F8C8020028FAD020883028F7D34F28DA
:104C5000F5D8A088B5F8CA128842F0D12846BDE838
:104C6000704000F0E7BE0000FC77002048B1084A21
:104C7000137843B1D26832B190F8C7222AB111201B
:104C800070470E2070470820704700F0D3BE000028
:104C9000FC770020F8B50188041D00261D295DD091
:104CA0000FDC3E4D102918D0112948D0132959D0B6
:104CB0001B296ED1207901286BD1BDE8F84002F0A4
:104CC00047BE1F2954D021295BD03B2962D05629E9
:104CD0005FD18088132176DF4DE02088082802D339
:104CE0000020FFF7C9FC20886168C0EBC00005EB1D
:104CF00080000022016121898182A17A8175218849
:104D0000C1EBC10005EB800000F02CF908B1FFF702
:104D1000B3FC21882248FFF7A9FF08B1FFF7ACFCDC
:104D20001F490120091F4870072000F093FB08B1BC
:104D3000FFF7A2FCFFF71CFF08282AD0BDE7208858
:104D4000082802D30020FFF797FC2088C0EBC000A2
:104D500005EB8000066186828675AEE7BDE8F84007
:104D600002F04CBB002380881A4685217FDF02E0D9
:104D70002088211D75DF00280BD0BDE8F840FFF723
:104D80007BBC0096808869468FDF002801D0FFF742
:104D900073FCF8BD8088132176DFECE7487F0020A4
:104DA0001475002010B51A4C0188606810290ED0C7
:104DB00011292BD1401E606028D1FFF7DAFB0028B3
:104DC00024D02168002921D0BDE810400847D0B97F
:104DD00000210122084600F01BFB08B107280FD173
:104DE00007220221012000F013FB08B1072807D198
:104DF00004220221002000F00BFB20B1072802D082
:104E0000216801B188476068401C606010BD0000E7
:104E1000E07700202DE9F047044603883E48012250
:104E200000F14801A4B08A46102B09D0112B52D0B2
:104E30001A2B6DD1217AB2EB111F50D201234FE012
:104E4000D0E911218A430546011D12A802F053FE44
:104E5000442212A901A8FEF76EFADFF8BC900026E2
:104E6000374609F144090DF1040809E008EB460052
:104E70001D2283884946281D009702F001FE761CFA
:104E80000198B042F2D8686CA688C04302F01AFEBE
:104E9000A0F57F41FF3916D005EB40000123868045
:104EA00032465146281D02F05AFE01233246494639
:104EB000281D02F054FEE07B02280AD00023164988
:104EC000A2884C311EE024B00420BDE8F047FFF773
:104ED000D3BB0123F3E70023A288001D13E00023C6
:104EE0000D490546A2885031001D02F038FE207A97
:104EF0000221B1EB101F01D2012300E0002306497B
:104F0000A2885431281D24B0BDE8F04702F027BE26
:104F100024B0BDE8F08700009480002010B504465E
:104F2000087840B1012819D10A7B89686088BDE8FA
:104F3000104000F00BB9488801F10E0201462046EE
:104F400000F010F808B1FFF797FB204600F0DAF800
:104F500008B1FFF791FB02490020487010BD000026
:104F60001075002048B141802AB15188C180118854
:104F7000818091880181002070470E2070470000D9
:104F800030B5144B0D4604000FCB85B08DE80F00F3
:104F90001DD0E5B12146684662DF002815D1207892
:104FA0008DF812000120ADF810004FF6FF70608000
:104FB0002868E0600020A08020812061A082A07588
:104FC0001420208304A8FFF7DBFD05B030BD0E20C0
:104FD000FBE700007084020010B5024686B00800AE
:104FE0002ED0002A2CD041884FF6FF73994202D070
:104FF0009488A14224D11488112C14D0392C1FD1AB
:10500000818800291CD053898B4219D1C16800299D
:1050100016D001218DF8001002F110010291917B50
:105020008DF80C1009E092888A4209D1C1680029E4
:1050300006D002218DF800104380C268694690476F
:1050400006B010BD30B585B00C4605461421684643
:10505000FEF78AF9207804F10E01002830D1A088EB
:1050600001282DD1A0792A78904229D1002217E079
:1050700002EBC20031F81030022B02D0032B0ED10C
:1050800005E001EB40000089ADF8120007E001EBFC
:1050900040000389ADF80E304089ADF81000521C75
:1050A000207A9042E4D8E868002809D06088ADF8FA
:1050B000020000208DF80000EA6869462846904703
:1050C00005B030BD3EB518B1F42A03D907203EBD66
:1050D0000E203EBD4388A3F57F44FF3C01D108204C
:1050E0003EBD074D38CD8DE8380003890291ADF8FB
:1050F0000230ADF80620408869469CDF3EBD0000C6
:105100008C8402001FB5010019D04888A0F57F42A9
:10511000FF3A16D0C988A1B101228DF80C200A4BA4
:1051200000228DF80D20D3E90423CDE90023ADF84A
:10513000021003A9029169469CDF04B010BD0E2045
:10514000FBE70820F9E7000070840200F0B50D4687
:1051500014461749C0EBC00201EB82038BB0D97C27
:105160000DF1040C9F7D5E7D1A7DACE8C600997C34
:105170000091C2B25B7C0FA105A8FEF76DFF00266F
:1051800005AF02E002F0C1F8761CB85D0028F9D145
:10519000002603E0A85D02F0B8F8761CA642F9D319
:1051A0000D2002F0B2F80A2002F0AFF80BB0F0BD0B
:1051B000487F00205B25643A253032582D25303257
:1051C000582D253032582D253032582D2530325863
:1051D0002D253032585D00000149085C7047000001
:1051E000AC8302000549095C05480068C84010F01E
:1051F000010000D0012080F001007047AC83020064
:105200001005005007490A5C074801680120064B59
:1052100090401B1D20EA01021A600840191D086019
:1052200070470000A8830200040500500249085C92
:10523000012101F0A7BE0000A88302000249085C1A
:10524000002101F09FBE0000A88302000549095C0F
:1052500005480068C84010F0010000D0012080F02F
:1052600001007047A8830200040500507CB50024AB
:10527000084E25460122305D009500231146019518
:1052800001F00EFE641C042CF4D3BDE87C4000F059
:1052900003B80000A883020010B500242046FFF7E1
:1052A000C5FF641C042CF9D310BD10B500242046A2
:1052B000FFF7C4FF641C042CF9D310BD10B50246DF
:1052C000064B4FF0FF3000215C5C944201D1084650
:1052D00010BD491C0429F7D310BD0000AC830200A7
:1052E00070B50C4E0C004FF0000530600BD0012063
:1052F00000F06AF808B1022004E0002000F064F831
:1053000000B10B202070706810B9FFF732F9054624
:10531000284670BDE077002010B5002000F0D0F9DD
:1053200008B1062806D1012000F0CAF908B1062804
:1053300000D1002010BD00002DE9F0470D46814648
:10534000FFF7BCFF0446042836D2DFF874801B4800
:105350001C4EA8F10C0725B3012D0ED0022D2BD128
:1053600004EB440030444578002D25D0B96800296D
:1053700022D02846BDE8F047084704EB4401755C9D
:105380000E44717849B10E4A4FF40041093A8068E1
:10539000FFF768FA08B987F80390B17808F80410A5
:1053A000E2E78068FFF7A2FA04EB4401314418F801
:1053B00004008D78A842D7D0BDE8F087B083020002
:1053C000F477002068800020FFF70CBF70B5042838
:1053D00006D00A2819D1BDE87040002001F03ABE7D
:1053E0000A4D00244FF6FF76C4EBC40005EB8000A5
:1053F0004088B04206D0132176DF082802D008B1D9
:10540000FFF73AF9641C082CEED370BD487F0020EA
:1054100070B50023042810D20D4D00EB4004012A82
:1054200002D101290CD00022094E00EB400030448B
:1054300061B1012906D0022906D00723184670BDA4
:105440000E30C2B22A55F9E74270F7E78270F5E7ED
:1054500068800020044A014600201279D20702D059
:10546000084600F051B87047E877002070B506464E
:105470002048C0E90161B00726D500250122114668
:105480002846FFF7C5FF6D1C0446042D02D2002CF0
:10549000F4D013E094B940F2666204211648FFF795
:1054A00099F804000AD1FFF783F8040006D11248E6
:1054B000124A0021001FFFF799F90446F00701D0B6
:1054C000FFF7D4FE24B112E0F00701D0FFF7CEFEC3
:1054D00009480B4A00210C38FFF788F9040006D16F
:1054E0000548084A01210838FFF780F9044620469C
:1054F00070BD0000E8770020BC830200D156020096
:1055000055620200A94502002DE9F05F6A4C05468C
:1055100000266078B24618B184F801A000F082FE3F
:10552000664F4FF4617940F6CD4B4FF00108182DCE
:1055300062D2DFE805F0AB0C0C31404D62676B7353
:105540006B73BD7C7C7C7C7CABAEB1B4BDBD0020FC
:10555000FFF77CFE00284FF0000008D0FFF766FE42
:10556000022D02D14FF4E16008E0484606E0FFF763
:1055700065FE022D01D1C82000E06420410CC0036B
:105580004FF4FA72801841F1000125705200002397
:10559000FDF7A0FE01462AE00020FFF757FE002895
:1055A0004FF0000004D0FFF741FE4FF44870E5E7EC
:1055B000FFF744FEDFE70020FFF748FE00284FF02A
:1055C000000002D0FFF732FECFE7FFF737FED4E747
:1055D0000020FFF73BFE00284FF0000002D0FFF74D
:1055E00025FE01E0FFF72AFE257041F69A11002200
:1055F0003868FFF737F9064645E00020FFF702FE5E
:10560000257008E0002050E025703CE084F801801F
:105610000120FFF7F7FD00225946E9E784F80180F1
:105620000120FFF7EFFD00224FF48041E0E77868AA
:10563000FFF75CF90646D5F1110000D02EB102202B
:10564000FFF7F4FD84F802A01DE0012816D980B20E
:10565000C8214843C117C90341EA5041C0034FF470
:10566000FA72801841F1000152000023FDF732FE6A
:10567000014600227868FFF7F5F806460220FFF79A
:10568000DDFD84F802803046BDE8F09F00F0CAFDE1
:10569000BAE700F0C7FDB5E700F0C4FD04E000F094
:1056A000C1FD0020FFF7CAFD0120FFF7C7FDABE7F2
:1056B000FFF7FBFDA8E70000E8770020B0830200B9
:1056C00010B5FFF789FD032101F033FC002010BD68
:1056D00000780221FFF730BE05494FF0FF3208285D
:1056E00041F8202002D3084480F848207047000089
:1056F00078840020F0B54FF0FF3512B10023082662
:1057000001E008230C260C4C05E000BF54F8237080
:105710007F1C04D05B1CB342F8D32846F0BD26188A
:105720005DB286F8305044F82310002AF5D1E11814
:1057300081F84800F1E7000078840020024908441D
:1057400090F93000704700007884002008B50246C8
:1057500090F8C6020B4600EB8001C1EB801002EB13
:10576000400092F8C52242B1521ED2B202EBC201F1
:1057700000EB4102518A491C00E0C188ADF80010DD
:105780000089ADF802006946184696DF08BD0000A2
:1057900070B5084C050009D010342168002907D0E5
:1057A00008682060496828468847F6E70834F4E727
:1057B00070BD0000648400202DE9F05F2648416838
:1057C000F1B3DFF898B00E688146DBF800408768D7
:1057D0008078E11B21F07F45ED1CB0B9DFF88080B7
:1057E0004FF48030C8F84403C8F804031120FEF7D2
:1057F00001FA1120FEF70AFA4FF0010AC8F800A0DA
:105800002F2000F05DFF89F802A0B54200D2354696
:10581000124BE8193C3320F07F401860DBF8001091
:105820005A46091B21F07F41001BC91C20F07F4014
:1058300081420FD9106818602F2000F041FF00E06E
:1058400004E0BDE8F05F1120FEF7ECB9BDE8F05FC1
:1058500002F02AB8BDE8F09F3C7800200415014012
:10586000001001404188044AC1EBC10102EB8102F2
:1058700001461046FFF7E6BB487F00202DE9F843BC
:10588000054690F8C6020F4600EB8001C1EB801080
:1058900005EB400695F8C542914604EBC40006EBC3
:1058A000400132790A31601C904226D16B460022B9
:1058B000284600F00FFC18B310E0401EA04201D1B2
:1058C000002004E004EBC40006EB40001C308046DE
:1058D00002466B46284600F0FDFB30B100203870D0
:1058E0006946484697DFBDE8F88395F8C50241460A
:1058F000401C641C85F8C502E4B23079A042DCD8B3
:10590000012038700020EEE72DE9F0410026012546
:10591000144C22E06068226900EBC607387805FA6B
:1059200000F1114217D08A43226101F013F80246B8
:105930003878E36805FA00F1194002FA00F3994259
:1059400009D17978012901D0012100E000215140DD
:105950007A6802B19047761CF6B220788642D9D395
:10596000BDE8F081187800202DE9F047894690F8CD
:10597000C612904601EB8102C2EB811100EB410798
:10598000384601F04BFF06002FD0194CA0680628BE
:105990002BD2184D762205EBC0103946A0F80280B4
:1059A000001DFDF7C8FC0027B9F1000F04D0A06866
:1059B00005EBC010077004E0A168022005EBC111DF
:1059C0000870A06805EBC011401CCE67A060E168BC
:1059D00088420AD1002604E005EBC610C16F884753
:1059E000761CE0688642F7D3A760BDE8F087000028
:1059F000FC7700206481002070B50E4690F8C61236
:105A0000154601EB8102C2EB8111A0B000EB410011
:105A100001F004FF040009D07C2205496846FDF727
:105A20008AFCADF8025068460196A04720B070BDD0
:105A3000DC83020070B50E4604464FF43371FDF767
:105A400093FC11480025A4F8CA62856084F8C95205
:105A50000E4884F8C65284F8C55200682060224679
:105A60000121304694DF0121112806D0002809D1F8
:105A700084F8C71284F8C85203E084F8C71284F887
:105A8000C812002070BD0000FC7700204C8100206F
:105A90000E4910B50A784C780023A24212D0521C4D
:105AA000D2B20A70022A00D10B70084A0B780C326D
:105AB00052F8232002608868104420F07F408860FC
:105AC000012010BD0360002010BD00003C780020C4
:105AD0000148C07801F08AB9107500208268838877
:105AE0001A4003689A5C0A708168491C816070479B
:105AF000C26883881A4003689954C168491CC16010
:105B0000704710B50446C0B2FEF774FF204610BDC2
:105B10000888A0F52062773A08D188884988044A25
:105B2000C1EBC10102EB8101C01E08837047000078
:105B3000487F00202DE9F041124E07460125BD4067
:105B40003068FEF7D3FE002805D10F4C20692842AB
:105B500003D0A8432061BDE8F081384600F0FAFE8A
:105B60000028E06801D0284300E0A843E0602069F5
:105B700028432061A1683068BDE8F0410022FEF7AB
:105B800071BE0000A88402001878002070B5124C85
:105B900090B00546002601B926700D2D0AD00A2DB9
:105BA00008D00D48FDF7EBFBC0B2255420444670E9
:105BB00010B070BD20780028FAD040216846FDF76B
:105BC000D3FB10236A4605A10348FDF7F9FF694698
:105BD00000F006F82670EBE7FB7C002020090000AF
:105BE0002DE9F04786B00C46061E72DDB1A1206893
:105BF000FDF7CCFB00285DD0B1A12068FDF7C6FB06
:105C0000DFF8C8820125002864D0B1A12068FDF723
:105C1000BDFB08F10407002868D0B0A12068FDF79B
:105C2000B5FB002876D0B1A12068FDF7AFFB0027B7
:105C300000286DD0B2A12068FDF7A8FB002868D02D
:105C4000B3A12068FDF7A2FB002876D0B3A120689D
:105C5000FDF79CFB4FF0FF3A00286FD0B2A12068FF
:105C6000FDF794FB00286AD0B1A12068FDF78EFBF8
:105C7000002873D0B0A12068FDF788FB00286ED003
:105C8000B0A12068FDF782FB002869D0AFA1206891
:105C9000FDF77CFB002837D100F0BAF9514600200F
:105CA0003BDFB12100203ADF022006B0BDE8F0471B
:105CB00001F0D0B9012E27DD6A46A6A16068FDF784
:105CC000B9FB8248009908300068C84000F0010222
:105CD000A6E019E0012E17DD6A469EA16068FDF777
:105CE000A9FB00988540C8F8005009E0012E0BDDA3
:105CF0006A4698A16068FDF79DFB009885401AE010
:105D000095A02168FEF798F906B0BDE8F08701E09C
:105D100016E026E0012EF7DD6A468EA16068FDF7E9
:105D200089FB6A480099001F00688D4025EA00023F
:105D3000C8F8002005403D60E2E728E03FE087E04A
:105D4000012EE1DD02AA83A16068FDF773FB002349
:105D50000122029800971146019715E085E087E03F
:105D6000A6E0022ED0DD02AA7AA16068FDF762FBF0
:105D700003AA78A1A068FDF75DFBDDE90201CBB2C3
:105D8000002200971146019701F078F8B8E7022E3B
:105D900003DDA06801F0C6FA00E00020012E05DD59
:105DA00062680146104601F0F7FA00E00020216821
:105DB00006B00246BDE8F04769A0FEF73DB9DFF83E
:105DC000AC814FF6FF790397012E21DD03AA68A16C
:105DD0006068FDF72FFB0398002819DA0023494675
:105DE00003970398C0EBC00208EB820252888A42F4
:105DF00001D1002201E005FA00F2401C1344039097
:105E00000828EEDB52465BA02168FEF715F97BE718
:105E10000398C0EBC00008EB800042884A4502D1DD
:105E20004FA0216841E057A02168FEF705F90398CB
:105E3000C0EBC00008EB8000017D837D427D8DE8D2
:105E40000E00C37C827C417C51A0FEF7F5F85BE735
:105E50005748817811B9857001F07AFD216806B044
:105E60003DA0BDE8F047FEF7E7B800F0D1F8F5E750
:105E700003A86DDF216808B14EA043E750A0FEF7EC
:105E8000DBF89DF810009DF812209DF811108DE8A8
:105E900007009DF80F309DF80E209DF80D104AA0C8
:105EA000FEF7CAF850A256A156A0FEF7C5F82BE798
:105EB0000320FAE6236770696F5F72656164000012
:105EC000236770696F5F73657400000008050050F8
:105ED000236770696F5F636C656172002367706927
:105EE0006F5F746F67676C650000000023677069FF
:105EF0006F5F6366675F6F75747075740000000094
:105F0000236770696F5F6366675F696E70757400A1
:105F100023626C655F73656E6400000023626C65CC
:105F20005F636F6E6E000000236F70656E0000008F
:105F300023636C6F7365000023676574696E666F19
:105F400000000000237265736574000023646675A9
:105F500000000000256400002573206F6B0D0A000F
:105F60002573206F6B2025640D0A0000487F0020F8
:105F7000256900002573206F6B2025642025640DA2
:105F80000A0000002573206F6B20256420000000AC
:105F9000253032582D253032582D253032582D25B8
:105FA0003032582D253032582D253032580D0A0008
:105FB000107500202573206661696C0D0A000000D1
:105FC0002573206F6B200000253032582D2530328C
:105FD000582D253032582D253032582D2530325845
:105FE0002D2530325800000031393A31313A303005
:105FF000204F6374203239203230313800000000E5
:10600000313100002025732025730D0A00000000A7
:1060100070B510490020887001F09AFC0020FFF74D
:1060200019FA08B1FEF728FB0B4D00244FF6FF7656
:10603000C4EBC40005EB80004088B04206D01321B9
:1060400076DF082802D008B1FEF716FB641C082C86
:10605000EED370BD10750020487F002070B50E464D
:106060000446007918494FF4A27501EB4010017FF6
:106070002068A1B14FF4887101F041F94FF490719B
:10608000206801F03CF94FF49271206801F037F973
:106090002946206801F033F90C49206809E04FF4E3
:1060A0008E7101F01BF92946206801F017F90849A3
:1060B0002068C0F80413206800F0A2FB3146BDE858
:1060C000704000F07FBB0000D0840020100302006D
:1060D0008000020010B509892AB1D088491C81428C
:1060E00018D1002010BD90F8C62202EB8204C4EB48
:1060F000821200EB420212899142F2D0491C1980AF
:1061000090F8C61201EB8102C2EB811100EB410055
:10611000008902E01980D088401E5880012010BDFF
:106120002DE9F8430E468146002501F1100459E09F
:106130006119675D487802280AD0032808D004282E
:106140001ED005281CD0062838D0072836D046E0B7
:106150004FF0000810E000BF05EB48000119891C52
:106160006A46022063DF28B9BDF80010B9F80000C4
:10617000814255D008F10108B8EB570FECD32EE05F
:106180004FF0000816E000BF05EB88000119891CDC
:106190006A46042063DF58B9BDF80010B9F8000062
:1061A000814205D19DF8021099F80200814237D052
:1061B00008F10108B8EB970FE6D310E0891C6A4696
:1061C000102063DF58B9BDF80010B9F80000814213
:1061D00005D19DF8021099F80200814220D0E819FB
:1061E000401C85B2F27BB5EBD20FA1D3D0B208210F
:1061F000B1EBD00F11D300200CE02318215C5D78A7
:10620000012D04D1022902D19B78062B08D0084425
:10621000401C80B2B0EBD20FEFD30020BDE8F88372
:106220000120FBE70A4810B5807860B1002401E046
:10623000022C06D02046FEF7F9FF641C042CF7D38D
:1062400010BD0324F6E7BDE81040FFF725B80000B5
:10625000E877002003480179C90702D00078FFF7EA
:1062600053B97047E87700200648012101600648CD
:106270000168C1F300410029FAD104490020887067
:10628000704700000C0000401804004064840020A7
:10629000F721018017214180002101714171FB210B
:1062A00081711B21C17170472DE9F047394E0027DC
:1062B00080463D46DFF8E090D6F804A057E003D0D2
:1062C0000446D0F81C8035E099F8002002EB42012A
:1062D000521CD2B289F8002009EBC10199F80230B2
:1062E000091D9A4201D189F8005048680A7804468D
:1062F000012A12D0022A02D0032A3BD108E001F081
:1063000013FD00B10127257434E00574C06900E075
:1063100070680028F9D170602CE0207C50BB886840
:106320006060C868A0600869E0604869A061F078B2
:1063300000B165606268B168184B501A20F07F4068
:10634000984202D2A168084406E0881AA16820F0A9
:106350007F40814202D9081A206000E02560656014
:106360000120A56020742046E56101F0BFFCB8F172
:106370000000A4D199F8001099F801008142A3D13E
:1063800017B97168514502D00120BDE8F08700209F
:10639000FBE700003C78002010850020FFFF7F0015
:1063A0008AB0434A14210820FEF70AFA08B1FEF722
:1063B00063F9FEF72DFA08B1FEF75EF93D4A0021B8
:1063C0003D48FEF713FA08B1FEF756F900F00CFE4F
:1063D00008B1FEF751F9182238496846FCF7ABFFBF
:1063E0003748069037494FF48070CDE9070109908E
:1063F0000723354A06A96846FEF7A2FA08B1FEF758
:106400003BF932490120FFF731F808B1FEF734F9C2
:1064100069460020FEF764FF08B1FEF72DF900F091
:10642000C5FE08B1FEF728F9002569460120009550
:1064300000F040FE08B1FEF71FF9684600F089FE43
:1064400008B1FEF719F92249224800F05FF808B1B7
:10645000FEF712F9F7211F4800F04CF808B1FEF7DB
:106460000BF91D48FEF7ACFB08B1FEF705F9194E14
:106470001A4800244C360090C4EBC40006EB8000A0
:106480006946FEF77DFD08B1FEF7F6F8641C082C9E
:10649000F2D3134845708570FEF768FB01F0A0FE4B
:1064A00001F056FAFEF76CF900F0B2FDFAE70000D1
:1064B000B47A0020557802006C82020084830200C6
:1064C000B4780020B4790020957E0200CD530200FC
:1064D000115B0200FC7E0020655802001D4F020087
:1064E00010750020C20800F007030120895C984065
:1064F0000840704728B1A1F11702E12A03D3072011
:1065000070470E20704741800020704770B504002E
:1065100010D0F720A16420806080FB20207100252E
:1065200004EBC500801DFFF7B3FE6D1C082DF7D3EB
:10653000002070BD0E2070BD2DE9F04385888FB01E
:106540000C46082D7ED20188DFF8509100272429BF
:1065500062D006DC102909D011290CD0232909D1D9
:1065600079E03A290DD0552904D12CE00146204686
:1065700001F01EF882E004EBC500801DFFF788FEE5
:106580007CE0294604EBC106408936F8062F82429A
:1065900000D810467080172800D217207080A06C99
:1065A00070B1707960B1D9E90020CDE90020ADF873
:1065B00002107088ADF80400A26C2046694690472E
:1065C000777137715AE02E46C08804EBC60808F18F
:1065D0000608172800D21720B8F80010814200D80A
:1065E0000846A8F8020088F80470B8F80010304691
:1065F000ADDF98F8050030BBA06C20B3D9E90210DC
:10660000CDE90010ADF80260B8F80200ADF8040062
:1066100020466946A26C1CE0011D34226846FCF746
:106620008AFEBDF80000BDF8042004EBC0014A73E7
:10663000A26C42B1D9E90432CDE90D32ADF8360091
:10664000487B01E027E019E08DF83800A26C204675
:106650000DA9904712E00097019730F8041F04EB52
:10666000C1020179127B8A4200D21146ADF80010B6
:10667000ADF8021000880022694690DF04EBC504E3
:10668000A07A002807D0E18828469EDF002802D1A2
:10669000A7720120E0720FB0BDE8F08358840200B9
:1066A00000F180400068002800D00120704708B544
:1066B00000F18040002101600068009008BD0000EA
:1066C00000283ED01F49204A096800BF00BF00BF14
:1066D00000BF00BF00BF00BF00BF91422FD000BF6E
:1066E00000BF00BF00BF00BF00BF00BF00BF00BFB2
:1066F00000BF00BF00BF00BF00BF00BF00BF00BFA2
:1067000000BF00BF00BF00BF00BF00BF00BF00BF91
:1067100000BF00BF00BF00BF00BF00BF00BF00BF81
:1067200000BF00BF00BF00BF00BF00BF00BF00BF71
:1067300000BF00BF00BF00BF00BF00BF00BF0138E7
:10674000C3D17047F87700200024F40070B50F4CD7
:106750000025207808B1852515E00021A160616041
:106760002161E1600A480068012610F0010F03D1A1
:106770000721002000F026F800F060FD10B905495F
:10678000022008602670284670BD00006484002046
:1067900000E100E01805004008B500208DF8000079
:1067A0006846FEF745F90648C168491EC160C068E1
:1067B00008B9FFF759FD9DF80000FEF75BF908BD29
:1067C000648400204907090E002804DA0A4B00F00F
:1067D0000F021A4401E0094BC218117000F01F02A9
:1067E0000121914042094FF0E02000EB8200C0F807
:1067F0008012C0F80011704714ED00E000E400E0E2
:10680000C0F3073040B270472DE9F0410E4607460D
:1068100000F0ECFF204D0028384616D0FEF78EFF22
:10682000284490F848008009032802D001280AD0A3
:1068300003E0384600F09EFB28B103213846BDE84E
:10684000F04100F086BB0221F8E700F0DBFF0028F2
:106850001FD03846FEF772FF04464FF4807000EBFD
:1068600084000E4A81B202EB8400026842F0010209
:106870000260084600F0A6FB002E0AD03846FEF75C
:106880005DFF55F82000002803D005490120A040F5
:106890000860BDE8F08100007884002010650040A9
:1068A000046300402DE9FC41DFF89C80044608EBBE
:1068B0000400002790F930001346C0170E46401C14
:1068C00001D008273DE0F27819462046FEF712FF76
:1068D0000546401C34D0B07850B14FF0A04000EBDA
:1068E0008400D0F8001721F00201C0F8001707E07B
:1068F00000217378204600910A46019100F0E2FAE7
:10690000F078A0B11148317800EB85000268104B97
:106910001A4002604FF4F8524FF4403302EA042266
:1069200003EA01410A4301680A43026009E008EBF7
:106930000500327810F8481F41EA8211017000E02A
:1069400004273846BDE8FC817884002010650040AB
:10695000FFE0FCFF10B500F00DFB002800D0012087
:1069600010BD000070B5144D95F8540008B1082012
:1069700070BD0020411E2A18401CC0B282F83010A1
:106980002028F8D300242046FEF7A6FE641CE4B2BB
:106990000C2CF8D307210620FFF714FF4FF4BE702C
:1069A00000F010FB05494FF000400860012085F819
:1069B0005400002070BD0000788400200463004073
:1069C000034890F85400002800D0012070470000D0
:1069D000788400200121B1EB507F01D10120704764
:1069E000002070472DE9F04105460079164F90468A
:1069F00007EB40140E46E07E10B10820BDE8F081A0
:106A0000707F20772846FEF74DF8C4F8048031697E
:106A10002160B8F1000F03D0317F2846FFF71EFB3D
:106A2000287907EB4010007F0028286801D0082152
:106A300000E00421C0F800150020E0752076A07564
:106A40000121E176A076D9E7D08400202DE9F0413C
:106A500005460079284E904606EB40140F46207FED
:106A600018B10846FFF7B6FF80B1626800234FF403
:106A700004704FF4017172B12A7906EB4212127F51
:106A8000002A2A6805D0C2F8080304E01020BDE8F7
:106A9000F081C2F80813E27DB2B1227E7AB1626859
:106AA0005AB12A7906EB4212127F1AB12968C1F84D
:106AB000040302E02868C0F804131120E7E7276107
:106AC000012384F8188005E084F817800020E7602F
:106AD000607620762879424606EB40103946007FE2
:106AE0000028284603D0BDE8F04100F073B8BDE8A7
:106AF000F04100F01BB80000D084002070B50446BF
:106B00000079094D05EB4010017F00290AD1807EF4
:106B1000002807D1204600F00AFF2179012005EB6B
:106B20004111887670BD0000D08400202DE9F05F0F
:106B300004460079264901EB4015A87E184302D18E
:106B4000204600F0F4FE68680028206806D04FF464
:106B50000171C0F804130020BDE8F09F4FF4A27645
:106B6000314600F0BBFBB1464FF4927A4FF4847B80
:106B70005146206800F0ADFB06465946206800F0FB
:106B8000A8FB80464946206800F0A3FB074648EA78
:106B900007003043ECD056EA070007D129462068A9
:106BA00000F0A0FEE87D697E8842E1D80020E8750B
:106BB0000EB10320D0E70FB10F20CDE7A97E012051
:106BC0000029216801D00860C5E74860C3E70000DC
:106BD000D08400202DE9F05F894604464FF4887583
:106BE0009A46904600260068294600F088FB4FF43C
:106BF000A2773946206800F082FB2068C0F83495FF
:106C0000C0F838852068BAF1000F14D0D0F800120F
:106C100041F02001C0F800122179DFF8648008EB10
:106C20004110406850B120684FF40471C0F804135B
:106C30003046BDE8F09F01210160EDE7AA46B94664
:106C40004FF4927B5146206800F054FB07464946BA
:106C5000206800F04FFB05465946206800F04AFBCB
:106C6000014647EA05000843ECD02379002208EBEF
:106C70004310C27501B10326002DD9D00F26D7E7E6
:106C8000D08400202DE9F047054600793F4E90461C
:106C900006EB40140F46207F18B10846FFF79AFE16
:106CA00030B1284600F074F820B11120BDE8F0871B
:106CB0001020FBE784F81680A7600027A7822879B8
:106CC0004FF0010806EB40143E46207F002828685C
:106CD00025D04FF49079494600F011FB4FF4AC7A7F
:106CE0005146286800F00BFB2868A17DA268C0F817
:106CF0004425C0F848152868C0F808806068F0B9D5
:106D00004946286800F0F6FA80465146286800F0A7
:106D1000F1FA58EA0001F3D058BBA7750FE04FF421
:106D20008E7A514600F0DAFA2868C0F808802146C9
:106D3000286801F091F861684FF4807089B130469D
:106D4000B4E75146286800F0C4FA10B9A08A484553
:106D5000F7D1A08A484505D02146286801F07CF883
:106D600000E08146A08AA17D8842EAD3A08A4845F6
:106D700001D10F26D1E75146286800F0AAFA002871
:106D8000F9D02868C0F80C80C7E70000D084002044
:106D90000079044901EB4010807D002800D00120DB
:106DA00070470000D084002038B5044600208DF8DC
:106DB00000006846FDF73CFE0A48816808290AD2AF
:106DC00021704A1C82600848026801238B401A43E4
:106DD0000260002400E004249DF80000FDF74AFE54
:106DE000204638BD0C78002008050140034A0249BE
:106DF00042F82010704700003546526E00060140F0
:106E000004480121C0F804130160034902200870FE
:106E100070470000000001400C78002070B5044667
:106E200013484160017809B1082070BD012101704B
:106E300004B9104C10492078086060680025410CA6
:106E4000C0034FF47A722B46FCF744FA02466E1EDA
:106E50000023301A8B4101D2072070BD0649083942
:106E60000A60217A1020FFF7ADFC284670BD0000B3
:106E70000C7800209C8402000C05014070B541EAAA
:106E80004201DDE904564FF0A04441EA830141EAA2
:106E9000052104EB800041EA0641C0F8001770BDEF
:106EA00070B541EA4201DDE904564FF0A04441EAE1
:106EB000830141EA052104EB800041EA0641C0F864
:106EC000001770BD70B541EA4201DDE904564FF08C
:106ED000A04441EA830141EA052104EB800041EA34
:106EE0000641C0F8001770BD70B541EA4201DDE906
:106EF00004564FF0A04441EA830141EA052104EB26
:106F0000800041EA0641C0F8001770BD1CB50022A0
:106F10000B46009211460192FFF7E6FF1CBD1CB51F
:106F2000002100910B46012201911146FFF7DCFF81
:106F30001CBD4FF0A04202EB800202F5E060D2F8E7
:106F4000002722F440320260026842EA01410160F7
:106F500070474FF0A04202EB800202F5E060D2F8E9
:106F6000002722F440320260026842EA01410160D7
:106F70007047000002490968C14001F001007047F4
:106F8000100500500122824011B103480260704791
:106F90000148001DFAE700000805005018B5084B2D
:106FA0006C4601441B68009306E000BF54F8203093
:106FB000D3F81035401C08C28142F7D818BD000034
:106FC00098840200034908B5084400210160006864
:106FD000009008BD0060004002494058012800D0E0
:106FE0000020704700600040064910B5002048703E
:106FF000091D0860BFF35F8F0349044800F042F9A0
:10700000002010BD60780020E8840200788600200F
:1070100008B500208DF800006846FDF709FDF1EE87
:10702000100A20F09F00E1EE100ABFF35F8F0849BD
:10703000402008609DF80000FDF71CFD00F0FEF800
:1070400008B13EDF08BD20BF40BF20BF08BD000023
:1070500084E200E0F8B506460F4801216A46FCF7D5
:10706000D9F8BFF35F8F0024002814D101210A4D05
:10707000042E05D0281F427802B109E00670417045
:107080000021064A0846FDF72BFB08B1FDF7F4FA8C
:10709000BFF35F8F2C60F8BD64780020897902000F
:1070A00020B1034909680160002070470E20704735
:1070B0006C850200FEB506460C460846FFF7F0FF59
:1070C000002845D1002500950195082703208DF85B
:1070D0000060ADF8040002958DF80270694620202A
:1070E000226869DF00958DF800508DF80170012746
:1070F000019502958DF8027069464020226869DF8B
:1071000000958DF80060F720ADF80200019502951A
:1071100069462320226869DF0095019502958DF864
:10712000007069460120226869DF4FF4B06000906A
:10713000019502956946A120226869DF00950195B5
:1071400002958DF800506946A020226869DF002072
:10715000FEBD60DF7047000030B5ADF5017D4FF436
:10716000FA7500BFADF8005280A9684661DF38B1FA
:10717000052816D00DF5017DBDE83040FDF77CBA3D
:107180006C4609497DA800F07DF806E0D0E90021B1
:10719000204690477DA800F08CF87F980028E1D029
:1071A000F4E70DF5017D30BD7085020038B5174C50
:1071B000207808B1082038BD0125A570002000F016
:1071C00031FC112820D0002000F044FC1048114967
:1071D00000680090684610DF0028ECD12570A07090
:1071E00060700721162000F0D1FB08B1FDF744FACA
:1071F0000721152000F0CAFB08B1FDF73DFA00F0A9
:1072000003FD012000F026FC002038BD6C78002032
:1072100004850200494602000EB50749684600F0A1
:1072200031F805E0D0E900108847684600F041F8E1
:1072300002980028F6D10EBD208502000148007892
:10724000704700006C7800201FB5684648DF30B1F9
:10725000052814D004B0BDE81040FDF70DBA084968
:1072600001A800F00FF806E0D0E90021009890474F
:1072700001A800F01EF803980028E6D0F4E71FBD2F
:107280008C850200016009684160AFF3008010B591
:10729000D0E900215368994201D1002104E0D1E9ED
:1072A0000034A34202D01946816010BD083141600C
:1072B000F0E7816800290BD0026892680A44826076
:1072C00041684B689A4203D108314160FFF7DFBF44
:1072D00070474058002800D00120704708B50022B0
:1072E00042504058009008BDD0F80403084000D038
:1072F000012070474058002800D00120704708B591
:10730000002242504058009008BD70B505462846FE
:10731000FDF770FB040003D0112CF8D0FDF7ACF999
:10732000204670BDF0B5134D89B0074607244FF6CF
:10733000FF7600BFC4EBC40005EB80004188B1427A
:1073400011D0C17C90F816C0437D027D8DE80E10EF
:10735000837C427C08A104A8FCF77EFE394604A881
:10736000FCF752F818B1641E2404240CE2D109B0D1
:107370002046F0BD487F0020253032582D25303280
:10738000582D253032582D253032582D2530325881
:107390002D253032580000002DE9F041072400254A
:1073A000134A144F09E0965DD35C06EB03137B553B
:1073B0006D1CADB2F72D05D2801C037813B1467851
:1073C000002EF0D18DB1C1EBC1000B4901EB80065D
:1073D00030462A460749FDF775FE0446082804D0C2
:1073E000112CF5D008B1FDF747F92046BDE8F08132
:1073F00084820200047C0020487F00202DE9FF41A8
:10740000041D00F1080818300190E07C02AAC008B1
:10741000ADF8000069460920FDF794F830B102AAE2
:1074200069460820FDF78EF8002831D11948FBF78E
:10743000A6FF00282CD0BDF8082016480399FBF7BA
:10744000B3FF002824D11348211D001DFEF768FE5C
:1074500005001DD0104E00244FF6FF77C4EBC4008A
:1074600006EB80014888B84206D01031072240461A
:10747000FBF79AFF00280BD0641C082CEED3002DDC
:1074800006D0044A01231832A2F1080140468CDFDD
:10749000BDE8FF8164820200487F00202DE9F84F9B
:1074A00005460C460888B5F8CA12884259D195F8A5
:1074B000C602DFF8F8A000EB8001C1EB801005EBFD
:1074C000400160884FF003094FF00008F0BBE688E8
:1074D0000879A21DF3B250FA86F6062E01D80344AD
:1074E00000E006230B7100261CE000BF00EBC00388
:1074F00006EB860702EB470701EB4303D7F802C010
:10750000C3F80AC0D7F806C0C3F80EC07F895F82EF
:10751000A3F81480A3F81680A3F81880401CA3F8E1
:107520001A80761C0B798342E0D895F8C62200EBCE
:10753000C00002EB8203C3EB821205EB420231F87A
:107540001000128990420ED2087900E00BE0062864
:1075500009D085F8C50221882846FEF7F7F8010012
:107560000AD1BDE8F88F85F8C58222886946284689
:10757000FEF784F901000BD085F8C78222882846DF
:10758000FEF73AFA8AF800902188AAF80210E8E794
:107590009DF800000028E4D0228801212846FEF74B
:1075A000E3F92188284600F0E3F8DAE76481002057
:1075B0007CB58E88027900EBC605AC1D2A73C97BA9
:1075C000012902D0022904D101E0008800E04088AE
:1075D000208021886088814209D930469EDF0121C0
:1075E00010B1112802D002E0617100E02171A07990
:1075F000E17988420CD9002100910191297BADF8F5
:107600000010297BADF8021030460022694690DF59
:107610007CBD0000F8B505460C460888B5F8CA12CE
:1076200088425DD195F8C602A61D00EB8001C1EB32
:10763000801005EB400395F8C502618800EBC0009F
:1076400003EB40000A3039B329E000BF01EB4102EF
:1076500006EB42029788B7F5245F0CD06FF4245CE8
:1076600017EB0C070AD0012F02D0072F0BD108E02F
:107670005288428107E05288828104E05288C281A8
:1076800001E05288028242892AB182891AB1C289F4
:107690000AB1028A1AB9491C32888A42D6D8002611
:1076A0008DF8006095F8C5021979401C884203D115
:1076B00001208DF8000018E085F8C502228869468F
:1076C0002846FEF7DBF801000BD085F8C762228858
:1076D0002846FEF791F90A4803210170218841806C
:1076E000F8BD9DF800000028FAD022880121284624
:1076F000FEF73AF92188284600F03AF8F8BD000074
:107700006481002070B505460C4690F8C6022288B8
:1077100000EB8001C1EB801005EB4001B5F8CA0217
:10772000824222D1608848B100212846FEF71CF928
:1077300021882846BDE8704000F01AB8A2680A60A7
:10774000E068C1F8060021882846FDF7FFFF010028
:107750000BD0002085F8C70222882846FEF74CF996
:107760000248032101702188418070BD648100209E
:107770002DE9F041044690F8C9020E46401C194913
:10778000C0B284F8C902C9680327174D4FF0000E34
:10779000884224D284F8C5E294F8C602401CC0B2E4
:1077A00000EB8001C1EB801104EB410284F8C602BA
:1077B000A5F1180101EB800001210068106082F83A
:1077C00004E0304694DF010007D084F8C7E2324677
:1077D0002046FEF711F92F706E80BDE8F08184F825
:1077E000C7E2F8E7FC7700206481002004490844E0
:1077F00090F93000082801DB012070470020704715
:10780000788400200449084490F93000082801D207
:1078100001207047002070477884002070B50C4B21
:1078200000210A4ADC680DE002EB81058678AD781C
:10783000B54206D132F821500688B54201D15868C8
:1078400070BD491CA142EFD3002070BD4C810020C7
:10785000FC770020124810B5407820B91048001D70
:1078600090F8C70238B10F48002240F6CD41806839
:10787000FCF7F8FF0CE00B4810308ADF08B1FCF78A
:10788000FBFEFDF775F9002808D10120FDF7E2FDA8
:10789000002803D0BDE81040FCF7EEBE10BD00008C
:1078A000107500206482020070B501260A48710438
:1078B00000250160094C4810C4F84803C4F80803C7
:1078C00066602F20FEF7FCFEA660054C2F20A56009
:1078D000FEF7F6FEA57070BD80E100E000100140EB
:1078E0003C78002070B50446C87D0D4600284FF452
:1078F000847120460AD0FFF7F1FCD4F818056A7E9F
:10790000E9688854687E401C687670BDFFF7E6FC25
:10791000D4F8180570BD1FB501238DF800308DF81F
:1079200008100192D0E90012684690471FBD10B5BB
:10793000044600684FF49271FFF7D0FC4FF4847155
:107940002068FFF7CBFC20680121016010BD00001A
:1079500010B58BDF0A4881780A4859B1002240F6F9
:10796000CD418068FCF77EFF002808D0BDE81040BC
:10797000FCF782BE8068BDE81040FCF7B7BF10BDC1
:10798000107500206482020000F000B970B50D4649
:107990000446FCF785FB60B12846FCF793FB58B121
:1079A0006807000E002C0ADA074A04F00F011144A0
:1079B00007E042F2010070BD42F2020070BD0349CF
:1079C00021440870002070BD14ED00E000E400E0E8
:1079D00038B50021012558B101280CD0032809D160
:1079E00007210020FEF7EEFEBDE83840FEF7D4BECA
:1079F0000A48056038BD8DF800106846FDF718F894
:107A0000074C207808B9FEF7A1FEE068401CE06052
:107A1000A5709DF80000FDF72DF838BD80E100E06D
:107A2000648400203EB5044609496846FFF72AFCF5
:107A300008E000BFD0E900212046904730B16846F9
:107A4000FFF737FC02980028F4D13EBD11203EBD5F
:107A5000088502003EB5044608496846FFF712FC57
:107A600007E000BFD0E90021204690476846FFF7B5
:107A700020FC02980028F5D13EBD000014850200CC
:107A800070B50028049D18D0002916D0002A14D003
:107A90005FF0000430F814609E420FD100200123F3
:107AA000A34008E001EB800426680DB11E4300E00E
:107AB0009E43401C26609042F4D370BD641C202C71
:107AC000E8D370BD70B5054600242146284600F075
:107AD0000AF808B1204670BD641CA4B2202CF4D36F
:107AE0004FF6FF7070BD01228A40024201D0012092
:107AF0007047002070472DE9F04192B080464FF06A
:107B0000000017460D00009012D000246E46A1B26E
:107B10003846FFF7E8FF40B1009935F8140006EB4E
:107B2000410188800098401C0090641C202CEED3FA
:107B3000442269464046FBF7FEFB12B0BDE8F081E7
:107B400070B5002506462C46A1B23046FFF7CBFFA4
:107B500000B16D1C641C202CF6D3284670BD08B5FE
:107B6000009313460122FFF78BFF08BD10B50446B2
:107B70000020FDF76FFC08B1FCF77EFD24B9FDF78E
:107B8000CBFB08B1FCF778FD012010BD70B5164D98
:107B9000164C07E0016820788847002822D0124858
:107BA000FFF787FBA8680028F4D1207803280CD0C1
:107BB00002280AD0FFF742FB00B132DF0C49012056
:107BC0000860BFF34F8F20BFFDE7BFF34F8F094819
:107BD0000168094A01F4E06111430160BFF34F8F6E
:107BE00000BFFDE770BD00007886002060780020AF
:107BF000000500400CED00E00400FA05002801D16A
:107C0000FDF7C6BD7047000010B51620FCF748FA16
:107C100070B10D4800784009FCF754FA58B10B4890
:107C200082684FF4800162B1016841F4800109E08B
:107C300042F2010001E042F20200BDE81040FCF710
:107C40001BBD0348016010BD16E400E04C86002017
:107C500000E100E010B50446082902D00020FCF73E
:107C60000BFDD4E90010BDE8104008472DE9F84F9E
:107C70001D4C00256846D4E901A6FDF709FF002741
:107C800038B30023009A61681CE0D1F800C00846B0
:107C9000944503D9ACEB02020A6015E0A2EB0C029A
:107CA00063440760D0F80CC0C1698146BCF1000F85
:107CB00008D006EB030828F07F48C0E9018CC9F81A
:107CC0001C5005460029E0D128466160FEF7ECFA19
:107CD00003E02846FEF7E8FA10B15046FDF76CFDC8
:107CE000E770BDE8F88F00003C7800200D4B10B520
:107CF000596831B102680C68A24204D8A21A0A601D
:107D0000C161586010BD0B4603E00B46C969121BE8
:107D100021B10C689442F8D3A41A0C600260C161CE
:107D2000D86110BD3C7800202DE9F041144E7768F1
:107D30003D462C4603E0844204D02546E469002CED
:107D4000F9D11BE0D4B1A5420BD1F869706040B9FC
:107D50000C49012088600021B160F0702F20FEF7EF
:107D6000AFFC2168E069E86110B10268114401606C
:107D70007068874202D00120BDE8F0810020FBE757
:107D80003C780020001001407CB5064600240D46DA
:107D90008DF800406846FCF74BFE01A800F0F4F9AE
:107DA00070B10570094946609DF8040048709DF85F
:107DB0000000FCF75FFE1420FBF734FF20467CBD7B
:107DC00004249DF80000FCF755FEF7E7108500201D
:107DD0002DE9FC411D4D6C68002C35D01C48002756
:107DE0000068A968B846401A20F07F462068B04273
:107DF00015D8361A07442046E469017C69B180F839
:107E000010804169009180690190124A08216846FA
:107E1000FCF766FC08B1FCF72FFC002CE6D12978B2
:107E20006878814206D1401CC0B26870022801D136
:107E300085F80180054869780C3040F82170BDE86C
:107E4000FC411420FBF7EEBEBDE8FC813C7800202D
:107E500004150140557C020070B50C4605464FF4F0
:107E60008E71FFF73BFAA18AA068405CA18A491C89
:107E7000A182C5F81C0570BD1FB500228DF8002039
:107E80008DF80810816801918275D0E9001268466A
:107E900090471FBD38B5017841B1012901D00229B1
:107EA00014D14068BDE83840FCF7E6BB084C2078A8
:107EB00000280BD120460090064A04216846FCF7B2
:107EC0000FFC002802D12078401C207038BD000033
:107ED00010750020B98102007CB50178244D81B372
:107EE00001290BD002292BD18DF80010C068691C24
:107EF00001900122C81DFEF7A9FD2EE0406801781F
:107F00001C48FCF7DFFB1B4C012618B18DF8006004
:107F1000019006E0A068E168081A05D000208DF8FD
:107F20000000696868468847A068E168081AA18867
:107F3000884207D80E490122491CC81DFEF786FD5C
:107F40007CBD01E0AE70FBE70A4809491030FCF740
:107F50009EFB30B103208DF80000696868468847B1
:107F6000EEE70349012201F10800FEF78BFEE7E787
:107F700050780020588600202DE9FF470C46054622
:107F80004FF40071FFF7B0F901274FF40178002694
:107F900018B34FF4927949462846FFF79AF9E0B1B1
:107FA00049462846FFF79AF9C5F80883A07E00B92C
:107FB0006F6002208DF80000D5F88004C5F88004B9
:107FC0000390E07D8DF80800E0680190E675267664
:107FD000D4E900126846904727E004212846FFF7BD
:107FE00083F910B34FF484712846FFF772F9E0B1BA
:107FF00021462846FFF776FCE07D617E884214D159
:10800000207E38B1617EE268E0752069E060267606
:10801000667607E0A07E00B96F60C5F80883E67554
:10802000617EE2682046FFF776FC4FF48E78414689
:108030002846FFF74EF988B1A08AA17D884204D274
:1080400021462846FFF708FF08E041462846FFF78B
:1080500045F9A17D11B12046FFF70EFF4FF4A2783C
:1080600041462846FFF735F9002812D041462846F8
:10807000FFF734F9A07E00B12F60E07D002808D022
:10808000E675617EE26804B02046BDE8F047FFF780
:1080900042BCBDE8FF872DE9FF410C464FF49277C3
:1080A00005463946FFF726F90026C0B1394628466D
:1080B000FFF725F902208DF80000D5F88004C5F8F7
:1080C00080040390D5F83C058DF80800E068019025
:1080D000E6752676D4E900126846904724E04FF40E
:1080E000887739462846FFF705F9E8B1394628462A
:1080F000FFF705F9D5F83C05C1B2E07D884213D100
:10810000207E60B1E268D5F8000220F02000C5F8BA
:108110000002207EE0752069E060267601E0E675C9
:10812000E2682046FFF7F7FB4FF4A277394628466E
:10813000FFF7E0F868B139462846FFF7E0F8E07D40
:1081400038B1E675D5F83C05E268C1B22046FFF7C4
:10815000E2FB4FF4907631462846FFF7CBF8002833
:108160000FD031462846FFF7CAF8A07D002808D076
:10817000D5F84C0504B0C1B22046BDE8F041FFF788
:108180007BBEBDE8FF8100000A494A788B78521C0B
:10819000D2B2934200D100220B78934201D1002049
:1081A00070470270487800EB400001EBC000001DF2
:1081B000704700001085002008B550B1042908D18F
:1081C00000680021017004E001219DF80000FDF726
:1081D000DDFC6846FCF79AFB0028F5D008BD0000DE
:1081E0001FB500200090684633DF0098800702D555
:1081F000164901208870164A01AB07CA07C3154902
:1082000001A8FEF70BFE08B1FCF736FA0F48C01CB8
:10821000FEF7CAFD08B1FCF72FFAFEF7F1FD0E4A92
:1082200001210E48FCF7E2FA08B1FCF725FA0B48E9
:1082300000220C384FF48041C068FCF713FB08B1F2
:10824000FCF71AFA009834DF1FBD000010750020FB
:108250009C83020061820200D15A020070820200F7
:10826000704700005146420001000200747800206F
:10827000947800200000A000500000000600480094
:10828000000090010000000000000000000000005D
:1082900000000000000000000000000000000000DE
:1082A00000000000000000000000000000000000CE
:1082B0000000000000010203040506070809000091
:1082C00000000000000A0B0C0D0E0F000000000063
:1082D000000000000000000000000000000000009E
:1082E00000000000000A0B0C0D0E0F000000000043
:1082F000000000000000000000000000000000007E
:10830000000000000000000000000000000000006D
:10831000000000000000000000000000000000005D
:10832000000000000000000000000000000000004D
:10833000000000000000000000000000000000003D
:10834000000000000000000000000000000000002D
:10835000000000000000000000000000000000001D
:10836000000000000000000000000000000000000D
:1083700000000000000000000000000000000000FD
:1083800000000000080000000600000007000000D8
:10839000050000000100000000E0D701010000001E
:1083A000D007000007000000111213140D0E0F106B
:1083B0002880002048800020748000200D000300E9
:1083C000395302000E000300395302000F0003006E
:1083D000395302001000030039530200010000006D
:1083E000000000000000000000000000000000008D
:1083F000000000000000000000000000000000007D
:10840000000000000000000000000000000000006C
:10841000000000000000000000000000000000005C
:10842000000000000000000000000000000000004C
:10843000000000000000000000000000000000003C
:10844000000000000000000000000000000000002C
:108450000000000000000000770A0000000000009B
:10846000770A0000000000007ADA00000000000037
:108470009ECADC240EE5A9E093F3A3B50000406E8C
:1084800001010000000002000000000002010000E5
:10849000000000000000000000000050010000008B
:1084A000D007000007000000F08400200300000057
:1084B000FFFFFFFFFFFFFFFFFFFFFFFFFFFFFFFFCC
:1084C00000000000000000000000D60107010000CD
:1084D0000000000000000000F8850200FC8502009A
:1084E0000000000000000000D0840200E8840200C8
:1084F0000400000000000000000000000000000078
:108500000000000002000007F4840200048502005D
:10851000080000002C8502003C85020008000000D5
:108520003C8502004C850200080000007C860200A9
:108530008486020000000000000000006C8602003B
:108540007C8602000000000000000000FC850200A4
:1085500004860200048602001C8602001C860200BB
:108560005C8602005C8602006486020010750020B2
:108570004C8502006C850200080000006486020041
:108580006C86020000000000000000007C850200F4
:108590008C85020008000000DDDDDDDDDCBBBBDD1D
:1085A000DDDDDDDDDDDDDDDD988888888888888893
:1085B00077777777778888888555555666666666B3
:1085C0006666666666688888833333322222222292
:1085D000222222222228888D848602001075002003
:1085E00064030000103A02009886020074780020AC
:1085F000142E0000904002006D7B0200154E020018
:108600000000000039650200FC7E0020DD4B020006
:1086100014750020A54D020000000000D94F020093
:10862000487F0020D94F0200647F0020D94F02000C
:10863000807F0020D94F02009C7F0020D94F02008C
:10864000B87F0020D94F0200D47F0020D94F02000C
:10865000F07F0020D94F02000C800020954C0200D2
:1086600000000000FD7B02000000000059710200C4
:10867000000000004972020000000000D1790200F1
:108680000000000001FF01FF01D3031AFFFF045E99
:0886900090D003041920004002
:0400000500023201C2
:00000001FF
