:020000040002F8
:10300000D0640020E9330200F1330200F333020000
:10301000F5330200F7330200F9330200000000002C
:10302000000000000000000000000000FB33020070
:10303000FD33020000000000FF33020001340200F3
:10304000693D0200033402004941020003340200DA
:1030500003340200033402005D3B0200033402002B
:10306000033402000334020003340200033402007C
:10307000033402000334020003340200033402006C
:1030800003340200C13D0200033402000334020095
:10309000453E020003340200493E020003340200B0
:1030A000033402000334020003340200033402003C
:1030B000033402000334020000000000000000009E
:1030C000033402000334020003340200033402001C
:1030D0000334020003340200033402000000000045
:1030E00000000000000000000000000000000000E0
:1030F00000000000000000000000000000000000D0
:1031000000000000000000000000000000000000BF
:1031100000000000000000000000000000000000AF
:10312000000000000000000000000000000000009F
:10313000000000000000000000000000000000008F
:10314000000000000000000000000000000000007F
:10315000000000000000000000000000000000006F
:10316000000000000000000000000000000000005F
:10317000000000000000000000000000000000004F
:10318000000000000000000000000000000000003F
:10319000000000000000000000000000000000002F
:1031A000000000000000000000000000000000001F
:1031B000000000000000000000000000000000000F
:1031C00000000000000000000000000000000000FF
:1031D00000000000000000000000000000000000EF
:1031E00000000000000000000000000000000000DF
:1031F00000000000000000000000000000000000CF
:10320000DFF80CD000F0D6FA0048004771680200E1
:10321000D064002030B4044654E8000F0D4644E862
:103220000053002BF8D1156030BC704730B4044611
:1032300054E8000F40EA010544E80053002BF7D1A1
:10324000156030BC704730B4044654E8000F00EA03
:10325000010544E80053002BF7D1156030BC7047DE
:1032600030B4044654E8000F80EA010544E80053F6
:10327000002BF7D1156030BC704730B4044654E8D9
:10328000000F00EB010544E80053002BF7D1156057
:1032900030BC704730B4044654E8000FA0EB010581
:1032A00044E80053002BF7D1156030BC7047000094
:1032B00030B4044654E8000F0D4644E80053002B98
:1032C000F8D1156030BC704730B4044654E8000FA4
:1032D00040EA010544E80053002BF7D1156030BCEB
:1032E000704730B4044654E8000F00EA010544E892
:1032F0000053002BF7D1156030BC704730B4044642
:1033000054E8000F80EA010544E80053002BF7D190
:10331000156030BC704730B4044654E8000F00EB31
:10332000010544E80053002BF7D1156030BC70470D
:1033300030B4044654E8000FA0EB010544E8005304
:10334000002BF7D1156030BC7047000030B4044644
:1033500054E8000F0D4644E80053002BF8D11560E7
:1033600030BC704730B4044654E8000F40EA010511
:1033700044E80053002BF7D1156030BC704730B4DF
:10338000044654E8000F00EA010544E80053002B0E
:10339000F7D1156030BC704730B4044654E8000FD4
:1033A00080EA010544E80053002BF7D1156030BCDA
:1033B000704730B4044654E8000F00EB010544E8C0
:1033C0000053002BF7D1156030BC704730B4044671
:1033D00054E8000FA0EB010544E80053002BF7D19F
:1033E000156030BC7047000006488047064800471B
:1033F000FEE7FEE7FEE7FEE7FEE7FEE7FEE7FEE7A5
:10340000FEE7FEE74D3E0200013202002DE9F05FCB
:103410000546002092469B46884606468146402443
:103420001BE0284641464746224600F070F95346C5
:103430005A46C01A914110D311461846224600F050
:1034400057F92D1A67EB01084F462246012000214B
:1034500000F04EF917EB00094E41201EA4F10104C3
:10346000DFDC484631462A464346BDE8F09F00006F
:10347000004870470C98020010B50446FFF7F8FFAB
:103480000068005D00F0010010BD40EA01039B07E9
:1034900003D009E008C9121F08C0042AFAD203E0C9
:1034A00011F8013B00F8013B521EF9D27047D2B22D
:1034B00001E000F8012B491EFBD270470022F6E71D
:1034C00010B513460A4604461946FFF7F0FF20469A
:1034D00010BD421C10F8011B0029FBD1801A704757
:1034E00010B5002200E0521C835C8C5CA34201D129
:1034F000002BF8D1D8B2E1B2401A10BD30B5044665
:103500000020034600E05B1C934203D2E05CCD5CEC
:10351000401BF8D030BD034611F8012B00F8012BF9
:10352000002AF9D11846704770B500B91068002517
:1035300012E00B4602E0A64203D05B1C1C78002C74
:10354000F9D1E3B22B4305D02CB125B1002100F80D
:10355000011B04E00546401C0678002EE9D11060EE
:10356000284670BD004ADFE7602A00200FB400B58E
:103570008DB010A909900B9000914FF0FF300A9088
:1035800000200C9005480690054807906A4609A857
:103590000F9900F0E1F80DB05DF814FB75370200EB
:1035A000933702002DE9FF5F1D464FF0FF3BD5E941
:1035B000014691465F464FF00008A9697F1C0198BB
:1035C0008847296A824688470028F6D1BAF1FF3F2A
:1035D0000CD024F4C064002E19DD600614D5BAF1B5
:1035E0002B0F09D0BAF12D0F0ED103E0584604B0CD
:1035F000BDE8F09F44F48064A9697F1C0198884766
:10360000761E8246002E02DDBAF1300F03D0B9F1EA
:10361000000F26D032E0A969761E44F400747F1CA6
:10362000019888478246002E05DDBAF1780F06D052
:10363000BAF1580F03D0B9F1000F10D01EE0B9F164
:10364000000F02D0B9F1100F18D1A969761E24F429
:1036500000747F1C019888478246102002E00820F1
:1036600000E00A20814609E008FB0908A969761EE6
:1036700044F400747F1C019888478246002E05DDC3
:103680004946504600F053F80028EDDAE969019800
:103690008847A00502D46FF00100A8E7E00725D114
:1036A000600613D5600502D5C8F1000000E0404671
:1036B00029680A1D2A600968220501D5087015E0ED
:1036C000220701D5088011E008600FE02868011D7D
:1036D00029600068210502D580F8008006E02107F6
:1036E00002D5A0F8008001E0C0F8008038467EE7EF
:1036F000202A04DB203A00FA02F1002070479140B2
:10370000C2F1200320FA03F3194390407047202AA6
:1037100004DB203A21FA02F00021704721FA02F37B
:10372000D040C2F1200291400843194670473A2820
:1037300000D2303820F02002412A01D3A2F1370014
:10374000884201D34FF0FF307047000002681144F7
:103750001378016018467047D160044951610449EB
:10376000116200211161114600F036B84D37020098
:1037700079340200426842B1016811F8013B23B17B
:10378000521EC0E90012184670470121C160881E10
:10379000704742685AB1C368016843B983688B4275
:1037A00005D0491E521CC0E90012002070474FF09E
:1037B000FF307047064C074D06E0E06840F001031B
:1037C00094E8070098471034AC42F6D3FFF71CFD8D
:1037D000F09E0200109F02002DE9F34F8BB04FF0D6
:1037E000000801F10C000C464FF0010B46460DF1AC
:1037F000080A01906269012101989047051E2DD0A9
:10380000252D2CD0216A8847C0B162690121019819
:103810009047216A88470028F7D1411E62690198C4
:10382000904700E0761CA1690B988847216A884779
:103830000028F7D1E1690B988847DBE7A1690B986D
:1038400088470746A84201D1761CD3E7E1690B9867
:1038500088477F1C02D1B8F1000F6FD046E10027E6
:1038600062693D463946019890472A2804D1626929
:103870000121019890470125DFF8849262690121B6
:1038800001989047A0F130010A290AD24F45E5DCA2
:1038900007EB870100EB4107303FDFD445F010050F
:1038A000ECE7E90601D46FF000476C280AD04C28F9
:1038B00014D0682815D06A280DD074281CD07A2816
:1038C0001AD01DE062690121019890476C2802D04E
:1038D00045F0040514E045F002050DE045F0200533
:1038E0000AE06269012101989047682802D045F0FA
:1038F000080505E045F400656269012101989047DB
:10390000C4E9015765283DD019DC58287AD00CDC71
:10391000452837D004DC252826D0412831D131E094
:1039200046282FD047282CD12CE05B2877D061285F
:1039300028D063287CD0642823D15AE0D0E06F28B7
:1039400048D008DC66281DD067281BD0692821D004
:103950006E2816D127E0702845D0732868D07528C6
:1039600047D078280DD14DE0A1690B9888470546CE
:1039700025283FF469AFE1690B9888476D1C3FF437
:103980006AAFB3E023466A466FF001000B99AFF3CC
:1039900000809EE045F040006060A80723464FF09D
:1039A000000236D43EE0E8077FF447AF2068011DEF
:1039B00021600068290501D506701BE7290701D59C
:1039C000068017E7A90703D5F117C0E9006111E7E1
:1039D00006600FE745F040006060A80723464FF0FF
:1039E000080216D41EE040F60E0125EA01006060D0
:1039F00016E045F040006060A80723464FF00A0239
:103A000007D40FE045F040006060A80708D52346C2
:103A100010226FF001000B99AFF3008059E007E02E
:103A2000234610226FF001000B99FFF7BBFD50E019
:103A30004FF000094F464B46632802D05B2806D062
:103A400040E0E80601D40120A06001273AE0626965
:103A50000121019890475E2805D14FF00109626964
:103A6000494601989047216939B900210A465346D1
:103A700043F82120491C0829FADBB0B3216969B950
:103A8000C11700EBD16253110AEB830122F01F0230
:103A9000821A01200B68904003430B606269012188
:103AA000019890475D28E8D1B9F1000F09D00020B6
:103AB000514651F82020D24341F82020401C0828CC
:103AC000F7DB02AB224600976FF001000B99AFF3D2
:103AD000008000280CDA401C08D1BBF1000F05D093
:103AE0004FF0FF300DB0BDE8F08FFFE74046F9E73B
:103AF000E90701D108F1010806444FF0000B79E60F
:103B0000CCCCCC0C70B58C1810F8015B15F0070309
:103B100001D110F8013B2A1106D110F8012B03E066
:103B200010F8016B01F8016B5B1EF9D12B0705D46E
:103B30000023521E0DD401F8013BFAE710F8013BB7
:103B4000CB1A921C03E013F8015B01F8015B521ED3
:103B5000F9D5A142D8D3002070BD00002DE9F0476F
:103B600000268CB0DFF86091B0464FF480750124D8
:103B700037460696284603F0C9FD38B1D9F8040344
:103B8000204203D0284603F0B7FD26432D1D6400D4
:103B90007F1CADB2082FEDD34FF4BE74204603F066
:103BA000B5FD48B1204603F0A7FD46F0004606AA41
:103BB0000121002003F08CFD444D16F0FF0F15D0BD
:103BC0000127002437420DD009EB8401D1F81005FC
:103BD000D1F81015C0F3042055F82420C1F3014199
:103BE00002B190477F00641C082CEBD3002E67DAEB
:103BF0004FF0FF30CDE9088000263446281910F830
:103C0000507F90F9000027F0C008401C44D009A95B
:103C1000404602F07AFF58B34FEA9719404601F048
:103C2000BFFE55F820701FB1B9F1030F03D00FE0AC
:103C3000B9F1030F30D108A84FEAD80208F0070302
:103C4000815C4FF0010C0CFA03FC41EA0C01815439
:103C50004FF0A04101EB8800D0F8000706A9C0F39F
:103C6000014A404602F051FF18B1BAF1020F03D0E9
:103C700012E0BAF1030F0FD1B9F1030F08D1BAF175
:103C8000020F1BD00221404603F006FD761CF6B25F
:103C900017B149464046B847641C042CAED3002EE9
:103CA0000ED06A460121002003F012FD069900980B
:103CB000884205D00690089809909DE70321E2E725
:103CC0000CB0BDE8F0870000006000404C3B0020D5
:103CD000F8B50F46002116460C4600911D466A466F
:103CE0003946FFF721FC09E046F824006A463946C8
:103CF0000020641CFFF718FCAC4201DA0028F3D165
:103D00002046F8BD00F01F020121914040098000CB
:103D100000F1E020C0F88012704700F01F0201217E
:103D200091404009800000F1E020C0F80011704788
:103D300000F01F02012191404009800000F1E020C5
:103D4000C0F8001270474907090E002806DA00F093
:103D50000F0000F1E02080F8141D704700F1E02012
:103D600080F80014704700002DE9F0414FF480778F
:103D7000384602F093FF0124104EA50748B138469B
:103D800002F093FF0120C5F808037470002001F0D1
:103D900031FE4FF48277384602F080FF00280BD0C6
:103DA000384602F082FF0220C5F80803B470BDE86F
:103DB000F041012001F01EBEBDE8F081383B00203B
:103DC00007480021C0F84011C0F84411C0F848115C
:103DD000C0F84C11C0F80011C0F8041105F000B88B
:103DE0000010014000F0BEB970B50E46144900EB5A
:103DF000400001EBC0051446E86A183520B10128DF
:103E00000FD0022805D113E0284600F0DFF9A042C8
:103E100001D2002411E022463146284600F00EFA75
:103E20000BE0284600F0D2F9A042F4D20446F2E7B3
:103E30003146284600F0D5F90446204670BD000002
:103E40004842002004F01ABF04F098B9F0B5AE481B
:103E50000023021D01780125101D4FF08054062912
:103E60000BD11678360708D10678C6F30316032E51
:103E700006D0042E04D0052E02D0062907D00EE06D
:103E8000B4F82463A14FC6F304263E6002E016781E
:103E9000360704D10678C6F30316032E02D006298E
:103EA00004D00FE09B4F9A4E7E670EE016783607DF
:103EB00008D10678C6F30316032E06D0042E04D0CC
:103EC000052E02D0062907D00EE0D4F84462924FA6
:103ED000C6F342363E6002E01678360704D1067813
:103EE000C6F30316032E02D0062906D011E08B4E2E
:103EF000376827F0807737600EE01678360708D1EC
:103F00000678C6F30316032E06D0042E04D0052E21
:103F100002D006290AD011E04FF08046C6F80C31D5
:103F2000C6F810317C4E361F336002E01678360733
:103F300004D10678C6F30316032E02D0062905D055
:103F40000CE0754F032664373E600AE016783607AA
:103F500004D10678C6F30316032E02D006290DD02D
:103F600014E06F4F05263E606D4E783635606C4E1E
:103F7000083633603F263F1D3E6002E01678360764
:103F800004D10678C6F30316052E02D0062957D0B1
:103F900062E0644E3668644F3E60624E361D36689D
:103FA0003F1D3E605F4E083636683F1D3E605D4EE9
:103FB0000C3636683F1D3E605A4E103636683F1D3F
:103FC0003E60584E143636683F1D3E60554E1836DA
:103FD0003668554F20373E60524E1C3636683F1DBE
:103FE0003E60504E203636683F1D3E604D4E2436B2
:103FF00036683F1D3E604B4E283636683F1D3E609A
:10400000484E2C3636683F1D3E60464E3036366888
:10401000454F40373E60434E343636683F1D3E6064
:10402000404E383636683F1D3E603E4E3C36366860
:104030003F1D3E603B4E403636683F1D3E6002E00D
:104040001678360708D10678C6F30316032E06D075
:10405000042E04D0052E02D0062907D019E0D4F88A
:104060005812324A01F04F01116002E0117809073D
:104070000FD10078C0F30310032803D0042801D027
:10408000052806D12A480168C90702D06FF001014E
:10409000016022487438016841F470010160BFF387
:1040A0004F8FBFF36F8F4FF01021D1F8000200281F
:1040B00003DBD1F80402002822DA1E4A15601E48EC
:1040C0000468002CFCD01524C1F800420568002DBE
:1040D000FCD0C1F8044201680029FCD013600168DB
:1040E0000029FCD0BFF34F8F0C48F0380168134A09
:1040F00001F4E06111430160BFF34F8F00BFFDE7A2
:1041000010490F480860F0BDE00F00F04035014055
:104110000DF0ADBA00C007403C050040FCED00E0EA
:10412000105600400404001020C50040E40E00407A
:104130000004004004E5014000E401400400FA05E9
:104140000090D003A02900200448017F04480029E2
:10415000024901D004F0D9BF04F048BFA43B0020BD
:104160000020004010B5124C02202061606111A0B7
:10417000A06104F17800E0614FF40070206200203B
:10418000A06260620BA1A164E06204F51E71E164AB
:104190001021A065C4E91410E06509A1E01DFFF736
:1041A000BAF908A12046FFF7B6F92020A07110BD8A
:1041B000484200205465726D696E616C0000000019
:1041C0005254540053454747455200000269C168A4
:1041D0008A4203D88068401A104400E0501A401EFA
:1041E00070472DE9F047C4681746894606464FF0E8
:1041F00000083069A04201D9051B02E0B168201A0D
:104200000D1AB0686D1E001BA84200D80546BD42BD
:1042100000D33D4670682A4620444946FFF735F9E9
:10422000B0687F1B2C44A844A944A04200D10024BC
:10423000F460002FDDD14046BDE8F0872DE9F04164
:1042400004468846D4E90207C51BE1686068164643
:104250000844B54206D94146FFF717F9B819E0609E
:10426000BDE8F0812A464146FFF70FF9761B08EBBF
:10427000050132466068FFF708F9E660F0E70000E4
:104280000FB4054B10B503A9044A029800F036F8A4
:1042900010BC5DF814FB00004F5D0200042A0020F2
:1042A00002E008C8121F08C1002AFAD170477047FF
:1042B000002001E001C1121F002AFBD1704700005D
:1042C0000121202803DA81400548014003E040280D
:1042D00002DA2038814009B1012070470020704780
:1042E000FC06FFBD082806D228B1012803D0042807
:1042F00001D0012070470020704700002DE9FF4FDA
:104300008DB00F460546002606E025280BD0DDE9D6
:104310000F1290476D1C761C28780028F5D111B03B
:104320003046BDE8F08F0024A246A1460122EC49A8
:1043300000E0044315F8013F203B02FA03F0084275
:10434000F7D128782A2810D06FF02F022878A0F112
:104350003001092914D80AEB8A0102EB410144F02B
:10436000020400EB010A6D1CF0E701CF5FEA000ACE
:1043700003D544F40054CAF1000A44F002046D1C51
:1043800028782E2817D115F8010F44F004042A28A4
:104390000ED06FF02F022878A0F1300109290AD839
:1043A00009EB890102EB410100EB01096D1CF2E709
:1043B00057F8049B6D1C28786C280FD006DC4C281D
:1043C00017D068280DD06A2814D104E0742810D0C2
:1043D0007A280FD10DE044F400140AE044F480146C
:1043E00001E044F440146978814202D104F580145C
:1043F0006D1C6D1C2A786E2A1FD00CDC632A31D00C
:1044000004DC002A8BD0582A11D1A3E0642A68D09A
:10441000692A0CD165E0732A2ED004DC6F2A73D090
:10442000702A04D19BE0752A6FD0782A6ED010468E
:10443000DDE90F129047761C50E1C4F302500228C8
:1044400006D0032809D0042801CF09D0066045E131
:1044500001CFF117C0E9006140E101CF06803DE1E5
:1044600006703BE117F8040B8DF8000000208DF872
:104470000100EB46012003E057F804BB4FF0FF308A
:1044800061074FF0000102D40DE008F101018846F8
:1044900049450FDA8045F8DB1BF808100029F4D1F4
:1044A00008E008F1010188468142FADB1BF8081098
:1044B0000029F6D1DDE90F23AAEB08008146214649
:1044C00000F036F9304400EB080604E0DDE90F1295
:1044D0001BF8010B9047B8F10108F7D22146484676
:1044E000F7E00A21C4F302534FF0000B0891022BAE
:1044F00004D001CFC117032B09D00AE0FF1D27F01C
:104500000707F7E8020108E032E01FE020E000B210
:10451000C117042B01D140B2C117031E71F1000372
:1045200007DA4FF0000CD0EB0C006CEB01012D23EF
:1045300002E0230504D52B238DF82430012303E06A
:10454000E30701D02023F7E7984658E00A2110E05E
:1045500010210EE010204FF0000B08900CE010210D
:104560004FF0000B44F004044FF00809089103E0F9
:1045700008214FF0000B0891C4F30253022B04D022
:1045800001CF0021032B06D006E0FF1D27F007070F
:10459000F7E8020103E080B2042B00D1C0B24FF073
:1045A000000823072BD5702A07D0DDF820C08CF037
:1045B000100C5CEA0B0C05D00EE040238DF8243083
:1045C000012308E050EA010306D030238DF824309F
:1045D0008DF8252002239846DDF820C08CF0080CC9
:1045E0005CEA0B0C0BD150EA010301D1630706D53D
:1045F00030238DF824304FF00108A9F10109582A21
:1046000004D038A20B9208AA0A920BE03AA2F9E76A
:104610005B46089AFEF7FAFE0B9B9B5C0A9A521EB9
:104620000A92137050EA0102F2D10A98ADEB000031
:1046300000F1200B600702D524F4803401E04FF034
:104640000109D94502DDA9EB0B0000E0002000EBD9
:104650000B0141440890AAEB010AE00306D4DDE90E
:104660000F232146504600F063F806444FF000093E
:1046700008E009A911F80900DDE90F12904709F1D6
:104680000109761CC145F4DBE0030CD5DDE90F23FD
:104690002146504600F04CF8064404E0DDE90F12D4
:1046A00030209047761C0899481E08900029F5DCB8
:1046B00008E00A980A990078491C0A91DDE90F126E
:1046C0009047761CBBF10001ABF1010BF1DC2146F8
:1046D0005046DDE90F2300F019F806446D1C1BE677
:1046E00009280100303132333435363738396162C8
:1046F000636465660000000030313233343536378C
:104700003839414243444546000000002DE9F0415C
:10471000044600251E461746880404D405E03946A1
:104720002020B0476D1C641EF9D52846BDE8F081F5
:104730002DE9F041044600251E469046C80301D5E8
:10474000302700E02027880404D505E0414638469C
:10475000B0476D1C641EF9D52846BDE8F08170B5E0
:1047600000230D884C680DE0E618E15C76788642FF
:1047700006D1E018801C491E50601180002070BDD9
:104780000B445B1C9D42EFD8052070BD10B5012283
:104790000221002000F026FF08B1072810D10722CF
:1047A0000221012000F01EFF08B1072808D10021D6
:1047B0000A22084600F016FF08B1072800D10020A1
:1047C00010BD022000F018BE70B50024064D06E0B2
:1047D0006868012110F8340002F012FB641C28788C
:1047E0008442F5D3002070BDB4290020F8B51546E9
:1047F0000C460646052A01D20720F8BD02F0E6FB6A
:1048000018B902F0B5FB0028F7D1104900204E601E
:104810000C70C1E902500E4D08610DE006EBC400BA
:104820006968009181788DF801100078094A69461D
:1048300002F038FB0028E0D1641EE4B2EED2BDE8FD
:10484000F840054A0021024800F0FEB8B4290020D3
:1048500064950200155E0200615B020003F0DCF962
:1048600003F024F80028FBD1104C0121208801EB33
:1048700000400FA103F012F910480068C00700D0F3
:1048800000BE2088022101EB00400DA103F006F9D3
:10489000BFF34F8F0948E43801680D4A01F4E06125
:1048A00011430160BFF34F8F00BFFDE7C42A002012
:1048B000466174616C206572726F7200F0ED00E009
:1048C00053797374656D2072657365740000000020
:1048D0000400FA050EB500210091CDE901106A46E9
:1048E00044F20100FFF7BAFF0EBD10B58268C3683D
:1048F000934203D001F018FA002010BD052010BD2E
:1049000029B112B1531E134203D0092070470E2063
:1049100070470160838000218160C1600846704754
:1049200010B58268C3689A1A83889A4203D801F046
:1049300005FA002010BD042010BD00002DE9F84F3D
:10494000254C8146924660880E46814241D8002718
:104950004FF6FF788DF80070684600F097F92278DE
:104960006078A188884201DA401C00E00020C0B2D3
:10497000904204D19DF8000000F0ACF927E0657882
:104980006078884201DA401C00E0002060709DF8E9
:10499000000000F09FF9454519D0A068B9F1000F5B
:1049A00040F835A00DD066B16188E068324605FB5D
:1049B00001004946FEF769FDA06800EBC50086804E
:1049C00002E000EBC50087800020BDE8F88F0420DE
:1049D000FBE70920F9E70000C829002010B50E4CBC
:1049E00003E0401C00E000202070207861788142C4
:1049F00010D022786188E068A36802FB010003EB15
:104A0000C20153F83220898890472078A1888842D3
:104A1000E9DAE6E710BD0000C829002030B5CB0078
:104A200008339DB293074FF0000401D0072030BD3A
:104A3000044B9A602A44DA605C701C70588099803C
:104A4000002030BDC8290020074B9B7823B12AB134
:104A500020B10068037C1BB1082070470720704715
:104A60004174426100207047E43B002070B503F0C0
:104A700045FF104800240B21047044700E4D8170D6
:104A800014206C602C706C70FFF73CF90721142027
:104A9000FFF759F91420FFF740F90848046007218F
:104AA0001120FFF750F90548001F0068A86000209A
:104AB00070BD0000E43B0020D8290020081501400B
:104AC0002DE9FC47DFF8789099F8023073B368B3AA
:104AD000052902D20720BDE8FC87436933B3437C34
:104AE000012B25D0002704460025884616468DF860
:104AF0000050684600F0CAF801A804F0D9FBC8B11C
:104B0000012101700F4944600968C0E90218C0E939
:104B100004769DF8040089F801009DF8000000F07B
:104B2000D9F81420FFF704F92846D4E70820D2E783
:104B30000F46D8E704259DF8000000F0CBF8F3E716
:104B4000E43B0020041501400649897839B130B1B1
:104B5000416921B100210174022104F01DB908202E
:104B600070470000E43B002070B50A4E01460A4839
:104B7000B578FFF7BAFE04464DB10020B070711C45
:104B80000122C81D02F068FA08B1FFF7A3FE204613
:104B900070BD0000EC290020F03C0020F0B5284E4C
:104BA00089B01F460D00044672603BD0A888296872
:104BB00082B22448FFF7A4FE002834D1A889A9684E
:104BC00082B220481030FFF79BFE00282BD1202214
:104BD0001D496846FEF759FC60690690207C00B1CB
:104BE00001208DF814008DF81C70607C00B10E203F
:104BF0008DF81500E0680290A0680390206801908D
:104C0000606800900E48114A6946083002F0F0F9D9
:104C1000002808D1B0702068401C04D09DF81D0009
:104C200018B106E0072009B0F0BD0548083002F0D1
:104C30006BFA03490122491CC81D02F00DFAF2E784
:104C4000EC290020F03C00206C9502004D8F020002
:104C500010B501460B48FFF763FE040010D10A4867
:104C600002F09CFB60B9084906480839FFF73DFE91
:104C700030B9054901220839034802F009FB04460E
:104C8000204610BD003D0020F429002030B5EFF390
:104C9000108172B60D4A9468012324B10370002973
:104CA00000D162B630BD93604FF0E023D3F880515D
:104CB000074C25401560C3F88041D3F88441546007
:104CC0005A17C3F8842100220270E8E7103D002043
:104CD000FC06FFBD0B498A68002A11D000280FD1BD
:104CE000EFF3108072B60B684FF0E022C2F800318B
:104CF0004B68C2F8043100228A60002800D162B6F5
:104D000070470000103D00202DE9F041064608687C
:104D10000C46411C4FF0A0474FF0010506D005FAA4
:104D200000F1C7F80815206802F09BFC6068411C80
:104D300002D0002102F08CFC3079204901EB4010B8
:104D4000A169007F00283068C0F8241525D0607D57
:104D5000227D31681043C1F86C05D4E90012306837
:104D6000C0F80C15C0F8142524E0A068411C02D03E
:104D7000002102F06DFCE068411C05D08540C7F8B9
:104D80000855E06802F06DFCD4E902123068C0F802
:104D90000825C0F81015BDE8F081607D217D3268DE
:104DA0000843C2F86C05D4E900123068C0F8142535
:104DB000C0F80C15207D0128D7D0ECE7A43B0020DB
:104DC00070B540B10C4D297839B1044603F07AFD35
:104DD00028B1002070BD0E2070BD082070BDE868AD
:104DE000062807D20549226801EB8001401C0A60B1
:104DF000E860EEE7042070BDA429002020380020E0
:104E000040B1054900220123CA600B70C1E90102CB
:104E1000104670470E207047A429002070B504008A
:104E20002DD000292BD020480078002827D02088BA
:104E30000D46112815D0302804D0322807D0332849
:104E40001ED109E0211D284603F064FC18E0211D55
:104E5000284603F0D5FA13E0211D284603F0A8FBED
:104E60000EE0A088B5F8CA12884209D1002085F862
:104E7000C70285F8C8024FF6FF70A5F8CA0270BDD8
:104E800095F8C8020028FAD020883028F7D34F2898
:104E9000F5D8A088B5F8CA128842F0D12846BDE8F6
:104EA000704000F0F3BE0000A429002048B1084A79
:104EB000137843B1D26832B190F8C7222AB11120D9
:104EC00070470E2070470820704700F0DFBE0000DA
:104ED000A429002038B50188051D04461F2960D08B
:104EE00012DC39484FF003021029008802EB004021
:104EF00014D013294FD01B293CD01D295ED1204648
:104F0000BDE8384003F0DAB921294ED03B2956D00C
:104F1000562953D18088132176DF25E02BA102F09A
:104F2000BDFD288810B10020FFF7D4FC28882C494B
:104F3000C0EBC00008446968016029898180A97AB2
:104F40008171A1880022274800F02CF908B1FFF7F1
:104F5000C1FC072000F068FB08B1FFF7BBFC20484C
:104F6000A1880830FFF7A2FF002827D0BDE838400D
:104F7000FFF7B0BC2979012906D002291ED1BDE86E
:104F8000384019A102F08ABD1FA102F087FDBDE8DB
:104F9000384003F007BD0023A0881A4685217FDF33
:104FA000E2E72888291D75DFDEE700200090A08851
:104FB00069468FDF002801D0FFF78CFC38BD808860
:104FC000132176DFD0E70000C42A0020436F6E6E05
:104FD000656374656420746F207461726765740022
:104FE000B226002090370020436F6E6E65637469AF
:104FF0006F6E20526571756573742074696D656498
:10500000206F75742E0000005363616E2074696D0B
:105010006564206F75742E0010B51A4C01886068A5
:1050200010290ED011292BD1401E606028D1FFF726
:10503000ADFB002824D02168002921D0BDE8104014
:105040000847D0B900210122084600F0CBFA08B188
:1050500007280FD107220221012000F0C3FA08B16E
:10506000072807D104220221002000F0BBFA20B15A
:10507000072802D0216801B188476068401C606041
:1050800010BD0000882900202DE9F047254D074676
:105090000C4628880978032606EB004051B1012907
:1050A00022D002293CD120A102F0F8FCBDE8F04753
:1050B00003F078BC20A102F0F1FC618804F10E023B
:1050C000384600F06FF808B1FFF704FC384600F0EE
:1050D00059F908B1FFF7FEFB28881CA106EB004038
:1050E000BDE8F04702F0DABC277BA66800244FF049
:1050F0000109A84612E0305DFFF7AAFD05000CD0BB
:10510000112DF8D0B8F80010224609EB01401BA180
:1051100002F0C8FC2846FFF7DDFB641CBC42EAD362
:10512000BDE8F087C42A0020446973636F6E6E6522
:10513000637465642E000000446973636F76657262
:105140007920636F6D706C6574652E00436F6E6EB1
:10515000656374656420746F206465766963652097
:1051600077697468204E6F726469632055415254A8
:1051700020536572766963652E0000006170705F70
:10518000756172745F707574206661696C65642006
:10519000666F7220696E64657820307825303478C7
:1051A0002E00000048B141802AB15188C180118889
:1051B000818091880181002070470E207047000097
:1051C00030B5114B0D4604000FCB85B08DE80F00B4
:1051D00018D0BDB12146684662DF002810D1207882
:1051E0008DF812000120ADF810004FF6FF706080BE
:1051F0002868E0600020A080208104A8FFF7E0FD7F
:1052000005B030BD0E20FBE73895020010B5024610
:1052100086B008002ED0002A2CD041884FF6FF73AC
:10522000994202D09488A14224D11488112C14D020
:10523000392C1FD1818800291CD053898B4219D168
:10524000C168002916D001218DF8001002F110016B
:105250000291917B8DF80C1009E092888A4209D165
:10526000C168002906D002218DF800104380C26871
:105270006946904706B010BD30B585B00C4605466E
:1052800014216846FEF71AF9207804F10E0100286F
:1052900030D1A08801282DD1A0792A78904229D137
:1052A000002217E002EBC20031F81030022B02D0CE
:1052B000032B0ED105E001EB40000089ADF8120090
:1052C00007E001EB40000389ADF80E304089ADF8EE
:1052D0001000521C207A9042E4D8E868002809D0D7
:1052E0006088ADF8020000208DF80000EA68694689
:1052F0002846904705B030BD3EB503000BD013489B
:105300000224F42A008804EB004006D910A102F020
:10531000C5FB07203EBD0E203EBD5C88A4F57F4541
:10532000FF3D0DD00F4831C88DE83100188902913A
:10533000ADF80200ADF80620588869469CDF3EBDF6
:1053400009A102F0ABFB08203EBD00007C2A002032
:10535000436F6E74656E7420746F6F206C6F6E6730
:105360002E00000054950200436F6E6E65637469F1
:105370006F6E2068616E646C6520696E76616C6921
:10538000642E00001FB5010019D04888A0F57F42A7
:10539000FF3A16D0C988A1B101228DF80C200A4B22
:1053A00000228DF80D20D3E90423CDE90023ADF8C8
:1053B000021003A9029169469CDF04B010BD0E20C3
:1053C000FBE70820F9E70000389502000149085C76
:1053D00070470000749402000649095C4FF0A04039
:1053E000D0F81005C84010F0010000D0012080F076
:1053F000010070477494020007490B5C4FF0A04114
:10540000D1F804250120984020EA0203C1F80835AC
:105410001040C1F80C057047709402000249085C06
:10542000012102F04AB90000709402000249085CB0
:10543000002102F042B90000709402000649095CA4
:105440004FF0A040D0F80405C84010F0010000D093
:10545000012080F001007047709402007CB50024A8
:10546000084E25460122305D009500231146019526
:1054700002F0B8F8641C042CF4D3BDE87C4000F0C2
:1054800003B800007094020010B500242046FFF716
:10549000C5FF641C042CF9D310BD10B500242046B0
:1054A000FFF7C4FF641C042CF9D310BD10B50246ED
:1054B000064B4FF0FF3000215C5C944201D108465E
:1054C00010BD491C0429F7D310BD000074940200DC
:1054D00070B50C4E0C004FF0000530600BD0012071
:1054E00000F06AF808B1022004E0002000F064F83F
:1054F00000B10B202070706810B9FFF747F905461E
:10550000284670BD8829002010B5002000F0BEF9A3
:1055100008B1062806D1012000F0B8F908B1062824
:1055200000D1002010BD00002DE9F0470D46814656
:10553000FFF7BCFF0446042836D2DFF874801B480E
:105540001C4EA8F10C0725B3012D0ED0022D2BD136
:1055500004EB440030444578002D25D0B96800297B
:1055600022D02846BDE8F047084704EB4401755CAB
:105570000E44717849B10E4A4FF40041093A8068EF
:10558000FFF79EFA08B987F80390B17808F804107D
:10559000E2E78068FFF7D8FA04EB4401314418F8D9
:1055A00004008D78A842D7D0BDE8F0877894020037
:1055B0009C290020F4370020FFF70EBF042804D0F8
:1055C0000A280CD1002002F03BBC0548132140887A
:1055D00076DF082803D0002801D0FFF77BB9704799
:1055E0009037002070B50023042810D20D4D00EB39
:1055F0004004012A02D101290CD00022094E00EBFF
:105600004000304461B1012906D0022906D00723A9
:10561000184670BD0E30C2B22A55F9E74270F7E75E
:105620008270F5E7F4370020044A01460020127921
:10563000D20702D0084600F04DB8704790290020EC
:1056400070B506461E480024C0E90161B00720D5A8
:105650000025012211462846FFF7C4FF6D1C0446B1
:10566000042D02D2002CF4D013E094B940F266620B
:1056700004211448FFF7BAF804000AD1FFF7A4F890
:10568000040006D10F48104A0021001FFFF7DCF983
:105690000446F00701D0FFF7E1FE74B909480B4A50
:1056A00000210C38FFF7D0F9040006D10548084A5C
:1056B00001210838FFF7C8F90446204670BD0000F4
:1056C000902900208494020035590200916602005E
:1056D000C34702002DE9F05F6A4C0546002660785A
:1056E000B24618B184F801A000F0BAFF664F4FF43B
:1056F000617940F6CD4B4FF00108182D62D2DFE8FA
:1057000005F0AB0C0C31404D62676B736B73BD7C65
:105710007C7C7C7CABAEB1B4BDBD0020FFF78EFEBF
:1057200000284FF0000008D0FFF778FE022D02D1CC
:105730004FF4E16008E0484606E0FFF777FE022DEF
:1057400001D1C82000E06420410CC0034FF4FA727C
:10575000801841F10001257052000023FDF756FE2C
:1057600001462AE00020FFF769FE00284FF0000004
:1057700004D0FFF753FE4FF44870E5E7FFF756FEFD
:10578000DFE70020FFF75AFE00284FF0000002D0AC
:10579000FFF744FECFE7FFF749FED4E70020FFF70D
:1057A0004DFE00284FF0000002D0FFF737FE01E069
:1057B000FFF73CFE257041F69A1100223868FFF78A
:1057C0007FF9064645E00020FFF716FE257008E049
:1057D000002050E025703CE084F801800120FFF7B4
:1057E0000BFE00225946E9E784F801800120FFF70B
:1057F00003FE00224FF48041E0E77868FFF7A4F948
:105800000646D5F1110000D02EB10220FFF706FEAA
:1058100084F802A01DE0012816D980B2C8214843AF
:10582000C117C90341EA5041C0034FF4FA7280180E
:1058300041F1000152000023FDF7E8FD014600227E
:105840007868FFF73DF906460220FFF7EFFD84F880
:1058500002803046BDE8F09F00F002FFBAE700F09A
:10586000FFFEB5E700F0FCFE04E000F0F9FE0020CA
:10587000FFF7DCFD0120FFF7D9FDABE7FFF70DFED9
:10588000A8E70000902900207894020010B5FFF7E7
:105890009DFD032101F0EFFE002010BDF8B5871C2F
:1058A00000208DF800000E4601256846FFF7EEF94E
:1058B000124C20683060D4E90001401AA168091A2E
:1058C000BE1C06E000F08AFFD4E90001401AA1687E
:1058D000091A491C8E42F5D8A1682068084004EBDB
:1058E0008000C16841F00301C16020683844206035
:1058F0009DF80000FFF7EEF92846F8BD283E00208D
:1059000030B482680468531C8360A154D0E901124A
:105910008A4202D330BC01F05ABD30BC704700004F
:10592000034803C8814201D101207047002070471D
:10593000283E002000780221FFF7F6BD05494FF010
:10594000FF32082841F8202002D3084480F848207C
:10595000704700004C3B0020F0B54FF0FF3512B10E
:105960000023082601E008230C260C4C05E000BFAC
:1059700054F823707F1C04D05B1CB342F8D3284634
:10598000F0BD26185DB286F8305044F82310002A86
:10599000F5D1E11881F84800F1E700004C3B002008
:1059A0000249084490F93000704700004C3B002049
:1059B00008B5024690F8C6020B4600EB8001C1EB29
:1059C000801002EB400092F8C52242B1521ED2B2C2
:1059D00002EBC20100EB4102518A491C00E0C18880
:1059E000ADF800100089ADF802006946184696DF50
:1059F00008BD000070B5084C050009D010342168BE
:105A0000002907D008682060496828468847F6E7DB
:105A10000834F4E770BD0000383B00202DE9F05F4A
:105A200026484168F1B3DFF898B00E688146DBF88C
:105A3000004087688078E11B21F07F45ED1CB0B9FC
:105A4000DFF880804FF48030C8F84403C8F80403BE
:105A50001120FEF757F91120FEF75FF94FF0010A08
:105A6000C8F800A02F2001F029F989F802A0B5425A
:105A700000D23546124BE8193C3320F07F401860C5
:105A8000DBF800105A46091B21F07F41001B20F073
:105A90007F40C91C81420FD9106818602F2001F087
:105AA0000DF900E004E0BDE8F05F1120FEF740B919
:105AB000BDE8F05F02F022BFBDE8F09FD8290020CA
:105AC000041501400010014001460148FFF7D4BB16
:105AD000903700202DE9F843054690F8C6020F469E
:105AE00000EB8001C1EB801005EB400695F8C54244
:105AF000914604EBC40006EB40013279601C0A3188
:105B0000904226D16B460022284600F017FD18B3BC
:105B100010E0401EA04201D1002004E004EBC400CC
:105B200006EB40001C30804602466B46284600F0DB
:105B300005FD30B1002038706946484697DFBDE862
:105B4000F88395F8C5024146401C641C85F8C502DF
:105B5000E4B23079A042DCD8012038700020EEE7B2
:105B60002DE9F04100260125144C22E060682269ED
:105B700000EBC607387805FA00F1114217D08A43C6
:105B8000226101F0EBF902463878E36805FA00F18A
:105B9000194002FA00F3994209D17978012901D01C
:105BA000012100E0002151407A6802B19047761C43
:105BB000F6B220788642D9D3BDE8F081B42900201E
:105BC0002DE9F047894690F8C612904601EB810214
:105BD000C2EB811100EB4107384602F073FE06006C
:105BE0002FD0194CA06806282BD2184D762205EB31
:105BF000C0103946A0F80280001DFDF746FC0027C2
:105C0000B9F1000F04D0A06805EBC010077004E0E4
:105C1000A168022005EBC1110870A06805EBC01156
:105C2000401CCE67A060E16888420AD1002604E0EB
:105C300005EBC610C16F8847761CE0688642F7D333
:105C4000A760BDE8F0870000A429002038380020B4
:105C500070B50E4690F8C612154601EB8102C2EBF4
:105C60008111A0B000EB410002F02CFE040009D02D
:105C70007C2205496846FDF708FCADF802506846ED
:105C80000196A04720B070BDA494020070B50E46E6
:105C900004464FF43371FDF711FC11480025A4F8B8
:105CA000CA62856084F8C9520E4884F8C65284F8E6
:105CB000C5520068206022460121304694DF012150
:105CC000112806D0002809D184F8C71284F8C852D8
:105CD00003E084F8C71284F8C812002070BD0000E9
:105CE000A4290020203800200E4910B50A784C78ED
:105CF0000023A24212D0521CD2B20A70022A00D152
:105D00000B70084A0B780C3252F823200260886826
:105D1000104420F07F408860012010BD0360002007
:105D200010BD0000D8290020826883881A400368CB
:105D30009A5C0A708168491C81607047C2688388D8
:105D40001A4003689954C168491CC160704710B576
:105D50000446C0B2FEF77CFF204610BD70B508882F
:105D60000C46A0F52061773915D10B4D03260BA108
:105D7000288806EB004001F091FEA0880FA1C01E0C
:105D800082B20D4813468280288806EB0040BDE8A9
:105D9000704001F08EBE70BDC42A002041545420D2
:105DA0004D54552065786368616E676520636F6D3B
:105DB000706C657465642E00A8260020426C652016
:105DC0004E5553206D61782064617461206C656E5E
:105DD0006774682073657420746F203078255828A4
:105DE0002564290010B50949094800F0A2FE08B150
:105DF000FEF770FDF721064800F08FFE002803D063
:105E0000BDE81040FEF766BD10BD00005D5D0200FC
:105E1000A03700202DE9F041124E07460125BD4074
:105E20003068FEF791FE00280DD10F4C2069284202
:105E300007D1384601F092F80028E06805D02843E1
:105E400004E0A8432061BDE8F081A843E060206938
:105E500028432061A1683068BDE8F0410022FEF7C8
:105E60002FBE000064950200B4290020FEB5044650
:105E700008680E460178212901D00520FEBD2BA11E
:105E8000FDF72EFB30B12CA13068FDF729FB58B38C
:105E90000620FEBD012C25DD0724002529492A4FB7
:105EA000706809E0CB5C8A5C03EB02127A556D1CCA
:105EB000ADB2F72D05D2801C027812B14378002BC9
:105EC000F0D16DB120492A4601F57B70FFF714FA35
:105ED0000446082804D0112CF4D008B1FEF7FAFCCF
:105EE00022461DE000221BE0184C6288A2F57F408C
:105EF000FF3815D016A03168FEF7C2F96088C0EBF4
:105F0000C001164808440179837942798DE80E0072
:105F1000C3788278417812A0FEF7B2F90020FEBD66
:105F200017A03168FEF7ACF9F8E7000021626C6554
:105F30005F73656E6400000021626C655F636F6E65
:105F40006E00000058930200A43300209037002018
:105F50002573206F6B20256420000000B2260020EE
:105F6000253032582D253032582D253032582D25E8
:105F70003032582D253032582D253032580D0A0038
:105F80002573206F6B2025640D0A0000F0B51B4CB3
:105F900091B0002601B9E6800D280DD00A280BD05B
:105FA000E188B1F5FE7F05D8154A5054491C88B2E6
:105FB000E080165411B0F0BDE0880028FAD04021EE
:105FC0006846FDF77BFA10236A460EA10C48FDF7E0
:105FD0007FFE051E6F460EDD3946FFF747FF052899
:105FE00009D13946284600F02DF8052803D1394655
:105FF000284600F063F9E680DCE70000A8260020D0
:106000009B340020200900000C4910B500200870C6
:106010000B484088A0F57F41FF3909D0132176DF76
:1060200008280AD0002808D0BDE81040FEF752BC6E
:106030008BDF0020FFF7F8FAF4E710BDA826002058
:1060400090370020F0B50746086887B00C46007806
:10605000402802D0052007B0F0BD60A12068FDF700
:106060003FFAF0B9012F1CDD06AA60A16068FDF7B8
:106070007DFA002815DD5E4B069802A95B68059342
:1060800005AB451C06E000BF53F82020D2F81025D0
:10609000401C04C18542F7D8216856A0029AFEF739
:1060A000EFF858A12068FDF71BFA4FF0A04608B39F
:1060B00057A12068FDF714FA012500282FD057A119
:1060C0002068FDF70DFA002837D057A12068FDF7AA
:1060D00007FA00283DD058A12068FDF701FA0025F5
:1060E00000284BD059A12068FDF7FAF9002855D0B7
:1060F0000620B0E7012F6EDD6A463CA16068FDF71F
:1061000035FA002867DD0098D6F81015C14001F077
:106110000102029251A02168FEF7B2F85BE0012F64
:1061200059DD6A4631A16068FDF720FA002852DD8A
:1061300000988540C6F8085549E0012F4BDD6A46B6
:106140002AA16068FDF712FA002844DD0098854016
:1061500011E0012F3FDD01AA24A16068FDF706FAD6
:10616000002838DD0199D6F804058D4025EA0001A4
:10617000C6F808150540C6F80C5528E0012F2ADDA1
:1061800003AA1AA16068FDF7F1F9002823DD0023B6
:106190000122039800951146019516E0022F1ADDA1
:1061A00003AA12A16068FDF7E1F9002813DD04AA33
:1061B0000EA1A068FDF7DAF900280CDDDDE9030186
:1061C000CBB2002200951146019501F0F9F926A005
:1061D0002168FEF755F800203DE700004067706930
:1061E0006F5F706F72745F72656164002564000098
:1061F000349302002573206F6B20307825580D0AE8
:1062000000000000406770696F5F726561640000A4
:10621000406770696F5F7365740000004067706964
:106220006F5F636C65617200406770696F5F746F68
:1062300067676C6500000000406770696F5F6366A8
:10624000675F6F7574707574000000004067706957
:106250006F5F6366675F696E707574002573206F8A
:106260006B2025640D0A00002573206F6B0D0A005A
:1062700070B5104C002501B925810F4A2189505471
:10628000491C88B21118208111F8011C0A2902D07A
:10629000A18888420DD30849228901F1F700FFF750
:1062A0002BF8082804D01128F5D008B1FEF712FB0E
:1062B000258170BDA82600209936002010B50868F9
:1062C0000C4686B00178232902D0052006B010BD07
:1062D0002DA1FDF705F9B8B12DA12068FDF700F952
:1062E000E0B12DA12068FDF7FBF8D0B12DA1206809
:1062F000FDF7F6F8002836D02CA12068FDF7F0F85D
:10630000002832D00620E1E72A48017819B9012196
:10631000017002F047FB28A0216807E0FFF774FE38
:10632000F9E703A86DDF216818B125A0FDF7A8FFE4
:1063300027E026A0FDF7A4FF9DF810009DF812208D
:106340009DF811108DE807009DF80F309DF80E2084
:106350009DF80D101FA0FDF793FF26A22BA12CA0E6
:10636000FDF78EFF0DE0032009E0FFF74DFE4FF033
:10637000FF3100203BDFB12100203ADF022001F095
:106380005FFD0020A2E70000236F70656E00000033
:1063900023636C6F7365000023676574696E666FB5
:1063A0000000000023726573657400002364667545
:1063B00000000000A82600202573206F6B0D0A0046
:1063C0002573206661696C0D0A0000002573206F3B
:1063D0006B00000020253032582D253032582D25F5
:1063E0003032582D253032582D253032582D253059
:1063F0003258000031303A30353A3430204E6F7622
:1064000020313920323031380000000031300000B6
:106410002025732025730D0A000000002DE9FC5F84
:106420000E008346DDE90C47C6F10000984692460F
:10643000814600D40846012503E000BF90FBFAF036
:106440006D1C5045FADAA84500D9454624B1002E06
:1064500001DB780700D5641EB80702D5B8F1000F3C
:106460000AD0F80708D13CB1A54205D220215846F0
:10647000641EFFF745FAF6E7002E02DA4E462D219C
:1064800002E0780703D52B215846FFF739FA07F0C9
:10649000030002280BD1B8F1000F08D13CB1A5428E
:1064A00005D230215846641EFFF72AFAF6E7CDE9F7
:1064B0000047434652463146584602F09FFEBDE82B
:1064C000FC9F000070B50E460446007918494FF451
:1064D000A27501EB4010017F2068A1B14FF48871D3
:1064E00001F0E6FE4FF49071206801F0E1FE4FF4F8
:1064F0009271206801F0DCFE2946206801F0D8FE88
:106500000C49206809E04FF48E7101F0C0FE294665
:10651000206801F0BCFE08492068C0F80413206818
:1065200000F06AFC3146BDE8704000F049BC000054
:10653000A43B0020100302008000020010B509896E
:106540002AB1D088491C814218D1002010BD90F892
:10655000C62202EB8204C4EB821200EB42021289D3
:106560009142F2D0491C198090F8C61201EB8102C9
:10657000C2EB811100EB4100008902E01980D08854
:10658000401E5880012010BD2DE9F8430E4681467B
:10659000002501F110045CE06119675D487802286C
:1065A0000AD0032808D004281ED005281CD00628AD
:1065B00038D0072836D049E04FF0000810E000BF7F
:1065C00005EB4800011902206A46891C63DF28B9DF
:1065D000BDF80010B9F80000814234D008F101087C
:1065E000B8EB570FECD331E04FF0000816E000BFD6
:1065F00005EB8800011904206A46891C63DF58B93D
:10660000BDF80010B9F80000814205D19DF80210D4
:1066100099F80200814216D008F10108B8EB970FF3
:10662000E6D313E010206A46891C63DF70B9BDF819
:106630000010B9F80000814208D19DF8021099F8C5
:106640000200814202D10120BDE8F883E819401C14
:1066500085B2F07BB5EBD00F9ED30020F4E70000AD
:106660000A4810B5807860B1002401E0022C06D001
:106670002046FEF7D3FE641C042CF7D310BD032480
:10668000F6E7BDE81040FEF7FFBE000090290020AD
:1066900003480179C90702D00078FFF71BB870479B
:1066A0009029002006490120086006480168C1F3CE
:1066B00000410029FAD10449002088707047000089
:1066C0000C00004018040040383B0020F7210180F6
:1066D00017214180002101714171FB2181711B2132
:1066E000C17170472DE9F047394E002780463D467D
:1066F000DFF8E090D6F804A057E003D00446D0F8C5
:106700001C8035E099F8002002EB4201521CD2B205
:1067100089F8002009EBC10199F80230091D9A425D
:1067200001D189F8005048680A780446012A12D03D
:10673000022A02D0032A3BD108E002F0FDFA00B1A0
:106740000127257434E00574C06900E070680028F2
:10675000F9D170602CE0207C50BB88686060C8680C
:10676000A0600869E0604869A061F07800B16560E8
:106770006268B168184B501A20F07F40984202D2EC
:10678000A168084406E0881AA16820F07F40814291
:1067900002D9081A206000E0256065600120A5602C
:1067A00020742046E56102F0A9FAB8F10000A4D1F6
:1067B00099F8001099F801008142A3D117B97168C6
:1067C000514502D00120BDE8F0870020FBE7000022
:1067D000D8290020E43B0020FFFF7F0070B588B07F
:1067E000214800F039F92048001F064600F034F92E
:1067F0001E4DD5E9014105E0C0F3891202EB90502E
:10680000641C044404EA010005EB8000C0688207B0
:10681000F2D000200DF1080204EA010305EB830326
:10682000641CDB6842F82030401C0228F4D3029834
:1068300000F00300012808D002280AD102980321A1
:1068400001EB905004EB900403E00298C0F3831036
:1068500004443046002101AAFCF791FD002800D035
:106860006C6008B070BD000040420020283E00204F
:106870008AB0002001F08AF908B1FEF72BF801F088
:1068800007F8FEF7F3F808B1FEF724F801F0A2FAD2
:1068900008B1FEF71FF8182231496846FCF7F5FDEC
:1068A0003048069030494FF48060CDE907010990E7
:1068B00007232E4A06A96846FEF770F908B1FEF7CD
:1068C00009F82B490120FEF7BBFE08B1FEF702F8DC
:1068D00069460020FEF7FCFD08B1FDF7FBFF2548E7
:1068E000FEF78EFA08B1FDF7F5FF01F011FC08B1D3
:1068F000FDF7F0FF002000906946012001F0CAFA80
:1069000008B1FDF7E7FF684601F06EFB08B1FDF73F
:10691000E1FF194A0A210820FEF780F808B1FDF7C7
:10692000D9FFFFF75FFA1548009069461448FEF753
:1069300047FC08B1FDF7CEFF12480321008801EBA8
:10694000004011A101F0AAF802F02CF8FEF746F879
:1069500000F0ACFF0028F9D101F050FAF6E7000092
:1069600058940200F42A0020F42E0020918E020098
:10697000BD550200C95A0200F432002089500200BD
:1069800090370020C42A0020424C452055415254E3
:106990002063656E7472616C206578616D706C65E2
:1069A00020737461727465642E0000002DE9F04755
:1069B000C7880446181D16468946B0FBF7F1B0FBA0
:1069C000F7F207FB12009A193A44D21CB2FBF7F215
:1069D000DDF820A001E02468491E0029FBD13D1A02
:1069E0008846B54216D818E0BAF1000F05D0211834
:1069F00009EB08002A46091D04E0204409EB0801C0
:106A00002A46001DFCF741FD00202468761BA8449F
:106A1000B74201D9354600E03D46002EE4D1BDE83D
:106A2000F087000030B5024669B101F0DDF80021C1
:106A3000084C0BE001EB410304EB830315685B8812
:106A4000AB4202D11160002030BD491C8142F1D31C
:106A5000052030BD642A002008B501216A46FCF7F4
:106A600081FC009808BD38B5044600258DF800501B
:106A70006846FEF70BF921686268086890420ED9F3
:106A8000401E08600178238AE26801FB0325227A10
:106A90002168101AC0B20A79824200D208719DF8AA
:106AA0000000FEF717F9284638BD38B50546002026
:106AB0008DF800000C466846FEF7E8F8E868298A79
:106AC000201AB0FBF1F12A681068431C13600170B2
:106AD0009DF80000FEF7FEF838BD10B530B1017A20
:106AE00042680368891AC9B21A6006E00E2010BD18
:106AF00003681A68541C1C601170491EC9B2F7D291
:106B0000006800210171084610BDC20800F00703AB
:106B10000120895C98400840704728B1A1F1170214
:106B2000E12A03D3072070470E20704741800020E0
:106B3000704710B560B10161F72120F8021B20F801
:106B4000021BFB2100F8021BFFF7C0FD002010BD57
:106B50000E2010BD2DE9F043858895B00C46002D20
:106B60003DD10188DFF824810026DFF82491012738
:106B700024293CD006DC102909D011290CD0232966
:106B80006DD150E03A290BD0552968D12AE0014651
:106B9000204601F0BFFC62E0A01DFFF797FD5EE01C
:106BA0002246408934F8061F814200D8084660809A
:106BB000172800D217206080106970B1607960B129
:106BC000D8E90010CDE90310ADF80E506088ADF89B
:106BD0001000136903A9104698476671267115B015
:106BE000BDE8F0830146204601F05AFD37E0011D63
:106BF000342206A8FCF749FCBDF81800BDF81C209B
:106C000004EBC0014A7322694AB3D8E90432CDE9E2
:106C10000432ADF81200487B8DF81400226920463A
:106C200004A990471BE00496059630F8041F04EB76
:106C3000C1020179127B8A4200D21146ADF81010D0
:106C4000ADF812100088002204A990DF020006D0DF
:106C5000B9F800000F4907EB004000F023FFA07ACD
:106C60000028BCD0E18828469EDF02000BD0112A04
:106C7000B5D0B9F8000015B007EB0040BDE8F0430F
:106C8000054900F00FBFA672E772A8E72095020041
:106C9000702A0020989802001098020000F18040AD
:106CA0000068002800D00120704708B500F180403E
:106CB000002101600068009008BD000000283ED05F
:106CC0001F49204A096800BF00BF00BF00BF00BFC6
:106CD00000BF00BF00BF91422FD000BF00BF00BF68
:106CE00000BF00BF00BF00BF00BF00BF00BF00BFAC
:106CF00000BF00BF00BF00BF00BF00BF00BF00BF9C
:106D000000BF00BF00BF00BF00BF00BF00BF00BF8B
:106D100000BF00BF00BF00BF00BF00BF00BF00BF7B
:106D200000BF00BF00BF00BF00BF00BF00BF00BF6B
:106D300000BF00BF00BF00BF00BF0138C3D1704714
:106D4000A02900200024F40070B5104C0025207804
:106D500008B1852517E00021A16061602161E16033
:106D60004FF0E020D0F80001012610F0010F03D110
:106D70000721002000F024F801F012FA10B90449AC
:106D8000022008602670284670BD0000383B0020B5
:106D90001805004008B500208DF800006846FDF792
:106DA00075FF0648C168491EC160C06808B9FFF791
:106DB00079FC9DF80000FDF78DFF08BD383B0020F1
:106DC0004907090E002806DA00F00F0202F1E0225E
:106DD00082F8141D03E000F1E02282F8001400F0B4
:106DE0001F02012191404009800000F1E020C0F81D
:106DF0008012C0F800117047000B40B270470000CD
:106E00002DE9F0418846054601F0F8FC234E0028A4
:106E100028461AD0FEF7C4FD304490F84800800997
:106E2000032802D001280ED007E04FF0A040D0F890
:106E30001005E84010F0010F05D003212846BDE8F9
:106E4000F04100F029BC0221F8E701F0E3FC002842
:106E500022D02846FEF7A4FD04464FF4807000EBD4
:106E600084000F4F81B207EB8400D0F8102542F068
:106E70000102C0F81025084600F03EFCB8F1000FF2
:106E80000AD02846FEF78CFD56F82000002803D0D3
:106E90000120A040C7F80403BDE8F0814C3B00206E
:106EA000006000402DE9FC41DFF8A480044608EBB7
:106EB0000400002790F930001346C0170E46401C0E
:106EC00001D0082741E0F27819462046FEF744FD3C
:106ED0000546401C38D0B07850B14FF0A04000EBD0
:106EE0008400D0F8001721F00201C0F8001707E075
:106EF00000217378204600910A46019100F084FB3E
:106F0000F078C0B11348317800EB8500D0F8102537
:106F1000114B1A40C0F810254FF4F8524FF440338B
:106F200002EA042203EA01410A43D0F810150A4399
:106F3000C0F8102509E008EB0500327810F8481F6A
:106F400041EA8211017000E004273846BDE8FC8167
:106F50004C3B002000600040FFE0FCFF4FF0A041F0
:106F6000D1F81015C14011F0010000D00120704788
:106F700070B5144D95F8540008B1082070BD00207C
:106F8000411E2A18401CC0B282F830102028F8D3C5
:106F900000242046FEF7D2FC641CE4B20C2CF8D38B
:106FA00007210620FFF70CFF4FF4BE7000F0A4FB92
:106FB00005494FF00040C1F80403012085F8540052
:106FC000002070BD4C3B002000600040034890F85A
:106FD0005400002800D00120704700004C3B0020E6
:106FE0000121B1EB507F01D1012070470020704793
:106FF0002DE9F04105460079164F904607EB401405
:107000000E46E07E10B10820BDE8F081707F207749
:107010002846FDF779FE5FEA08006060316921606B
:1070200003D0317F2846FFF74DFA287907EB40104F
:10703000007F0028286801D0082100E00421C0F862
:1070400000150020E0752076A0750121E176A0767C
:10705000DAE70000A43B00202DE9F0410546007965
:10706000284E904606EB40140F46207F18B1084684
:10707000FFF7B6FF80B1626800234FF404704FF44D
:10708000017172B12A7906EB4212127F002A2A6836
:1070900005D0C2F8080304E01020BDE8F081C2F872
:1070A0000813E27DB2B1227E7AB162685AB12A79C0
:1070B00006EB4212127F1AB12968C1F8040302E0FC
:1070C0002868C0F804131120E7E72761012384F83A
:1070D000188005E084F817800020E760607620764D
:1070E0002879424606EB40103946007F00282846A2
:1070F00003D0BDE8F04100F073B8BDE8F04100F006
:107100001BB80000A43B002070B504460079094D6F
:1071100005EB4010017F00290AD1807E002807D1AD
:10712000204601F02EFC2179012005EB41118876E3
:1071300070BD0000A43B00202DE9F05F04460079FB
:10714000264901EB4015A87E184302D1204601F0E4
:1071500018FC68680028206806D04FF40171C0F858
:1071600004130020BDE8F09F4FF4A276314601F0F1
:107170008EF8B1464FF4927A4FF4847B51462068E2
:1071800001F080F806465946206801F07BF88046F9
:107190004946206801F076F8074648EA0700304380
:1071A000ECD056EA070007D12946206801F0C4FB5D
:1071B000E87D697E8842E1D80020E8750EB10320A1
:1071C000D0E70FB10F20CDE7A97E0120002921686B
:1071D00001D00860C5E74860C3E70000A43B002079
:1071E0002DE9F05F894604464FF488759A4690462B
:1071F00000260068294601F05BF84FF4A277394673
:10720000206801F055F82068C0F83495C0F838853A
:107210002068BAF1000F14D0D0F8001241F020011C
:10722000C0F800122179DFF8648008EB4110406853
:1072300050B120684FF40471C0F804133046BDE823
:10724000F09F01210160EDE7AA46B9464FF4927B19
:107250005146206801F027F807464946206801F0AA
:1072600022F805465946206801F01DF8014647EA14
:1072700005000843ECD02379002208EB4310C275C7
:1072800001B10326002DD9D00F26D7E7A43B00205B
:107290002DE9F047054600793F4E904606EB401435
:1072A0000F46207F18B10846FFF79AFE30B12846F6
:1072B00000F074F820B11120BDE8F0871020FBE742
:1072C00084F81680A7600027A78228794FF001086C
:1072D00006EB40143E46207F0028286825D04FF456
:1072E0009079494600F0E4FF4FF4AC7A51462868A3
:1072F00000F0DEFF2868A17DA268C0F84425C0F830
:1073000048152868C0F808806068F0B949462868C0
:1073100000F0C9FF80465146286800F0C4FF58EAD3
:107320000001F3D058BBA7750FE04FF48E7A514699
:1073300000F0ADFF2868C0F808802146286801F0F9
:1073400089FD61684FF4807089B13046B4E75146D9
:10735000286800F097FF10B9A08A4845F7D1A08AA5
:10736000484505D02146286801F074FD00E08146BB
:10737000A08AA17D8842EAD3A08A484501D10F2680
:10738000D1E75146286800F07DFF0028F9D0286831
:10739000C0F80C80C7E70000A43B00200079044936
:1073A00001EB4010807D002800D0012070470000D4
:1073B000A43B00200FB408B50399002904D004AA07
:1073C00000926A4600F00FF801B05DF814FB10B5AA
:1073D00082680446002A05D0D4E90403216898474E
:1073E0000020A06010BD2DE9FC4791460C008046AE
:1073F00076D014F8011B39B125290ED04046FEF78E
:107400007FFA20780028F4D198F80C00002867D083
:107410004046BDE8FC47FFF7DABF00200122217893
:107420002B291BD02D2902D0302908D102E040F0B1
:10743000010001E040F00200641C002AEFD10025A9
:107440002A290ED02178A1F130020A2A11D205EBA7
:10745000850201EB4205641C303DF1E740F0040079
:10746000EAE7D9F800100B1DC9F800300968641C60
:107470000D44217800232E290BD114F8011FA1F10E
:1074800030020A2A05D203EB830201EB4203303BB0
:10749000F3E76C290DD068290BD0692921D00BDCCA
:1074A000252918D0582931D063290ED0642915D147
:1074B00017E014F8011FECE7702969D0732932D066
:1074C00075291BD0782909D120E0D9F80000011DC9
:1074D000C9F8001001784046FEF712FA641C90E7E4
:1074E0006CE0D9F800100A1DC9F800200968CDE940
:1074F00000500A224046FEF791FFEFE7D9F800104E
:107500000A1DC9F8002009680A2206E0D9F800100F
:107510000A1DC9F8002009681022CDE90050404634
:1075200001F06CFEDAE7D9F8001000270A1DC9F84F
:1075300000200E68C00705D112E04046761C7F1C73
:10754000FEF7DEF931780029F7D104E0202140462A
:107550006D1EFEF7D5F9BD42C0D9002DF6D1BDE7AD
:107560004EB13046FBF7B5FF074604E02021404608
:107570006D1EFEF7C5F9BD4206D9002DF6D103E018
:107580004046761CFEF7BCF931780029F8D1A5E712
:10759000D9F80000011DC9F80010056830214046E7
:1075A000FEF7AEF978214046FEF7AAF9082000213F
:1075B000CDE90001034610222946B0E7BDE8FC876B
:1075C00070B541EA4201DDE904564FF0A04441EABA
:1075D000830141EA052104EB800041EA0641C0F83D
:1075E000001770BD70B541EA4201DDE904564FF065
:1075F000A04441EA830141EA052104EB800041EA0D
:107600000641C0F8001770BD70B541EA4201DDE9DE
:1076100004564FF0A04441EA830141EA052104EBFE
:10762000800041EA0641C0F8001770BD70B541EA1C
:107630004201DDE904564FF0A04441EA830141EAEA
:10764000052104EB800041EA0641C0F8001770BD37
:107650001CB500220B46009211460192FFF7E6FF8F
:107660001CBD1CB5002100910B4601220191114661
:10767000FFF7DCFF1CBD4FF0A04202EB8000D0F80A
:10768000002722F44032C0F80027D0F8002742EA51
:107690000141C0F8001770474FF0A04202EB800094
:1076A000D0F8002722F44032C0F80027D0F8002795
:1076B00042EA0141C0F80017704701224FF0A04391
:1076C000824011B1C3F808257047C3F80C257047F4
:1076D00018B5084B6C4601441B68009306E000BFD8
:1076E00054F82030D3F81035401C08C28142F7D836
:1076F00018BD000060950200034908B50844002148
:1077000001600068009008BD0060004002494058D8
:10771000012800D0002070470060004030B5124BB7
:1077200001460020D3F81044224609E0157A85422C
:1077300005D1401C0A28F7DB4FF0FF3030BD5268FE
:10774000002AF3D1421CF9D00872D3F810242AB1D0
:1077500052684A60D3F81024516030BD0022C3F84B
:1077600010144A6030BD0000283E00207047FCF72E
:1077700039BB704708B5034A00924023024A00F023
:1077800005F808BDC98A0200283D0020F0B595B073
:107790001C4615460F4608461A9E00F0F5FA1821B9
:1077A00009A8FBF78BFE0E96CDE9095400230822A9
:1077B00003A9384600F002FB059806900498ADF83E
:1077C0001C0000208DF820000398082600F003001C
:1077D000012802D002281DD03CE003983346850AD8
:1077E000C0F3C2008DF81E0003980FA9C0F38000FB
:1077F0008DF81F000398C0F38314A200384600F0F0
:10780000DDFA09A8009006AB22460FA9284600F031
:1078100017FA1FE00398840DC0F3C2008DF81E0014
:107820000398C0F380008DF81F00082C01D2254674
:1078300000E0082533462A460FA9384600F0BEFA74
:107840002E44641B09AB06AA29460FA800F048F98C
:10785000002CEAD1384600F0A0FA15B0F0BD0000C7
:107860000A4A012902EBC00007D0022907D00329E8
:1078700007D0042907D00020704702207047042059
:10788000704700797047407970470000109F0200F0
:1078900010B5FFF76CFF04210348FFF73FFF0249D3
:1078A0000120487210BD0000082A00202DE9F04F89
:1078B0008DB0FEF735F818B100200DB0BDE8F08F9F
:1078C00074480021C0F81814BFF34F8FD0E9014667
:1078D00004EA060100EB81014FF000090AE000BF55
:1078E000C1F3891202EB9151641C0C4404EA0601B5
:1078F00000EB8101C9688A07F2D0002103AA804603
:1079000004EA060008EB8000641CC06842F821000D
:10791000491C43460229F3D3039800F003000228D0
:1079200006D0012803984FD0C04380077ED0ACE03A
:1079300003985022810D8A46B2EB905F00D8502107
:107940000D4665F39F5003900831534800F0D3F97A
:1079500007006CD000F018FA4B46082203A93846FD
:1079600000F032FA04EA0601701A8000001D09F1E5
:10797000080B854221D9474E0C3630B1C2B208EB14
:107980008101281A91460C3104E03146EAB2002602
:1079900091463046C5B25B46384600F015FA0BEB0F
:1079A00009032EB12A4631464FEA070000F00CFACF
:1079B0000AF1030004EB90043BE008EB81015B4615
:1079C0002A4638460C31F1E7C0F38310062800D36D
:1079D0000620039960F38911C1F38310801C039181
:1079E00081002D4800F087F907004ED000F0CCF957
:1079F0004B46082203A9384600F0E6F909F10809C8
:107A000000250DE004EA060008EB80014B46042245
:107A100038460C31641C00F0D7F909F104096D1CDB
:107A20000398C0F38310A842ECD801E00BE02CE0EF
:107A30005FB3D8F81054D8F81804464690B13846C9
:107A400000F0ABF921E0D3F8180400283FF435AF7B
:107A50001BE0687A012804D1296828460A6839465B
:107A600090476D68002DF4D1384600F096F900205B
:107A70008DF800006846FDF709F9D6F8180400B93A
:107A800074609DF80000FDF725F9FDF749FF80F0CF
:107A9000010012E7283E0020D096020000231A467B
:107AA00001F0A4B808B5012300926A4601F09EF8DF
:107AB00008BD1CB5CDE9002302236A4601F096F803
:107AC0001CBDF0B587B00DF1300C9CE8F0008DE8DE
:107AD000FC0006236A4601F089F807B0F0BD0000FB
:107AE0002DE9F0470E4680461C46924608293ED8AE
:107AF00094F80C90002020731946104600F0B4FE54
:107B00000025B54206D218F805201AA12046FFF735
:107B100051FC03E019A12046FFF74CFC6D1C082D19
:107B2000EFD317A12046FFF745FC0025B54210D240
:107B300018F80570FBF79CFC0068C05D10F03E0F64
:107B400001D03A4600E02E220EA12046FFF732FC7B
:107B500003E00DA12046FFF72DFC6D1C082DE5D399
:107B600001222146504600F061FE84F80C90BDE8E9
:107B7000F08700002025303278000000202020000F
:107B80007C0000002563000020000000114810B5B3
:107B9000FF218160002101604160C0F81814C0F825
:107BA000141480F81C140C4800F0F5F800280FD1CC
:107BB0000A480B490B4B401AC108002005E000BFE2
:107BC00000EB400223F82200401C8842F8D300203A
:107BD00010BD0000283E0020D0960200709F0200D9
:107BE000109F0200642A002002480349401AC0087E
:107BF00070470000709F0200109F020013B5684696
:107C0000FEF710FF08B100201CBD0248009950F893
:107C100031001CBD109F020070B508480125D0F846
:107C2000104480F81C5405E06572216820464968BC
:107C300088476468002CF7D170BD0000283E002002
:107C40002DE9FF4781460C9D00200C462F7B2873B1
:107C5000984616462946184600F006FE072E42D2E0
:107C6000DFE806F004090F161F2A360049462846A9
:107C7000FFF7A0FB37E0494628462268FFF79AFB4A
:107C800031E0D4E9002349462846FFF793FB2AE078
:107C9000A0680090D4E9002349462846FFF78AFBF4
:107CA00021E0D4E90201CDE90001D4E900234946ED
:107CB0002846FFF77FFB16E004F1080007C88DE8AF
:107CC0000700D4E9002349462846FFF773FB0AE082
:107CD00004F108000FC88DE80F00D4E900234946DD
:107CE0002846FFF767FB00222946404600F09EFD2C
:107CF0002F73BDE8FF872DE9F041058A80462D1FCF
:107D00004819C01CB0FBF5F0C6B24046FEF7ABFE0A
:107D1000041E19D00020207101206071E580002729
:107D20002546761EC4F800800BE04046FEF79BFE19
:107D300060B16179491C6171286005467F1CC0F8FB
:107D40000080B742F1D32046BDE8F081204600F024
:107D500002F80020F8E72DE9F041457901466B1E55
:107D6000002201E00968521C9A42FBD30F680146C9
:107D7000002605E038460C68FEF797FE2146761C83
:107D8000AE42F7D3BDE8F08108B501216A46001D77
:107D9000FBF773FA08BDFEF7A0BE38B50446001D18
:107DA00001216A46FBF776FA009810F0FF0F04D124
:107DB0002046BDE83840FFF7CEBF38BD38B50124B6
:107DC0000094FEF7F3FD38BD38B500240094FEF7AB
:107DD000EDFD38BD064910B500204870091D08604A
:107DE000BFF35F8F0349044800F0FEF9002010BD87
:107DF000FC290020B49502001C3D002008B500209D
:107E00008DF800006846FCF741FFF1EE100A20F003
:107E10009F00E1EE100ABFF35F8F08494020C1F8D0
:107E200080029DF80000FCF755FF00F0B9F908B199
:107E30003EDF08BD20BF40BF20BF08BD04E000E01A
:107E4000F8B504460D4801216A46FBF731FABFF345
:107E50005F8F002500280AD10121084E042C09D08B
:107E6000301F427822B100BFBFF35F8F3560F8BD8D
:107E70000470417000F04EFEF6E70000002A00207A
:107E800020B1034909680160002070470E20704747
:107E90005C9702002DE9FE4306460D460846FFF7B3
:107EA000EFFF00287ED18046CDF80080CDF8048019
:107EB000012403208DF80060ADF80400CDF808809F
:107EC0008DF80240694620202A6869DF3F4F40B1A3
:107ED00000F0CEF9024638883D4904EB0040FFF738
:107EE000E1FDCDF800808DF800808DF80140CDF8DF
:107EF0000480CDF808808DF80240694640202A6849
:107F000069DF40B100F0B4F902463888314904EB2A
:107F10000040FFF7C7FDCDF800808DF80060F72026
:107F2000ADF80200CDF80480CDF808806946232022
:107F30002A6869DF40B100F09BF90246388826497B
:107F400004EB0040FFF7AEFDCDF80080CDF80480D3
:107F5000CDF808808DF800404646694601202A6821
:107F600069DF40B100F084F9024638881B4904EB10
:107F70000040FFF797FD4FF4B06000900196029625
:107F80006946A1202A6869DF40B100F071F9024614
:107F90003888134904EB0040FFF784FD00960196F2
:107FA000029600E010E08DF800606946A0202A6883
:107FB00069DF40B100F05CF902463888094904EBFA
:107FC0000040FFF76FFD0020BDE8FE83DC2A0020A3
:107FD000A49D0200EC9D0200389E0200049D020058
:107FE000509D0200B09C02002DE9F0410446D0F8FB
:107FF00000E060DF2368144D0646734515D02888DD
:10800000022707EB0040724610A1FFF752FDF80669
:10801000D0F80C012168800200F10050421A288833
:1080200016A107EB0040FFF73DFD56B1304600F0CA
:108030001FF902462888012101EB004018A1FFF733
:1080400031FD3046BDE8F081DC2A002052414D2050
:1080500073746172747320617420307825782C20D9
:1080600063616E2062652061646A75737465642063
:10807000746F20307825782E0000000052414D208A
:1080800073697A652063616E2062652061646A7538
:108090007374656420746F20307825782E0000009A
:1080A00073645F626C655F656E61626C6528292030
:1080B00072657475726E65642025732E0000000071
:1080C00030B5EBB04FF4CE75ADF8A8516AA968464B
:1080D00061DF30B1052816D06BB0BDE83040FCF749
:1080E000F9BB6C46094967A800F07EF807E000BFBD
:1080F000D0E900212046904767A800F08CF86998E5
:108100000028E1D0F4E76BB030BD000060970200BA
:1081100038B5174C207808B1082038BD0125A57066
:10812000002000F0A3FC112820D0002000F0B6FCB5
:108130001048114900680090684610DF0028ECD113
:108140002570A07060700721162000F043FC08B174
:10815000FCF7C0FB0721152000F03CFC08B1FCF740
:10816000B9FB00F01BFD012000F098FC002038BD99
:108170005C2A0020F49602005D4802000EB5074913
:10818000684600F031F805E0D0E9001088476846FD
:1081900000F041F802980028F6D10EBD10970200B9
:1081A00001480078704700005C2A00201FB568462F
:1081B00048DF30B1052814D004B0BDE81040FCF70A
:1081C00089BB084901A800F00FF806E0D0E90021BA
:1081D0000098904701A800F01EF803980028E6D008
:1081E000F4E71FBD7C970200016009684160AFF3AE
:1081F000008010B5D0E900215368994201D10021D7
:1082000004E0D1E90034A34202D01946816010BDD8
:1082100008314160F0E7816800290BD0026892685C
:108220000A44826041684B689A4203D10831416038
:10823000FFF7DFBF704700000C4A10B502F1F003F2
:108240000EE0991AC91001EBD171491002EBC1017E
:108250000C68844201D90B4602E005D201F1080204
:108260009A42EED3002010BD486810BDD49502009C
:1082700000B5FFF7E1FF002800D1014800BD000074
:10828000C09502004058002800D00120704708B572
:10829000002242504058009008BDD0F80403084026
:1082A00000D0012070474058002800D001207047BE
:1082B00008B5002242504058009008BD70B5021D1C
:1082C00090F91600141D88B010F11E0F58DB02F152
:1082D00014000390D07C6A46C008ADF8080002A9DB
:1082E0000920FCF73CFA30B16A4602A90820FCF7E5
:1082F00036FA002844D12348FBF7EBF800283FD09A
:10830000BDF800201F480199FBF7F8F8002837D185
:108310001C4821461838FEF737F91B4D032690B14B
:10832000184A0123103A02F1080120468CDF0200AE
:1083300012D0288808B00121BDE8704001EB004050
:1083400012A1FFF7AFBB288808B006EB0040BDE8DC
:10835000704018A1FFF7A2BB0020FDF765F908B136
:10836000FCF7B8FAE078A379627921798DE80F00FB
:108370002888A378627806EB004014A1FFF7A1FBE0
:1083800008B070BD4C930200C42A0020436F6E6E8B
:10839000656374696F6E20526571756573742046EC
:1083A00061696C65642C20726561736F6E20256451
:1083B0000000000069735F757569645F70726573B2
:1083C000656E74203D2066616C736500436F6E6E50
:1083D000656374696E6720746F2074617267657479
:1083E00020253032582D253032582D253032582D49
:1083F000253032582D253032582D25303258000086
:108400002DE9F84F05460C460888B5F8CA1288428F
:1084100059D195F8C602DFF8F8A000EB8001C1EB56
:10842000801005EB400160884FF003094FF0000811
:10843000F0BBE6880879A21DF3B250FA86F6062E44
:1084400001D8034400E006230B7100261CE000BFA6
:1084500000EBC00306EB860702EB470701EB430383
:10846000D7F802C0C3F80AC0D7F806C0C3F80EC0D8
:108470007F895F82A3F81480A3F81680A3F8188080
:10848000401CA3F81A80761C0B798342E0D895F83B
:10849000C62200EBC00002EB8203C3EB821205EBA5
:1084A000420231F81000128990420ED2087900E0A1
:1084B0000BE0062809D085F8C50221882846FDF77B
:1084C00077FA01000AD1BDE8F88F85F8C5822288C5
:1084D00069462846FDF7FEFA01000BD085F8C782F1
:1084E00022882846FDF7B4FB8AF800902188AAF874
:1084F0000210E8E79DF800000028E4D0228801215E
:108500002846FDF75DFB2188284600F039F9DAE7B7
:10851000383800202DE9FC418E88027900EBC60531
:10852000AC1D2A73C97B012902D0022904D101E0C4
:10853000008800E040882080218860880127DFF8DB
:10854000648081420CD930469EDF020025D0112A7A
:1085500025D0B8F80000144907EB0040FFF7A2FA55
:10856000A079E179884216D9002000900190287BFB
:10857000ADF80000287BADF80200002269463046C5
:1085800090DF030007D0B8F80000324607EB004048
:108590000649FFF78EFABDE8FC816771E0E72771B5
:1085A000DEE70000702A002010980200E098020028
:1085B000F8B505460C460888B5F8CA1288425DD160
:1085C00095F8C602A61D00EB8001C1EB801005EBFB
:1085D000400395F8C502618800EBC00003EB400042
:1085E0000A3039B329E000BF01EB410206EB420239
:1085F0009788B7F5245F0CD06FF4245C17EB0C0759
:108600000AD0012F02D0072F0BD108E052884281F7
:1086100007E05288828104E05288C28101E05288DA
:10862000028242892AB182891AB1C2890AB1028AB8
:108630001AB9491C32888A42D6D800268DF80060C3
:1086400095F8C5021979401C884203D101208DF8A4
:10865000000018E085F8C502228869462846FDF723
:1086600039FA01000BD085F8C76222882846FDF749
:10867000EFFA0A480321017021884180F8BD9DF876
:1086800000000028FAD0228801212846FDF798FA38
:108690002188284600F074F8F8BD00003838002022
:1086A0007CB506468D88C88806EBC504A41D17282E
:1086B00000D217202188814200D80846608000201F
:1086C000207121882846ADDF020007D00E48012125
:1086D000008801EB00400D49FFF7E4F960790028BC
:1086E00010D1306900280DD00948D0E90210CDE939
:1086F0000010ADF802506088ADF804003269694698
:10870000304690477CBD0000702A0020549802003B
:108710002095020070B505460C4690F8C6022288E6
:1087200000EB8001C1EB801005EB4001B5F8CA02F7
:10873000824222D1608848B100212846FDF740FAE4
:1087400021882846BDE8704000F01AB8A2680A6087
:10875000E068C1F8060021882846FDF729F90100E4
:108760000BD0002085F8C70222882846FDF770FA52
:108770000248032101702188418070BD38380020F3
:108780002DE9F041044690F8C9020E46401C1949F3
:10879000C0B284F8C902C9680327174D4FF0000E14
:1087A000884224D284F8C5E294F8C602401CC0B2C4
:1087B00000EB8001C1EB801104EB410284F8C6029A
:1087C000A5F1180101EB800001210068106082F81A
:1087D00004E0304694DF010007D084F8C7E2324657
:1087E0002046FDF735FA2F706E80BDE8F08184F8E1
:1087F000C7E2F8E7A42900203838002004490844DB
:1088000090F93000082801DB0120704700207047F4
:108810004C3B00200449084490F93000082801D25C
:1088200001207047002070474C3B002010B50C46DB
:10883000C17949B11AB109A12046FEF7BBFD204616
:10884000BDE81040FEF7C3BD007A0028F3D004480D
:1088500004A102682046FEF7ADFDECE70D0A00001A
:10886000382A00202573000070B50446C0790D46F3
:1088700000281CD1207A50B1A179A088FEF7F0FF22
:108880000B4951F820200BA12846FEF793FDA08844
:108890000021FFF7B3F903460549A079143951F8CF
:1088A00020202846BDE8704003A1FEF783BD70BDBF
:1088B000382A0020257300003C25733E2025733A9A
:1088C0002000000070B50C4B00210A4ADC680DE066
:1088D00002EB81058678AD78B54206D132F8215099
:1088E0000688B54201D1586870BD491CA142EFD33A
:1088F000002070BD20380020A429002070B501267A
:1089000070044FF0E0210025C1F88001084C4010B0
:10891000C4F84803C4F8080366602F20FEF7CEF9B8
:10892000A660044C2F20A560FEF7C8F9A57070BDA5
:1089300000100140D829002070B50546C87D0C46BE
:1089400000284FF4847128460AD0FFF7A0FCD5F820
:108950001805627EE1688854607E401C607670BDB8
:10896000FFF795FCD5F8180570BD1FB501238DF8EC
:1089700000308DF808100192D0E900126846904747
:108980001FBD10B5044600684FF49271FFF77FFCDD
:108990004FF484712068FFF77AFC206801210160A0
:1089A00010BD0000094810B5007800280DD0084817
:1089B0008ADF08B1FBF78EFF0120FCF735FE0028A7
:1089C00003D0BDE81040FBF785BF10BDA8260020EE
:1089D0004493020070B50D460446FBF771FC70B17C
:1089E0002846FBF77FFC68B16807000E002C0CDA04
:1089F00004F00F0101F1E02181F8140D09E042F2C9
:108A0000010070BD42F2020070BD04F1E02484F860
:108A10000004002070BD000038B50021012558B1C8
:108A200001280ED003280BD107210020FEF7C8F93A
:108A3000BDE83840FEF7AEB94FF0E020C0F88051F5
:108A400038BD8DF800106846FCF720F9064C2078F8
:108A500008B9FEF779F9E068401CE060A5709DF860
:108A60000000FCF737F938BD383B00203EB504461E
:108A700009496846FFF7B8FB08E000BFD0E90021CC
:108A80002046904730B16846FFF7C5FB02980028A2
:108A9000F4D13EBD11203EBDF89602003EB504461D
:108AA00008496846FFF7A0FB07E000BFD0E90021B6
:108AB000204690476846FFF7AEFB02980028F5D1A4
:108AC0003EBD0000049702002DE9F04114000F465E
:108AD0000DD000250A26791922460020FBF784F9DB
:108AE0000544241A08B9761E01D0002CF3D1BDE844
:108AF000F08110B504460020FCF796FD08B1FBF7A5
:108B0000E9FE24B9FCF700FD08B1FBF7E3FE012004
:108B100010BD000070B5194D194C07E001682078B0
:108B20008847002829D01548FFF775FBA86800285A
:108B3000F4D1FFF771F800BFFEF7B8FE0028FBD1B3
:108B4000207803280CD002280AD0FFF729FB00B1B7
:108B500032DF0C4901200860BFF34F8F20BFFDE7D3
:108B6000BFF34F8F08480168084A01F4E0611143E0
:108B70000160BFF34F8F00BFFDE770BD1C3D0020BB
:108B8000FC290020000500400CED00E00400FA057F
:108B9000002801D1FCF72EBF7047000010B5162049
:108BA000FBF78EFB80B10F4890F800044009FBF7FB
:108BB00099FB60B10C4882684FF480016AB101688A
:108BC00041F48001016010BD42F2010001E042F277
:108BD0000200BDE81040FBF77DBE4FF0E020C0F87A
:108BE000001110BD16E000E0103D00202DE9F84313
:108BF000214C8846054691461F4669461846A66898
:108C0000FCF74CFE70B30098811C00220AE000BF04
:108C100001EA060C59F8223004EB8C0C491C521C5A
:108C2000CCF80C30BA42F3D30246401C304004EB7F
:108C300080002B0CC36002EA060004EB8002E80609
:108C400052F80C0F02D540F0040001E020F00400BF
:108C500065F3C50067F3891068F39F2020F00300D7
:108C6000401C106094F81C0402E000BFFEF71EFEDA
:108C70000028FBD1BDE8F883283E00202DE9F84FFD
:108C80001D4C00256846D4E901A6FDF72DF8002704
:108C900038B30023009A61681CE0D1F800C0084690
:108CA000944503D9ACEB02020A6015E0A2EB0C027A
:108CB00063440760D0F80CC0C1698146BCF1000F65
:108CC00008D006EB030828F07F48C0E9018CC9F8FA
:108CD0001C5005460029E0D128466160FDF702FDE1
:108CE00003E02846FDF7FEFC10B15046FCF796FE67
:108CF000E770BDE8F88F0000D82900200D4B10B5B3
:108D0000596831B102680C68A24204D8A21A0A60FC
:108D1000C161586010BD0B4603E00B46C969121BC8
:108D200021B10C689442F8D3A41A0C600260C161AE
:108D3000D86110BDD82900202DE9F041144E776884
:108D40003D462C4603E0844204D02546E469002CCD
:108D5000F9D11BE0D4B1A5420BD1F869706040B9DC
:108D60000C49012088600021B160F0702F20FDF7D0
:108D7000A5FF2168E069E86110B102681144016053
:108D80007068874202D00120BDE8F0810020FBE737
:108D9000D8290020001001407CB5064600240D466D
:108DA0008DF800406846FBF771FF01A800F080FADB
:108DB00070B10570094946609DF8040048709DF83F
:108DC0000000FBF787FF1420FAF7B2FF20467CBDB6
:108DD00004249DF80000FBF77DFFF7E7E43B00204B
:108DE0002DE9F041194D6C68002C2CD01848002753
:108DF0000068A968B846401A20F07F462068B04253
:108E00000CD82146361A0744E469087C20B181F861
:108E10001080886949698847002CEFD129786878E3
:108E2000814206D1401CC0B26870022801D185F889
:108E30000180064869780C3040F82170BDE8F041A7
:108E40001420FAF775BFBDE8F0810000D829002092
:108E50000415014070B50C4605464FF48E71FFF7BE
:108E600016FAA18AA068415CA08A401CA082C5F8BD
:108E70001C1570BD1FB500228DF800208DF808105C
:108E8000816801918275D0E90012684690471FBD44
:108E900038B50278044652B111480121012A0088F0
:108EA00001EB004014D0022A11D10EA111E01A4C9E
:108EB000607800280BD1601C0090184A0421684695
:108EC000FBF73CFD002802D16078401C607038BD83
:108ED00013A1FEF7E3FD6068BDE83840FBF7FABC7C
:108EE000C42A0020436F6D6D756E69636174696F8C
:108EF0006E206572726F72206F6363757272656443
:108F0000207768696C652068616E646C696E6720A3
:108F1000554152542E000000A8260020E192020084
:108F20004572726F72206F63637572726564206937
:108F30006E204649464F206D6F64756C65207573D1
:108F4000656420627920554152542E007CB5017829
:108F5000244D81B301290BD002292BD18DF80010AB
:108F6000C068691C01900122C81DFEF775F82EE04B
:108F7000406801781C48FBF7D3FC1B4C012618B154
:108F80008DF80060019006E0A068E168814205D09C
:108F900000208DF80000696868468847A068E1688D
:108FA000081AA188884207D80E490122491CC81D09
:108FB000FEF752F87CBD01E0AE70FBE70A480949B4
:108FC0001030FBF792FC30B103208DF80000696887
:108FD00068468847EEE70349012201F10800FEF7E1
:108FE00057F9E7E7EC290020F03C00202DE9FF4786
:108FF0000C4605464FF40071FFF74FF901274FF477
:109000000178002618B34FF4927949462846FFF7B5
:1090100039F9E0B149462846FFF739F9C5F8088320
:10902000A07E00B96F6002208DF80000D5F88004A2
:10903000C5F880040390E07D8DF80800E068019099
:10904000E6752676D4E900126846904727E00421A9
:109050002846FFF722F910B34FF484712846FFF732
:1090600011F9E0B121462846FFF766FCE07D617EFC
:10907000884214D1207E38B1617EE268E0752069B3
:10908000E0602676667607E0A07E00B96F60C5F8DE
:109090000883E675617EE2682046FFF766FC4FF4C0
:1090A0008E7841462846FFF7EDF888B1A08AA17D69
:1090B000884204D221462846FFF7CCFE08E041460C
:1090C0002846FFF7E4F8A17D11B12046FFF7D2FE54
:1090D0004FF4A27841462846FFF7D4F8002812D072
:1090E00041462846FFF7D3F8A07E00B12F60E07D0F
:1090F000002808D0E675617EE26804B02046BDE82D
:10910000F047FFF732BCBDE8FF872DE9FF410C4671
:109110004FF4927705463946FFF7C5F80026C0B1EF
:1091200039462846FFF7C4F802208DF80000D5F82C
:109130008004C5F880040390D5F83C058DF808003C
:10914000E0680190E6752676D4E9001268469047FB
:1091500024E04FF4887739462846FFF7A4F8E8B1B1
:1091600039462846FFF7A4F8D5F83C05C1B2E07DA2
:10917000884213D1207E60B1E268D5F8000220F069
:109180002000C5F80002207EE0752069E0602676A8
:1091900001E0E675E2682046FFF7E7FB4FF4A277AF
:1091A00039462846FFF77FF868B139462846FFF769
:1091B0007FF8E07D38B1E675D5F83C05E268C1B2CC
:1091C0002046FFF7D2FB4FF4907631462846FFF752
:1091D0006AF800280FD031462846FFF769F8A07DCD
:1091E000002808D0D5F84C0504B0C1B22046BDE82F
:1091F000F041FFF73FBEBDE8FF8100002DE9F05FC1
:109200008346DDE90A4A994690460D4608460127FD
:1092100003E000BFB0FBF8F07F1C4045FAD2B9452F
:1092200000D94F465FEACA7012D18CB15FEA8A70EA
:1092300002D5B9F1000F01D0202607E0302605E065
:1092400031465846641EFCF75BFB0CB1A742F7D3CE
:109250005FF00106B9F1010F02D9A9F1010903E09C
:10926000B5FBF6F0404502D306FB08F6F2E7DFF85F
:109270003C9000BFB5FBF6F000FB165519F8001046
:109280005846FCF73DFBB6FBF8F6002EF2D15FEA3C
:10929000CA7009D0002C07D0A74205D22021584619
:1092A000641EFCF72DFBF5E7BDE8F09F8C950200EE
:1092B0000A494A788B78521CD2B2934200D10022DC
:1092C0000B78934201D1002070470270487800EB80
:1092D000400001EBC000001D70470000E43B00208F
:1092E000F8B50025124C0126D8B1042919D100681F
:1092F000057016E09DF80000FE2807D0FF2805D075
:10930000E178FE2905D0FF290BD106E0E070A570B9
:1093100007E0A178FCF7ACFF02E0A178FCF736FE8D
:10932000A6706846FBF720FC0028E3D0F8BD0000DB
:10933000A82600200100020000000050060048009E
:10934000000090010100A00050000000506C617905
:109350006D6174654169720000000000000000004A
:1093600000000000000000000000000000000000FD
:1093700000000000000000000000000000000000ED
:1093800000000000000000000001020304050607C1
:109390000809000000000000000A0B0C0D0E0F0071
:1093A00000000000000000000000000000000000BD
:1093B0000000000000000000000A0B0C0D0E0F0062
:1093C000000000000000000000000000000000009D
:1093D000000000000000000000000000000000008D
:1093E000000000000000000000000000000000007D
:1093F000000000000000000000000000000000006D
:10940000000000000000000000000000000000005C
:10941000000000000000000000000000000000004C
:10942000000000000000000000000000000000003C
:10943000000000000000000000000000000000002C
:10944000000000000000000000000000000000001C
:1094500000000000000000001F0000001E000000CF
:109460001D0000001C0000000000000000E0D7010B
:10947000111213140D0E0F10B4370020D437002032
:10948000003800200D000300295502000E000300E3
:10949000295502000F0003002955020010000300A7
:1094A000295502000100000000000000000000003B
:1094B00000000000000000000000000000000000AC
:1094C000000000000000000000000000000000009C
:1094D000000000000000000000000000000000008C
:1094E000000000000000000000000000000000007C
:1094F000000000000000000000000000000000006C
:10950000000000000000000000000000000000005B
:10951000000000000000000000000000000000004B
:10952000770A000000000000770A00000000000039
:109530007ADA0000000000009ECADC240EE5A9E0F3
:1095400093F3A3B50000406E01010000000002008B
:109550000000000002010000000000000000000008
:1095600000000050C43B002003000000FFFFFFFF8D
:10957000FFFFFFFFFFFFFFFFFFFFFFFF00000000F7
:10958000000000000000D601070100003031323336
:1095900034353637383941424344454600000000EF
:1095A00000000000709F0200749F02000000000095
:1095B000000000009C950200B49502000400000029
:1095C000556E6B6E6F776E206572726F7220636F6F
:1095D0006465000000000000189C0200010000000B
:1095E000D89A02000200000058990200030000000F
:1095F0004C9B020004000000A09B0200050000003C
:10960000989A020006000000389A02000700000045
:10961000889B020008000000AC9A020009000000CC
:10962000F89A02000A000000009C02000B000000F3
:10963000409902000C000000C49A02000D000000D6
:10964000249C02000E000000789B02000F00000026
:10965000B49B020010000000E89B02001100000013
:10966000389C020080000000789A0200810000000F
:10967000FC99020082000000BC99020083000000F7
:109680009C99020084000000D89902008500000027
:10969000509A020086000000609B020090000000CB
:1096A000189A0200910000007C99020000820000DC
:1096B000C89B020001820000149B0200028200008D
:1096C000309B020075770200737702006D7702000D
:1096D0001C2A0020142A00201C2A0020683D00209B
:1096E0001800000000000000000000000000000062
:1096F0000000000002000007E4960200F496020059
:10970000080000001C9702002C97020008000000CF
:109710002C9702003C97020008000000B49F020052
:10972000BC9F02000000000000000000A49F020097
:10973000B49F0200000000000000000000000000D4
:1097400000000000749F02008C9F02008C9F0200AA
:10975000949F0200949F02009C9F0200A826002074
:109760003C9702005C970200080000009C9F0200EA
:10977000A49F020000000000000000006C9702009F
:109780007C970200080000000040404040404040FC
:1097900040404141414141404040404040404040C4
:1097A0004040404040404040400502020202020268
:1097B00002020202020202020220202020202020B7
:1097C00020202002020202020202909090909090CB
:1097D0001010101010101010101010101010101089
:1097E00010101010020202020202888888888888FD
:1097F00008080808080808080808080808080808E9
:1098000008080808020202024000000089970200CE
:1098100073645F626C655F67617474635F657863CE
:1098200068616E67655F6D74755F7265717565738C
:109830007428292072657475726E656420756E6572
:10984000787065637465642076616C756520307826
:1098500025782E0073645F626C655F676174747352
:109860005F65786368616E67655F6D74755F72656B
:10987000706C7928292072657475726E6564207524
:109880006E65787065637465642076616C756520BB
:10989000307825782E00000073645F626C655F6726
:1098A00061705F646174615F6C656E6774685F7539
:1098B0007064617465282920287265706C7929208C
:1098C00072657475726E656420756E657870656317
:1098D0007465642076616C756520307825782E007B
:1098E00073645F626C655F6761705F646174615F20
:1098F0006C656E6774685F75706461746528292093
:10990000287265717565737429206F6E20636F6EA0
:109910006E656374696F6E20307825782072657487
:1099200075726E656420756E6578706563746564C4
:109930002076616C756520307825782E0000000057
:109940004E52465F4552524F525F494E56414C4926
:10995000445F4441544100004E52465F4552524FCD
:10996000525F534F46544445564943455F4E4F540A
:109970005F454E41424C4544000000004E52465F58
:109980004552524F525F464541545552455F4E4FE6
:10999000545F454E41424C45440000004E52465FE4
:1099A0004552524F525F4D555445585F554E4C4F9E
:1099B000434B5F4641494C45440000004E52465FD0
:1099C0004552524F525F4D555445585F4C4F434B93
:1099D0005F4641494C4544004E52465F4552524F06
:1099E000525F4D555445585F434F4E445F494E4971
:1099F000545F4641494C4544000000004E52465FCA
:109A00004552524F525F4D555445585F494E495447
:109A10005F4641494C4544004E52465F4552524FC5
:109A2000525F4150495F4E4F545F494D504C454D38
:109A3000454E5445440000004E52465F4552524F39
:109A4000525F4E4F545F535550504F52544544004F
:109A50004E52465F4552524F525F4D4F44554C4512
:109A60005F414C52454144595F494E495449414C2C
:109A7000495A4544000000004E52465F4552524F3D
:109A8000525F4D4F44554C455F4E4F545F494E49D0
:109A90005449414C5A4544004E52465F4552524F3C
:109AA000525F4E4F545F464F554E44004E52465FF4
:109AB0004552524F525F494E56414C49445F5354B0
:109AC000415445004E52465F4552524F525F444109
:109AD00054415F53495A45004E52465F4552524FDA
:109AE000525F5356435F48414E444C45525F4D4987
:109AF0005353494E470000004E52465F4552524F65
:109B0000525F494E56414C49445F4C454E4754487C
:109B1000000000004E52465F4552524F525F445281
:109B2000565F5457495F4552525F414E41434B0087
:109B30004E52465F4552524F525F4452565F545701
:109B4000495F4552525F444E41434B004E52465F7F
:109B50004552524F525F494E5445524E414C0000BF
:109B60004E52465F4552524F525F53544F524147F7
:109B7000455F46554C4C00004E52465F4552524F91
:109B8000525F4E554C4C00004E52465F4552524F6C
:109B9000525F494E56414C49445F504152414D003D
:109BA0004E52465F4552524F525F4E4F5F4D454DAC
:109BB000000000004E52465F4552524F525F464FE2
:109BC0005242494444454E004E52465F4552524F20
:109BD000525F4452565F5457495F4552525F4F5649
:109BE000455252554E0000004E52465F4552524F6C
:109BF000525F494E56414C49445F41444452000033
:109C00004E52465F4552524F525F494E56414C4963
:109C1000445F464C414753004E52465F53554343C1
:109C2000455353004E52465F4552524F525F54497E
:109C30004D454F55540000004E52465F4552524F1D
:109C4000525F4255535900007761726E696E67002A
:109C500064656275670000001B5B313B33306D004B
:109C60001B5B306D000000001B5B313B33316D002E
:109C70001B5B313B33326D001B5B313B33336D007B
:109C80001B5B313B33346D001B5B313B33356D0067
:109C90001B5B313B33366D001B5B313B33376D0053
:109CA000696E666F000000006572726F72000000DE
:109CB00073645F626C655F6366675F7365742829B0
:109CC0002072657475726E656420257320776865EF
:109CD0006E20617474656D7074696E6720746F2096
:109CE00073657420424C455F47415454535F43466B
:109CF000475F534552564943455F4348414E4745A8
:109D0000442E000073645F626C655F6366675F7317
:109D1000657428292072657475726E6564202573D8
:109D2000207768656E20617474656D7074696E6704
:109D300020746F2073657420424C455F434F4D4D36
:109D40004F4E5F4346475F56535F555549442E007B
:109D500073645F626C655F6366675F73657428290F
:109D60002072657475726E6564202573207768654E
:109D70006E20617474656D7074696E6720746F20F5
:109D800073657420424C455F47415454535F4346CA
:109D9000475F415454525F5441425F53495A452EE4
:109DA0000000000073645F626C655F6366675F73E9
:109DB000657428292072657475726E656420257338
:109DC000207768656E20617474656D7074696E6764
:109DD00020746F2073657420424C455F434F4E4E94
:109DE0005F4346475F4741502E00000073645F6247
:109DF0006C655F6366675F7365742829207265749C
:109E000075726E6564202573207768656E206174B5
:109E100074656D7074696E6720746F20736574204B
:109E2000424C455F4741505F4346475F524F4C4568
:109E30005F434F554E542E0073645F626C655F63E1
:109E400066675F73657428292072657475726E6524
:109E500064202573207768656E20617474656D7069
:109E600074696E6720746F2073657420424C455F7F
:109E7000434F4E4E5F4346475F474154542E0000C8
:109E8000626C655F64625F6469736300626C655FE6
:109E90006761747400000000626C655F6E7573002A
:109EA000636C6F636B0000006770696F746500001E
:109EB000756172740000000062616C6C6F63000079
:109EC0007077725F6D676D740000000061707000E4
:109ED0006E72665F736468006E72665F7364685F5B
:109EE000626C65006E72665F7364685F736F6300B7
:109EF000BC9F0200A82600204C040000043B020086
:109F000004A00200F42A0020DC390000B042020064
:109F1000809E0200000003008C9E020000000300EF
:109F2000989E020000000300A09E020000000000B6
:109F3000A89E020000000000B09E02000000000089
:109F4000B89E020000000000C09E02000000000059
:109F5000CC9E020000000300D09E0200000003001F
:109F6000D89E020000000300E49E020000000300EF
:109F7000F38A0200556B0200A03700201D4E02003C
:109F8000BA26002019500200000000000D52020005
:109F900090370020D54E020000000000918B020097
:109FA00000000000C180020000000000AD8102003E
:109FB00000000000198A020000000000220103FFD7
:109FC000FF1401FF01D9031BFFFF045190D00312BE
:109FD00020021040041DC4960214A89C021A4804D2
:109FE0001AA0041A50041A60041A58041A68041AB1
:109FF00070041A78041A80041A88041A90041A98B3
:04A0000004019800BF
:0400000500023201C2
:00000001FF
