:020000040002F8
:1030000098BE00201934020021340200233402004B
:103010002534020027340200293402000000000099
:103020000000000000000000000000001532020057
:103030002D34020000000000593202003134020039
:10304000514E02003334020029530200214F020086
:103050003334020033340200C1480200333402002A
:1030600033340200333402003334020033340200BC
:1030700033340200333402003334020033340200AC
:1030800045530200B94E02003334020033340200CB
:103090003334020033340200654F0200333402003F
:1030A000333402003334020033340200333402007C
:1030B000A94E0200333402000000000000000000AE
:1030C000333402003334020033340200333402005C
:1030D00033340200333402003334020000000000B5
:1030E00000000000000000000000000000000000E0
:1030F00000000000000000000000000000000000D0
:1031000000000000000000000000000000000000BF
:1031100000000000000000000000000000000000AF
:10312000000000000000000000000000000000009F
:10313000000000000000000000000000000000008F
:10314000000000000000000000000000000000007F
:10315000000000000000000000000000000000006F
:10316000000000000000000000000000000000005F
:10317000000000000000000000000000000000004F
:10318000000000000000000000000000000000003F
:10319000000000000000000000000000000000002F
:1031A000000000000000000000000000000000001F
:1031B000000000000000000000000000000000000F
:1031C00000000000000000000000000000000000FF
:1031D00000000000000000000000000000000000EF
:1031E00000000000000000000000000000000000DF
:1031F00000000000000000000000000000000000CF
:10320000DFF80CD000F02EFD004800478586020054
:1032100098BE0020264B19680868B0E8F04F80F38C
:103220000988BFF36F8F4FF0000080F3118870475B
:10323000000000000748006880F3088862B661B6A5
:10324000BFF34F8FBFF36F8F4FF4F07080F311888F
:1032500000DF000000300200EFF30980BFF36F8F42
:10326000134B1A681EF0100F08BF20ED108A20E9DA
:10327000F04F106008B44FF0200080F31188BFF3C6
:103280004F8FBFF36F8F08F0FDFB4FF0000080F30E
:10329000118808BC19680868B0E8F04F1EF0100FDC
:1032A00008BFB0EC108A80F30988BFF36F8F7047B6
:1032B0000828002030B450E8012F93B2C489234479
:1032C0008489A34228BF1B1B0489A34202BFBFF30A
:1032D0002F8F002007E0C3EA020340E80134002CEE
:1032E000E9D14FF001000A6030BC704750E8012F6F
:1032F000C2EA024240E801210029F7D1704730B408
:1033000050E8022F1FFAA2F3C488A34202BFBFF302
:103310002F8F00200DE0C48923448489A34228BF55
:103320001B1BC2EA034340E80234002CE8D14FF0F3
:1033300001000A6030BC704750E8022FC2EA224206
:1033400040E802210029F7D17047034653E8022FD5
:10335000D988B2EB324F4FF0000017BF92B241EA6A
:10336000014142EA014104E05A68B2EB324F08BF22
:10337000012043E80212002AE8D1704730B4044625
:1033800054E8000F0D4644E80053002BF8D11560B7
:1033900030BC704730B4044654E8000F40EA0105E1
:1033A00044E80053002BF7D1156030BC704730B4AF
:1033B000044654E8000F00EA010544E80053002BDE
:1033C000F7D1156030BC704730B4044654E8000FA4
:1033D00080EA010544E80053002BF7D1156030BCAA
:1033E000704730B4044654E8000F00EB010544E890
:1033F0000053002BF7D1156030BC704730B4044641
:1034000054E8000FA0EB010544E80053002BF7D16E
:10341000156030BC704700000648804706480047EA
:10342000FEE7FEE7FEE7FEE7FEE7FEE7FEE7FEE774
:10343000FEE7FEE739500200013202002DE9F05F9D
:103440000546002092469B46884606468146402413
:103450001BE0284641464746224600F00BFA5346F9
:103460005A46C01A914110D311461846224600F020
:10347000F2F92D1A67EB01084F4622460120002180
:1034800000F0E9F917EB00094E41201EA4F10104F8
:10349000DFDC484631462A464346BDE8F09F40EA15
:1034A00001039B0703D009E008C9121F08C0042AC2
:1034B000FAD203E011F8013B00F8013B521EF9D2A9
:1034C0007047D2B201E000F8012B491EFBD27047D1
:1034D0000022F6E710B513460A4604461946FFF7E0
:1034E000F0FF204610BD421C10F8011B0029FBD143
:1034F000801A704710B5002200E0521C835C8C5C7F
:10350000A34201D1002BF8D1D8B2E1B2401A10BDCC
:10351000034611F8012B00F8012B002AF9D11846B7
:103520007047000070B500B91068002512E00B4626
:1035300002E0A64203D05B1C1C78002CF9D1E3B258
:103540002B4305D02CB125B1002100F8011B04E06C
:103550000546401C0678002EE9D11060284670BD53
:10356000004ADFE7C42800200FB400B58DB010A9D1
:1035700009900B9000914FF0FF300A9000200C90C2
:1035800005480690054807906A4609A80F9900F07B
:1035900095F90DB05DF814FBD9380200F738020038
:1035A0002DE9FF5F1D464FF0FF3BD5E901469146EF
:1035B0005F464FF00008A9697F1C01988847296A77
:1035C000824688470028F6D1BAF1FF3F0CD024F498
:1035D000C064002E19DD600614D5BAF12B0F09D096
:1035E000BAF12D0F0ED103E0584604B0BDE8F09FAC
:1035F00044F48064A9697F1C01988847761E82463E
:10360000002E02DDBAF1300F03D0B9F1000F26D041
:1036100032E0A969761E44F400747F1C0198884743
:103620008246002E05DDBAF1780F06D0BAF1580FA8
:1036300003D0B9F1000F10D01EE0B9F1000F02D095
:10364000B9F1100F18D1A969761E24F400747F1CFB
:10365000019888478246102002E0082000E00A20F6
:10366000814609E008FB0908A969761E44F4007444
:103670007F1C019888478246002E05DD494650464A
:1036800000F008F90028EDDAE96901988847A005FB
:1036900002D46FF00100A8E7E00725D1600613D53A
:1036A000600502D5C8F1000000E0404629680A1D07
:1036B0002A600968220501D5087015E0220701D5A6
:1036C000088011E008600FE02868011D296000688B
:1036D000210502D580F8008006E0210702D5A0F878
:1036E000008001E0C0F8008038467EE72DE9F04D0B
:1036F00081EA030404F0004B21F0004514464FF02A
:10370000000A23F0004150EA050220D054EA0102E9
:103710001DD0C5F30A570246C5F31303C1F31300C6
:10372000C1F30A5640F4801543F48013A7EB060852
:10373000101BD64608F2FD3873EB050002D308F1E2
:10374000010801E092185B41B8F1000F03DA002094
:103750000146BDE8F08D00204FF4801106468446F6
:103760000EE0171B73EB050705D3121B63EB050374
:1037700006434CEA010C49084FEA300092185B41BD
:1037800050EA0107EDD152EA030012D082EA0400A8
:1037900083EA0501084305D0101BAB4106D2012284
:1037A000002306E000224FF0004302E06FF0010228
:1037B00053101AEB06004CEB085110EB0A0041EBDA
:1037C0000B01BDE8F04D00F0A7B80EB5C10F80EABF
:1037D000E0700844CA07002140F233438DE80E0030
:1037E0000A460B4600F0A7F803B000BD70B5C1F360
:1037F0000A5201F000450024C1F3130140F2FF33E7
:1038000041F480119A4201DA002070BD40F2334346
:103810009A42A2F2334203DC524200F02BF800E05D
:1038200090402C43F1D0404270BD30B50B4601466C
:1038300000202022012409E021FA02F59D4205D34F
:1038400003FA02F5491B04FA02F52844151EA2F1F9
:103850000102F1DC30BD202A04DB203A00FA02F13B
:10386000002070479140C2F1200320FA03F319436E
:1038700090407047202A04DB203A21FA02F0002110
:10388000704721FA02F3D040C2F120029140084370
:10389000194670473A2800D2303820F02002412AD9
:1038A00001D3A2F13700884201D34FF0FF307047B7
:1038B000026811441378016018467047D1600449CA
:1038C00051610449116200211161114600F0F4B9FF
:1038D000B1380200AD3C0200426842B1016811F803
:1038E000013B23B1521EC0E9001218467047012166
:1038F000C160881E704742685AB1C368016843B905
:1039000083688B4205D0491E521CC0E9001200207A
:1039100070474FF0FF30704710B5141E73F100046C
:1039200008DA401C41F1000192185B411A4301D1B1
:1039300020F0010010BD2DE9F04D92469B4611B1DB
:10394000B1FA81F202E0B0FA80F220329046FFF73D
:1039500082FF04460F4640EA0A0041EA0B01534643
:103960005A46084313D0114653EA010019D0C8F152
:1039700040025046FFF77EFF05460E465046594628
:103980004246FFF768FF084305D0012004E02046C7
:103990003946BDE8F08D0020054346EAE0762C4329
:1039A00037430A986305E40AA0EB08000022FD0AE9
:1039B00044EA47540A3002D500200146E9E70105F0
:1039C00010196941DDE9084500196941BDE8F04D6C
:1039D000A2E72DE9FE4F804681EA0300C00F0C46A6
:1039E000009021F0004123F00045B8EB0200A9410E
:1039F00005D24046214690461C460B46024623F01F
:103A00000040104347D0270DC7F30A00C3F30A5103
:103A10000290401A019040286BDAC3F3130040F47F
:103A2000801B0098924620B10023D2EB030A63EB7F
:103A30000B0B01985946C0F140025046FFF70BFFAF
:103A400006460D4650465946019A00F01DF910EB06
:103A500008006141002487EA115284EAE7731A439F
:103A600040D0009A62B3019A012A4FEA075215DC4E
:103A7000001B61EB02014FF0004202EA0752CDE960
:103A80000042001C41F5801132462B46FFF753FFE0
:103A900003B0BDE8F08F40462146F9E7001B61EB1B
:103AA0000201001C41F5801300185B412018A2F5AB
:103AB000001747EB030140EAD570B6196D4111E0DC
:103AC0006D084FEA360645EAC0754FEA0752001BFB
:103AD00061EB0201001C41F5801149084FEA3000FA
:103AE0000019514132462B4603B0BDE8F04FFFF7B5
:103AF00013BF0098012240000023D0EB020263EBC9
:103B0000E073009821464FEAE074B8EB000061EBE7
:103B10000401E9E783F000435BE781F0004158E7E7
:103B20002DE9FE4F81EA030404F0004421F0004136
:103B300000944FF0000B23F0004350EA01045ED0E4
:103B400052EA03045BD0C3F30A54C1F30A552C4470
:103B5000A4F2F3340194A0FB0254C1F3130141F425
:103B60008011C3F3130343F4801301FB024400FBF1
:103B7000034E840A970A44EA815447EA8357A4FB18
:103B8000076802958D0A05FB07854FEA932C04FB15
:103B90000C542705029D4FEA065847EA1637B5EB45
:103BA00008056EEB070C870E920E47EA811742EA72
:103BB0008312A7FB0201B6EB0B0164EB00042B0D93
:103BC00043EA0C335E1844EB1C50DA465146E7FBDF
:103BD0000201C5F313044FEA0B3343EA14534FEACF
:103BE0000432019C43EA0603A4F10C040294009CF5
:103BF000CDE900B4FFF79FFE03B0BDE8F08F0020D1
:103C00000146F9E7C1F30A52C1F3130140F2FF3351
:103C100041F480119A4202DA00200146704740F2D6
:103C200033439A42A2F2334202DC5242FFF722BEF1
:103C3000FFF711BE30B5041E71F1000404DB4FF034
:103C40000044404264EB0101141E73F1000405DBE3
:103C50001C464FF00043524263EB0403994208BFF5
:103C6000904230BD064C074D06E0E06840F001038D
:103C700094E8070098471034AC42F6D3FFF7C4FA33
:103C8000E0C7020000C80200202A06DBCB17203A5A
:103C900041FA02F043EAE07306E041FA02F3D04051
:103CA000C2F120029140084319467047C0B24FF458
:103CB000F05100F097B900002DE9F34F8BB04FF0B1
:103CC000000801F10C000C464FF0010B46460DF1C7
:103CD000080A01906269012101989047051E2DD0C4
:103CE000252D2CD0216A8847C0B162690121019835
:103CF0009047216A88470028F7D1411E62690198E0
:103D0000904700E0761CA1690B988847216A884794
:103D10000028F7D1E1690B988847DBE7A1690B9888
:103D200088470746A84201D1761CD3E7E1690B9882
:103D300088477F1C02D1B8F1000F6FD046E1002701
:103D400062693D463946019890472A2804D1626944
:103D50000121019890470125DFF8849262690121D1
:103D600001989047A0F130010A290AD24F45E5DCBD
:103D700007EB870100EB4107303FDFD445F010052A
:103D8000ECE7E90601D46FF000476C280AD04C2814
:103D900014D0682815D06A280DD074281CD07A2831
:103DA0001AD01DE062690121019890476C2802D069
:103DB00045F0040514E045F002050DE045F020054E
:103DC0000AE06269012101989047682802D045F015
:103DD000080505E045F400656269012101989047F6
:103DE000C4E9015765283DD019DC58287AD00CDC8D
:103DF000452837D004DC252826D0412831D131E0B0
:103E000046282FD047282CD12CE05B2877D061287A
:103E100028D063287CD0642823D15AE0D0E06F28D2
:103E200048D008DC66281DD067281BD0692821D01F
:103E30006E2816D127E0702845D0732868D07528E1
:103E400047D078280DD14DE0A1690B9888470546E9
:103E500025283FF469AFE1690B9888476D1C3FF452
:103E60006AAFB3E023466A466FF001000B99AFF3E7
:103E700000809EE045F040006060A80723464FF0B8
:103E8000000236D43EE0E8077FF447AF2068011D0A
:103E900021600068290501D506701BE7290701D5B7
:103EA000068017E7A90703D5F117C0E9006111E7FC
:103EB00006600FE745F040006060A80723464FF01A
:103EC000080216D41EE040F60E0125EA01006060EB
:103ED00016E045F040006060A80723464FF00A0254
:103EE00007D40FE045F040006060A80708D52346DE
:103EF00010226FF001000B99AFF3008059E007E04A
:103F0000234610226FF001000B99FFF749FB50E0A8
:103F10004FF000094F464B46632802D05B2806D07D
:103F200040E0E80601D40120A06001273AE0626980
:103F30000121019890475E2805D14FF0010962697F
:103F4000494601989047216939B900210A465346EC
:103F500043F82120491C0829FADBB0B3216969B96B
:103F6000C11700EBD16253110AEB830122F01F024B
:103F7000821A01200B68904003430B6062690121A3
:103F8000019890475D28E8D1B9F1000F09D00020D1
:103F9000514651F82020D24341F82020401C0828E7
:103FA000F7DB02AB224600976FF001000B99AFF3ED
:103FB000008000280CDA401C08D1BBF1000F05D0AE
:103FC0004FF0FF300DB0BDE8F08FFFE74046F9E756
:103FD000E90701D108F1010806444FF0000B79E62A
:103FE000CCCCCC0C7F2801D9002208E0064A02EB99
:103FF0005002C007127800D1120902F00F0201200E
:104000009040084070470000A0C7020030B58C18EF
:1040100010F8012B12F00F0301D110F8013B120927
:1040200006D110F8012B03E010F8015B01F8015BE9
:104030005B1EF9D101E001F8013B521EFBD1A14208
:10404000E6D3002030BD000010B5040009D002F016
:10405000C3F904492046FFF75BFABDE8104002F0BF
:10406000D7B910BD903000200148006970470000AA
:10407000A02700200148007870470000A0270020FA
:104080000149012048707047A02700202DE9F04128
:104090000D460646002702F09FF9114C42F21070BF
:1040A0002169814215D8A6B1304420610D49002014
:1040B0006070087005B90CA529460C48FFF728FA6E
:1040C000002303223146A06808F00CF8012805D02F
:1040D000002702F09DF93846BDE8F0810127F8E796
:1040E000A02700209030002000000000902F00202A
:1040F0001FB5124A916800291FD142F21071116157
:104100000F4B00215170197003F5807319705161C4
:10411000916100900832CDE901210B4603914FF4E3
:10412000007208A1094807F01FFF012805D004B05C
:104130000420BDE8104001F0A1BE1FBDA027002053
:10414000902F002041735F446F000000D165020092
:1041500070B5014600207031B1F5005F19D101241E
:104160000C4D12E00023132219460E2006F090FB9E
:1041700004000DD0002314221946102006F088FBFD
:10418000040005D0012007F049FB68780028E9D039
:10419000204670BDA02700202DE9F04F87B04FF0DA
:1041A000000B08F001F80746032005F0C8FB0420C7
:1041B00005F0D4FB142006F001FB70B340F2D724C5
:1041C000002618221F496846FFF769F9A046EA460B
:1041D000DFF8749027E00025B5424FF0030002D2CB
:1041E00005F0BCFB01E005F0AAFB07F0DDFF04468B
:1041F00007F0DAFFA042FBD0641CE11B414502D26C
:104200006D1C052DE8D3E01B404507D3032005F0C6
:10421000A5FB7B2006F0D2FA834608E05AF8261068
:10422000884200D3761C99F801000028D3D00420DE
:1042300005F085FB032005F082FB07B05846BDE87A
:10424000F08F000040C50200A0270020014600209A
:10425000B631B1F5005103D0012903D100F074B992
:1042600000F06AB87047000070B50F4D0024687800
:10427000C0B900F021F8002814DBE969002911DB3E
:10428000401A00D50020FFF7A0FA9FED081B53EC61
:10429000112BFFF72BFAFFF7A9FA014605A002F050
:1042A000BDF90124204670BDA027002000000000B9
:1042B000000079402564000010B507F075FF044642
:1042C00008E000BF07F070FF001B662802D94FF01E
:1042D000FF3010BD1F2005F039FB0028F2D1BDE8EA
:1042E000104000F0A7BB00002DE9F041114E4FF443
:1042F000C065002442F210773069B84209D80F2017
:1043000005F024FB28B1012007F088FA641CAC42B8
:10431000F2D3AC420BD30F2005F018FB002806D0D7
:10432000BDE8F041002141F64B70FFF7AFBEBDE89C
:10433000F0810000A02700202DE9F041254E002447
:104340007078E8BB0F2005F001FB30B100F0FCF8FD
:1043500018B14FF4007007F061FA0F2005F0F6FA7B
:1043600070BB0024142005F0EAFA07F01DFF054693
:1043700040F2CD4709E000BF07F016FF401BB842EE
:1043800003D9012407F010FF14E0102005F0DEFA35
:104390000028F1D007F008FF05465CB94FF4CD774F
:1043A000102005F0D3FA28B107F0FEFE401BB842FA
:1043B000F6D90124142005F0D1FA84F0010400E0BC
:1043C00005E00F2005F0C2FA08B1034870612046ED
:1043D000BDE8F081A0270020E942020010B50B4C97
:1043E00001206178002908D11D220F2006F014FA5F
:1043F000002802D0607808B1002010BD1C220021E6
:10440000BDE810400E2006F007BA0000A0270020EB
:104410002DE9F8430025344C5C300B46B0F50050D4
:1044200006D0012819D002282AD0092859D13BE00A
:10443000002B56D06A462DA11846FFF795F80028A4
:104440004FDDE188009888424BD3A188884248D844
:1044500080B200F0E7F8054643E023B36A4623A1A3
:104460001846FFF781F800283BDD0098B32838D8BC
:1044700080B2A080E188814200D20846E08011E04D
:104480008BB16A4619A11846FFF76EF8002828DD9F
:104490000098B32825D880B2E080A188884200D84F
:1044A0000846A08001251CE00125002637464FF470
:1044B000807813E007F078FE304600F0B3F805008E
:1044C0000FD0E088864200D1A0887F1C064639467E
:1044D00007A002F0A3F8404607F0A0F96078002892
:1044E000E8D02846BDE8F883A02700202569000011
:1044F000256400000EB5124A07CA8DE807000320A4
:1045000005F01DFA032005F0F5F9042005F017FA6F
:10451000042005F0EFF9002269460A4804F0C6FCC1
:1045200008B101F0ABFC0321152005F0D0F90548D6
:1045300000212838C180B3218180592141800EBDDE
:1045400034C50200C82700202DE9F0412D49002084
:1045500004464978002950D10F2005F0F7F9E8B357
:104560000025132005F0EBF907F01EFE064634B9CE
:104570004FF480570E2005F0E9F9012804D007F028
:1045800013FE06466CB119E007F00EFE801BB84220
:1045900003D9012407F008FE10E00A2007F03EF9D5
:1045A000E8E74FF4C0670E2005F0D0F9012805D0E8
:1045B00007F0FAFD801BB842F5D90124132005F05D
:1045C000CDF907F0F1FD064664B94FF480670F207E
:1045D00005F0BCF930B107F0E7FD00E00CE0801B0E
:1045E000B842F4D90F2005F0B1F918B16D1C042DB3
:1045F000B7DB04E0042D02DA0120BDE8F0810020E1
:10460000FBE70000A027002010B5054C607808B13A
:10461000002010BDFFF750FEE061C017401C10BD28
:10462000A02700202DE9FF410446012507F0BCFD2D
:104630002E4B06460FCB8DE80F004FF4FA60604317
:10464000B421B0FBF1F080B24FF4FA61884200D996
:10465000084600F5FA7141F400422549A0F6C4105D
:1046600040420A8040F40040488021480123022251
:104670006946083804F082FC4FF480770CE000BFF4
:1046800007F092FD801BB84206D919480025012188
:10469000083804F0ABFC24E01548083804F056FC58
:1046A0000028EDD012480121083804F09FFCC5B164
:1046B0000F4E303E7088A04201D9001B00E0201A46
:1046C00000EB800040013C21B0FBF1F04FF4FA71A7
:1046D00001EB40204900B0FBF1F0400007F09EF8EC
:1046E000748004B02846BDE8F081000024C50200B3
:1046F000D027002070B50146A1F5005100202B4DB8
:1047000008390D292FD2DFE801F00714182E2E2EBC
:104710002E2E2E1C2F4B4F006878002410BBFFF765
:10472000CBFD00281EDB01460124214801F076FF65
:1047300018E0BDE87040FFF767BFBDE87040FFF7C5
:1047400093BDFFF761FF040009D10BE007F02CFDDA
:10475000FFF78AFD040005D0012007F05FF86878B4
:104760000028F3D0204670BD0024042005F0E7F8AF
:10477000032005F0F3F840F21F2006F01FF840B1C7
:10478000042005F0EBF840F2331006F017F800B102
:104790000124032005F0D3F8042005F0D0F8E1E768
:1047A000BDE87040FFF7F8BC012070BDA0270020D5
:1047B000F0440200F8B500246C380B46B0F5005008
:1047C00004D0012812D0022839D135E01C22002162
:1047D0000E2006F021F828B91D2200210E2006F037
:1047E0001BF808B101242AE0002428E03BB36A4604
:1047F00014A11846FEF7B8FE002820DD012413207E
:10480000009D05F0ABF867020F4E06E0012215216E
:10481000384605F0B5FF40B16D1E15B1707800281F
:10482000F4D0132005F08BF809E0132005F087F889
:10483000FFF7D4FD0446F4E7FFF7D0FD0446204619
:10484000F8BD000025690000A027002010B5032155
:104850000E2005F03CF803210F2005F038F8032165
:10486000102005F034F80321152005F030F813204E
:1048700005F065F8132005F03DF81B2005F05FF802
:104880001B2005F037F81C2005F059F81C2005F016
:1048900031F81D2005F053F81D2005F02BF81B20E2
:1048A00005F05CF80E2005F051F8002806D0BDE8B0
:1048B0001040002142F26C00FFF7E8BB10BD000081
:1048C0002DE9F04700268CB0DFF86091B0464FF438
:1048D0008075012437460696284605F085F838B1DC
:1048E000D9F80403204203D0284605F073F8264384
:1048F0002D1D64007F1CADB2082FEDD34FF4BE74A4
:10490000204605F071F848B1204605F063F846F0FE
:10491000004606AA0121002005F048F8444D16F093
:10492000FF0F15D00127002437420DD009EB840179
:10493000D1F81005D1F81015C0F3042055F8242043
:10494000C1F3014102B190477F00641C082CEBD3F6
:10495000002E67DA4FF0FF30CDE90880002634469C
:10496000281910F8507F90F9000027F0C008401C6B
:1049700044D009A9404604F02BF858B34FEA9719E0
:10498000404602F061FF55F820701FB1B9F1030FE6
:1049900003D00FE0B9F1030F30D108A84FEAD802D5
:1049A00008F00703815C4FF0010C0CFA03FC41EAAC
:1049B0000C0181544FF0A04101EB8800D0F80007B2
:1049C00006A9C0F3014A404604F002F818B1BAF152
:1049D000020F03D012E0BAF1030F0FD1B9F1030FA8
:1049E00008D1BAF1020F1BD00221404604F096FF15
:1049F000761CF6B217B149464046B847641C042CF1
:104A0000AED3002E0ED06A460121002004F0CEFF66
:104A100006990098884205D00690089809909DE76D
:104A20000321E2E70CB0BDE8F08700000060004021
:104A3000F0B4002070B51E2004F081FF1F2004F0A8
:104A400085FF10B14FF0FF3070BD0024202080F3AF
:104A5000118825461E2004F081FF64001E2004F00A
:104A60006EFF1F2004F072FF00B1641C6D1C182D36
:104A7000F0DB1E2004F072FF84F400041F2004F019
:104A800065FF1E2004F05BFF002080F311882046A4
:104A900070BD000008B508498B1C08700220024652
:104AA0000090064804F04CFB08B101F0E7F9024819
:104AB000801C407808BD0000DC27002060C6020092
:104AC00008B540F080020948084B0270417002208E
:104AD0009B1C02460090991E054804F031FB0028FB
:104AE00003D0BDE8084001F0C9B908BDDC270020AB
:104AF00060C6020070B5032801D2082902D34FF026
:104B0000FF3070BD01248C40E54320B1012812D054
:104B100002282ED11FE0E1B22420FFF7D1FF0820A8
:104B2000FFF7B8FF34EA000002D0E1B220201EE017
:104B3000E9B210201BE0E1B22520FFF7C1FF0920F8
:104B4000FFF7A8FF34EA000002D0E1B221200EE016
:104B5000E9B211200BE0E1B22620FFF7B1FF0A20F5
:104B6000FFF798FF34EA000005D0E1B22220FFF7FA
:104B7000A7FF002070BDE9B21220F8E710B50328A6
:104B800001D2082902D34FF0FF3010BD01228A4024
:104B9000D44320B101280DD0022817D118E0E1B28A
:104BA0001420FFF78DFFE1B21820FFF789FFE1B273
:104BB000102009E0E1B21520FFF782FFE1B21920D1
:104BC000FFF77EFFE1B21120FFF77AFF002010BD52
:104BD000E1B21620FFF774FFE1B21A20FFF770FF71
:104BE000E1B21220F0E770B5032801D2082902D300
:104BF0004FF0FF3070BD01258D40EC4320B10128FE
:104C00000DD0022817D118E0E1B21420FFF758FFA9
:104C1000E1B21820FFF754FFE9B2202009E0E1B229
:104C20001520FFF74DFFE1B21920FFF749FFE9B268
:104C30002120FFF745FF002070BDE1B21620FFF7ED
:104C40003FFFE1B21A20FFF73BFFE9B22220F0E775
:104C500010B5032801D2082902D34FF0FF3010BD50
:104C600001248C40E14320B101280DD0022817D146
:104C700018E0C9B21420FFF723FFE1B22820FFF7A4
:104C80001FFFE1B2202009E0C9B21520FFF718FF8D
:104C9000E1B22920FFF714FFE1B22120FFF710FF56
:104CA000002010BDC9B21620FFF70AFFE1B22A208A
:104CB000FFF706FFE1B22220F0E770B5032801D22A
:104CC000082902D34FF0FF3070BD01248C40E5432A
:104CD00020B1012812D002282ED11FE0E1B22420F9
:104CE000FFF7EEFE0820FFF7D5FE34EA000002D001
:104CF000E9B210201EE0E1B220201BE0E1B2252045
:104D0000FFF7DEFE0920FFF7C5FE34EA000002D0FF
:104D1000E9B211200EE0E1B221200BE0E1B2262041
:104D2000FFF7CEFE0A20FFF7B5FE34EA000005D0FB
:104D3000E9B21220FFF7C4FE002070BDE1B22220CC
:104D4000F8E700001FB5184A04460023D2E9030122
:104D50009269CDE9000109208DF803000A208DF841
:104D600002000C208DF801000B208DF800004FF0A0
:104D7000804002900C4803921A466946001D04F0D8
:104D800049F908B101F07AF8FF214F20FFF798FEAA
:104D90004FF0FF012CB14D2004B0BDE81040FFF7EB
:104DA0008FBE4C20F8E700005CC60200024611F0FE
:104DB000FF03C0F3C70002F0070105D0012B05D0A7
:104DC000032B05D1FFF70FBFFFF7D8BEFFF740BF9A
:104DD0007047AFF3008000F00701C0F3C700FFF792
:104DE0006CBF000010B50446054800EBD400007805
:104DF000FFF750FE04F00701C84000F0010010BDAD
:104E00005CC6020000F00701C0F3C700FFF772BEE6
:104E100000F0070201219140302202EBD000C9B21C
:104E2000C0B2FFF74DBE00002DE9F04115460C461B
:104E30000646064F05E0B85D761CFFF72BFE05F829
:104E4000010B641EF7D2BDE8F08100005CC60200D1
:104E50002DE9F0414FF48077384603F087FE0124B6
:104E6000104EA50748B1384603F087FE0120C5F86B
:104E700008037470002002F0EFFC4FF4827738468C
:104E800003F074FE00280BD0384603F076FE0220B3
:104E9000C5F80803B470BDE8F041012002F0DCBCA5
:104EA000BDE8F081DCB400200149024803F028BBD2
:104EB0008428002000C001402DE9F041164E4FF437
:104EC000A071304604F0D2FD0025EFF311842020BC
:104ED00080F31188D6F80475C100304604F0C6FD91
:104EE00007F062F9381A20F07F46012E07D907F043
:104EF0004DF9022803D0002607F062F90543761E1B
:104F0000FAD225B105494FF08050086040BFE0B2A9
:104F100080F31188BDE8F0810010014004ED00E04D
:104F200038B50F480D4C0025C0F80851D0F80811CD
:104F30000091214605F0A6FF00280ED1A07FFF2892
:104F400001D004F012FD65772572D4E9002101B08B
:104F500004F10800BDE83040104738BD48B50020D6
:104F60000030004008B500200090094869460068FC
:104F700006F084FC0098002808D006494FF08050C5
:104F8000086040BFBFF34F8FBFF36F8F08BD0000B5
:104F9000B828002004ED00E0F0B591B004464021AF
:104FA0006846FEF795FA002120461FA70C4610918F
:104FB0006E46102510AA3946FEF7B4FA0AE000BF83
:104FC00046F8240010AA39460020641CFEF7AAFA0D
:104FD000AC4201DA0028F3D1002C1DDD00980178E5
:104FE00012483A291AD0124901606D4629462046D6
:104FF00002F034FE05280FD12946204602F024FF96
:10500000052809D12946204603F07EF8052803D15A
:105010002946204603F060F911B0F0BD0099491C03
:1050200000910449E0E7000020000000D82700209C
:1050300019B20200E19D0200F0B5AB480023021D49
:1050400001780124101D4FF0805506290BD11678E8
:10505000360708D10678C6F30316032E06D0042EB1
:1050600004D0052E02D0062907D00EE0B5F824633F
:105070009E4FC6F304263E6002E01678360704D140
:105080000678C6F30316032E02D0062904D00FE0DB
:10509000984F974E7E670EE01678360708D106784F
:1050A000C6F30316032E06D0042E04D0052E02D01C
:1050B000062907D00EE0D5F844628F4FC6F342367A
:1050C0003E6002E01678360704D10678C6F3031670
:1050D000032E02D0062906D011E0884E376827F04B
:1050E000807737600EE01678360708D10678C6F369
:1050F0000316032E06D0042E04D0052E02D0062956
:105100000AD011E04FF08046C6F80C31C6F81031D5
:10511000794E361F336002E01678360704D10678E0
:10512000C6F30316032E02D0062905D00CE0724FF9
:10513000032664373E600AE01678360704D1067805
:10514000C6F30316032E02D006290DD014E06C4FCF
:1051500005263E606A4E78363460694E0836336004
:105160003F263F1D3E6002E01678360704D10678E0
:10517000C6F30316052E02D0062957D062E0614E11
:105180003668614F3E605F4E361D36683F1D3E609B
:105190005C4E083636683F1D3E605A4E0C36366807
:1051A0003F1D3E60574E103636683F1D3E60554EDF
:1051B000143636683F1D3E60524E18363668524FE0
:1051C00020373E604F4E1C3636683F1D3E604D4EC8
:1051D000203636683F1D3E604A4E243636683F1DF5
:1051E0003E60484E283636683F1D3E60454E2C36A0
:1051F00036683F1D3E60434E30363668424F40377A
:105200003E60404E343636683F1D3E603D4E383677
:1052100036683F1D3E603B4E3C3636683F1D3E6063
:10522000384E403636683F1D3E6002E0167836073D
:1052300008D10678C6F30316032E06D0042E04D038
:10524000052E02D0062907D019E0D5F858122F4AAA
:1052500001F04F01116002E0117809070FD10078C9
:10526000C0F30310032803D0042801D0052806D179
:1052700027480168C90702D06FF0010101601F488B
:105280007438016841F470010160BFF34F8FBFF3C0
:105290006F8F4FF01021D1F80C02C00720D01D4AAB
:1052A00014601D480468002CFCD0D1F80C4224F096
:1052B0000104C1F80C4201680029FCD013600168A8
:1052C0000029FCD0BFF34F8F0C48F0380168134A17
:1052D00001F4E06111430160BFF34F8F00BFFDE7B0
:1052E00010490F480860F0BDE00F00F04035014064
:1052F0000DF0ADBA00C007403C050040FCED00E0F9
:10530000105600400404001020C50040E40E004088
:105310000004004004E5014000E401400400FA05F7
:105320000090D003002800200448017F0448002991
:10533000024901D005F092BF05F0CEBE702F0020CB
:1053400000200040094882B0D0F804034FF000016B
:1053500010F0010F07D00648016000680090054872
:10536000406802B0004702B07047000000000140F2
:1053700000010140782800200FB4054B10B503A9A7
:10538000044A029800F00EF910BC5DF814FB00000E
:10539000517B0200B02800207CB5044600201D4649
:1053A000164600290BD0491ECDE90041044B6A4640
:1053B0002946304600F0F6F8009A002111707CBDB5
:1053C000D35C020002E008C8121F08C1002AFAD10B
:1053D00070477047002001E001C1121F002AFBD175
:1053E000704700000121202803DA81400548014070
:1053F00003E0402802DA2038814009B101207047DB
:1054000000207047FC06FFBD082806D228B10128FD
:1054100003D0042801D0012070470020704700000D
:105420002DE9FF5F82B00021DDE90430020DDDF8D7
:1054300040B0034318D044F61050A2F2FF3242436A
:105440001514119801281FD0A5EB0B00401C5FEA32
:10545000000A4FF000064E4FDFF83891B046504634
:1054600015D5CAF1000413E0119801244AA30128BC
:1054700001D16FEA0B010298119AC0E90031C0E92D
:10548000024206B0BDE8F09FCBF10000DFE7044622
:105490000021404A491842EB0450CDE9001012E0C7
:1054A000E00707D032463B4640464946FEF738FB08
:1054B0008046894632463B4610461946FEF730FB89
:1054C00006460F466410002CEAD1DDE90401DDE94F
:1054D0000023BAF1000F06DAFEF722FB42464B46E4
:1054E000FEF71EFB05E0FEF701F942464B46FEF7CC
:1054F000FDF804460E460022284BFEF79BFB03D81E
:105500004FF0FF30014607E00022254B2046314690
:10551000FEF75FFAFEF776FB102409E0002C0ADBA9
:105520000A220023FDF78AFF039B30321A55641EBE
:1055300050EA0102F2D1641C039AC4F1110314442D
:10554000119A012A03D0012208430DD10AE0084331
:1055500004D000204FF0110B119072E7A3EB0B0564
:105560006D1E0DE05B4504DD4FF0000205F1010505
:1055700004E003DA4FF00002A5F10105002AECD0A7
:1055800002981199C0E90231C0E9004579E70000AD
:10559000000014400000F03F300000000000F04325
:1055A0000000E03F2DE9FF4F95B09B468946064637
:1055B00000250FE2252877D100242746F84A01214B
:1055C000059400E0044316F8013F203B01FA03F084
:1055D0001042F7D130782A2811D06FF02F0330789D
:1055E000A0F13002092A16D8059A44F0020402EB11
:1055F000820203EB42021044761C0590EFE759F853
:10560000042B0592002A03DA504244F4005405901A
:1056100044F00204761C30782E2816D116F8010FBB
:1056200044F004042A280DD06FF02F023078A0F146
:105630003003092B09D807EB870302EB4303C71894
:10564000761CF3E759F8047B761C30786C280FD071
:1056500006DC4C2817D068280DD06A2814D104E045
:10566000742810D07A280FD10DE044F400140AE019
:1056700044F4801401E044F440147278824202D170
:1056800004F58014761C761C307866280BD013DC69
:10569000582877D009DC002875D04528F6D0462850
:1056A000F4D047281AD19DE118E0632835D064284A
:1056B00079D0652812D195E1702873D008DC67286D
:1056C000F1D069286FD06E280DD06F2806D1B5E0D3
:1056D00073282CD0752875D0782874D05A4617991D
:1056E00090476D1C75E1C4F30250022809D00328CD
:1056F0000DD0D9F8001004280DD00D6009F104096F
:1057000067E1D9F80010EA17C1E90052F6E7D9F8C5
:1057100000100D80F2E70D70F0E719F8041B8DF80A
:10572000001000208DF80100EA46012003E059F83E
:1057300004AB4FF0FF3061074FF0000102D40DE0E1
:1057400008F101018846B9420FDA8045F8DB1AF802
:1057500008100029F4D108E008F1010188468142CF
:10576000FADB1AF808100029F6D105985B46A0EB81
:10577000080721463846179A00F094FA284400EBAF
:10578000080507E04DE029E10DE01AF8010B5A4643
:1057900017999047B8F10108F7D25B462146384681
:1057A000179A13E142E00A220092C4F302524FF02A
:1057B000000A022A08D059F804CB032A4FEAEC71F8
:1057C0000AD00DE029E02AE009F1070121F00702E3
:1057D000F2E802C1914609E00FFA8CFC4FEAEC7145
:1057E000042A03D14FFA8CFC4FEAEC71002907DA46
:1057F0000A460021DCF1000C61EB02012D2202E0DF
:10580000220504D52B228DF80420012203E0E207B3
:1058100001D02022F7E7904659E00A2102E0102249
:105820000DE010214FF0000A00910BE010224FF024
:10583000000A44F004040827009203E008224FF015
:10584000000A0092C4F30252022A05D059F804CB90
:105850000021032A08D009E009F1070121F007021D
:10586000F2E802C1914605E01FFA8CFC042A01D13E
:105870000CF0FF0C4FF00008220728D5702806D046
:10588000009B83F0100353EA0A0305D00EE0402288
:105890008DF80420012208E05CEA010206D03022E3
:1058A0008DF804208DF8050002229046009B83F0BD
:1058B000080353EA0A030AD15CEA010201D1620734
:1058C00005D530228DF804204FF001087F1E58289E
:1058D00004D034A003900EA802900DE036A0F9E7A2
:1058E00053466046009AFDF7A9FD84460398825C02
:1058F0000298401E029002705CEA0100F0D102980A
:1059000006A9081A00F1200A600702D524F48034A1
:1059100000E00127574502DDA7EB0A0000E0002068
:1059200000EB0A01009005984144401A0590E003FD
:1059300006D45B462146179A059800F0B3F9054452
:10594000002706E001A85A46C05D179990476D1CD4
:105950007F1C4745F6DBE0030CD55B462146179AD2
:10596000059800F09FF9054404E030205A46179945
:1059700090476D1C0099481E00900029F5DC08E056
:10598000029802995A460078491C0291179990474B
:105990006D1CBAF10001AAF1010AF1DC65E1000019
:1059A00009280100303132333435363738396162F5
:1059B00063646566000000003031323334353637B9
:1059C00038394142434445460000000000F058F990
:1059D0000544761C307800287FF4ECAD19B02846D9
:1059E000BDE8F08F620700D4062709F1070222F014
:1059F000070CFCE80223E14603F000485FEA080CCC
:105A000002D00FF2702C0DE05FEA045C02D50FF2B9
:105A1000682C07E05FEAC47C02D00FF2602C01E042
:105A2000AFF2700C4FF0FF3823F00043CDF850C0B8
:105A300065280CD006DC452809D046281DD047280B
:105A40003DD13DE0662818D067287ED138E000219E
:105A5000112F01DB112000E0781CCDE9000106A91F
:105A60000EA8FFF7DDFCDDE90F010E9A039100217E
:105A7000009207F1010A04914DE04FF000400097B9
:105A8000CDE9011006A90EA8FFF7CAFCDDE90F0257
:105A900003920E9B11990022DDF80CA00093049252
:105AA00011B9791C00EB010AB7EB0A0004D4C0F16C
:105AB000FF3007F1010A0490AAEB0700019044E0CF
:105AC000012F00DA01270021112F01DD112000E054
:105AD0003846CDE9000106A90EA8FFF7A1FCDDE9D3
:105AE0000F010E9A0391002104910092BA462107FA
:105AF0000CD40399514500DA8A46BAF1010F05DD4D
:105B0000009AAAF10101515C302908D0B84202DAAA
:105B100010F1040F06DA0121CDE9011015E0AAF118
:105B20000101E9E7002805DC049901440491AAEB8E
:105B3000000102E0411C514500DD8A460499401AEB
:105B4000401C01904FF000400290200704D40198BF
:105B5000504501DBCDF8048000208DF84F000298FD
:105B60000DF14F07B0F1004F25D02B200E90029879
:105B70004FF0020800280CDA404202902D200E90CF
:105B800007E00A210298FDF750FE3031029007F835
:105B9000011DB8F10001A8F10108F2DC029800280B
:105BA000EFD1791E0E980870307800F0200040F098
:105BB000450007F8020D12A8C01B00F10708149851
:105BC000007800B1012000EB0A01019801EBE071BF
:105BD00005984144401A401E0590E00306D45B46F8
:105BE0002146179A059800F05DF80544149800784E
:105BF00018B15A46179990476D1CE00324D55B46AF
:105C00002146179A059800F04DF805441CE00498C9
:105C1000002807DBDDE90301884203DD0098405CD2
:105C2000179901E0179930205A469047049805F1DA
:105C30000105401C04900198401E019004D12E20C3
:105C40005A46179990476D1CBAF10001AAF1010A52
:105C5000DDDC05E017F8010B5A46179990476D1CDB
:105C6000B8F10001A8F10108F4DC5B462146179A5F
:105C70000598ABE62D0000002B000000200000007E
:105C80002DE9F041044600251E461746880404D439
:105C900005E039462020B0476D1C641EF9D5284622
:105CA000BDE8F0812DE9F041044600251E469046EE
:105CB000C80301D5302700E02027880404D505E07B
:105CC00041463846B0476D1C641EF9D52846BDE8EC
:105CD000F0814A68002A06D00A68531C0B601070D5
:105CE0004868401E4860704710B50122022100201C
:105CF00001F030FC08B1072810D107220221012051
:105D000001F028FC08B1072808D100210A22084622
:105D100001F020FC08B1072800D1002010BD0000D0
:105D200000B5A9B0A0216846FDF7D2FB02208DF88E
:105D3000000001208DF8020005218DF803101049A4
:105D40000591ADF8100040211E22CDE922128DF8F8
:105D50007C008DF87D008021CDE924128DF878003B
:105D6000084826906946084800F062FD08B100F036
:105D700085F80121044800F058FD29B000BD00005D
:105D800068270020819E0200782B0020022001F06D
:105D900017BB000070B50024064D06E068680121BD
:105DA00010F8340002F082FF641C28788442F5D396
:105DB000002070BD8C280020F8B515460C4606461C
:105DC000052A01D20720F8BD03F056F818B903F0F0
:105DD00025F80028F7D1104900204E600C70C1E969
:105DE00002500E4D08610DE006EBC4006968009199
:105DF00081788DF801100078094A694602F0A8FF01
:105E00000028E0D1641EE4B2EED2BDE8F840054AB5
:105E10000021024800F072B88C280020E4C602007D
:105E2000057C0200BD790200074910B5496801EB05
:105E3000C004207802F0E8FF6178012901D0012137
:105E400000E00021484010BD8C280020094800686F
:105E5000C00700D000BEBFF34F8F0648E43801688A
:105E6000054A01F4E06111430160BFF34F8F00BFA9
:105E7000FDE70000F0ED00E00400FA050EB500219A
:105E80000091CDE901106A4644F20100FFF7DEFF00
:105E90000EBD10B58268C368934203D001F0FCFDCB
:105EA000002010BD052010BD29B112B1531E1342B0
:105EB00003D0092070470E207047016083800021C5
:105EC0008160C1600846704710B58268C3689A1A3D
:105ED00083889A4203D801F0E9FD002010BD042018
:105EE00010BD10B504F05AFB017B002905D00168F4
:105EF0008268BDE810400846104710BD38B50468F8
:105F000000251AB110B1207B20B901E0072038BD6F
:105F1000606808B1082038BD00202060A060E06003
:105F200069B10120A26008490246009123464FF45E
:105F30007A7106A006F05AFA606010B102E0002003
:105F4000F0E70E25284638BDE35E02002000000081
:105F5000002070472DE9FC41466815460F4604466F
:105F600056B1207B002809D0304606F0A7FA002859
:105F700004D00020BDE8FC810820FBE7EFF305809A
:105F8000256008B30025019501AB3A46092130464A
:105F9000009506F06BFA01282BD106F00BF90246AA
:105FA00001AB06213046009506F060FA012820D1A9
:105FB000019800B311494FF08050086040BFBFF313
:105FC0004F8FBFF36F8F16E0022500233A4604215E
:105FD0003046009506F04AFA01280AD106F0E4F8A6
:105FE0000246002301213046009506F03FFA0128C1
:105FF00001D00420BEE701202073BAE704ED00E0E1
:106000007CB504464068002500280CD0EFF30581DC
:10601000B9B1019501AB00220821009506F026FADE
:10602000012817D101E008207CBD0198A0B10C49DE
:106030004FF08050086040BFBFF34F8FBFF36F8FAA
:106040000AE00221002300911A46032106F00EFA0D
:10605000012801D004207CBD257300207CBD0000F8
:1060600004ED00E02DE9F0413E4E8CB098460D0065
:10607000044632614AD0A888296882B23A48FFF7BC
:1060800013FF002843D1A889A96882B2364810308E
:10609000FFF70AFF00283AD14FF4F8773946334822
:1060A000FDF716FA3149002501F50470856001609D
:1060B00020222F4904A87560FDF7F1F960690A9064
:1060C000207C00B101208DF824008DF82C80607CAC
:1060D00000B10E208DF82500E0680690A0680790BA
:1060E00020680590606804901E48224A0C30089091
:1060F00004A9083003F06AF8002808D175702068F8
:10610000401C04D09DF82D0020B107E007200CB002
:10611000BDE8F0811348143003F0E6F8B06890B998
:106120001048032100910830CDE9010500234FF408
:10613000807211A11248039505F016FF012802D0C4
:106140000420FFF79BFE07483A460849143002F046
:1061500053FA0028DBD103483A460449143002F0D0
:106160004BFAD4E784270020402F0020502D002038
:1061700004C502001DB00200756172745F6877008B
:10618000C17A020010B501460B48FFF79DFE0400DE
:1061900010D10A4803F018FA60B9084906481439C2
:1061A000FFF777FE30B9054901221439034803F09F
:1061B00085F90446204610BD502F00209827002066
:1061C00030B5EFF3108172B60D4A9468012324B103
:1061D0000370002900D162B630BD93604FF0E02318
:1061E000D3F88051074C25401560C3F88041D3F89F
:1061F000844154605A17C3F8842100220270E8E7F2
:106200008CB50020FC06FFBD0B498A68002A11D01E
:1062100000280FD1EFF3108072B60B684FF0E02228
:10622000C2F800314B68C2F8043100228A600028AD
:1062300000D162B6704700008CB5002010B58AB05E
:106240000120FDF755FF2B4C206970B90022042175
:10625000082005F0CDFC206120B90020FFF70EFEDC
:10626000206910B124A105F0A9FA224901220020D9
:1062700000920C31CDE9011003460390520220A197
:10628000214805F071FE012802D00420FFF7F6FD39
:1062900018221E496846FDF702F91D480690802025
:1062A00007901B480723803008904FF480700990B6
:1062B000184A06A96846FFF7D5FE08B1FFF7DEFDCC
:1062C00005F002FC11481A2201210838FFF774FD7D
:1062D00008B9FFF75FFD0020FFF7A6FD002806D0F4
:1062E0000AB00021BDE810400BA004F06BBD0AB05D
:1062F00010BD00006027002053797351000000009A
:106300005359535F446F000029AE0200E0C40200FD
:10631000C829002007B0020023696F70656E000075
:106320002DE9F041064608680C46411C4FF0A04795
:106330004FF0010506D005FA00F1C7F808152068EE
:1063400003F0CEFA6068411C02D0002103F0B6FAD7
:106350003079204901EB4010A169007F00283068A6
:10636000C0F8241525D0607D227D31681043C1F826
:106370006C05D4E900123068C0F80C15C0F814257B
:1063800024E0A068411C02D0002103F097FAE068E5
:10639000411C05D08540C7F80855E06803F0A0FA15
:1063A000D4E902123068C0F80825C0F81015BDE81D
:1063B000F081607D217D32680843C2F86C05D4E924
:1063C00000123068C0F81425C0F80C15207D012893
:1063D000D7D0ECE7702F002010B50C4CE06860B906
:1063E00005F048FBE06818B9012005F0DFFBE0602C
:1063F00005F0A4FFE068002806D00023BDE81040A7
:106400005A1E194605F012BC10BD0000A02700203E
:106410000448C068002804D000231A46194605F035
:10642000D1BC7047A027002070B50321162003F0CF
:106430004EFA0321172003F04AFA0321182003F033
:1064400046FA0321192003F042FA012005F0E6F98B
:10645000162003F07BFA20B300241720641C03F0FD
:1064600075FA00B35FF0000004EB4004182003F05D
:106470006DFAD0B15FF0000004EB8004192003F046
:1064800065FAA0B15FF0000004EBC0050026484C9F
:106490000A2D7DD2DFE805F0890D353989608989BB
:1064A00089640124D9E70120DEE70120E4E7012027
:1064B000EAE70321022003F00AFA03210E2003F089
:1064C00006FA03210F2003F002FA0321102003F043
:1064D000FEF9132003F042FA132003F00BFA142004
:1064E00003F03CFA142003F005FA0F2003F02EFA13
:1064F00020B1002141F64B70FDF7C8FD2D48A06189
:1065000054E0FDF7F7FF2C48F9E74FF0FF30E0616A
:1065100003211F2003F0DBF91E2003F010FA1E20D8
:1065200003F0E8F9032003F00AFA032003F0E2F98C
:10653000042003F004FA042003F0DCF90321022014
:1065400003F0C5F90321002003F0C1F90321012064
:1065500003F0BDF91948D2E7FEF778F91848CEE7FD
:1065600003210E2003F0B3F90321102003F0AFF94B
:10657000132003F0F3F9132003F0BCF9142003F007
:10658000EDF9142003F0B6F94FF4C010002100E03B
:106590000BE0C4E908600BA004F014FC002141F6F4
:1065A0009070FDF773FD0948A9E7A661257070BDDD
:1065B000A02700204D42020011440200F5460200CF
:1065C000B547020023696F70656E000051410200FB
:1065D0004FF0FF36FFF728FF0E4C42F210750027F0
:1065E0003146012004F0E0FEA26982B10A499047D9
:1065F00068B12069A84204D9B0FBF5F105FB110090
:10660000206160690028EBD080476761E8E7256179
:10661000F7E70000A0270020902F00200FB410B54E
:10662000FFF7DAFE03AB4FF480710448029AFEF7DD
:10663000B3FEFFF7EDFE10BC5DF814FB90300020B8
:106640002DE9FC47002517880646158090F82D0097
:106650001446894630B13A462146484600F008FBC8
:10666000050009D1B0784FF00C0A18B32088C8464D
:10667000001DB84202D95046BDE8FC87684679DF64
:106680000028F9D12088032108F80010208819215A
:10669000401C80B2208008F800102088401C80B286
:1066A000208000EB0801BDF8000004F06CFE21889A
:1066B00008442080F0780222C8B1218896F903307E
:1066C00001F1030C4846BC45D5D8425421884FF00F
:1066D000010C491C89B2218000F801C02188491CA5
:1066E00089B2218009F801302088401C2080706820
:1066F000B8B1218890F9003001F1030C4846BC453F
:10670000B9D8425421880A22491C89B221804254B6
:106710002188491C89B2218009F801302088401C59
:106720002080308950B1CDE900474B460622022136
:1067300006F1080004F0BAFE05009DD1308A50B180
:10674000CDE900474B460722032106F1100004F073
:10675000ADFE050090D1308B50B1CDE900474B46DE
:106760001522142106F1180004F0A0FE050083D1C3
:10677000306A30B13B462246494601F0B4F8050084
:10678000DBD1706A30B13B462246494602F036F80A
:106790000500D2D196F82C0038B13B462246494636
:1067A000304604F0CBF90500C7D1307838B13B460C
:1067B00022464946304602F0A7F80500BDD12846DA
:1067C0005AE7F0B50C4693B01F210726ADF800102C
:1067D000ADF80410002750B1C17849070DD56A46BD
:1067E00002A9FFF72DFF002808D102AD02E0002525
:1067F000ADF800706CB1E07810B1304613B0F0BD68
:1068000001AA0AA92046FFF71BFF0028F6D10AAA11
:1068100002E00022ADF80470BDF80400C3B2BDF878
:106820000000C1B2284672DFE8E780F82410704704
:1068300070B50D00044653D0F4B30120207000263B
:10684000E670202205F17801201DFCF728FE84F86F
:106850002460D5F89800C4F8CC00D5F89C00C4F8A2
:10686000D0004FF6FF70A4F8C800C4F82560A4F863
:10687000296084F82B6004F130003C210646FCF7C7
:1068800027FE287884F83000A87884F83200E87869
:1068900084F83300687884F83100D5E90401C4E94C
:1068A0001001D5E90201C4E90E01D5E90601C4E9E8
:1068B000120195F82D0000E012E084F85D00686A8E
:1068C000D8B104F1780104F16C0061676065696A10
:1068D00009880180686A616D80888880002008E0EE
:1068E0000E2070BD696A22188968095C82F87810E8
:1068F000401C616D89888142F4D8A86AE8B104F12E
:10690000A400C4F8A0000C38A065A96A8988818019
:10691000A86AA16D00880880002006E0A96A2218F4
:106920008968095C82F8A410401CA16D89888142A5
:10693000F4D895F82C0084F85C00286A48B104F17A
:10694000C4002065296A49884180286A216D008831
:106950000880686800B1606305F13C013046BDE81D
:106960007040FFF72EBF10B50288102A1AD0112AE6
:106970001FD01B2A1CD1007A0C46002818D1E078C1
:106980000521401CB0FBF1F201FB1201204600F092
:1069900055F800280CD0D4F8D010002908D0BDE854
:1069A00010400847C27B012A02D18088A1F8C800A4
:1069B00010BD0C46002184F8D4108088B4F8C810AB
:1069C0008842F5D120790028F2D10121DEE710B507
:1069D0000C46022801D0032811D1607800280ED07F
:1069E00000206070E178204600F028F8002806D0EA
:1069F000D4F8D010002902D0BDE81040084710BDDF
:106A000010B5044674DF012084F8D400002084F817
:106A1000D600062084F83300002104F13000FFF78F
:106A2000D0FE002809D1E178204600F007F818B11F
:106A3000D4F8D01001B18847002010BD2DE9FF47E0
:106A4000044600780F4638B1E770002002F034FEAB
:106A5000012628B16670D2E0082004B0BDE8F087B6
:106A60000025C4F82550A4F8295084F82B50A079AB
:106A700010B1E078012806D0E07970B1E078012803
:106A800001D0022809D1D4F8CC1021B184F82C60AF
:106A90000820884701E084F82C5004F126010020EA
:106AA0000A5C0AB1304603E0401C0628F8D30020F7
:106AB0004FF002084FF0030A4FF00409012F06D0EF
:106AC000022F09D0032F0CD0042F12D10DE0A17991
:106AD00011B108B130460DE0E17911B108B140467D
:106AE00008E0207A08B1504604E0607A08B14846D0
:106AF00000E02846E070D4F8CC1041B1032801D062
:106B0000042804D1607910B194F8D400A8B184F8B5
:106B1000D55000950295019503958DF800508DF89C
:106B20000850E17804F1250004F13002052958D21B
:106B3000DFE801F0670A131F3B0084F8D65084F8A1
:106B4000D56007208847E4E7A67001908DF80060C3
:106B5000ADF80C50ADF80A5043E084F80280019083
:106B60008DF80060208AADF80C00A089ADF80A000D
:106B700037E0A08AADF80A00208BADF80C006079F0
:106B800080B194F8D40068B994F8D60050B18DF86B
:106B9000088084F8339000211046FFF712FE00BBF6
:106BA00005211AE084F802A01BE0A08BADF80A00D2
:106BB000208CADF80C00607988B194F8D40070B9DD
:106BC00094F8D60058B18DF8088084F833900021ED
:106BD0001046FFF7F6FD20B90621A17001E084F808
:106BE0000290E07830B194F82410684673DF0028F2
:106BF0007FF433AFD4F8CC1009B1A07888470020D7
:106C00002BE7A570F6E7000070B5040012D001462E
:106C10001C221448FCF743FC1248134D0560206801
:106C200050B17ADF002806D12068016829604068E9
:106C3000686005E00E2070BD0B487BDF0028FAD1AC
:106C400008484FF6FF711438084A20F8041B05491C
:106C5000343901600021FFF751F90028EBD00320FF
:106C600070BD000008B400207028002045B4020068
:106C70007CB5054608880C460930904201D90C20A5
:106C80007CBD68466DDF0028FAD121880820685451
:106C900020881B21401C80B2208029542088401C61
:106CA00080B220802844DDF801100160BDF8051095
:106CB00081802088801D80B220809DF800104908C6
:106CC00000D0012129542088401C208000207CBD58
:106CD00010B54FF0FF3100203BDF00280BD1B12170
:106CE0003ADF002807D10448416901208847022083
:106CF00002F09CFE002010BD54B60020044810B5E0
:106D00000068416900208847BDE81040FFF7E0BFF8
:106D1000C028002010B500280FD001881B4C502936
:106D200026D00BDC10291DD0112906D1A18880881E
:106D3000814202D14FF6FF70A08010BD512913D0BF
:106D40005329FAD1C088E1888842F6D1607E0028B4
:106D5000F3D0FFF7D3FF0028EFD06169BDE8104002
:106D6000022008478088E7E7BDE8104003F0E2B85A
:106D700030F8061F62899142DFD141890229DCD1B6
:106D80000C3000F015FB207610BD000054B600203A
:106D90002DE9F0410546007B0426234C4FF0010805
:106DA00001280FD002281FD00226287B4FEA0601B7
:106DB00000F064F8002832D020684169BDE8F04155
:106DC0000320084720680027817E11B10621012099
:106DD000EEE780F819800121084600F04FF80028FE
:106DE0001DD020684776E0E76A7B142A19D8C2B123
:106DF0000E4F05F10E01381DFCF751FB687BB861A1
:106E000021683846897E0029CFD1A0F10C010A689B
:106E1000011F90470028C8D1216881F81A80BDE879
:106E2000F0810526C1E70000C02800207CB60020C4
:106E300070B5104900250A68002A19D04A68002A4E
:106E400016D008319047112812D00B4C002820682A
:106E500085760BD00421022000F010F8002807D01E
:106E600020684169BDE87040032008470121F2E72E
:106E700070BD000070B60020C028002086B003233B
:106E8000ADF8003020238DF814308DF81500002265
:106E90000E48019202928DF81610C188ADF80410C8
:106EA00002218DF8061005A90491ADF80820CDF84F
:106EB0000CD0808801A9A6DF002804D1BDF80010FD
:106EC000032900D00C2006B07047000054B6002003
:106ED00030B5494D044601880022688889B02229CE
:106EE0001FD029DC11293AD01DDC012960D01029DE
:106EF00017D1072001F07CFC08B1FEF7BFFFA08886
:106F0000688010B10020FEF7B9FF68883A49C0EBED
:106F1000C0001C310844A1680160A1898180A17B67
:106F2000817109B030BD13292FD02129F9D10092E8
:106F3000A08869468FDF33E051293CD007DC232944
:106F400028D03B29EDD1A088132176DF12E0522909
:106F500029D05629E5D1A088132176DF0AE04FF623
:106F6000FF706880254800790128DAD10321234881
:106F7000FFF764FD0028D4D009B0BDE83040FEF72B
:106F80007DBF00BFFEF77AFFCBE700231A468521BD
:106F90007FDFEFE700920192A0880022694690DF30
:106FA0000028EFD1BDE700231A461946A9DFE1E723
:106FB000002166DFDEE71022A11D04A8FCF76FFAAE
:106FC0009DF810100029ACD09DF81800042803D0BB
:106FD000062801D00528A4D102290BD05FF00100BA
:106FE0008DF800004FF4C170ADF80400A088694628
:106FF000A8DFD5E70220F3E760270020782B0020E8
:1070000010B51A4C0188606810290ED011292BD1B7
:10701000401E606028D1FEF767FE002824D021685A
:10702000002921D0BDE810400847D0B90021012235
:10703000084600F08FFA08B107280FD10722022175
:10704000012000F087FA08B1072807D104220221A5
:10705000002000F07FFA20B1072802D0216801B19A
:1070600088476068401C606010BD0000F827002061
:107070002DE9F04701883B4E40F2F3194FF6FF75BA
:1070800010291BD011293ED0122954D0502946D1A5
:10709000C188F289841D914241D1618902293ED182
:1070A0008688304601F0E6F9050038D004F10C007E
:1070B00000F082F9A8B3294630464EE0C17B8788AC
:1070C000044601292BD1A846284601F0D3F9050032
:1070D00017D02F8000202872234843464A46016873
:1070E000C5F80A104068C5F80E0004F1100105F15A
:1070F0000A0001F053FA6872F08900280FD129467E
:107100002AE0042013E0808801F0B4F9040006D0DE
:107110006068FEF775FF08B103F008FD2580BDE843
:10712000F087FFE76868FEF76BFF0028F7D0BDE83F
:10713000F04703F0FBBC87880646384601F09AF911
:107140000400ECD02B464A4606F1080104F10A007F
:1071500001F024FA607221463846BDE8F04700F09D
:1071600009BC000008B40020702800202DE9F04779
:10717000044603883F480122A4B000F1480A102BBE
:1071800009D0112B54D01A2B70D1217AB2EB111FD8
:1071900053D2012352E0D0E911218A430546011D53
:1071A00012A803F096FC442212A901A8FCF777F973
:1071B000DFF8C0900026374609F144090DF10408B4
:1071C0000AE000BF08EB46001D2283884946281DBF
:1071D000009703F043FC761C0198B042F2D8686C2B
:1071E000A688C04303F05CFCA0F57F41FF3917D0AF
:1071F00005EB40000123868032465146281D03F0EE
:107200008DFC012332464946281D03F087FCE07BB4
:1072100002280BD000231749A2884C31281D20E0FA
:1072200024B00420BDE8F047FEF728BE0123F2E7B2
:107230000023A2885146001D13E000230D49054696
:10724000A2885031001D03F069FC207A0221B1EBC5
:10725000101F01D2012300E000230649A288543107
:10726000281D24B0BDE8F04703F058BC24B0BDE8A9
:10727000F087000024B4002030B5174B0D46040001
:107280000FCB85B08DE80F0023D015B34FF6FF70FC
:10729000A0822868A0610020A0752146684662DFB0
:1072A000002814D120788DF812000120ADF81000CC
:1072B000A21C04A9A0DF002809D12946204603F01A
:1072C000F2F9002803D12946204603F021FE05B03B
:1072D00030BD0E20FBE70000C4C602007FB50029C8
:1072E00017D0002815D00288102A0DD0112A0DD0F1
:1072F000502A0FD0572A0CD11A4B1868D3E9022311
:107300008DE80F0089692AE0808801E04FF6FF7060
:1073100088827FBD01910C46821DC38809890025A2
:1073200012308B4202D1518902290CD0A1898B42A3
:10733000EFD1A1690029ECD002905089ADF80C0082
:107340008DF800500AE000F037F818B10120A07560
:10735000022001E0A57503208DF80000A1696846B0
:1073600088477FBDB4C602001FB560B1838AA3F50C
:107370007F44FF3C09D0837D3BB11388F42B06D9B1
:10738000072004B010BD0E20FBE70820F9E700231A
:1073900000930193029303938388CDE90221ADF812
:1073A000003001218DF80210808A6946A6DFE8E7E7
:1073B0000078C0F340007047007800F0010070478B
:1073C00007490B5C4FF0A041D1F8042501209840FB
:1073D00020EA0203C1F808351040C1F80C057047D7
:1073E00078C602000249085C012102F0D3BA00000D
:1073F00078C602000249085C002102F0CBBA000006
:1074000078C602000649095C4FF0A040D0F8040598
:10741000C84010F0010000D0012080F0010070474A
:1074200078C602001CB5074800210B460078009181
:1074300001220191114602F00BFABDE81C4000F058
:1074400003B8000078C602000020FFF7CBBF002081
:10745000FFF7D0BF10B50246064B4FF0FF300021BA
:107460005C5C944201D1084610BD491C0229F7D347
:1074700010BD000079C602002DE9F0470D46814697
:10748000FFF7E8FF0446022837D2DFF878801C486F
:1074900008F10C06A6F1100725B3012D0ED0022D20
:1074A0002BD104EB440030444578002D25D0F968F9
:1074B000002922D02846BDE8F047084704EB4401E4
:1074C000755C0E44717849B10E4A4FF40071521E3A
:1074D0008068FEF73FFD08B987F80390B17808F897
:1074E0000410E2E78068FEF78BFD04EB44013144B1
:1074F00018F804008D78A842D7D0BDE8F0870000C6
:107500007CC60200E42700200146104810B54088E0
:10751000042907D007290ED00A2915D1BDE810404B
:1075200003F088BB132176DF0CE000280CD0BDE807
:107530001040FEF7A3BCA0F57F41FF3904D10448F9
:10754000FFF75EFA0828F0D110BD00006027002088
:10755000782B002070B50023022810D20D4D00EBCF
:107560004004012A02D101290CD00022094E00EB6F
:107570004000304461B1012906D0022906D007231A
:10758000184670BD0E30C2B22A55F9E74270F7E7CF
:107590008270F5E7F0270020044A01460020127AA5
:1075A000D20702D0084600F04BB87047E027002011
:1075B00070B506461D480024C0E90261B0071FD51A
:1075C0000025012211462846FFF7C4FF6D1C044622
:1075D000022D02D2002CF4D012E08CB91A22022122
:1075E0001348FEF7E9FB04000AD1FEF7D3FB0400C1
:1075F00006D10F480F4A0021001FFEF77FFC04460A
:10760000F00701D0FFF70EFF74B909480A4A0021BC
:107610000C38FEF773FC040006D10548074A012127
:107620000838FEF76BFC0446204670BDE0270020BA
:1076300088C60200DD770200318602008D5D0200FF
:107640002DE9F05F624C05460026607818B10020F5
:10765000607000F0E3FF5F4F4FF47A6B4FF4FA7AFB
:107660004FF47A784FF00109182D5AD2DFE805F06F
:107670009A0C0C2837445A5F636B636BAC74747458
:1076800074749A9DA0A3ACAC0020FFF7BBFE002849
:107690004FF0000008D0FFF7A5FE022D02D14FF4F5
:1076A000E16009E0584607E0FFF7A4FE022D01D192
:1076B000C82001E04FF4C87025700AEB402129E092
:1076C0000020FFF79FFE00284FF0000004D0FFF7D6
:1076D00089FE4FF44870EFE7FFF78CFEE8E70020E3
:1076E000FFF790FE00284FF0000002D0FFF77AFE6F
:1076F000D8E7FFF77FFEDDE70020FFF783FE0028D5
:107700004FF0000002D0FFF76DFE01E0FFF772FEC0
:1077100031492570B1FBF8F100223868FEF71AFCF8
:1077200006463CE00020FFF74BFE257008E00020F5
:1077300047E0257033E084F801900120FFF740FE18
:1077400000223321E9E784F801900120FFF738FE99
:1077500000224FF48071E0E77868FEF751FC06469E
:10776000D5F1110000D02EB10220FFF73BFE002022
:10777000A07014E001280DD980B200EBC00101EB2C
:1077800000110AEB013191FBF8F100227868FEF755
:10779000E1FB06460220FFF72DFE84F802903046FA
:1077A000BDE8F09F00F03AFFC3E700F037FFBEE707
:1077B00000F034FF04E000F031FF0020FFF71AFE74
:1077C0000120FFF717FEB4E7FFF741FEB1E7000025
:1077D000E02700207CC60200F4910100007802211D
:1077E000FFF74ABE05494FF0FF32082841F8202034
:1077F00002D3084480F8482070470000F0B400200D
:10780000F0B54FF0FF3512B10023082601E0082340
:107810000C260C4C05E000BF54F823707F1C04D0EC
:107820005B1CB342F8D32846F0BD26185DB286F83B
:10783000305044F82310002AF5D1E11881F84800AF
:10784000F1E70000F0B400200249084490F930004C
:1078500070470000F0B4002070B5084C050009D056
:1078600010342168002907D008682060496828463C
:107870008847F6E70834F4E770BD0000DCB4002068
:10788000FFB5002301244FF0A0456E46CA5CFF2AD5
:1078900012D0D70922F0800246F8232004FA02F71A
:1078A00002D0C5F8087501E0C5F80C7505EB820239
:1078B0000327C2F8007703E04FF0FF3246F8232099
:1078C0005B1CDBB2042BE1D3016832465FF00000A1
:1078D00001EB800452F82030C4F86035401CC0B27F
:1078E0000428F5D3FFBD2DE9F04117880646B81DE1
:1078F00014460D46984202D90C20BDE8F08131882B
:10790000072206290AD34FF4486C4FF6FF736145EE
:1079100001D9994202D17088062801D21046ECE7BD
:10792000604501D99842F9D1994203D0984201D0DB
:107930008142F3D80520E85520881221401C80B2EE
:10794000208029542088401C80B220804119308832
:1079500003F019FD2188084480B220804119708805
:1079600003F011FD2188084420800020C5E7FEF7C0
:1079700085BA000038B54A7A0F4B62B100220A720C
:107980005969002906D001228DF80020ADF80200C7
:107990006846884738BD0A7A62B19B684C680246DF
:1079A00019462046FEF7D6FA0028F3D0BDE8384045
:1079B00003F0BCB85B68F1E708B400202DE9F041A2
:1079C00000260125144C22E06068226900EBC607FE
:1079D000387805FA00F1114217D08A43226101F08C
:1079E00013FA02463878E36805FA00F1194002FA02
:1079F00000F3994209D17978012901D0012100E0F1
:107A0000002151407A6802B19047761CF6B2207886
:107A10008642D9D3BDE8F0818C2800200549012099
:107A2000096809B1002070470349096A0029F9D1A2
:107A300070470000703300200828002030B504464D
:107A4000006885B00D46806800281CD01421684667
:107A5000FBF73EFD0195A0680490207910B1012844
:107A60000DD104E001208DF80000206904E002201F
:107A70008DF80000E06800030290606903902068C0
:107A800081686846884705B030BD000001484078ED
:107A900001F0C8BD60270020826883881A4003680F
:107AA0009A5C0A708168491C81607047C26883884B
:107AB0001A4003689954C168491CC16070470000AE
:107AC0000F27114C00254FF4F77601210F4801F0E4
:107AD000E3FC3946012003F067FC0EE0A068A368D0
:107AE000105CD554A168B14202D8A168491C00E0DD
:107AF0000021A160012100F00BF82268A068105C51
:107B00000028E2D0EAE70000602F0020982700203C
:107B100070B50D4C002501B965800C4A0D2808D0C0
:107B20000A2806D06188FF2902D25054491C61807E
:107B300070BD60880028FBD015540021034803F075
:107B400041F9658070BD000084270020502C002082
:107B500010B50446C0B2FEF715FB204610BD00006C
:107B60000EB516A19DF8080020F00F00401C20F073
:107B7000F00010308DF808000A2202A87CDF08B15E
:107B8000FEF77CF944F6206078DF08B1FEF776F95D
:107B90000020009001900621ADF80400ADF800101F
:107BA0004FF4C8703C21ADF80600ADF802106846ED
:107BB0007ADF002801D0FEF761F90EBD65787444C4
:107BC000657669636573000006484A8843889A426F
:107BD00007D10A88A2F52063773B02D18988C91EA4
:107BE000818070476027002000487047782B002074
:107BF0000148408870470000602700200048704717
:107C0000482B00202DE9F041124E07460125BD40CA
:107C10003068FEF7F5F900280DD10F4C2069284295
:107C200007D1384601F0F0F80028E06805D0284375
:107C300004E0A8432061BDE8F081A843E06020692A
:107C400028432061A1683068BDE8F0410022FEF7BA
:107C500081B90000E4C602008C2800202DE9FE4F07
:107C6000064608680C460178212902D00520BDE8A7
:107C7000FE8F41A1FBF73EFC424D30B142A120688E
:107C8000FBF738FC48B30620F1E7012E20DD072082
:107C90000023404A404E61680BE000BF16F80CC05C
:107CA000F75D0CEB0717D7545B1C9BB2F72B07D281
:107CB000891C0F7827B191F801C0BCF1000FEDD1FC
:107CC0003BB10020D054334934A002F089F800E0E1
:107CD0000020024632A021684AE0FFF78FFF808A29
:107CE000A0F57F41FF393ED0FFF788FF828A2B68DD
:107CF0002FA0AA4621689847FFF780FF808A304C62
:107D0000C0EBC000204490F80690FFF777FF808A10
:107D1000C0EBC000204490F80580FFF76FFF808A19
:107D2000C0EBC00020440779FFF768FF808AC0EBF2
:107D3000C0002044C678FFF761FF808AC0EBC00016
:107D400020448578FFF75AFF808A3346C0EBC00095
:107D500020442A4641788DE88003DAF8004019A0D3
:107D6000A047002083E7FFF749FF828A21681DA012
:107D70002B689847F5E7000021626C655F73656EBC
:107D800064000000D827002021626C655F636F6E7D
:107D90006E000000903100205CC5020025730000D9
:107DA0002573206F6B203078253038580D0A00007D
:107DB0002573206F6B203078253034582000000068
:107DC0007C270020253032582D253032582D253083
:107DD00032582D253032582D253032582D2530324D
:107DE000580D0A002573206F6B20307825303458E9
:107DF0000D0A000010B5FFF7FBFEA0F57F41FF392B
:107E000008D0FFF7F5FE132176DF082802D008B16D
:107E1000FEF734F874DFBDE81040002000F0E8BC45
:107E200010B5FFF7E5FEA0F57F41FF390BD174DFF8
:107E3000FFF7DAFE0321FEF701FE002803D0BDE8BC
:107E40001040FEF71BB810BD2DE9F0430646086848
:107E500085B00C460078402803D0052005B0BDE869
:107E6000F08383A12068FBF745FB854F4FF00109A4
:107E70004FF0000808BB012E1FDD6A4681A1606833
:107E8000FBF772FB002818DD009810B1012814D10F
:107E90003AE07D4B002002A91B68019301AB421C14
:107EA00053F82050D5F81055401C20C18242F7D815
:107EB0003B68216875A0029A984778A12068FBF773
:107EC00019FB4FF0A04538B377A12068FBF712FBF0
:107ED00000283ED077A12068FBF70CFB00284ED08D
:107EE00077A12068FBF706FB00285ED078A1206808
:107EF000FBF700FB002877D07AA12068FBF7FAFA9D
:107F0000002870D00620A9E702AA03210020CDF89E
:107F10000880FCF789FFCBE7012E19DD6A4659A1DD
:107F20006068FBF721FB002812DD0098202804D3AD
:107F300000F01F00FCF756FF04E0D5F81015C14013
:107F400001F00100029002463B686AA02168984750
:107F50008BE0012E7ADD6A464AA16068FBF704FBDC
:107F6000002873DD0098202804D300F01F00FCF7E0
:107F700049FF76E009FA00F1C5F8081571E0012E15
:107F800073DD6A463FA16068FBF7EEFA00286CDDFE
:107F90000098202804D300F01F00FCF71CFF60E0CD
:107FA00009FA00F1C5F80C155BE0012E5DDD6A46AB
:107FB00034A16068FBF7D8FA002856DD0099202923
:107FC00004D301F01F00FCF723FF4AE0D5F8042595
:107FD00009FA01F020EA0201C5F808151040C5F8B9
:107FE0000C053EE000E018E0012E3EDD03AA25A1CD
:107FF0006068FBF7B9FA002837DD0398202804D31E
:1080000000F01F00FCF7E5FE2BE000230122CDF875
:1080100000801146CDF8048021E0022E25DD04AA5F
:1080200018A16068FBF7A0FA00281EDD03AA15A1BD
:10803000A068FBF799FA002817DD0498202806D3DA
:1080400000F01F000399FCF7B1FE0AE00DE0039970
:108050000022CBB2CDF800801146CDF8048001F0AB
:10806000E5FB3A6826A0216890470020F6E600006C
:10807000406770696F5F706F72745F7265616400F2
:10808000D82700202569000058C502002573206FFD
:108090006B20307825580D0A000000004067706999
:1080A0006F5F726561640000406770696F5F736540
:1080B00074000000406770696F5F636C65617200F7
:1080C000406770696F5F746F67676C6500000000E0
:1080D000406770696F5F6366675F6F757470757412
:1080E00000000000406770696F5F6366675F696EDC
:1080F000707574002573206F6B2025640D0A0000D5
:108100002573206F6B0D0A0030B508680C4685B0EA
:108110000178232902D0052005B030BD42A1FBF72C
:10812000E9F9434D002829D042A12068FBF7E2F984
:1081300038B342A12068FBF7DDF948B342A12068BB
:10814000FBF7D8F9002840D041A12068FBF7D2F90D
:10815000002843D040A12068FBF7CCF900284FD07D
:1081600040A12068FBF7C6F9002856D03FA120683F
:10817000FBF7C0F9002853D00620CDE7FFF750FEEB
:1081800001E0FFF737FE2A683AA02168904749E0EE
:1081900003A86DDF002845D12A6838A021689047E0
:1081A0009DF810009DF812209DF811108DE8070031
:1081B0002C689DF80F309DF80E209DF80D1031A011
:1081C000A04738A23DA13EA024E02A6829A021684A
:1081D0009047662003F022FB03200EE02A6825A0CA
:1081E00021689047662003F019FB4FF0FF31002013
:1081F0003BDFB12100203ADF022001F017FC11E043
:10820000684649DF70B9009800EBC00101EB00122D
:1082100021682EA02B68984704E0FFF701FE01E0DB
:10822000FFF7E8FD002077E7236F70656E00000020
:10823000D827002023636C6F736500002367657483
:10824000696E666F0000000023726573657400003C
:1082500023646675000000002367657474656D70A3
:108260000000000023696F70656E00002369636C75
:108270006F7365002573206F6B0D0A002573206FE7
:108280006B00000020253032582D253032582D2526
:108290003032582D253032582D253032582D25308A
:1082A0003258000031313A35383A3136204A756C4F
:1082B00020313520323031390000000031360000E5
:1082C0002025732025730D0A000000002573206F00
:1082D0006B2025640D0A0000F0B589B00C460746F6
:1082E00001280BDD3AA63BA12068FBF703F93A4DC4
:1082F00038B13AA12068FBF7FDF830B3052009B08A
:10830000F0BD37A16068FBF7F5F828B135A16068CA
:10831000FBF7F0F8B0B10FE0022F0DDD6A4633A194
:10832000A068FBF721F9002806DD009820B1E1687C
:10833000FBF7ACFE00B12EA62B6832462DA02168BB
:10834000984743E0FBF79CFEF5E725A16068FBF743
:10835000D1F828B129A16068FBF7CCF8D0B135E09D
:108360004FF4807002F0C2F804000CD0FBF76CFEF2
:10837000FBF77AFE01462B68224622A0984720464A
:1083800003F054F922E0FBF76FFE01462A6821A0B2
:1083900090471BE006A86DDFC0B9FBF76BFE27A373
:1083A0009DF81E101FA2CDE90213CDE904029DF82D
:1083B0001D109DF81C00CDE900012C689DF81B30B4
:1083C0009DF81A209DF819101DA0A047002096E7DF
:1083D0006E6F000053657400D82700204765740055
:1083E000416374004341637400000000256900008C
:1083F0006F6B000025732025730D0A00496E666FB0
:108400000000000047657420416374202575202515
:10841000730D0A00476574204163742025750D0AA9
:108420000000000031313A35383A3136204A756C57
:108430002031352032303139000000003136000063
:1084400047657420496E666F20253032582D2530DF
:1084500032582D253032582D253032582D253032C6
:10846000582D253032582025732C25752025730D65
:108470000A0000000146034802888A4200D000201A
:1084800070470000F4B3002070B50E460446007932
:1084900018494FF4A27501EB4010017F2068A1B18B
:1084A0004FF4887101F05FFC4FF49071206801F087
:1084B0005AFC4FF49271206801F055FC294620685F
:1084C00001F051FC0C49206809E04FF48E7101F075
:1084D00039FC2946206801F035FC08492068C0F8BD
:1084E0000413206800F0DEFB3146BDE8704000F068
:1084F000BDBB0000702F00201003020080000200AE
:1085000070B50C464FF488760546314601F074FA92
:1085100050B13146284601F074FA6079400703D51E
:10852000216809B1012088474FF48A7631462846F0
:1085300001F062FA50B13146284601F062FA6079E2
:10854000000703D5216809B1022088474FF48E76D1
:108550003146284601F050FA50B13146284601F024
:1085600050FA6079C00603D4216809B10020884719
:108570004FF482763146284601F03EFA00280CD0AE
:108580003146284601F03DFA01202071216800297A
:1085900003D0BDE870400320084770BDF0B5848863
:1085A000A518944200D82246A41AC288D6189A4226
:1085B00000D81346D21A4B880788BB420CD3408898
:1085C000834209D88888A04206D3A84204D8C88824
:1085D000904201D3B04201D90020F0BD0120F0BD8E
:1085E0000268134602E08A4204D01268002AFAD1D7
:1085F0000B6001607047000070B5074D6B688B42DF
:1086000001D101EB52010C46C2F3470200F012FE09
:10861000002800D16C6070BD84270020034880785A
:1086200010B10020FEF7DEBEFEF70EBFE0270020EF
:108630000348017AC90702D00078FFF701B87047F4
:10864000E027002006490120086006480168C1F3C0
:1086500000410029FAD104490020887070470000C9
:108660000C00004018040040DCB40020F721018019
:1086700017214180002101714171FB2181711B2172
:10868000C17170474FF0102188B0D1F80002D1F8C5
:1086900004220024904221D14A4A012313604A480F
:1086A0000568002DFCD0C1F800320368002BFCD017
:1086B000C1F8044201680029FCD014600168002957
:1086C000FCD0BFF34F8F41480168414A01F4E0619B
:1086D00011430160BFF34F8F00BFFDE700F056FA72
:1086E00008B1FDF7CBFB0020FCF72CFB01F064FA8E
:1086F00008B1FDF7C3FB69460120009401F0C6F9FB
:1087000008B1FDF7BBFB684601F00EFA08B1FDF7B2
:10871000B5FBFDF71DFC08B1FDF7B0FB2D490120AD
:10872000FEF746FF08B1FDF7A9FBFFF719FA2A4942
:108730002A4800F061F908B1FDF7A0FB5321274852
:1087400000F04EF908B1FDF799FB012000948DF877
:10875000000001946946022067DF08B1FDF78EFB37
:108760001F4800901D4869461C38FEF785FD08B17A
:10877000FDF784FBFDF7D4FA1C216846FAF7A8FE42
:108780004FF42060CDE900404FF470500290032078
:108790008DF80C001348059013480690ADF80E4074
:1087A0008DF810406846FEF72FFA08B1FDF766FB1A
:1087B00007A90E4801F048FA03F02CF90F20FDF745
:1087C0005DFBFBE704E5014000E401400CED00E047
:1087D0000400FA0509750200C97B0200642B002021
:1087E000859D0200B59E02006F7902003D62020085
:1087F00001490870FEF7D0BE6027002070B514460E
:1088000082880E4605462088111D0144921C99421B
:1088100001D8FE2A01D90C2070BD521C3254208888
:10882000FF21401C80B2208031542088401C80B23F
:1088300020808119288802F0A6FD2188084480B292
:108840002080AA8842B1A96841B13044FAF727FED6
:108850002088A98808442080002070BD072070BDB2
:1088600010B50C4C606960B903F004F9606918B97F
:10887000012003F09BF9606103F060FD606900284E
:1088800006D00023BDE810405A1E194603F0CEB9A9
:1088900010BD00006027002004484069002804D073
:1088A00000231A46194603F08DBA7047602700204E
:1088B00008B5002918D0012916D10D2814D10C486B
:1088C00001780020009081B10AA0694602F07AFA8E
:1088D0000098002808D009494FF08050086040BF38
:1088E000BFF34F8FBFF36F8F08BD05A0EDE700000A
:1088F000602700202369636C6F73650004ED00E05E
:1089000023696F70656E0000F8B50E460178144655
:108910000546012901D1687830B12088821C9A422D
:108920002DD8012902D006E00720F8BD697801445E
:10893000891C994223D8181A801E87B2ADF800709E
:108940002188B01C084469467DDF0028EDD12878D5
:10895000022805D1BDF80010B94201D809210AE06A
:108960000821012805D16878B84202D8ADF8000086
:1089700001E0ADF80070BDF80000FE2801D90C2020
:10898000F8BD2288401CB0542088401C80B2208052
:1089900031542088401C2080BDF8001008442080FD
:1089A0000020F8BD10B50A8849888A4203D1FAF739
:1089B000C3FC012010BD002010BD70B50C4605465B
:1089C000FAF79DFC002802D061882868084470BD31
:1089D000C20800F007030120895C984008407047F6
:1089E00028B1A1F11702E12A03D3072070470E2016
:1089F000704701800020704710B560B10161F72118
:108A000020F8021B20F8021BFB2100F8021BFFF7D5
:108A10002DFE002010BD0E2010BD00002DE9F043FA
:108A200086888FB00C46002E39D101884E4F002524
:108A300024295ED006DC102909D011290CD0232965
:108A400009D172E03A290BD0552904D12AE0014618
:108A5000204601F03DFA7BE0A01DFFF707FE77E01E
:108A60002246408934F8061F814200D808466080BB
:108A7000172800D217206080106970B1607960B14A
:108A8000D7E90001CDE90001ADF802606088ADF8DA
:108A900004001369694610469847657125710FB047
:108AA000BDE8F083C088B14604F10608172800D25B
:108AB0001720B8F80010814200D80846A8F8020034
:108AC00088F804502846B8F80010ADDF98F8050083
:108AD00050BB206940B3D7E90201CDE90001ADF8F0
:108AE0000290B8F80200ADF80400204669462269F9
:108AF00019E0011D34226846FAF7D1FCBDF80000E8
:108B0000BDF8042004EBC0014A73226962B1D7E9C1
:108B10000423CDE90D23ADF83600487B8DF83800ED
:108B2000226920460DA9904712E00095019530F882
:108B3000041F04EBC1020179127B8A4200D2114664
:108B4000ADF80010ADF8021000880022694690DFF1
:108B5000A07A0028A3D0E18830469EDF00289ED16D
:108B6000A5720120E0729AE79CC6020000F18040E5
:108B70000068002800D00120704708B500F180404F
:108B8000002101600068009008BD000070B5104C25
:108B90000025207808B1852517E00021A1606160DB
:108BA0002161E1604FF0E020D0F80001012610F0D3
:108BB000010F03D10721002000F058F801F064F8FC
:108BC00010B90449022008602670284670BD0000D4
:108BD000DCB400201805004008B500208DF8000026
:108BE0006846FDF7EDFA0648C168491EC160C068D5
:108BF00008B9FFF727FD9DF80000FDF705FB08BD4C
:108C0000DCB40020F8B5174D0446A878002648B11A
:108C100014B16168012088478DF800606846FDF74F
:108C2000CFFA17E08DF800606846FDF7C9FA24B165
:108C30000C4821461030FFF7D3FCE86850B94FF4D8
:108C40008270FFF79AFF02204107C1F8040306492A
:108C500001200860E868401CE8609DF80000FDF70E
:108C6000D3FAF8BDDCB40020080000404907090E23
:108C7000002806DA00F00F0202F1E02282F8141D4B
:108C800003E000F1E02282F8001400F01F0201214D
:108C900091404009800000F1E020C0F88012C0F847
:108CA00000117047000B40B2704700002DE9F04101
:108CB0008846054601F076F9234E002828461AD04A
:108CC000FEF7C2FD304490F848008009032802D026
:108CD00001280ED007E04FF0A040D0F81005E84082
:108CE00010F0010F05D003212846BDE8F04100F047
:108CF00015BE0221F8E701F061F9002822D02846CC
:108D0000FEF7A2FD04464FF4807000EB84000F4F85
:108D100081B207EB8400D0F8102542F00102C0F8C0
:108D20001025084600F056FEB8F1000F0AD028467C
:108D3000FEF78AFD56F82000002803D00120A0404D
:108D4000C7F80403BDE8F081F0B4002000600040E3
:108D50002DE9FC41DFF8A480044608EB040000275D
:108D600090F930001346C0170E46401C01D008276A
:108D700041E0F27819462046FEF742FD0546401CC8
:108D800038D0B07850B14FF0A04000EB8400D0F85C
:108D9000001721F00201C0F8001707E000217378E6
:108DA000204600910A46019100F064FDF078C0B1C0
:108DB0001348317800EB8500D0F81025114B1A408C
:108DC000C0F810254FF4F8524FF4403302EA042261
:108DD00003EA01410A43D0F810150A43C0F81025F0
:108DE00009E008EB0500327810F8481F41EA8211CB
:108DF000017000E004273846BDE8FC81F0B4002093
:108E000000600040FFE0FCFF4FF0A041D1F81015DA
:108E1000C14011F0010000D00120704770B5144D21
:108E200095F8540008B1082070BD0020411E2A1892
:108E3000401CC0B282F830102028F8D3002420460D
:108E4000FEF7D0FC641CE4B20C2CF8D307210620FA
:108E5000FFF70CFF4FF4BE7000F0BCFD05494FF06A
:108E60000040C1F80403012085F85400002070BDC3
:108E7000F0B4002000600040034890F8540000283F
:108E800000D0012070470000F0B400200121B1EBB8
:108E9000507F01D101207047002070470121B1EBC4
:108EA000507F01D101207047002070472DE9F0412B
:108EB0000D4604460079244901EBC006307910B113
:108EC0000820BDE8F081294620463260FEF7D8FC34
:108ED00020680127C0F8007520686B79AA79298974
:108EE000C0F80C35C0F80425C0F80815AA7AE87A4D
:108EF000216842EA0020C1F8100520680021C0F86E
:108F000000122068C0F800134FF48E71206800F042
:108F100078FD4FF48871206800F073FD4FF48A717A
:108F2000206800F06EFD4FF48271206800F069FD4A
:108F3000306828B120682979000B40B2FFF796FE0F
:108F400037710020BDE700008428002070B501794A
:108F5000094A002402EBC1052979022900D0012425
:108F600000684FF4827100F047FD10B101202871B4
:108F70000446204670BD0000842800202DE9F04101
:108F80000F46044600791849164601EBC0081D46F5
:108F90003A460021206800F03AFD3A460121206857
:108FA00000F035FD206806F0010101EB5602C0F823
:108FB0001425E80701D0102007E0A80704D509B15F
:108FC000082002E0042000E000202268C2F800022D
:108FD00009B10C2300E00823EAB241462046BDE86F
:108FE000F04101F0C9BE00008428002070B50D4694
:108FF00006460024FFF7AAFF30B93068012141601E
:109000003046FFF7A3FF08B1012401E0002DF7D19E
:10901000204670BD2DE9FC5F074640790C4600EB09
:10902000C001464800EB8106307F10B10820BDE842
:10903000FC9FC6E90023207B4FF0A04B4FF00109B5
:10904000012805D8227809FA02F0CBF80C0502E0D5
:10905000207800F08AFC4FF0000ACDF800A0CDF88F
:1090600004A0207853465246012100F015FC657893
:109070004FF0FF38FF2D07D009FA05F0CBF80C05AB
:10908000284600F041FC00E04546A078FF2809D0C2
:10909000002280460123CDF800A01146CDF804A09F
:1090A00000F0FAFBE078FF2804D000F05EFCE078E6
:1090B00000F02AFC7979214A01EBC10102EB810120
:1090C000E078887738682378C0F80835C0F80C5500
:1090D000C0F81085A168C0F82415237B617B01B11D
:1090E0000121012B04D0022B05D0032B08D105E070
:1090F00041F0020104E041F0040101E041F0060109
:10910000C0F854157B79617903EBC30302EB83024A
:10911000D177316811B10421C0F804134D46C0F86D
:109120000095306820B1217997F90400FFF79EFD82
:10913000504686F81DA0357779E7000048B5002035
:109140001FB5069C00918DF8042002938DF80C4009
:109150000022694600F002F804B010BD2DE9F0418C
:109160000E4615464179184A01EBC10102EB810117
:1091700000244A7F12B11120BDE8F0810B68012262
:109180001BB115F0140F00D14A7796E8885001F111
:109190000C0888E8885091F8213023F0070381F803
:1091A00021308B7FFF2B04D04FF0A0479A40C7F8A7
:1091B0000C251DB100204877062403E000683246E4
:1091C00001F09CFD2046D7E748B500202DE9F0418D
:1091D00005460079164F904607EB40140E46E07E98
:1091E00010B10820BDE8F081707F20772846FDF798
:1091F00097F85FEA080060603169216003D0317F31
:109200002846FFF741F9287907EB4010007F002836
:10921000286801D0082100E00421C0F800150020D2
:10922000E0752076A0750121E176A076DAE70000EE
:10923000702F00202DE9F04105460079284E904618
:1092400006EB40140F46207F18B10846FFF726FEB4
:1092500078B1616800234FF4017079B1297906EB88
:109260004111097F0029296806D01E4AC1F8082348
:1092700004E01020BDE8F081C1F80803E17DC1B130
:10928000217E89B1616869B1297906EB4111097FB5
:1092900029B128684FF40471C0F8041302E029686A
:1092A000C1F804031120E5E72761012384F8188041
:1092B00005E084F817800020E76060762076287942
:1092C000424606EB40103946007F0028284603D06E
:1092D000BDE8F04100F074B8BDE8F04100F01CB802
:1092E000702F00201002020070B504460079094D6D
:1092F00005EB4010017F00290AD1807E002807D1AC
:10930000204601F02DFA2179012005EB41118876E4
:1093100070BD0000702F00202DE9F05F0446007939
:10932000264901EB4015A87E184302D1204601F0E2
:1093300017FA68680028206806D04FF40171C0F859
:1093400004130020BDE8F09F4FF4A276314600F0F0
:10935000F9FCB1464FF4927A4FF4847B5146206871
:1093600000F0EBFC06465946206800F0E6FC80461B
:109370004946206800F0E1FC074648EA0700304310
:10938000ECD056EA070007D12946206801F072F9AF
:10939000E87D697E8842E1D80020E8750EB103209F
:1093A000D0E70FB10F20CDE7A97E01200029216869
:1093B00001D00860C5E74860C3E70000702F0020B7
:1093C0002DE9F05F884604464FF4A277994615468A
:1093D00000260068394600F0C6FC2068C0F83485D5
:1093E000C0F8385520684FF48875B9F1000F14D0D3
:1093F000D0F8001241F02001C0F800122179DFF806
:10940000948008EB4110406808B320684FF4057160
:10941000C0F804133046BDE8F09F294600F0A3FCD5
:10942000206800F0A6FC20680421C0F8041320681E
:10943000012101604FF4A6784146206800F08EFCBF
:109440000028F9D04146206800F08DFCD6E7BA46E6
:10945000A9464FF4927B4946206800F07FFC0746FE
:109460005146206800F07AFC05465946206800F015
:1094700075FC014647EA05000843ECD02379002239
:1094800008EB4310C27501B10326002DC2D00F2690
:10949000C0E70000702F0020074B0279006803EB43
:1094A00042120029127F4FF0040102D0C0F80413C9
:1094B0007047C0F808137047702F00202DE9F0475F
:1094C000054600793F4E904606EB40140F46207F3C
:1094D00018B10846FFF7E2FC30B1284600F074F8F6
:1094E00020B11120BDE8F0871020FBE784F816803A
:1094F000A7600027A78228794FF0010806EB4014E7
:109500003E46207F0028286825D04FF490794946B0
:1095100000F029FC4FF4AC7A5146286800F023FC97
:109520002868A17DA268C0F84425C0F848152868BD
:10953000C0F808806068F0B94946286800F00EFC61
:1095400080465146286800F009FC58EA0001F3D033
:1095500058BBA7750FE04FF48E7A514600F0F2FB2E
:109560002868C0F808802146286801F0C1FC6168BD
:109570004FF4807089B13046B4E75146286800F056
:10958000DCFB10B9A08A4845F7D1A08A484505D030
:109590002146286801F0ACFC00E08146A08AA17D4C
:1095A0008842EAD3A08A484501D10F26D1E7514627
:1095B000286800F0C2FB0028F9D02868C0F80C80A9
:1095C000C7E70000702F00200079044901EB40102C
:1095D000807D002800D0012070470000702F0020FF
:1095E00038B5044600208DF800006846FCF7E8FD19
:1095F0000A48816808290AD221704A1C82600848FA
:10960000026801238B401A430260002400E0042416
:109610009DF80000FCF7F8FD204638BD78280020B2
:1096200008050140044A034902EB8000C0F8001617
:10963000704700003546526E000001400449012089
:10964000C1F8040308600349022008707047000055
:10965000000001407828002070B50446134841609E
:10966000017809B1082070BD0121017004B9104CC6
:1096700010492078086060680025410CC0034FF451
:109680007A722B46F9F7DAFE02460023D0F1FF305A
:109690008B4101D2072070BD064908390A60217A42
:1096A0001020FFF7E3FA284670BD0000782800205C
:1096B000D8C602000C0501402DE9F04128B101682F
:1096C00019B1C969BDE8F04108470D4D0D480024A6
:1096D000461B14270DE000BF04EB840005EB80005F
:1096E000016829B1C969884710B10120BDE8F0813E
:1096F000641CB6FBF7F0A042EED80020F6E70000AD
:109700000000000000000000044801214174007ABC
:1097100008B10020704701207047000024B60020E7
:10972000012801D0032808D10449002201284A74E5
:1097300000D00020087400F051BF704724B600200C
:1097400070B5254C0246207A012837D0022841D135
:1097500022480023022A006802D0032A2ED11BE0EF
:10976000E360017911B1012928D10DE0D0E9056547
:10977000711B4FF48056B14200D3314629448161B8
:109780004569A9420ED019E00169491C016142698D
:10979000914213D1237217E0E168491CE160082966
:1097A0000CD9E3602372022A0ED00D21FEF746F990
:1097B0000B480A49091D0068FFF7F4F8607C28B1DE
:1097C000BDE8704000F066BA0021EFE7BDE87040E8
:1097D00000F004BF70BD000024B60020A0280020C7
:1097E000ECC6020070B541EA4201DDE904564FF0D3
:1097F000A04441EA830141EA052104EB800041EAEB
:109800000641C0F8001770BD70B541EA4201DDE9BC
:1098100004564FF0A04441EA830141EA052104EBDC
:10982000800041EA0641C0F8001770BD70B541EAFA
:109830004201DDE904564FF0A04441EA830141EAC8
:10984000052104EB800041EA0641C0F8001770BD15
:1098500070B541EA4201DDE904564FF0A04441EA07
:10986000830141EA052104EB800041EA0641C0F88A
:10987000001770BD70B541EA4201DDE904564FF0B2
:10988000A04441EA830141EA052104EB800041EA5A
:109890000641C0F8001770BD70B541EA4201DDE92C
:1098A00004564FF0A04441EA830141EA052104EB4C
:1098B000800041EA0641C0F8001770BD1CB50022C7
:1098C0000B46009211460192FFF78CFF1CBD1CB5A0
:1098D00000220B46009211460192FFF795FF1CBD36
:1098E0001CB5002100910B46012201911146FFF7A2
:1098F00079FF1CBD1CB5002100910B46012201918E
:109900001146FFF781FF1CBD1CB5002100910B46DD
:10991000012201911146FFF7BFFF1CBD4FF0A0428D
:1099200002EB8000D0F8002722F44032C0F8002774
:10993000D0F8002742EA0141C0F8001770474FF005
:10994000A04201218140C2F80C1570474FF0A041A0
:10995000D1F81015C14001F0010070474FF0A0424E
:1099600001218140C2F8081570474FF0A042012143
:109970008140C2F8081570474FF0A042D2F8043574
:109980000121814021EA0300C2F808051940C2F80C
:109990000C15704701224FF0A043824011B1C3F86B
:1099A00008257047C3F80C257047000018B5084B10
:1099B0006C4601441B68009306E000BF54F8203059
:1099C000D3F81035401C08C28142F7D818BD0000FA
:1099D000D4C60200034908B50844002101600068AC
:1099E000009008BD0060004002494058012800D0A6
:1099F00000207047006000404058002800D001203F
:109A0000704708B5002242504058009008BD00EB56
:109A100041101368C0F820359188C0F8241591686A
:109A2000C0F82815D168C0F82C157047F8B5044661
:109A30000D4801216A46F9F7A1FCBFF35F8F0025AD
:109A400000280AD10121084E042C09D0301F427889
:109A500022B100BFBFF35F8F3560F8BD0470417065
:109A600001F0B0F8F6E70000AC28002008B50022AD
:109A700042504058009008BD20B103490968016078
:109A8000002070470E20704774C70200FEB50646DE
:109A90000D460846FFF7F0FF002844D1002400944B
:109AA0000194012703208DF80060ADF804000294B2
:109AB0008DF80270694620202A6869DF00948DF8CD
:109AC00000708DF80140019402948DF802406946BF
:109AD00040202A6869DF00948DF80060F720ADF817
:109AE000020001940294694623202A6869DF0094E9
:109AF000019402948DF80070694601202A6869DF9C
:109B00004FF4B0600090019402946946A1202A6845
:109B100069DF0094019402948DF800406946A0200A
:109B20002A6869DF0020FEBD60DF704730B5EBB00A
:109B30004FF4CE75ADF8A8516AA9684661DF30B11F
:109B4000052816D06BB0BDE83040FCF797B96C46DD
:109B5000094967A800F0CAF807E000BFD0E9002172
:109B60002046904767A800F0D8F869980028E1D00F
:109B7000F4E76BB030BD000078C7020010B50D4CA3
:109B80002078A0B10120A07000F03AFF11280CD07D
:109B9000022000F04DFF11DF002807D12070A070D7
:109BA00001F058F8032000F043FF002010BD08200A
:109BB00010BD0000B428002038B5174C207808B13B
:109BC000082038BD0125A570002000F019FF1128DC
:109BD00020D0002000F02CFF1048114900680090B0
:109BE000684610DF0028ECD12570A0706070072156
:109BF000162000F0B9FE08B1FCF740F90721152046
:109C000000F0B2FE08B1FCF739F901F04FF801207D
:109C100000F00EFF002038BDB42800200CC7020061
:109C20004D5E02000EB50749684600F05FF805E09A
:109C3000D0E900108847684600F06FF802980028C5
:109C4000F6D10EBD28C702001FB50C4A0223506092
:109C500000930020CDE901200B4603904FF4807261
:109C600007A1084802F080F9012805D004B00420BB
:109C7000BDE81040FCF702B91FBD0000B828002065
:109C8000424C45008DAC020001480078704700004E
:109C9000B42800200548817819B1007818B1FFF781
:109CA0006DBF08207047FFF787BF0000B428002071
:109CB0001FB5684648DF30B1052814D004B0BDE8B0
:109CC0001040FCF7DBB8084901A800F00FF806E0E7
:109CD000D0E900210098904701A800F01EF80398F1
:109CE0000028E6D0F4E71FBD94C7020001600968B0
:109CF0004160AFF3008010B5D0E90021536899426C
:109D000001D1002104E0D1E90034A34202D0194678
:109D1000816010BD08314160F0E7816800290BD0F7
:109D2000026892680A44826041684B689A4203D193
:109D300008314160FFF7DFBF70474058002800D06E
:109D40000120704708B5002242504058009008BDDD
:109D5000D0F80403084000D0012070474058002884
:109D600000D00120704708B50022425040580090B2
:109D700008BD08B50021C0F80811D0F8080100900E
:109D800008BD00002DE9F04106460078002815D1F5
:109D90000024114D114FA0460DE0B068005D0D2864
:109DA0000ED00A280CD0E988FF2902D27854491C29
:109DB000E980641CA4B2B089A042EED8BDE8F0816D
:109DC000E8880028F5D007F800800021034800F05B
:109DD000F9FFA5F80680ECE760270020C8280020DE
:109DE0000FB42DE9F8434FF400740425FEF738FD55
:109DF000204600F07BFB060036D009AB2146089ACE
:109E0000FBF7CAFA0021421EB2F5FF7F28D8374679
:109E10000446ADF80010DFF8608089461DE000BF01
:109E2000B8F80400844200D82046ADF800006A4625
:109E300039461248FDF798FA0546082811D045B171
:109E4000ADF80090112D01D0132D0AD1012001F0A1
:109E5000E5FCBDF800000744241A002CE0D100E026
:109E60000025304601F0E2FBFEF716FD2846BDE86E
:109E7000F8035DF814FB000060270020482B002049
:109E800010B580B1032805D0042802D10849032069
:109E9000C87010BD0220FEF7ABFC0028F9D0BDE869
:109EA0001040FBF7EBBFBDE8104000F0C3BE000060
:109EB000782B00200078002807D104483B214088F7
:109EC00076DF002801D0FBF7D9BF7047602700205C
:109ED0007CB58E88027900EBC605AC1D2A73C97B60
:109EE000012902D0022904D101E0008800E0408865
:109EF000208021886088814209D930469EDF012177
:109F000010B1112802D002E0617100E02171A07946
:109F1000E17988420CD9002100910191297BADF8AB
:109F20000010297BADF8021030460022694690DF10
:109F30007CBD00007FB51A4D8188AA8891422DD141
:109F400010F8061F022929D14188EA88914225D1BB
:109F5000017A042922D0062920D005291ED0841C8C
:109F60000020009002210190029003908DF80010D3
:109F7000297E19B101218DF8061001E040F2FD1093
:109F8000ADF80400A8886946A8DF1128FAD0BDF80A
:109F90000400002802D12046FCF7FAFE7FBD000035
:109FA00054B600200449084490F93000082801DB29
:109FB0000120704700207047F0B400200449084495
:109FC00090F93000082801D2012070470020704726
:109FD000F0B4002070B50B4C054620684560206940
:109FE0002168854205D2A06BBDE87040091D01F0D3
:109FF000E5BA606B091D01F0E1FAE06A854200D222
:10A00000E56270BD0828002010B501F0FBFA0E4C87
:10A010002068A0B90D4801F0C3FA0C48143001F0D3
:10A02000BFFA0A48E060143020610022102120208D
:10A0300001F0DEFD206010B105A101F0BFFBBDE81D
:10A04000104001F0E9BA000044280020AC330020A1
:10A05000546D72510000000070B5124E124C1AE09F
:10A0600001F008FD3068D0B102F068F901F0CAFAD9
:10A07000F068C568281D01F080FAE068401EE060C5
:10A080006068401E606001F0C7FA286B01F0CEFAEC
:10A09000284601F0CBFA60680028E1D170BD02F0DB
:10A0A0004DF9F8E7843300200828002030B4026C12
:10A0B0000B46002A0BD0C1681144C1604468A1421C
:10A0C00001D30168C16030BC1846F9F7E8B930BC6B
:10A0D000704770B51646026C0446002582B1C6B1C1
:10A0E000E068F9F7DCF9E168206C091AE1602268A0
:10A0F000914202D26168081AE060022E16D01AE07E
:10A100002068C0B9606802F0ABF8054600206060C6
:10A1100011E0A068F9F7C3F9216CA0680844A060B9
:10A120006168884207D32068A06004E0A06B10B18A
:10A13000A06B401EA063A06B401CA063284670BDAE
:10A1400006480168C96A09B10020704704490968D6
:10A150000129F9D8C16A0069081A70470828002047
:10A16000F832002010484FF40041420706D0C01DCD
:10A170000D4920F00700411AC1F500410B4A0023A8
:10A180000144C2E900030839103A21F007011160C7
:10A190004B600B600B1AC0E9001393604FF0004056
:10A1A0005360D06070470000D4330020682800203E
:10A1B0000F4C4FF080550F4EFFF74EFF20680128DF
:10A1C00005D9356040BFBFF34F8FBFF36F8F01F0EC
:10A1D000E6F9FFF7B5FF0228EED301F04BFCFFF7DD
:10A1E000AFFF022801D301F061FA02F0A7F8E3E71C
:10A1F000F832002004ED00E030B5114900E01146CE
:10A200000A688242FBD34B685C18844203D14068E1
:10A2100018444860084643681C18944209D1084C09
:10A22000103C2468A24209D052681A4442600A686D
:10A2300012680260814200D0086030BD0460F9E716
:10A240006828002070B5002441600B4D00619142E8
:10A2500006D8D11A8269914206D2011D286907E009
:10A260009A4203D2994201D3012403E0011DE86818
:10A2700001F0A4F9204670BD4428002030B589B013
:10A28000274D42E00498002806DADDE90601059A28
:10A2900090470498002838DB069C606910B1201DA7
:10A2A00001F06BF902A800F099F8024604980A2818
:10A2B0002BD2DFE800F00505052A1F2705052A1F18
:10A2C0000598A169034601442046FFF7BBFF01281A
:10A2D0001BD1616A20468847E069012815D100201A
:10A2E00000900598A169002342181946204602F003
:10A2F000BDF80AE00598A061811813462046FFF7D3
:10A30000A1FF02E0204601F091F900231A4604A9BA
:10A31000286801F08BFC0028B4D109B030BD0000E2
:10A32000442800202DE9FC410F46054601F0A2FB20
:10A3300001A800F053F80446019818B101F0FEFF9F
:10A34000BDE8FC811B4E17BBA54220D801F0F6FFEB
:10A35000F0682746C068C468201D01F00EF9E06966
:10A36000012810D1A0692B4641193A462046FFF733
:10A3700069FF012807D100200346014600902A46C4
:10A38000204602F073F8616A20468847D8E7291B07
:10A39000306801F027FA01F0D1FF0028D0D106493A
:10A3A0004FF08050086040BFBFF34F8FBFF36F8FF7
:10A3B000C6E700004428002004ED00E00648416B99
:10A3C000096829B1416BC968C9684968C1627047A9
:10A3D0004FF0FF31FAE700000828002070B505466D
:10A3E00001F0E2FE064E0446B068844203D200F05B
:10A3F00009F8012000E0002028602046B46070BD0C
:10A4000044280020F8B5144D1EE0C068C4680668F2
:10A41000201D01F0B2F8616A20468847E0690128F2
:10A4200012D1A0693044B04206D924616060211D78
:10A43000E86801F0C3F807E00020034601460090F9
:10A440003246204602F012F8E86801680029DCD1A3
:10A450002969C5E90310F8BD44280020202080F3B5
:10A460001188FEE7074CE068016841B1C06800212F
:10A47000D0F80000FFF756FFFFF700FFF3E70121D8
:10A480000020F7E74428002070B5044601F0BAF830
:10A4900004F124050AE0606A58B1284601F018FF6B
:10A4A00008B101F0E5F9A06C401EA064A06C002882
:10A4B000F1DC4FF0FF36A66401F0AEF801F0A2F82F
:10A4C00004F110050AE0206958B1284601F000FFA8
:10A4D00008B101F0CDF9606C401E6064606C00282A
:10A4E000F1DC6664BDE8704001F096B82DE9F041FA
:10A4F0000546002701F0BEFA214E306808B9FFF783
:10A5000031FEF068054236D1ADB30835680704D096
:10A5100005F00700C0F10800054465B37068854286
:10A5200029D81748103001460C6801E020460C4637
:10A530006168A94202D221680029F7D131688C42B2
:10A5400019D007682168016060680837411B10292D
:10A5500004D9601941606560FFF74EFE616870685C
:10A56000401A7060B268904200D2B060F068014357
:10A570000020C4E9000101F0E1FE3846BDE8F081A9
:10A58000582800200449086818B10868C26B521C9A
:10A59000C2630868704700000828002010B5044610
:10A5A00001F030F8246A01F037F8204610BD0000B1
:10A5B00010B5084C031F24681C601B1F1960191F6D
:10A5C000054B0B6014390A60091F6FF00202443812
:10A5D0000A6010BD98C602005DA402002DE9F0419A
:10A5E000214C0025214E207A012730B92048311D09
:10A5F0000068FEF7E2F9306038B10220207231685D
:10A60000087928B101281ED116E06560BDE8F08107
:10A61000D1E90503C01A4FF48052904200D310468E
:10A62000B7EB900F01D2820800E001220869C968E7
:10A630001844194429DF03E0D1E90301084428DF65
:10A6400038B111280ED003213068FDF7F7F92572D3
:10A65000DBE7207C0028D9D1BDE8F04100210220B1
:10A66000FFF76EB82772D1E724B60020A02800209B
:10A67000ECC6020070B50546C87D0C4600284FF4B4
:10A68000847128460AD0FFF75DFBD5F81805627E75
:10A69000E1688854607E401C607670BDFFF752FB15
:10A6A000D5F8180570BD30B58FB005461C21684639
:10A6B000F8F70EFF00249DF80000019440F00C0014
:10A6C0008DF80000039404940594069428788DF87E
:10A6D00036000220ADF834000C949DF830001421AF
:10A6E00020F00F00401C20F0F00010308DF83000FA
:10A6F0009DF8310020F00F00401C20F0F0001030D9
:10A700008DF831009DF8320020F00600801C20F00A
:10A71000180040F001008DF8320007A8F8F7D8FEC5
:10A720000DA807900CA808900120ADF82400F42093
:10A73000ADF82640ADF82800688805F10C0307AA9B
:10A740006946A2DF0FB030BD1FB501238DF8003080
:10A750008DF808100192D0E90012684690471FBD9D
:10A7600010B5044600684FF49271FFF7EBFA4FF40E
:10A7700084712068FFF7E6FA20680121016010BDAE
:10A780002DE9F047012590468946064600240A4FE8
:10A790000CE04846FFF7DAF8404501D0002507E015
:10A7A000787828B9012001F039F8641CB442F0D35C
:10A7B0002846BDE8F0870000A02700202DE9F047DB
:10A7C000044601F0F1FC4FF0000906464D46DFF863
:10A7D00044A0A4F10108A71E0CE000BF01F0E4FCB6
:10A7E000811B414508D29AF8010040B9012001F0CF
:10A7F00015F86D1CBD42F1DB5546687810B148462E
:10A80000BDE8F08701F0D0FC801BA042F5D34FF0EB
:10A810000109F4E7A02700202DE9F04792460C46F5
:10A8200081460125FFF792F8A0422BD04FF44066F5
:10A8300001F0BAFC80465046FFF790F8134F1BE03A
:10A840004846FFF783F8A0420BD15046FFF794F833
:10A85000224649463320FFF793FF80B95046FFF761
:10A860008BF801F0A1FCA0EB0800B04201D9002553
:10A8700005E0012000F0D2FF78780028E0D05046B3
:10A88000FFF75DF82846BDE8F0870000A02700200C
:10A890002DE9FF5F984693460D4601270098FFF784
:10A8A00055F8A84252D12D4C012606FA0BF6606AE3
:10A8B00006424BD02A464FF4C0600099FFF760FF74
:10A8C00090B34FF4205A01F06FFC8146B8F1010FAC
:10A8D000584602D0FFF733F82AE0FFF73FF827E0A9
:10A8E0000098FFF733F8A84212D05846FFF744F813
:10A8F0004DB1002205200099FFF742FF28B1206AE0
:10A90000401C206217E00122F4E75846FFF734F8B4
:10A9100001F04AFCA0EB0901514506D9606AB04339
:10A92000606208D1002706E010E0012000F076FF09
:10A9300060780028D4D0B8F1000F58460AD0FEF74E
:10A94000FEFFD4E9081206A0FBF768FE04B0384603
:10A95000BDE8F09FFFF702F8F3E70000A027002012
:10A96000256420307825580070B50D460446FAF766
:10A9700039FD70B12846FAF747FD68B16807000E47
:10A98000002C0CDA04F00F0101F1E02181F8140D24
:10A9900009E042F2010070BD42F2020070BD04F114
:10A9A000E02484F80004002070BD000038B50021C8
:10A9B000012558B101280ED003280BD10721002012
:10A9C000FEF754F9BDE83840FEF706B94FF0E02035
:10A9D000C0F8805138BD8DF800106846FBF7F0FBD9
:10A9E000064C207808B9FEF7D1F8E068401CE0601A
:10A9F000A5709DF80000FBF707FC38BDDCB4002013
:10AA00003EB5044609496846FFF770F908E000BF03
:10AA1000D0E900212046904730B16846FFF77DF924
:10AA200002980028F4D13EBD11203EBD10C702009F
:10AA30003EB5044608496846FFF758F907E000BFED
:10AA4000D0E90021204690476846FFF766F9029852
:10AA50000028F5D13EBD00001CC7020070B50028DB
:10AA6000049D18D0002916D0002A14D05FF00004ED
:10AA700030F814609E420FD100200123A34008E06B
:10AA800001EB800426680DB11E4300E09E43401C8C
:10AA900026609042F4D370BD641C202CE8D370BDB6
:10AAA00070B5054600242146284600F00AF808B192
:10AAB000204670BD641CA4B2202CF4D34FF6FF7066
:10AAC00070BD01228A40024201D00120704700205F
:10AAD00070472DE9F04192B080464FF000001746D4
:10AAE0000D00009012D000246E46A1B23846FFF748
:10AAF000E8FF40B1009935F8140006EB4101888069
:10AB00000098401C0090641C202CEED3442269461F
:10AB10004046F8F7C4FC12B0BDE8F08108B50093D8
:10AB200013460122FFF79AFF08BD00000249896918
:10AB3000002900D00847704708B400202DE9F041F3
:10AB40000746806A14468846C8B3002531E000BF36
:10AB5000B96A05EB450001EB8006B088801CFE2831
:10AB600002D90C20BDE8F0812288401C08F80200C0
:10AB700020881622401C80B2208008F800202088FF
:10AB8000401C80B2208000EB0801308800F0FBFB05
:10AB90002188084480B22080B28842B1B16871B186
:10ABA0004044F8F77CFC2088B188084420806D1C64
:10ABB000EDB297F82C00A842CAD80020D2E7FFE7F0
:10ABC0000720CFE770B5164D164C07E001682078D6
:10ABD0008847002822D01248FFF79FF8A86800286D
:10ABE000F4D1207803280CD002280AD0FFF74CF8C3
:10ABF00000B132DF0C4901200860BFF34F8F20BF46
:10AC0000FDE7BFF34F8F09480168094A01F4E0618D
:10AC100011430160BFF34F8F00BFFDE770BD00001F
:10AC200048B60020A8280020000500400CED00E0F8
:10AC30000400FA0510B50020FDF7DAFD002803D066
:10AC4000BDE81040FBF71AB910BD002801D1FCF790
:10AC500003BE704710B51620FAF7C4FB48B10A4886
:10AC600082684FF4800152B1016821F480010160D3
:10AC700010BDBDE8104042F20100FBF7FFB84FF0F5
:10AC8000E020C0F8801110BD8CB50020064949684D
:10AC900001B188474FF0FF34FEF7C4FF2146012081
:10ACA00000F082FBF8E70000B828002010B516205D
:10ACB000FAF798FB80B10F4890F800044009FAF7C2
:10ACC000A3FB60B10C4882684FF480016AB101684F
:10ACD00041F48001016010BD42F2010001E042F246
:10ACE0000200BDE81040FBF7C9B84FF0E020C0F803
:10ACF000001110BD16E000E08CB50020F8B500266C
:10AD0000044681F8206004200D46C4F80803C4F806
:10AD10000861D4F808010090107910B1106800782B
:10AD200000E0E87FC4F81C051079012802D91068FA
:10AD3000407803E0107B012802D9E87FC4F81C05A5
:10AD4000286818B10420C4F80403F8BDD4F8080139
:10AD50000028FBD0C4F80861D4F808010090294607
:10AD6000204600F08FF80028F0D1A87FFF28ECD013
:10AD7000BDE8F840FEF7F9BD70B5054602201E4655
:10AD8000144608714A71086870B18221600700D5C5
:10AD90009221200701D541F02001E00601D521F0E4
:10ADA00080012868C0F800134FF482712868FEF70C
:10ADB00028FE2006286801D5304470BD012181514C
:10ADC000002070BD73B582B00D460298002430B3E8
:10ADD000144E316919B355B1FEF758F8F8B900238C
:10ADE0002A4602A9306901F06BF8044617E0F8F72B
:10ADF0007AFB401C0546FFF779FB009078B12A46A4
:10AE00000299F8F74CFB00231A466946306900F0B6
:10AE1000D9FF0446012802D0009800F007FC04B0D6
:10AE2000204670BD6027002008B50026144D771E0F
:10AE300028690028FCD019E00098B8B1FEF726F880
:10AE400068B90098F8F74FFB401C8046FFF74EFBAF
:10AE500004000BD042460099F8F721FB00940098BB
:10AE6000FAF79AF8009800F0E1FB009600233A46C2
:10AE70006946286900F0DAFE0028D9D0DCE7000036
:10AE80006027002038B5D0F818258DF8002091F8FB
:10AE900020200B7E9A4203D29DF800304C69A354C7
:10AEA00091F82020521CD3B281F8203091F8214033
:10AEB0005A1C640707D50C7C944200D90A740C7E96
:10AEC000944200D90A760D7C954202D9C968895C02
:10AED00003E00C7E944203D9C97FC0F81C1503E03F
:10AEE000AB4201D3A34201D2012038BD002038BDBE
:10AEF00070B50C4605464FF48E71FEF723FFA18A0C
:10AF0000A068415CA08A401CA082C5F81C1570BDD9
:10AF100030B58FB00024054607949DF81C001C2115
:10AF200020F00F00401C20F0F00010308DF81C00C5
:10AF30009DF81D0020F00F00401C20F0F0001030A4
:10AF40008DF81D009DF81E0020F00600801C8DF875
:10AF50001E006846F8F7BCFA9DF80000019440F026
:10AF600010008DF8000007A8CDE904400394069472
:10AF700028788DF83A000320ADF838000D949DF83C
:10AF80003400142120F00F00401C20F0F00010309D
:10AF90008DF834009DF8350020F00F00401C20F0A3
:10AFA000F00010308DF835009DF8360020F00600D6
:10AFB000801C20F0180040F001008DF8360008A831
:10AFC000F8F786FA0EA808900DA809900120ADF8B0
:10AFD0002800F420ADF82A40ADF82C0068882B1D1D
:10AFE00008AA6946A2DF0FB030BD1FB500228DF858
:10AFF00000208DF80810816801918275D0E9001257
:10B00000684690471FBD0178002906D0012901D06C
:10B01000022902D14068FAF731BF7047FEB50178C6
:10B02000294CE9B34FF4F876012918D000250229FC
:10B030001CD0032912D1A06800280FD002A90295C4
:10B0400000F01CFC0298002808D020494FF08050E6
:10B05000086040BFBFF34F8FBFF36F8FFEBD1A482C
:10B0600032461B491430FDF7C7FAFEBD02218DF8A8
:10B070000010C0680190216968468847314614482D
:10B08000F8F726FA124901F50470856001600E4850
:10B09000324614306560FDF7AFFA0028DFD0FEBD00
:10B0A000FFE709490B48FAF7F4FE30B103208DF8A9
:10B0B0000000216968468847F1E70349012201F150
:10B0C0001400FEF7FBF9EAE78427002004ED00E016
:10B0D000502D0020502F00202DE9FF470C4605463B
:10B0E0004FF40071FEF734FE01274FF4017800267B
:10B0F00038B34FF4927949462846FEF71EFE00B356
:10B1000049462846FEF71EFEC5F80883A07E00B912
:10B110006F60206808B1C0F8009002208DF8000030
:10B12000D5F88004C5F880040390E07D8DF8080010
:10B13000E0680190E6752676D4E9001268469047EB
:10B140002CE004212846FEF703FE38B34FF484793F
:10B1500049462846FEF7F1FD00B321462846FFF791
:10B1600089FA206808B1C0F80090E07D617E8842CD
:10B1700014D1207E38B1617EE268E0752069E0601C
:10B180002676667607E0A07E00B96F60C5F8088372
:10B19000E675617EE2682046FFF7D6FA4FF48E78B6
:10B1A00041462846FEF7C9FDA8B1A08AA17D884284
:10B1B00004D221462846FFF79BFE0CE04146284674
:10B1C000FEF7C0FD206808B1C0F80080A17D11B174
:10B1D0002046FFF70AFF4FF4A27841462846FEF7C3
:10B1E000ACFD002816D041462846FEF7ABFD20688E
:10B1F00008B1C0F80080A07E00B12F60E07D00287B
:10B2000008D0E675617EE26804B02046BDE8F047EC
:10B21000FFF79ABABDE8FF870FB470B54FF4007618
:10B220000425FDF71DFB3046FFF760F904000FD041
:10B2300005AB3146049AFAF7AFF8401EB0F5FF7F30
:10B2400002D82046FAF798F80025204600F0EEF9DB
:10B25000FDF722FB284670BC5DF814FB2DE9FF4189
:10B260000546D0F808010C4660B12846FEF781FD7E
:10B270000420C5F8080303208DF80000D4E900126B
:10B28000684690474FF4927739462846FEF766FDA8
:10B290000026D8B139462846FEF765FD206800B182
:10B2A000076002208DF80000D5F88004C5F88004FE
:10B2B0000390D5F83C058DF80800E0680190E6752C
:10B2C0002676D4E900126846904727E04FF4887745
:10B2D00039462846FEF742FD00B339462846FEF7B8
:10B2E00042FDD5F83C05C1B2206800B10760E07DA1
:10B2F000884213D1207E60B1E268D5F8000220F0C8
:10B300002000C5F80002207EE0752069E060267606
:10B3100001E0E675E2682046FFF716FA4FF4A277DF
:10B3200039462846FEF71AFD80B139462846FEF711
:10B330001AFD206800B10760E07D38B1E675D5F8E8
:10B340003C05E268C1B22046FFF7FEF94FF4907663
:10B3500031462846FEF702FD002812D03146284625
:10B36000FEF701FD206800B10660A07D002808D02E
:10B37000D5F84C0504B0C1B22046BDE8F041FFF756
:10B3800034BEBDE8FF810870000A48700220704793
:10B39000EFF31180202181F311887047EFF31180C2
:10B3A000202181F3118870472DE9F0410D460746B1
:10B3B00000F028F9204C2068006C00BB20680126B2
:10B3C00080F84460DDB12068001D00F0D6F830B987
:10B3D000206890F82C0086406069B0436061681C6A
:10B3E00019D020692844FEF7F5FD00BF13494FF03E
:10B3F0008050086040BFBFF34F8FBFF36F8F00F0E6
:10B400000BF900F0FFF82068056C002165B1206899
:10B410003FB1016408E021680948091D00F0E6F821
:10B42000E4E7026C521E0264206880F8441000F0C9
:10B43000F3F82846BDE8F0810828002004ED00E07C
:10B4400098330020F8B5054680B2FDF713F80400E4
:10B4500013D0154E207A0027317B88420ED2A8B235
:10B4600004F10A0175DF28B1112806D0BDE8F840C3
:10B47000FFF75CBB207A401C2072F8BD2772307C3D
:10B4800038B1A8B23B2176DF18B1082801D0FFF708
:10B490004DFB71690029F0D08DF80070ADF80250B5
:10B4A00068468847F8BD000008B400202DE9FC413B
:10B4B0001646DDE90854CDE900541F4680460222B5
:10B4C00000F00CF8002807D1CDE900543B461022CB
:10B4D0003146404600F002F8BDE8FC812DE9FC5FF2
:10B4E0000026DDE90C4B994692468E468046278819
:10B4F000354630E0D8F80400002200EB85006946AC
:10B500000068019001A864DF002830D19DF8000098
:10B5100050451FD10EB1002100E0022122880844CD
:10B520001118594522D846B9521C90B2208009F80A
:10B5300000E02088401C20800126218801A801EB22
:10B540000902694664DF002811D120889DF80010A7
:10B55000084420806D1CB8F80000A842CADC56B12F
:10B560002088C01B401E80B2FF2802D90C20BDE8F5
:10B57000FC9F09F807000020F9E7D0E901320169D2
:10B580009A60D0E901235A604A68824201D18268F8
:10B590004A60002202610868401E086070477047D8
:10B5A00000F108014FF0FF32C0E90112C1600161F2
:10B5B00000210160704700210161704730B50B68C0
:10B5C0005A1C02D000F1080202E0026904E022469F
:10B5D000546825689D42FAD953684B6099608A6027
:10B5E000516008610168491C016030BD42684A60D1
:10B5F00093688B6093685960916008610168491C89
:10B6000001607047202080F3118802480168491CBE
:10B61000016070470428002003490868401E086044
:10B6200001D180F3118870470428002070B50028EC
:10B6300018D00D4DA0F108046068E968084211D0E7
:10B640002268002A0ED18843606000F013FA606817
:10B650006968084468602046FEF7CEFDBDE870408A
:10B6600000F06CBE70BD00005828002010B500200E
:10B67000FDF7C8FA0B483F21C0F808150121C0F8B2
:10B680000413816001600221C0F844130649E020E0
:10B6900081F800044FF0E0214FF40030C1F80001C0
:10B6A00010BD00000010014011E000E02DE9F05F46
:10B6B00004463E48844200D904460021EFF310803E
:10B6C00072B63B4EB36801224FF0E0256BB9B26011
:10B6D000D5F88031374A13403360C5F88021D5F85A
:10B6E000842172606A17C5F8842100B962B68A465F
:10B6F000DFF8C480D8F80475FCF790F9F0B3381976
:10B70000012120F07F40C8F80813C8F840054FF425
:10B71000A07B59464046FEF7A9F94FF48039C8F896
:10B720000493BFF34F8F74B1FEF7AEFA20B13EDF42
:10B7300048B1FAF7A3FB06E020BFD5F80002D5F820
:10B7400004120843F8D0C8F8089359464046FEF75B
:10B750008DF94FF480714046FEF788F90120C8F852
:10B760000403D8F804054FF40031C01B20F07F40DB
:10B77000C5F88012A04200D9204600E002E008B1DE
:10B7800000F070F9B06800280DD0EFF3108072B6A9
:10B790003168C5F800117168C5F80411C6F808A031
:10B7A000002800D162B6BDE8F09F0000FDFFFF0059
:10B7B0008CB50020FC06FFBD0010014010B5084B01
:10B7C000002200BF53F832401CB1521C022AF9D3A8
:10B7D00010BD43F8321003EBC201486010BD0000F9
:10B7E000E832002070B50D460446FFF70BFF616C90
:10B7F0000020491C00D16064A16C491C00D1A064E8
:10B80000FFF70AFFA06B20B9294604F1240000F0DD
:10B810009BF82046BDE87040FEF736BE70B50200CA
:10B8200018D000F027F9104C206985182068001DF9
:10B83000FFF7A3FE38B9206890F82C10012088404B
:10B840006169814361612846FEF7C4FB00F076FD23
:10B85000002808D105494FF08050086040BFBFF371
:10B860004F8FBFF36F8F70BD0828002004ED00E0FC
:10B870000149012008627047082800202DE9F041A5
:10B880000E460446FFF78AFD0546204610F8441F81
:10B89000022200F804290268521C0260012911D119
:10B8A000134F386B884690B1124804F1180100BF5D
:10B8B000FFF79CFEE06A3968C96A884202D90EB176
:10B8C000C6F80080E8B280F31188BDE8F081201D41
:10B8D000FFF753FEE06A7A6908FA00F111437961D3
:10B8E000044900EB8000783901EB8000211DDFE77F
:10B8F000082800207033002070B5114C0D462168D7
:10B900001831FFF75BFE2068001DFFF736FE38B9DF
:10B91000206890F82C1001208840616981436161A2
:10B92000681C05D020692844BDE87040FEF752BB72
:10B930002168BDE870400348091DFFF757BE0000AD
:10B94000082800209833002070B50C4C0D46216863
:10B950001831FFF74BFE2068001DFFF70EFE38B9C7
:10B96000206890F82C100120884061698143616152
:10B9700020692844BDE87040FEF72CBB0828002051
:10B9800070B5040039D01D4DE06A2968C96A884243
:10B9900033D2A069002804DB2868C06AC0F1040023
:10B9A000A061E16A164E01EB8101606906EB81013D
:10B9B00088421FD1201DFFF7E0FD012150B9E06A48
:10B9C00000EB800256F8222022B96A6901FA00F0E1
:10B9D00082436A612868C06AE0626A6981401143F3
:10B9E000696100EB800006EB8000211DBDE870401E
:10B9F000FFF7FCBD2868C06AE06270BD082800201F
:10BA0000F832002002494A6A0260096941607047C1
:10BA1000082800201FB500240E480294CDE90040FC
:10BA2000234680220CA10E48039400F09DFA0128C1
:10BA30000FD100F0F9FC01280BD1202080F31188F0
:10BA400004480121083881610461BDE81F4000F00D
:10BA500087B81FBD1028002049444C450000000055
:10BA6000B1A1020002490A69104408617047000050
:10BA7000082800200248016B491C01637047000040
:10BA8000082800200E48016B11B1012101627047A6
:10BA90000021016241690B4AB1FA81F1C1F11F0134
:10BAA00001EB810102EB810101F108034A68526850
:10BAB0004A609A4201D152684A60D1680160704779
:10BAC00008280020F832002010B586B00020019030
:10BAD00001A833DF1B4A02AB07CA83E807001A49F3
:10BAE00002A8FDF7B9FD08B1FAF7C8F91748FDF744
:10BAF00077FD08B1FAF7C2F9FDF7A0FD134C641EFB
:10BB0000A069D8B91248012200900023110211A0A7
:10BB100000F06CFCA06110B90420FAF7AFF900F056
:10BB200043FB02460220009000230121A06900F09F
:10BB30009DFC012802D00420FAF7A0F9019834DF17
:10BB400006B010BDF8C402005DBB020061270020F2
:10BB50008D7A0200574454540000000070470000E2
:10BB60000E49E02081F8140DFFF780FD0C490020FC
:10BB700008600C48016841F4700101600A480168DE
:10BB800041F04041016007487838016841F01001F8
:10BB90000160F7F74FFBFEF761FC00000EE000E0EC
:10BBA0000428002088ED00E034EF00E010B54C20C0
:10BBB000FEF79CFC040019D0002060602060A060AB
:10BBC000E060A0630121C4E90F10401E6064A0641E
:10BBD00004F11000FFF7E4FC04F12400FFF7E0FC9F
:10BBE00000231A461946204600F0ECF8204610BD06
:10BBF00070B50E0005464FF0000413D005FB06F0AB
:10BC0000401C4C30FEF772FC50B1044666B104F1A2
:10BC10004C002060C4E90F560121204600F09AF83C
:10BC2000204670BD0020ECE72460F3E72DE9FF47D4
:10BC30000027474E82B099468A460446B8464FF0E0
:10BC4000805500BFFFF7DEFCA06B68B3514620466D
:10BC5000E768FEF72BFAB9F1000F13D0E760606ACE
:10BC600050B104F1240000F033FB28B1356040BF2F
:10BC7000BFF34F8FBFF36F8FFFF7CEFC012006B0ED
:10BC8000BDE8F087A06B401EA063206810B9FEF7E6
:10BC900079FC606020690028EED004F1100000F00B
:10BCA00017FB0128E2D0E7E7049808B11FB106E0CE
:10BCB000FFF7B2FC1FE06846FFF7A4FE0127FFF77D
:10BCC000ABFCFFF7D7FEFFF79DFC606C401C01D179
:10BCD000C4F84480A06C401C01D1C4F84880FFF730
:10BCE0009BFC04A9684600F01BF930B12046FEF722
:10BCF000CBFB00F023FB0020C1E7FFF783FCA06B28
:10BD000038B1FFF789FC2046FEF7BEFB00F016FBBA
:10BD100098E7FFF781FC206830B9FFF773FC606893
:10BD2000FFF72EFEFFF778FC04F124000499FFF7DB
:10BD3000E3FD2046FEF7A8FB00F000FB002881D1C0
:10BD4000356040BFBFF34F8FBFF36F8F7AE70000BE
:10BD500004ED00E070B50D460446FFF753FCD4E94E
:10BD60000F12206801FB020060600020A0632068C1
:10BD7000A0600146E06B401E00FB0210E0604FF047
:10BD8000FF306064A06404F110004DB1FFF708FCBF
:10BD900004F12400FFF704FCFFF73EFC012070BD16
:10BDA00021690029F8D000F093FA0128F4D1044960
:10BDB0000007086040BFBFF34F8FBFF36F8FEBE703
:10BDC00004ED00E02DE9FF4700273C4E82B0994684
:10BDD0008A460446B8464FF0805500BFFFF712FC74
:10BDE000A06BE16B884206D3B9F1020F03D004982F
:10BDF000E0B1F7B121E04A4651462046FEF769F925
:10BE0000616A31B104F1240000F062FA012801D026
:10BE100006E028B1356040BFBFF34F8FBFF36F8F8F
:10BE2000FFF7FAFB012006B0BDE8F087FFF7F4FB4F
:10BE30001FE06846FFF7E6FD0127FFF7EDFBFFF780
:10BE400019FEFFF7DFFB606C401C01D1C4F8448091
:10BE5000A06C401C01D1C4F84880FFF7DDFB04A9A9
:10BE6000684600F05DF830B12046FEF70DFB00F0AB
:10BE700065FA0020D7E7FFF7C5FBA06BE16B8842AE
:10BE800014D1FFF7C9FB04F110000499FFF734FD4A
:10BE90002046FEF7F9FA00F051FA00289ED13560ED
:10BEA00040BFBFF34F8FBFF36F8F97E7FFF7B4FB30
:10BEB0002046FEF7E9FA00F041FA8FE704ED00E0D2
:10BEC0002DE9F0411F46164688460446FFF760FA02
:10BED0000546A06BE16B884207D3022F05D00020F6
:10BEE000E9B281F31188BDE8F0813A464146204627
:10BEF000FEF7EFF8A06C401C04D0A06C401CA064BE
:10BF00000120EDE7606A0028FAD004F1240000F077
:10BF1000DFF90028F4D0002EF2D001203060EFE7E6
:10BF200070B50D460446FFF76DFB0E4A116928688F
:10BF3000431C0FD02368526A934202D062688A423F
:10BF40000AD96268891A814206D2401A28602046BE
:10BF5000FFF758FD002400E00124FFF75DFB2046B9
:10BF600070BD0000082800202DE9FF5F8A46DDE94A
:10BF70000F9091000E9F9B461546884610B90846C3
:10BF8000FEF7B4FA060018D04820FEF7AFFA040016
:10BF9000304610D0A52241462063F7F792FA6FF0A1
:10BFA000030101EB8501206B3D46084420F00708A2
:10BFB0005146002004E0FFF739FB4FF0FF3486E0E4
:10BFC00022180B5C82F834300A5C12B1401C042841
:10BFD000F6D3002684F83760042D00D30325E562EC
:10BFE000C4E90E56201DFFF7E6FA04F11800FFF72A
:10BFF000E2FA2461C5F104016462A161266484F857
:10C0000044605A4640460099FEF7D2FA2060B9F1E2
:10C01000000F01D0C9F80040FFF7F4FA2E4DE86890
:10C02000401CE8602868DFF8B48010B1A86940B30C
:10C030002CE02C60E868012828D1002606EB860158
:10C0400008EB8100FFF7ACFA761C042EF6D32348E8
:10C050005030FFF7A5FA21486430FFF7A1FA1F48D6
:10C060007830FFF79DFA1D488C30FFF799FA1B488E
:10C07000A030FFF795FA1948503068631430A86370
:10C0800004E02868C06AB84200D82C60A86A012180
:10C09000401CA862E06A6A6981401143696100EB53
:10C0A000800108EB8100211DFFF7A0FA0124FFF7B2
:10C0B000B3FAA86958B12868C06AB84207D20849DB
:10C0C0002007086040BFBFF34F8FBFF36F8F04B0EE
:10C0D0002046BDE8F09F000008280020F83200202C
:10C0E00004ED00E02DE9F0411F4690460D46012683
:10C0F0000446FFF787FA0FB1206C386094F84400CB
:10C10000022184F84410B8F1050F0ED2DFE808F0E0
:10C110000D03060C0A00216C294301E0216C491C27
:10C12000216402E0022803D02564012802D021E026
:10C1300000261FE0201DFFF720FA114DE06A0121C3
:10C140006A698140114369610E4900EB800001EB8F
:10C150008000211DFFF74AFAE06A2968C96A88420F
:10C1600008D909494FF08050086040BFBFF34F8F96
:10C17000BFF36F8FFFF750FA3046BDE8F081000043
:10C1800008280020F832002004ED00E0054881690D
:10C1900019B1006B18B100207047012070470220D0
:10C1A000704700000828002001480069704700001F
:10C1B0000828002001480069704700000828002076
:10C1C0002DE9F041244C0027206B40B1E069401C70
:10C1D000E061206A00B101273846BDE8F08120699E
:10C1E000401C2061266946B9606BA16B6163A06346
:10C1F000606A401C6062FEF7E1F8E06A8642E8D3BC
:10C20000606B006838B1606BC068C568686886425A
:10C2100004D2E062DDE74FF0FF30FAE7281DFFF7B8
:10C22000ACF9A86A18B105F11800FFF7A6F9E96A98
:10C230000120626988401043606101EB8100074979
:10C2400001EB8000291DFFF7D1F9E86A2168C96A6E
:10C250008842D5D30127D3E708280020F8320020F0
:10C2600070B504004FF000012BD0E06B401EE0637E
:10C27000A36BE26A9A4224D018BB201DFFF77DF918
:10C28000114B124A012150B9E06A00EB800553F8C6
:10C29000255025B9556901FA00F085435561A06B19
:10C2A000E062C0F10400A061E06A55698140294361
:10C2B000516100EB800003EB8000211DFFF796F930
:10C2C0000121084670BD0000F83200200828002037
:10C2D0002DE9F041C068C46804F118000746FFF773
:10C2E0004CF9144D286B012660B11348394600BF44
:10C2F000FFF77CF9E06A2968C96A884213D90124EA
:10C300002E6211E0201DFFF738F9E16A6A6906FA2A
:10C3100001F01043686101EB81000749783901EBB6
:10C320008000211DE4E70024FEF748F82046BDE820
:10C33000F081000008280020703300202DE9F0472C
:10C340000027FFF75FF9264C206B401E2063206B0F
:10C3500098BBE168234E012079B3A6F178098046A5
:10C360003068E8B1F068C56805F11800FFF705F915
:10C37000281DFFF702F9E96A626908FA01F0104323
:10C38000606101EB810109EB8100291DFFF72EF9A6
:10C39000E86A2168C96A8842E2D3C4F82080DFE7EE
:10C3A000E06958B14546E06940B1FFF709FF00B1C7
:10C3B0002562E069401EE061F5E70BE0206A012894
:10C3C00008D1094901270007086040BFBFF34F8F1C
:10C3D000BFF36F8FFFF720F93846BDE8F087000004
:10C3E000082800207033002004ED00E02DE9F0471C
:10C3F0001E46DDF8209017460D00804612D02820FA
:10C40000FEF774F804000AD0FDF7FEFDC4F80080C2
:10C41000C4E90657C4E90869201DFFF7CCF8204697
:10C42000BDE8F0870024FAE71FB50024FDF7ECFD16
:10C430000A48006870B10949022200200092091DD3
:10C44000CDE9011003460390942205A10648FFF7A9
:10C450008BFD044604B0204610BD00004428002097
:10C46000546D72205376630065A402002DE9FF41EC
:10C47000114C1F460346266800200A9D002E0ED050
:10C480008DE80E0006290FDAFFF780FE02284FF034
:10C49000000307D0002269462068FFF793FC04B030
:10C4A000BDE8F0812A46F6E700233A466946304661
:10C4B000FFF706FDF3E700004428002010B504460E
:10C4C000FFF7A0F8606908B1012400E00024FFF73D
:10C4D000A3F8204610BD00000D000300B188020043
:10C4E0000800000006000000FFFFFFFFFFFFFFFF46
:10C4F000000000000000D60101000000D00700008D
:10C5000007000000FFFFFFFFFFFFFFFFFFFFFFFF30
:10C51000FFFFFFFF00000000000000000000D60148
:10C5200007010000D02700200400000000000000E8
:10C53000000000000304FFFF07040000881302004E
:10C5400000000000910000009F000000AE0000000D
:10C550006B010000D7020000000000500000000046
:10C5600000000000000000000000000000000000CB
:10C5700000000000000000000000000000000000BB
:10C5800000000000000000000000000000010203A5
:10C59000040506070809000000000000000A0B0C53
:10C5A0000D0E0F0000000000000000000000000061
:10C5B000000000000000000000000000000A0B0C5A
:10C5C0000D0E0F0000000000000000000000000041
:10C5D000000000000000000000000000000000005B
:10C5E000000000000000000000000000000000004B
:10C5F000000000000000000000000000000000003B
:10C60000000000000000000000000000000000002A
:10C61000000000000000000000000000000000001A
:10C62000000000000000000000000000000000000A
:10C6300000000000000000000000000000000000FA
:10C6400000000000000000000000000000000000EA
:10C650000000000000000000000000000C0D0E00B3
:10C660000030004003000000FFFFFFFF07FF000055
:10C670000000004000000000110D00008832002082
:10C68000A8320020C83200200D0003007974020097
:10C69000000000000000000000000001770A000018
:10C6A00000000000770A0000000000007ADA0000B5
:10C6B0000000000001000000000000000000000079
:10C6C000000000009ECADC240EE5A9E093F3A3B5A8
:10C6D0000000406E0000005001000000D007000084
:10C6E000070000006CB500200300000038B60020F1
:10C6F00000100000040000000100000040C802001B
:10C7000048C802000000000000000000020000070E
:10C71000FCC602000CC702000800000034C702007B
:10C7200044C702000800000044C7020054C70200CA
:10C730000800000078C8020088C80200000000005D
:10C740000000000068C8020078C802000000000075
:10C750000000000000C8020008C8020008C802006B
:10C7600028C8020028C8020038C8020038C80200E1
:10C7700040C802006027002054C7020074C70200AE
:10C780000800000048C8020058C8020058C802004B
:10C7900068C8020084C7020094C7020008000000B5
:10C7A000DDDDDDDDDCBBBBDDDDDDDDDDDDDDDDDDFE
:10C7B000988888888888888877777777778888883E
:10C7C00085555556666666666666666666688888D6
:10C7D0008333333222222222222222222228888DCF
:10C7E00088C8020060270020680100000C40020099
:10C7F000A8C80200C8280020D0950000D453020029
:10C800006D710200000000001D8A0200642B0020F0
:10C8100067690200782B0020017002000000000010
:10C820007170020000000000DD720200482B002041
:10C83000156D020054B60020D16E02000000000009
:10C8400009970200000000004BAC0200000000004D
:10C850004197020000000000CF690200782B002001
:10C86000316E0200000000002D9B0200000000005D
:10C87000B19C020000000000ADA902000000000011
:10C8800021970200000000003144FFFF14042F0133
:10C890000002042E2000400436C00140043190D034
:08C8A000030591FFFFFFFF00FB
:0400000500023201C2
:00000001FF
