:020000040002F8
:1030000088A50020B1320200B9320200BB320200B2
:10301000BD320200BF320200C132020000000000D7
:10302000000000000000000000000000C3320200A9
:10303000C532020000000000C7320200C93202009F
:10304000553C0200CB320200D53F0200CB320200D9
:10305000CB320200CB320200493A0200CB320200EE
:10306000CB320200CB320200CB320200CB32020064
:10307000CB320200CB320200CB320200CB32020054
:10308000CB320200AD3C0200CB320200CB32020058
:10309000D13C0200CB320200D53C0200CB32020010
:1030A000CB320200CB320200CB320200CB32020024
:1030B000CB320200CB320200000000000000000012
:1030C000CB320200CB320200CB320200CB32020004
:1030D000CB320200CB320200CB32020000000000F3
:1030E00000000000000000000000000000000000E0
:1030F00000000000000000000000000000000000D0
:1031000000000000000000000000000000000000BF
:1031100000000000000000000000000000000000AF
:10312000000000000000000000000000000000009F
:10313000000000000000000000000000000000008F
:10314000000000000000000000000000000000007F
:10315000000000000000000000000000000000006F
:10316000000000000000000000000000000000005F
:10317000000000000000000000000000000000004F
:10318000000000000000000000000000000000003F
:10319000000000000000000000000000000000002F
:1031A000000000000000000000000000000000001F
:1031B000000000000000000000000000000000000F
:1031C00000000000000000000000000000000000FF
:1031D00000000000000000000000000000000000EF
:1031E00000000000000000000000000000000000DF
:1031F00000000000000000000000000000000000CF
:10320000DFF80CD000F040FA0048004725630200C8
:1032100088A5002030B4044654E8000F0D4644E869
:103220000053002BF8D1156030BC704730B4044611
:1032300054E8000F40EA010544E80053002BF7D1A1
:10324000156030BC704730B4044654E8000F00EA03
:10325000010544E80053002BF7D1156030BC7047DE
:1032600030B4044654E8000F80EA010544E80053F6
:10327000002BF7D1156030BC704730B4044654E8D9
:10328000000F00EB010544E80053002BF7D1156057
:1032900030BC704730B4044654E8000FA0EB010581
:1032A00044E80053002BF7D1156030BC7047000094
:1032B0000648804706480047FEE7FEE7FEE7FEE7D0
:1032C000FEE7FEE7FEE7FEE7FEE7FEE7D93C020089
:1032D000013202002DE9F05F0546002092469B4630
:1032E00088460646814640241BE02846414647461C
:1032F000224600F070F953465A46C01A914110D345
:1033000011461846224600F057F92D1A67EB0108BE
:103310004F4622460120002100F04EF917EB00092C
:103320004E41201EA4F10104DFDC484631462A4606
:103330004346BDE8F09F40EA01039B0703D009E044
:1033400008C9121F08C0042AFAD203E011F8013B91
:1033500000F8013B521EF9D27047D2B201E000F8EA
:10336000012B491EFBD270470022F6E710B5134629
:103370000A4604461946FFF7F0FF204610BD421CDE
:1033800010F8011B0029FBD1801A704710B50022EC
:1033900000E0521C835C8C5CA34201D1002BF8D16D
:1033A000D8B2E1B2401A10BD30B504460020034641
:1033B00000E05B1C934203D2E05CCD5C401BF8D084
:1033C00030BD000070B500B91068002512E00B4652
:1033D00002E0A64203D05B1C1C78002CF9D1E3B2BA
:1033E0002B4305D02CB125B1002100F8011B04E0CE
:1033F0000546401C0678002EE9D11060284670BDB5
:10340000004ADFE7647800202DE9F0410E460546CA
:10341000002400E0641C285D00F0EDF80746305DF4
:1034200000F0E9F8381A02D1295D0029F2D1BDE88F
:10343000F08100000FB400B58DB010A909900B9079
:1034400000914FF0FF300A9000200C900548069044
:10345000054807906A4609A80F9900F0E7F80DB0F3
:103460005DF814FB49360200673602002DE9FF5F64
:103470001D464FF0FF3BD5E9014691465F464FF0B0
:103480000008A9697F1C01988847296A82468847F5
:103490000028F6D1BAF1FF3F0CD024F4C064002E0E
:1034A00019DD600614D5BAF12B0F09D0BAF12D0F32
:1034B0000ED103E0584604B0BDE8F09F44F48064A8
:1034C000A9697F1C01988847761E8246002E02DD7E
:1034D000BAF1300F03D0B9F1000F26D032E0A9695C
:1034E000761E44F400747F1C019888478246002EA3
:1034F00005DDBAF1780F06D0BAF1580F03D0B9F153
:10350000000F10D01EE0B9F1000F02D0B9F1100F7A
:1035100018D1A969761E24F400747F1C019888478D
:103520008246102002E0082000E00A20814609E0DF
:1035300008FB0908A969761E44F400747F1C0198F1
:1035400088478246002E05DD4946504600F059F86E
:103550000028EDDAE96901988847A00502D46FF0E8
:103560000100A8E7E00725D1600613D5600502D564
:10357000C8F1000000E0404629680A1D2A60096879
:10358000220501D5087015E0220701D5088011E059
:1035900008600FE02868011D29600068210502D538
:1035A00080F8008006E0210702D5A0F8008001E045
:1035B000C0F8008038467EE7202A04DB203A00FA73
:1035C00002F1002070479140C2F1200320FA03F37A
:1035D000194390407047202A04DB203A21FA02F078
:1035E0000021704721FA02F3D040C2F1200291403D
:1035F000084319467047A0F14101192900D820302D
:1036000070473A2800D2303820F02002412A01D3F6
:10361000A2F13700884201D34FF0FF30704700001D
:10362000026811441378016018467047D16004495C
:1036300051610449116200211161114600F03CB84A
:1036400021360200AD360200426842B1016811F82D
:10365000013B23B1521EC0E90012184670470121F8
:10366000C160881E704742685AB1C368016843B997
:1036700083688B4205D0491E521CC0E9001200200D
:1036800070474FF0FF307047064C074D06E0E0688A
:1036900040F0010394E8070098471034AC42F6D399
:1036A000FFF7B2FD7083020090830200C0B24FF4B6
:1036B000F05100F097B900002DE9F34F8BB04FF0B7
:1036C000000801F10C000C464FF0010B46460DF1CD
:1036D000080A01906269012101989047051E2DD0CA
:1036E000252D2CD0216A8847C0B16269012101983B
:1036F0009047216A88470028F7D1411E62690198E6
:10370000904700E0761CA1690B988847216A88479A
:103710000028F7D1E1690B988847DBE7A1690B988E
:1037200088470746A84201D1761CD3E7E1690B9888
:1037300088477F1C02D1B8F1000F6FD046E1002707
:1037400062693D463946019890472A2804D162694A
:103750000121019890470125DFF8849262690121D7
:1037600001989047A0F130010A290AD24F45E5DCC3
:1037700007EB870100EB4107303FDFD445F0100530
:10378000ECE7E90601D46FF000476C280AD04C281A
:1037900014D0682815D06A280DD074281CD07A2837
:1037A0001AD01DE062690121019890476C2802D06F
:1037B00045F0040514E045F002050DE045F0200554
:1037C0000AE06269012101989047682802D045F01B
:1037D000080505E045F400656269012101989047FC
:1037E000C4E9015765283DD019DC58287AD00CDC93
:1037F000452837D004DC252826D0412831D131E0B6
:1038000046282FD047282CD12CE05B2877D0612880
:1038100028D063287CD0642823D15AE0D0E06F28D8
:1038200048D008DC66281DD067281BD0692821D025
:103830006E2816D127E0702845D0732868D07528E7
:1038400047D078280DD14DE0A1690B9888470546EF
:1038500025283FF469AFE1690B9888476D1C3FF458
:103860006AAFB3E023466A466FF001000B99AFF3ED
:1038700000809EE045F040006060A80723464FF0BE
:10388000000236D43EE0E8077FF447AF2068011D10
:1038900021600068290501D506701BE7290701D5BD
:1038A000068017E7A90703D5F117C0E9006111E702
:1038B00006600FE745F040006060A80723464FF020
:1038C000080216D41EE040F60E0125EA01006060F1
:1038D00016E045F040006060A80723464FF00A025A
:1038E00007D40FE045F040006060A80708D52346E4
:1038F00010226FF001000B99AFF3008059E007E050
:10390000234610226FF001000B99FFF7AFFD50E046
:103910004FF000094F464B46632802D05B2806D083
:1039200040E0E80601D40120A06001273AE0626986
:103930000121019890475E2805D14FF00109626985
:10394000494601989047216939B900210A465346F2
:1039500043F82120491C0829FADBB0B3216969B971
:10396000C11700EBD16253110AEB830122F01F0251
:10397000821A01200B68904003430B6062690121A9
:10398000019890475D28E8D1B9F1000F09D00020D7
:10399000514651F82020D24341F82020401C0828ED
:1039A000F7DB02AB224600976FF001000B99AFF3F3
:1039B000008000280CDA401C08D1BBF1000F05D0B4
:1039C0004FF0FF300DB0BDE8F08FFFE74046F9E75C
:1039D000E90701D108F1010806444FF0000B79E630
:1039E000CCCCCC0C7F2801D9002208E0064A02EB9F
:1039F0005002C007127800D1120902F00F02012014
:103A000090400840704700003083020030B58C18A9
:103A100010F8012B12F00F0301D110F8013B12092D
:103A200006D110F8012B03E010F8015B01F8015BEF
:103A30005B1EF9D101E001F8013B521EFBD1A1420E
:103A4000E6D3002030BD00002DE9F04700268CB001
:103A5000DFF86091B0464FF4807501243746069632
:103A6000284603F00FFA38B1D9F80403204203D0F6
:103A7000284603F0FDF926432D1D64007F1CADB2DE
:103A8000082FEDD34FF4BE74204603F0FBF948B184
:103A9000204603F0EDF946F0004606AA0121002079
:103AA00003F0D2F9444D16F0FF0F15D00127002482
:103AB00037420DD009EB8401D1F81005D1F810156B
:103AC000C0F3042055F82420C1F3014102B190470E
:103AD0007F00641C082CEBD3002E67DA4FF0FF3018
:103AE000CDE9088000263446281910F8507F90F957
:103AF000000027F0C008401C44D009A9404602F04D
:103B0000B1FC58B34FEA9719404601F0E3FD55F870
:103B100020701FB1B9F1030F03D00FE0B9F1030F0B
:103B200030D108A84FEAD80208F00703815C4FF0B3
:103B3000010C0CFA03FC41EA0C0181544FF0A04146
:103B400001EB8800D0F8000706A9C0F3014A4046FF
:103B500002F088FC18B1BAF1020F03D012E0BAF1FA
:103B6000030F0FD1B9F1030F08D1BAF1020F1BD027
:103B70000221404603F04CF9761CF6B217B14946D3
:103B80004046B847641C042CAED3002E0ED06A46C3
:103B90000121002003F058F906990098884205D0C9
:103BA0000690089809909DE70321E2E70CB0BDE874
:103BB000F087000000600040AC830020F8B50F469D
:103BC000002116460C4600911D466A463946FFF70D
:103BD000F9FB09E046F824006A4639460020641CD7
:103BE000FFF7F0FBAC4201DA0028F3D12046F8BD24
:103BF00000F01F02012191404009800000F1E02007
:103C0000C0F88012704700F01F0201219140400966
:103C1000800000F1E020C0F80011704700F01F02A2
:103C2000012191404009800000F1E020C0F800121D
:103C300070474907090E002806DA00F00F0000F16E
:103C4000E02080F8141D704700F1E02080F8001497
:103C5000704700002DE9F0414FF48077384602F0BC
:103C6000DFFC0124104EA50748B1384602F0DFFC06
:103C70000120C5F808037470002001F055FD4FF4D1
:103C80008277384602F0CCFC00280BD0384602F090
:103C9000CEFC0220C5F80803B470BDE8F041012055
:103CA00001F042BDBDE8F081988300200748002163
:103CB000C0F84011C0F84411C0F84811C0F84C11C8
:103CC000C0F80011C0F8041103F0A8BF00100140B3
:103CD00003F0F2BE03F0EEB9F0B5AE480023021DCA
:103CE00001780125101D4FF0805406290BD116785C
:103CF000360708D10678C6F30316032E06D0042E25
:103D000004D0052E02D0062907D00EE0B4F82463B3
:103D1000A14FC6F304263E6002E01678360704D1B0
:103D20000678C6F30316032E02D0062904D00FE04E
:103D30009B4F9A4E7E670EE01678360708D10678BC
:103D4000C6F30316032E06D0042E04D0052E02D08F
:103D5000062907D00EE0D4F84462924FC6F34236EB
:103D60003E6002E01678360704D10678C6F30316E3
:103D7000032E02D0062906D011E08B4E376827F0BB
:103D8000807737600EE01678360708D10678C6F3DC
:103D90000316032E06D0042E04D0052E02D00629C9
:103DA0000AD011E04FF08046C6F80C31C6F8103149
:103DB0007C4E361F336002E01678360704D1067851
:103DC000C6F30316032E02D0062905D00CE0754F6A
:103DD000032664373E600AE01678360704D1067879
:103DE000C6F30316032E02D006290DD014E06F4F40
:103DF00005263E606D4E783635606C4E0836336071
:103E00003F263F1D3E6002E01678360704D1067853
:103E1000C6F30316052E02D0062957D062E0644E81
:103E20003668644F3E60624E361D36683F1D3E6008
:103E30005F4E083636683F1D3E605D4E0C36366874
:103E40003F1D3E605A4E103636683F1D3E60584E4C
:103E5000143636683F1D3E60554E18363668554F4D
:103E600020373E60524E1C3636683F1D3E60504E35
:103E7000203636683F1D3E604D4E243636683F1D65
:103E80003E604B4E283636683F1D3E60484E2C360D
:103E900036683F1D3E60464E30363668454F4037E7
:103EA0003E60434E343636683F1D3E60404E3836E5
:103EB00036683F1D3E603E4E3C3636683F1D3E60D4
:103EC0003B4E403636683F1D3E6002E016783607AE
:103ED00008D10678C6F30316032E06D0042E04D0AC
:103EE000052E02D0062907D019E0D4F85812324A1C
:103EF00001F04F01116002E0117809070FD100783D
:103F0000C0F30310032803D0042801D0052806D1EC
:103F10002A480168C90702D06FF0010101602248F8
:103F20007438016841F470010160BFF34F8FBFF333
:103F30006F8F4FF01021D1F80002002803DBD1F879
:103F40000402002822DA1E4A15601E480468002C6C
:103F5000FCD01524C1F800420568002DFCD0C1F842
:103F6000044201680029FCD0136001680029FCD0DC
:103F7000BFF34F8F0C48F0380168134A01F4E06139
:103F800011430160BFF34F8F00BFFDE710490F4899
:103F90000860F0BDE00F00F0403501400DF0ADBA13
:103FA00000C007403C050040FCED00E0105600401A
:103FB0000404001020C50040E40E0040000400404E
:103FC00004E5014000E401400400FA050090D0033C
:103FD000F87700200448017F04480029024901D0F5
:103FE00003F075BF03F0E4BE04840020002000400D
:103FF0000FB4054B10B503A9044A029800F04AF823
:1040000010BC5DF814FB00008F5A02005C780020A1
:104010000FB4084B10B504A902AA039800F03AF8AF
:10402000044602A9002000F066FA204610BC5DF8A4
:1040300014FB0000F744020002E008C8121F08C188
:10404000002AFAD170477047002001E001C1121F19
:10405000002AFBD1704700000121202803DA8140AB
:104060000548014003E0402802DA2038814009B1C8
:104070000120704700207047FC06FFBD082806D2CB
:1040800028B1012803D0042801D001207047002066
:10409000704700002DE9FF4F8DB00F460546002602
:1040A00006E025280BD0DDE90F1290476D1C761C29
:1040B00028780028F5D111B03046BDE8F08F0024F3
:1040C000A246A1460122EC4900E0044315F8013F55
:1040D000203B02FA03F00842F7D128782A2810D0B2
:1040E0006FF02F022878A0F13001092914D80AEBCB
:1040F0008A0102EB410144F0020400EB010A6D1C4D
:10410000F0E701CF5FEA000A03D544F40054CAF196
:10411000000A44F002046D1C28782E2817D115F8E7
:10412000010F44F004042A280ED06FF02F022878E3
:10413000A0F1300109290AD809EB890102EB4101FC
:1041400000EB01096D1CF2E757F8049B6D1C287801
:104150006C280FD006DC4C2817D068280DD06A28B0
:1041600014D104E0742810D07A280FD10DE044F463
:1041700000140AE044F4801401E044F44014697827
:10418000814202D104F580146D1C6D1C2A786E2AC0
:104190001FD00CDC632A31D004DC002A8BD0582AD3
:1041A00011D1A3E0642A68D0692A0CD165E0732A92
:1041B0002ED004DC6F2A73D0702A04D19BE0752ABC
:1041C0006FD0782A6ED01046DDE90F129047761C2A
:1041D00050E1C4F30250022806D0032809D0042875
:1041E00001CF09D0066045E101CFF117C0E90061B8
:1041F00040E101CF06803DE106703BE117F8040B7A
:104200008DF8000000208DF80100EB46012003E04E
:1042100057F804BB4FF0FF3061074FF0000102D4A4
:104220000DE008F10101884649450FDA8045F8DBC9
:104230001BF808100029F4D108E008F101018846B4
:104240008142FADB1BF808100029F6D1DDE90F23C3
:10425000AAEB08008146214600F036F9304400EB15
:10426000080604E0DDE90F121BF8010B9047B8F1D6
:104270000108F7D221464846F7E00A21C4F3025369
:104280004FF0000B0891022B04D001CFC117032B74
:1042900009D00AE0FF1D27F00707F7E8020108E050
:1042A00032E01FE020E000B2C117042B01D140B280
:1042B000C117031E71F1000307DA4FF0000CD0EBB9
:1042C0000C006CEB01012D2302E0230504D52B2308
:1042D0008DF82430012303E0E30701D02023F7E722
:1042E000984658E00A2110E010210EE010204FF00F
:1042F000000B08900CE010214FF0000B44F0040478
:104300004FF00809089103E008214FF0000B0891D5
:10431000C4F30253022B04D001CF0021032B06D09B
:1043200006E0FF1D27F00707F7E8020103E080B26F
:10433000042B00D1C0B24FF0000823072BD5702A00
:1043400007D0DDF820C08CF0100C5CEA0B0C05D017
:104350000EE040238DF82430012308E050EA0103E9
:1043600006D030238DF824308DF82520022398467E
:10437000DDF820C08CF0080C5CEA0B0C0BD150EA85
:10438000010301D1630706D530238DF824304FF0A7
:104390000108A9F10109582A04D038A20B9208AAF1
:1043A0000A920BE03AA2F9E75B46089AFEF792FF01
:1043B0000B9B9B5C0A9A521E0A92137050EA0102F0
:1043C000F2D10A98ADEB000000F1200B600702D596
:1043D00024F4803401E04FF00109D94502DDA9EB56
:1043E0000B0000E0002000EB0B0141440890AAEB19
:1043F000010AE00306D4DDE90F232146504600F010
:1044000063F806444FF0000908E009A911F8090013
:10441000DDE90F12904709F10109761CC145F4DB73
:10442000E0030CD5DDE90F232146504600F04CF89F
:10443000064404E0DDE90F1230209047761C08990D
:10444000481E08900029F5DC08E00A980A990078CF
:10445000491C0A91DDE90F129047761CBBF100015F
:10446000ABF1010BF1DC21465046DDE90F2300F0F2
:1044700019F806446D1C1BE609280100303132335F
:104480003435363738396162636465660000000090
:10449000303132333435363738394142434445467A
:1044A000000000002DE9F041044600251E46174695
:1044B000880404D405E039462020B0476D1C641EF2
:1044C000F9D52846BDE8F0812DE9F04104460025E4
:1044D0001E469046C80301D5302700E020278804F7
:1044E00004D505E041463846B0476D1C641EF9D539
:1044F0002846BDE8F0810A68531C0B6010707047B5
:1045000070B500230D884C680DE0E618E15C767804
:10451000864206D1E018801C491E506011800020A0
:1045200070BD0B445B1C9D42EFD8052070BD10B5DB
:1045300001220221002000F03BFF08B1072810D122
:1045400007220221012000F033FF08B1072808D11B
:1045500000210A22084600F02BFF08B1072800D1ED
:10456000002010BD022000F01FBE000070B5002426
:10457000064D06E06868012110F8340002F002F9E7
:10458000641C28788442F5D3002070BD0C7800208C
:10459000F8B515460C460646052A01D20720F8BD97
:1045A00002F0D6F918B902F0A5F90028F7D11049A0
:1045B00000204E600C70C1E902500E4D08610DE004
:1045C00006EBC4006968009181788DF801100078CD
:1045D000094A694602F028F90028E0D1641EE4B2D5
:1045E000EED2BDE8F840054A0021024800F0DAB8F2
:1045F0000C78002040820200C15A0200A15802003B
:1046000009480068C00700D000BEBFF34F8F0648BE
:10461000E4380168054A01F4E06111430160BFF329
:104620004F8F00BFFDE70000F0ED00E00400FA0549
:104630000EB500210091CDE901106A4644F2010057
:10464000FFF7DEFF0EBD10B58268C368934203D04A
:1046500001F00AFA002010BD052010BD29B112B1E9
:10466000531E134203D0092070470E20704701608B
:10467000838000218160C1600846704710B5826860
:10468000C3689A1A83889A4203D801F0F7F9002088
:1046900010BD042010BD00002DE9F84F254C8146C7
:1046A000924660880E46814241D800274FF6FF7837
:1046B0008DF80070684600F097F922786078A1883C
:1046C000884201DA401C00E00020C0B2904204D1D0
:1046D0009DF8000000F0ACF927E06578607888422A
:1046E00001DA401C00E0002060709DF8000000F03E
:1046F0009FF9454519D0A068B9F1000F40F835A0E1
:104700000DD066B16188E068324605FB010049467C
:10471000FEF711FEA06800EBC500868002E000EB0A
:10472000C50087800020BDE8F88F0420FBE7092042
:10473000F9E700002078002010B50E4C03E0401C83
:1047400000E00020207020786178814210D022782B
:104750006188E068A36802FB010003EBC20153F823
:104760003220898890472078A1888842E9DAE6E7F4
:1047700010BD00002078002030B5CB0008339DB27A
:1047800093074FF0000401D0072030BD044B9A601E
:104790002A44DA605C701C7058809980002030BD1B
:1047A00020780020074B9B7823B12AB120B1006804
:1047B000037C1BB108207047072070474174426199
:1047C000002070474484002070B502F09FFF10481D
:1047D00000240B21047044700E4D817014206C6015
:1047E0002C706C70FFF704FA07211420FFF721FAF0
:1047F0001420FFF708FA0848046007211120FFF78A
:1048000018FA0548001F0068A860002070BD00006D
:104810004484002030780020081501402DE9FC4731
:10482000DFF8789099F8023073B368B3052902D2A3
:104830000720BDE8FC87436933B3437C012B25D0B7
:10484000002704460025884616468DF80050684625
:1048500000F0CAF801A803F0B3FBC8B10121017050
:104860000F4944600968C0E90218C0E904769DF860
:10487000040089F801009DF8000000F0D9F8142028
:10488000FFF7CCF92846D4E70820D2E70F46D8E74F
:1048900004259DF8000000F0CBF8F3E744840020E5
:1048A000041501400649897839B130B1416921B117
:1048B00000210174022103F08DB908207047000027
:1048C0004484002070B50A4E01460A48B578FFF7C7
:1048D000BAFE04464DB10020B070711C0122C81D03
:1048E00002F07CF808B1FFF7A3FE204670BD00007F
:1048F000447800205C850020F0B5284E89B01F4622
:104900000D00044672603BD0A888296882B2244812
:10491000FFF7A4FE002834D1A889A96882B22048F4
:104920001030FFF79BFE00282BD120221D4968463E
:10493000FEF701FD60690690207C00B101208DF832
:1049400014008DF81C70607C00B10E208DF81500ED
:10495000E0680290A0680390206801906068009071
:104960000E48114A6946083002F004F8002808D1C0
:10497000B0702068401C04D09DF81D0018B106E0FE
:10498000072009B0F0BD0548083002F07FF8034960
:104990000122491CC81D02F021F8F2E744780020EA
:1049A0005C85002048820200117D020010B501469E
:1049B0000B48FFF763FE040010D10A4802F0B0F97B
:1049C00060B9084906480839FFF73DFE30B9054986
:1049D00001220839034802F01DF90446204610BDA3
:1049E0006C8500204C78002030B5EFF3108172B652
:1049F0000D4A9468012324B10370002900D162B6E6
:104A000030BD93604FF0E023D3F88051074C254030
:104A10001560C3F88041D3F8844154605A17C3F835
:104A2000842100220270E8E750850020FC06FFBDCB
:104A30000B498A68002A11D000280FD1EFF31080AB
:104A400072B60B684FF0E022C2F800314B68C2F832
:104A5000043100228A60002800D162B6704700004D
:104A6000508500202DE9F041064608680C46411C9F
:104A70004FF0A0474FF0010506D005FA00F1C7F846
:104A80000815206802F0A9F96068411C02D00021D5
:104A900002F09AF93079204901EB4010A169007FBA
:104AA00000283068C0F8241525D0607D227D31684B
:104AB0001043C1F86C05D4E900123068C0F80C1539
:104AC000C0F8142524E0A068411C02D0002102F0A7
:104AD0007BF9E068411C05D08540C7F80855E068BF
:104AE00002F07BF9D4E902123068C0F80825C0F85A
:104AF0001015BDE8F081607D217D32680843C2F861
:104B00006C05D4E900123068C0F81425C0F80C1503
:104B1000207D0128D7D0ECE704840020B82101488B
:104B2000FEF722BCC87F0020FFF7F8BF0249C86C1F
:104B3000896C084002F034BFC87F002070B540B1D6
:104B40000C4D297839B1044602F09AFD28B10020B5
:104B500070BD0E2070BD082070BDE868062807D221
:104B60000549226801EB8001401C0A60E860EEE71D
:104B7000042070BDFC7700208080002040B10549F2
:104B800000220123CA600B70C1E901021046704780
:104B90000E207047FC77002070B504002DD000294E
:104BA0002BD020480078002827D020880D461128D7
:104BB00015D0302804D0322807D033281ED109E080
:104BC000211D284602F0D0FC18E0211D284602F0E5
:104BD00097FB13E0211D284602F04EFC0EE0A08852
:104BE000B5F8CA12884209D1002085F8C70285F8B5
:104BF000C8024FF6FF70A5F8CA0270BD95F8C8024A
:104C00000028FAD020883028F7D34F28F5D8A0887C
:104C1000B5F8CA128842F0D12846BDE8704000F0CD
:104C2000D5BE0000FC77002048B1084A137843B194
:104C3000D26832B190F8C7222AB1112070470E20F5
:104C400070470820704700F0C1BE0000FC770020CC
:104C500038B50188041D1D294ED00EDC102918D04E
:104C6000112906D013294BD01B2961D120790128A5
:104C70005ED1BDE8384002F09DBD1F2946D02129F4
:104C80004DD03B2955D0562952D18088132176DF4B
:104C90003FE02088082802D30020FFF7C9FC2088C5
:104CA0006268C0EBC001254800EB81010A612289DE
:104CB0008A82A27A8A752188C1EBC10200EB820048
:104CC000002200F021F908B1FFF7B2FC21881C484E
:104CD000FFF7AAFF08B1FFF7ABFC19490120091F34
:104CE0004870072000F086FB08B1FFF7A1FCFFF732
:104CF0001DFF08281CD0BCE7BDE8384002F0CCBA44
:104D0000002380881A4685217FDF02E02088211D4C
:104D100075DF00280CD0BDE83840FFF789BC0021C2
:104D20000091808869468FDF002801D0FFF780FC62
:104D300038BD8088132176DFEBE700007C7E002001
:104D40001475002010B51A4C0188606810290ED027
:104D500011292BD1401E606028D1FFF7E8FB002805
:104D600024D02168002921D0BDE810400847D0B9DF
:104D700000210122084600F01BFB08B107280FD1D3
:104D800007220221012000F013FB08B1072807D1F8
:104D900004220221002000F00BFB20B1072802D0E2
:104DA000216801B188476068401C606010BD000048
:104DB000E07700202DE9F047044603883F480122B0
:104DC000A4B000F1480A102B09D0112B54D01A2B93
:104DD00070D1217AB2EB111F53D2012352E0D0E9F6
:104DE00011218A430546011D12A802F0B4FD442298
:104DF00012A901A8FEF79FFADFF8C09000263746F7
:104E000009F144090DF104080AE000BF08EB46006F
:104E10001D2283884946281D009702F061FD761CFB
:104E20000198B042F2D8686CA688C04302F07AFDBF
:104E3000A0F57F41FF3917D005EB400001238680A4
:104E400032465146281D02F0BAFD0123324649463A
:104E5000281D02F0B4FDE07B02280BD00023174987
:104E6000A2884C31281D20E024B00420BDE8F04782
:104E7000FFF7DEBB0123F2E70023A2885146001DA5
:104E800013E000230D490546A2885031001D02F0B1
:104E900096FD207A0221B1EB101F01D2012300E020
:104EA00000230649A2885431281D24B0BDE8F047EC
:104EB00002F085BD24B0BDE8F0870000C87F002067
:104EC00010B50446087840B1012819D10A7B8968D9
:104ED0006088BDE8104000F00BB9488801F10E026F
:104EE0000146204600F010F808B1FFF7A1FB20466C
:104EF00000F0DAF808B1FFF79BFB02490020487088
:104F000010BD00001075002048B141802AB15188C1
:104F1000C1801188818091880181002070470E2016
:104F20007047000030B5144B0D4604000FCB85B020
:104F30008DE80F001DD0E5B12146684662DF0028EC
:104F400015D120788DF812000120ADF810004FF631
:104F5000FF7060802868E0600020A08020812061D0
:104F6000A082A0751420208304A8FFF7E7FD05B0F8
:104F700030BD0E20FBE700001482020010B502468F
:104F800086B008002ED0002A2CD041884FF6FF733F
:104F9000994202D09488A14224D11488112C14D0B3
:104FA000392C1FD1818800291CD053898B4219D1FB
:104FB000C168002916D001218DF8001002F11001FE
:104FC0000291917B8DF80C1009E092888A4209D1F8
:104FD000C168002906D002218DF800104380C26804
:104FE0006946904706B010BD30B585B00C46054601
:104FF00014216846FEF7B8F9207804F10E01002864
:1050000030D1A08801282DD1A0792A78904229D1C9
:10501000002217E002EBC20031F81030022B02D060
:10502000032B0ED105E001EB40000089ADF8120022
:1050300007E001EB40000389ADF80E304089ADF880
:105040001000521C207A9042E4D8E868002809D069
:105050006088ADF8020000208DF80000EA6869461B
:105060002846904705B030BD3EB518B1F42A03D9A3
:1050700007203EBD0E203EBD4388A3F57F44FF3C84
:105080000DD0084D38CD8DE8380003890291ADF878
:105090000230ADF80620408869469CDF3EBD0820FE
:1050A0003EBD0000308202001FB5010019D04888C3
:1050B000A0F57F42FF3A16D0C988A1B101228DF830
:1050C0000C200A4B00228DF80D20D3E90423CDE9F2
:1050D0000023ADF8021003A9029169469CDF04B0D9
:1050E00010BD0E20FBE70820F9E700001482020043
:1050F000F0B50D4614461749C0EBC00201EB820320
:105100008BB0D97C0DF1040C9F7D5E7D1A7D8CE8FF
:10511000C600997C0091C2B25B7C0FA105A8FEF786
:1051200077FF002605AF02E002F03DF8761CB85D7F
:105130000028F9D1002603E0A85D02F034F8761CBF
:10514000A642F9D30D2002F02EF80A2002F02BF827
:105150000BB0F0BD7C7E00205B25643A25303258D0
:105160002D253032582D253032582D253032582DEE
:10517000253032582D253032585D00000149085C39
:1051800070470000508102000649095C4FF0A040C2
:10519000D0F81005C84010F0010000D0012080F0C8
:1051A000010070475081020007490B5C4FF0A0419D
:1051B000D1F804250120984020EA0203C1F80835FF
:1051C0001040C1F80C0570474C8102000249085C90
:1051D000012101F02EBE00004C8102000249085C52
:1051E000002101F026BE00004C8102000649095C46
:1051F0004FF0A040D0F80405C84010F0010000D0E6
:10520000012080F0010070474C8102007CB5002431
:10521000084E25460122305D009500231146019578
:1052200001F09CFD641C042CF4D3BDE87C4000F02C
:1052300003B800004C81020010B500242046FFF79F
:10524000C5FF641C042CF9D310BD10B50024204602
:10525000FFF7C4FF641C042CF9D310BD10B502463F
:10526000064B4FF0FF3000215C5C944201D10846B0
:1052700010BD491C0429F7D310BD00005081020065
:1052800070B50C4E0C004FF0000530600BD00120C3
:1052900000F06AF808B1022004E0002000F064F891
:1052A00000B10B202070706810B9FFF740F9054677
:1052B000284670BDE077002010B5002000F0CCF942
:1052C00008B1062806D1012000F0C6F908B1062869
:1052D00000D1002010BD00002DE9F0470D468146A9
:1052E000FFF7BCFF0446042836D2DFF874801B4861
:1052F0001C4EA8F10C0725B3012D0ED0022D2BD189
:1053000004EB440030444578002D25D0B9680029CD
:1053100022D02846BDE8F047084704EB4401755CFD
:105320000E44717849B10E4A4FF40041093A806841
:10533000FFF774FA08B987F80390B17808F80410F9
:10534000E2E78068FFF7AEFA04EB4401314418F855
:1053500004008D78A842D7D0BDE8F08754810200C0
:10536000F47700209C7F0020FFF70EBF70B5042863
:1053700006D00A2819D1BDE87040002001F0C0BD58
:105380000A4D00244FF6FF76C4EBC40005EB800005
:105390004088B04206D0132176DF082802D008B139
:1053A000FFF746F9641C082CEED370BD7C7E00200C
:1053B00070B50023042810D20D4D00EB4004012AE3
:1053C00002D101290CD00022094E00EB40003044EC
:1053D00061B1012906D0022906D00723184670BD05
:1053E0000E30C2B22A55F9E74270F7E78270F5E74E
:1053F0009C7F0020044A014600201279D20702D087
:10540000084600F04DB87047E877002070B50646B2
:105410001E480024C0E90161B00720D50025012203
:1054200011462846FFF7C4FF6D1C0446042D02D226
:10543000002CF4D013E094B940F2666204211448C1
:10544000FFF7A6F804000AD1FFF790F8040006D190
:105450000F48104A0021001FFFF7A4F90446F00787
:1054600001D0FFF7D3FE74B909480B4A00210C386C
:10547000FFF798F9040006D10548084A01210838C9
:10548000FFF790F90446204670BD0000E877002041
:105490006081020069560200D96102006545020080
:1054A0002DE9F05F6A4C054600266078B24618B1D7
:1054B00084F801A000F078FE664F4FF4617940F661
:1054C000CD4B4FF00108182D62D2DFE805F0AB0C90
:1054D0000C31404D62676B736B73BD7C7C7C7C7C54
:1054E000ABAEB1B4BDBD0020FFF780FE00284FF089
:1054F000000008D0FFF76AFE022D02D14FF4E160F0
:1055000008E0484606E0FFF769FE022D01D1C820F9
:1055100000E06420410CC0034FF4FA72801841F19E
:105520000001257052000023FDF7D4FE01462AE059
:105530000020FFF75BFE00284FF0000004D0FFF7CB
:1055400045FE4FF44870E5E7FFF748FEDFE700202F
:10555000FFF74CFE00284FF0000002D0FFF736FEA8
:10556000CFE7FFF73BFED4E70020FFF73FFE002820
:105570004FF0000002D0FFF729FE01E0FFF72EFEFA
:10558000257041F69A1100223868FFF747F9064660
:1055900045E00020FFF708FE257008E0002050E0FD
:1055A00025703CE084F801800120FFF7FDFD00221A
:1055B0005946E9E784F801800120FFF7F5FD002254
:1055C0004FF48041E0E77868FFF76CF90646D5F1C3
:1055D000110000D02EB10220FFF7F8FD84F802A0E0
:1055E0001DE0012816D980B2C8214843C117C9035C
:1055F00041EA5041C0034FF4FA72801841F10001B2
:1056000052000023FDF766FE014600227868FFF78E
:1056100005F906460220FFF7E1FD84F802803046D6
:10562000BDE8F09F00F0C0FDBAE700F0BDFDB5E7B2
:1056300000F0BAFD04E000F0B7FD0020FFF7CEFD5A
:105640000120FFF7CBFDABE7FFF7FFFDA8E7000068
:10565000E87700205481020010B5FFF78FFD032189
:1056600001F0C5FB002010BD00780221FFF734BE19
:1056700005494FF0FF32082841F8202002D30844A2
:1056800080F8482070470000AC830020F0B54FF050
:10569000FF3512B10023082601E008230C260C4C2C
:1056A00005E000BF54F823707F1C04D05B1CB3429C
:1056B000F8D32846F0BD26185DB286F8305044F87D
:1056C0002310002AF5D1E11881F84800F1E7000025
:1056D000AC8300200249084490F930007047000074
:1056E000AC83002008B5024690F8C6020B4600EBDA
:1056F0008001C1EB801002EB400092F8C52242B15C
:10570000521ED2B202EBC20100EB4102518A491C87
:1057100000E0C188ADF800100089ADF802006946CC
:10572000184696DF08BD000070B5084C050009D08A
:1057300010342168002907D008682060496828468D
:105740008847F6E70834F4E770BD0000988300202E
:105750002DE9F05F26484168F1B3DFF898B00E6894
:105760008146DBF8004087688078E11B21F07F45A7
:10577000ED1CB0B9DFF880804FF48030C8F84403E6
:10578000C8F804031120FEF733FA1120FEF73BFAA4
:105790004FF0010AC8F800A02F2000F051FF89F84F
:1057A00002A0B54200D23546124BE8193C3320F036
:1057B0007F401860DBF800105A46091B21F07F413A
:1057C000001B20F07F40C91C81420FD9106818606F
:1057D0002F2000F035FF00E004E0BDE8F05F11206D
:1057E000FEF71CBABDE8F05F01F090BFBDE8F09F86
:1057F0003078002004150140001001404188044A1F
:10580000C1EBC10102EB810201461046FFF7ECBB80
:105810007C7E00202DE9F843054690F8C6020F462D
:1058200000EB8001C1EB801005EB400695F8C54206
:10583000914604EBC40006EB40013279601C0A314A
:10584000904226D16B460022284600F005FC18B392
:1058500010E0401EA04201D1002004E004EBC4008F
:1058600006EB40001C30804602466B46284600F09E
:10587000F3FB30B1002038706946484697DFBDE839
:10588000F88395F8C5024146401C641C85F8C502A2
:10589000E4B23079A042DCD8012038700020EEE775
:1058A0002DE9F04100260125144C22E060682269B0
:1058B00000EBC607387805FA00F1114217D08A4389
:1058C000226101F00DF802463878E36805FA00F12C
:1058D000194002FA00F3994209D17978012901D0DF
:1058E000012100E0002151407A6802B19047761C06
:1058F000F6B220788642D9D3BDE8F0810C7800203A
:105900002DE9F047894690F8C612904601EB8102D6
:10591000C2EB811100EB4107384601F0B1FE0600F1
:105920002FD0194CA06806282BD2184D762205EBF3
:10593000C0103946A0F80280001DFDF7FCFC0027CE
:10594000B9F1000F04D0A06805EBC010077004E0A7
:10595000A168022005EBC1110870A06805EBC01119
:10596000401CCE67A060E16888420AD1002604E0AE
:1059700005EBC610C16F8847761CE0688642F7D3F6
:10598000A760BDE8F0870000FC7700209880002029
:1059900070B50E4690F8C612154601EB8102C2EBB7
:1059A0008111A0B000EB410001F06AFE040009D0B3
:1059B0007C2205496846FDF7BEFCADF802506846FA
:1059C0000196A04720B070BD8081020070B50E46E0
:1059D00004464FF43371FDF7C7FC11480025A4F8C5
:1059E000CA62856084F8C9520E4884F8C65284F8A9
:1059F000C5520068206022460121304694DF012113
:105A0000112806D0002809D184F8C71284F8C8529A
:105A100003E084F8C71284F8C812002070BD0000AB
:105A2000FC770020808000200E4910B50A784C7861
:105A30000023A24212D0521CD2B20A70022A00D114
:105A40000B70084A0B780C3252F8232002608868E9
:105A5000104420F07F408860012010BD03600020CA
:105A600010BD000030780020826883881A400368E7
:105A70009A5C0A708168491C81607047C26883889B
:105A80001A4003689954C168491CC160704710B539
:105A90000446C0B2FEF78AFF204610BD0888A0F574
:105AA0002062773A08D188884988044AC1EBC1014D
:105AB00002EB8101C01E0883704700007C7E00203D
:105AC0002DE9F041124E07460125BD403068FEF732
:105AD000E9FE00280DD10F4C2069284207D1384635
:105AE00000F0FEFE0028E06805D0284304E0A8434B
:105AF0002061BDE8F081A843E0602069284320616F
:105B0000A1683068BDE8F0410022FEF787BE0000C2
:105B1000408202000C78002070B5124C90B005460F
:105B2000002601B926700D2D0AD00A2D08D00D4887
:105B3000FDF725FCC0B225542044467010B070BD5E
:105B400020780028FAD040216846FDF70DFC10238C
:105B50006A4605A10348FEF731F8694600F006F8E9
:105B60002670EBE72F7C0020200900002DE9F0478C
:105B700086B00C46061E6FDDB0A12068FDF706FC5E
:105B80004FF0A047002859D0AFA12068FDF7FEFBD9
:105B90000125002861D0AFA12068FDF7F7FB0028A0
:105BA00067D0AFA12068FDF7F1FB002876D0B0A147
:105BB0002068FDF7EBFB002700286DD0B1A120681D
:105BC000FDF7E4FB002868D0B2A12068FDF7DEFBFA
:105BD000002876D0B2A12068FDF7D8FB4FF0FF3A3D
:105BE00000286FD0B1A12068FDF7D0FB00286AD053
:105BF000B0A12068FDF7CAFB002873D0AFA12068D0
:105C0000FDF7C4FB00286ED0AFA12068FDF7BEFBF6
:105C1000002869D0AEA12068FDF7B8FB002837D175
:105C200000F0B8F9514600203BDFB12100203ADFF7
:105C3000022006B0BDE8F04701F062B9012E27DD71
:105C40006A46A5A16068FDF7F5FB0098D7F8101526
:105C5000C14001F00102A7E01AE0012E18DD6A46FA
:105C60009DA16068FDF7E6FB00988540C7F80855E0
:105C700009E0012E0CDD6A4697A16068FDF7DAFBAA
:105C8000009885401AE095A0D4F80010FEF7B0F90E
:105C900006B0BDE8F08701E016E026E0012EF7DD52
:105CA0006A468DA16068FDF7C5FB0099D7F8040529
:105CB0008D4025EA0001C7F808150540C7F80C55C6
:105CC000E1E728E03FE087E0012EE1DD02AA82A1C2
:105CD0006068FDF7AFFB0023012202980097114690
:105CE000019715E085E087E0A6E0022ED0DD02AA4C
:105CF00079A16068FDF79EFB03AA77A1A068FDF774
:105D000099FBDDE90201CBB2002200971146019711
:105D100001F012F8B7E7022E03DDA06801F050FA97
:105D200000E00020012E05DD62680146104601F00A
:105D300081FA00E00020216806B00246BDE8F04785
:105D400068A0FEF755B9DFF8A8814FF6FF790397F1
:105D5000012E21DD03AA67A16068FDF76BFB0398A4
:105D6000002819DA00234A4603970398C0EBC001C4
:105D700008EB81014988914201D1002101E005FA37
:105D800000F1401C0B4403900828EEDB52465AA059
:105D90002168FEF72DF97BE70398C0EBC00008EB04
:105DA000800042884A4502D14EA0216841E056A0B9
:105DB0002168FEF71DF90398C0EBC00008EB8000D6
:105DC000017D837D427D8DE80E00C37C827C417C19
:105DD00050A0FEF70DF95BE75648817811B9857040
:105DE00001F0E8FC216806B03CA0BDE8F047FEF7F2
:105DF000FFB800F0CFF8F5E703A86DDF216808B120
:105E00004DA043E74FA0FEF7F3F89DF810009DF872
:105E100012209DF811108DE807009DF80F309DF8B5
:105E20000E209DF80D1049A0FEF7E2F84FA255A1F3
:105E300055A0FEF7DDF82BE70320FAE6236770692B
:105E40006F5F726561640000236770696F5F7365DF
:105E500074000000236770696F5F636C6561720096
:105E6000236770696F5F746F67676C65000000007F
:105E7000236770696F5F6366675F6F7574707574B1
:105E800000000000236770696F5F6366675F696E7B
:105E90007075740023626C655F73656E640000004A
:105EA00023626C655F636F6E6E000000236F706528
:105EB0006E00000023636C6F7365000023676574D8
:105EC000696E666F000000002372657365740000E0
:105ED0002364667500000000256400002573206FB0
:105EE0006B0D0A002573206F6B2025640D0A0000DE
:105EF0007C7E0020256900002573206F6B202564BF
:105F00002025640D0A0000002573206F6B20256496
:105F100020000000253032582D253032582D2530F4
:105F200032582D253032582D253032582D2530321B
:105F3000580D0A00107500202573206661696C0DEC
:105F40000A0000002573206F6B20000025303258B6
:105F50002D253032582D253032582D253032582DF0
:105F6000253032582D2530325800000031363A3471
:105F7000393A3236204F637420323720323031388C
:105F800000000000313000002025732025730D0A29
:105F90000000000070B510490020887001F00AFC74
:105FA0000020FFF727FA08B1FEF742FB0B4D002453
:105FB0004FF6FF76C4EBC40005EB80004088B0428A
:105FC00006D0132176DF082802D008B1FEF730FB97
:105FD000641C082CEED370BD107500207C7E002060
:105FE00070B50E460446007918494FF4A27501EBCE
:105FF0004010017F2068A1B14FF4887101F0CDF805
:106000004FF49071206801F0C8F84FF49271206845
:1060100001F0C3F82946206801F0BFF80C49206858
:1060200009E04FF48E7101F0A7F82946206801F0CD
:10603000A3F808492068C0F80413206800F09EFB0C
:106040003146BDE8704000F07DBB000004840020B4
:10605000100302008000020010B509892AB1D0881F
:10606000491C814218D1002010BD90F8C62202EBD5
:106070008204C4EB821200EB420212899142F2D0F8
:10608000491C198090F8C61201EB8102C2EB811104
:1060900000EB4100008902E01980D088401E588042
:1060A000012010BD2DE9F8430E468146002501F17F
:1060B000100459E06119675D487802280AD0032866
:1060C00008D004281ED005281CD0062838D0072860
:1060D00036D046E04FF0000810E000BF05EB480066
:1060E000011902206A46891C63DF28B9BDF8001037
:1060F000B9F80000814255D008F10108B8EB570FFC
:10610000ECD32EE04FF0000816E000BF05EB88004E
:10611000011904206A46891C63DF58B9BDF80010D4
:10612000B9F80000814205D19DF8021099F80200EB
:10613000814237D008F10108B8EB970FE6D310E0A1
:1061400010206A46891C63DF58B9BDF80010B9F801
:106150000000814205D19DF8021099F802008142A9
:1061600020D0E819401C85B2F27BB5EBD20FA1D349
:10617000D0B20821B1EBD00F11D300200CE02318CE
:10618000215C5D78012D04D1022902D19B78062B78
:1061900008D00844401C80B2B0EBD20FEFD30020EF
:1061A000BDE8F8830120FBE70A4810B5807860B1AC
:1061B000002401E0022C06D02046FFF707F8641CFB
:1061C000042CF7D310BD0324F6E7BDE81040FFF719
:1061D00033B80000E877002003480179C90702D0EE
:1061E0000078FFF75DB97047E87700200649012085
:1061F000086006480168C1F300410029FAD104494A
:1062000000208870704700000C0000401804004017
:1062100098830020F721018017214180002101711E
:106220004171FB2181711B21C17170472DE9F0473C
:10623000394E002780463D46DFF8E090D6F804A0AE
:1062400057E003D00446D0F81C8035E099F80020D0
:1062500002EB4201521CD2B289F8002009EBC101C5
:1062600099F80230091D9A4201D189F80050486816
:106270000A780446012A12D0022A02D0032A3BD10E
:1062800008E001F077FC00B10127257434E00574C3
:10629000C06900E070680028F9D170602CE0207CB3
:1062A00050BB88686060C868A0600869E0604869A1
:1062B000A061F07800B165606268B168184B501A4F
:1062C00020F07F40984202D2A168084406E0881A74
:1062D000A16820F07F40814202D9081A206000E0C6
:1062E000256065600120A56020742046E56101F00D
:1062F00023FCB8F10000A4D199F8001099F801002E
:106300008142A3D117B97168514502D00120BDE87F
:10631000F0870020FBE70000307800204484002054
:10632000FFFF7F008AB0FEF74FFA08B1FEF780F951
:106330003F4A00213F48FEF735FA08B1FEF778F9E9
:1063400000F0A8FD08B1FEF773F918223A49684633
:10635000FCF7F1FF3948069039494FF48070CDE9D8
:10636000070109900723374A06A96846FEF7C4FAD1
:1063700008B1FEF75DF934490120FFF747F808B18D
:10638000FEF756F969460020FEF77AFF08B1FEF7DE
:106390004FF900F059FE08B1FEF74AF900256946A9
:1063A0000120009500F0D6FD08B1FEF741F96846DE
:1063B00000F01FFE08B1FEF73BF92449244800F025
:1063C00065F808B1FEF734F9F721214800F052F8DA
:1063D00008B1FEF72DF91F48FEF7D0FB08B1FEF714
:1063E00027F91B4E1C4800244C360090C4EBC40017
:1063F00006EB80006946FEF795FD08B1FEF718F937
:10640000641C082CF2D3154845708570FEF78CFB90
:10641000134A0A210820FEF7AFF908B1FEF708F980
:1064200001F0C8F9FEF788F900F048FDFAE700002E
:10643000B9760200208002003481020088780020B2
:1064400088790020CD7C02006D5302009D5A020025
:10645000307E0020FD570200C14E02001075002062
:10646000887A0020C20800F007030120895C984068
:106470000840704728B1A1F11702E12A03D3072091
:1064800070470E20704741800020704770B50400AF
:1064900010D0F720A16420806080FB2020710025AF
:1064A00004EBC500801DFFF7B5FE6D1C082DF7D36A
:1064B000002070BD0E2070BD2DE9F04385888FB09F
:1064C0000C46082D7ED20188DFF850910027242940
:1064D00062D006DC102909D011290CD0232909D15A
:1064E00079E03A290DD0552904D12CE00146204607
:1064F00000F090FF82E004EBC500801DFFF78AFEEC
:106500007CE0294604EBC106408936F8062F82421A
:1065100000D810467080172800D217207080A06C19
:1065200070B1707960B1D9E90020CDE90020ADF8F3
:1065300002107088ADF80400A26C204669469047AE
:10654000777137715AE02E46C08804EBC60808F10F
:106550000608172800D21720B8F80010814200D88A
:106560000846A8F8020088F80470B8F80010304611
:10657000ADDF98F8050030BBA06C20B3D9E902105C
:10658000CDE90010ADF80260B8F80200ADF80400E3
:1065900020466946A26C1CE0011D34226846FCF7C7
:1065A000CAFEBDF80000BDF8042004EBC0014A7328
:1065B000A26C42B1D9E90432CDE90D32ADF8360012
:1065C000487B01E027E019E08DF83800A26C2046F6
:1065D0000DA9904712E00097019730F8041F04EBD3
:1065E000C1020179127B8A4200D21146ADF8001037
:1065F000ADF8021000880022694690DF04EBC50464
:10660000A07A002807D0E18828469EDF002802D122
:10661000A7720120E0720FB0BDE8F083FC81020098
:1066200000F180400068002800D00120704708B5C4
:1066300000F18040002101600068009008BD00006A
:1066400000283ED01F49204A096800BF00BF00BF94
:1066500000BF00BF00BF00BF00BF91422FD000BFEE
:1066600000BF00BF00BF00BF00BF00BF00BF00BF32
:1066700000BF00BF00BF00BF00BF00BF00BF00BF22
:1066800000BF00BF00BF00BF00BF00BF00BF00BF12
:1066900000BF00BF00BF00BF00BF00BF00BF00BF02
:1066A00000BF00BF00BF00BF00BF00BF00BF00BFF2
:1066B00000BF00BF00BF00BF00BF00BF00BF013868
:1066C000C3D17047F87700200024F40070B5104C57
:1066D0000025207808B1852517E00021A1606160C0
:1066E0002161E1604FF0E020D0F80001012610F0B8
:1066F000010F03D10721002000F024F800F0ECFC8A
:1067000010B90449022008602670284670BD0000B8
:10671000988300201805004008B500208DF800007F
:106720006846FEF761F90648C168491EC160C06845
:1067300008B9FFF75BFD9DF80000FEF779F908BD89
:10674000988300204907090E002806DA00F00F029E
:1067500002F1E02282F8141D03E000F1E02282F849
:10676000001400F01F02012191404009800000F157
:10677000E020C0F88012C0F800117047000B40B252
:10678000704700002DE9F0418846054600F060FFA3
:10679000234E002828461AD0FEF79CFF304490F87C
:1067A00048008009032802D001280ED007E04FF0EE
:1067B000A040D0F81005E84010F0010F05D00321EB
:1067C0002846BDE8F04100F023BB0221F8E700F0C5
:1067D0004BFF002822D02846FEF77CFF04464FF4EA
:1067E000807000EB84000F4F81B207EB8400D0F87B
:1067F000102542F00102C0F81025084600F038FBD1
:10680000B8F1000F0AD02846FEF764FF56F82000C2
:10681000002803D00120A040C7F80403BDE8F081A0
:10682000AC830020006000402DE9FC41DFF8A4802B
:10683000044608EB0400002790F930001346C01707
:106840000E46401C01D0082741E0F2781946204648
:10685000FEF71CFF0546401C38D0B07850B14FF011
:10686000A04000EB8400D0F8001721F00201C0F82E
:10687000001707E000217378204600910A46019135
:1068800000F07EFAF078C0B11348317800EB850053
:10689000D0F81025114B1A40C0F810254FF4F852CB
:1068A0004FF4403302EA042203EA01410A43D0F8DC
:1068B00010150A43C0F8102509E008EB05003278EE
:1068C00010F8481F41EA8211017000E004273846A1
:1068D000BDE8FC81AC83002000600040FFE0FCFFCD
:1068E0004FF0A041D1F81015C14011F0010000D0C7
:1068F0000120704770B5144D95F8540008B1082078
:1069000070BD0020411E2A18401CC0B282F8301011
:106910002028F8D300242046FEF7AAFE641CE4B227
:106920000C2CF8D307210620FFF70CFF4FF4BE70A4
:1069300000F09EFA05494FF00040C1F80403012021
:1069400085F85400002070BDAC830020006000403A
:10695000034890F85400002800D001207047000040
:10696000AC8300200121B1EB507F01D101207047A1
:10697000002070472DE9F04105460079164F9046FA
:1069800007EB40140E46E07E10B10820BDE8F08110
:10699000707F20772846FEF765F85FEA08006060A0
:1069A0003169216003D0317F2846FFF719FB287930
:1069B00007EB4010007F0028286801D0082100E084
:1069C0000421C0F800150020E0752076A075012193
:1069D000E176A076DAE70000048400202DE9F0419A
:1069E00005460079284E904606EB40140F46207F5E
:1069F00018B10846FFF7B6FF80B1626800234FF474
:106A000004704FF4017172B12A7906EB4212127FC1
:106A1000002A2A6805D0C2F8080304E01020BDE867
:106A2000F081C2F80813E27DB2B1227E7AB16268C9
:106A30005AB12A7906EB4212127F1AB12968C1F8BD
:106A4000040302E02868C0F804131120E7E7276177
:106A5000012384F8188005E084F817800020E7609F
:106A6000607620762879424606EB40103946007F52
:106A70000028284603D0BDE8F04100F073B8BDE817
:106A8000F04100F01BB800000484002070B50446FB
:106A90000079094D05EB4010017F00290AD1807E65
:106AA000002807D1204600F074FE2179012005EB73
:106AB0004111887670BD0000048400202DE9F05F4C
:106AC00004460079264901EB4015A87E184302D1FF
:106AD000204600F05EFE68680028206806D04FF46B
:106AE0000171C0F804130020BDE8F09F4FF4A276B6
:106AF000314600F041FBB1464FF4927A4FF4847B6B
:106B00005146206800F033FB06465946206800F0E5
:106B10002EFB80464946206800F029FB074648EADC
:106B200007003043ECD056EA070007D12946206819
:106B300000F00AFEE87D697E8842E1D80020E87511
:106B40000EB10320D0E70FB10F20CDE7A97E0120C1
:106B50000029216801D00860C5E74860C3E700004C
:106B6000048400202DE9F05F894604464FF48875BF
:106B70009A46904600260068294600F00EFB4FF426
:106B8000A2773946206800F008FB2068C0F83495E9
:106B9000C0F838852068BAF1000F14D0D0F8001280
:106BA00041F02001C0F800122179DFF8648008EB81
:106BB0004110406850B120684FF40471C0F80413CC
:106BC0003046BDE8F09F01210160EDE7AA46B946D5
:106BD0004FF4927B5146206800F0DAFA07464946A6
:106BE000206800F0D5FA05465946206800F0D0FA32
:106BF000014647EA05000843ECD02379002208EB60
:106C00004310C27501B10326002DD9D00F26D7E756
:106C1000048400202DE9F047054600793F4E904658
:106C200006EB40140F46207F18B10846FFF79AFE86
:106C300030B1284600F074F820B11120BDE8F0878B
:106C40001020FBE784F81680A7600027A782287928
:106C50004FF0010806EB40143E46207F00282868CC
:106C600025D04FF49079494600F097FA4FF4AC7A6A
:106C70005146286800F091FA2868A17DA268C0F802
:106C80004425C0F848152868C0F808806068F0B945
:106C90004946286800F07CFA80465146286800F092
:106CA00077FA58EA0001F3D058BBA7750FE04FF40C
:106CB0008E7A514600F060FA2868C0F808802146B4
:106CC000286800F0E5FF61684FF4807089B13046B4
:106CD000B4E75146286800F04AFA10B9A08A48453E
:106CE000F7D1A08A484505D02146286800F0D0FF9A
:106CF00000E08146A08AA17D8842EAD3A08A484567
:106D000001D10F26D1E75146286800F030FA00285B
:106D1000F9D02868C0F80C80C7E700000484002080
:106D20000079044901EB4010807D002800D001204B
:106D3000704700000484002070B541EA4201DDE99B
:106D400004564FF0A04441EA830141EA052104EBD7
:106D5000800041EA0641C0F8001770BD70B541EAF5
:106D60004201DDE904564FF0A04441EA830141EAC3
:106D7000052104EB800041EA0641C0F8001770BD10
:106D800070B541EA4201DDE904564FF0A04441EA02
:106D9000830141EA052104EB800041EA0641C0F885
:106DA000001770BD70B541EA4201DDE904564FF0AD
:106DB000A04441EA830141EA052104EB800041EA55
:106DC0000641C0F8001770BD1CB500220B460092AA
:106DD00011460192FFF7E6FF1CBD1CB50021009192
:106DE0000B46012201911146FFF7DCFF1CBD4FF05D
:106DF000A04202EB8000D0F8002722F44032C0F815
:106E00000027D0F8002742EA0141C0F80017704778
:106E10004FF0A04202EB8000D0F8002722F440326D
:106E2000C0F80027D0F8002742EA0141C0F8001757
:106E3000704701224FF0A043824011B1C3F80825EA
:106E40007047C3F80C25704718B5084B6C460144D1
:106E50001B68009306E000BF54F82030D3F81035CB
:106E6000401C08C28142F7D818BD00003C820200D5
:106E7000034908B50844002101600068009008BD7E
:106E80000060004002494058012800D000207047AF
:106E900000600040064910B500204870091D0860D8
:106EA000BFF35F8F0349044800F03AF9002010BD9A
:106EB00054780020808202007C85002008B50020E4
:106EC0008DF800006846FDF78FFDF1EE100A20F006
:106ED0009F00E1EE100ABFF35F8F08494020C1F820
:106EE00080029DF80000FDF7A3FD00F0F5F808B161
:106EF0003EDF08BD20BF40BF20BF08BD04E000E06A
:106F0000F8B504460D4801216A46FCF783F9BFF342
:106F10005F8F002500280AD10121084E042C09D0DA
:106F2000301F427822B100BFBFF35F8F3560F8BDDC
:106F30000470417000F05AFDF6E700005878002018
:106F400020B1034909680160002070470E20704796
:106F500004830200FEB506460C460846FFF7F0FF24
:106F6000002845D1002500950195082703208DF8BC
:106F70000060ADF8040002958DF80270694620208B
:106F8000226869DF00958DF800508DF801700127A7
:106F9000019502958DF8027069464020226869DFEC
:106FA00000958DF80060F720ADF80200019502957C
:106FB00069462320226869DF0095019502958DF8C6
:106FC000007069460120226869DF4FF4B0600090CC
:106FD000019502956946A120226869DF0095019517
:106FE00002958DF800506946A020226869DF0020D4
:106FF000FEBD60DF7047000030B5EBB04FF4CE75DA
:10700000ADF8A8516AA9684661DF30B1052816D0ED
:107010006BB0BDE83040FDF70BBB6C46094967A873
:1070200000F07EF807E000BFD0E90021204690473D
:1070300067A800F08CF869980028E1D0F4E76BB0FD
:1070400030BD00000883020038B5174C207808B125
:10705000082038BD0125A570002000F013FC112880
:1070600020D0002000F026FC104811490068009054
:10707000684610DF0028ECD12570A07060700721F1
:10708000162000F0B3FB08B1FDF7D2FA0721152056
:1070900000F0ACFB08B1FDF7CBFA00F0E5FC0120F5
:1070A00000F008FC002038BD607800209C820200BF
:1070B000014602000EB50749684600F031F805E0C8
:1070C000D0E900108847684600F041F8029800288F
:1070D000F6D10EBDB882020001480078704700006A
:1070E000607800201FB5684648DF30B1052814D00D
:1070F00004B0BDE81040FDF79BBA084901A800F0B4
:107100000FF806E0D0E900210098904701A800F0B0
:107110001EF803980028E6D0F4E71FBD2483020080
:10712000016009684160AFF3008010B5D0E900212B
:107130005368994201D1002104E0D1E90034A3420F
:1071400002D01946816010BD08314160F0E78168C6
:1071500000290BD0026892680A44826041684B683B
:107160009A4203D108314160FFF7DFBF70474058B2
:10717000002800D00120704708B500224250405836
:10718000009008BDD0F80403084000D001207047EB
:107190004058002800D00120704708B50022425016
:1071A0004058009008BD70B505462846FDF7FEFB27
:1071B000040003D0112CF8D0FDF73AFA204670BD38
:1071C000F0B5134D89B0074607244FF6FF7600BF90
:1071D000C4EBC40005EB80004188B14211D0C17CF2
:1071E00090F816C0437D027D8DE80E10837C427CB2
:1071F00008A104A8FCF70CFF394604A8FCF704F921
:1072000018B1641E2404240CE2D109B02046F0BD5C
:107210007C7E0020253032582D253032582D2530E7
:1072200032582D253032582D253032582D25303208
:10723000580000002DE9F04107240025134A144F9F
:1072400009E0965DD35C06EB03137B556D1CADB274
:10725000F72D05D2801C037813B14678002EF0D1AB
:107260008DB1C1EBC1000B4901EB800630462A46C7
:107270000749FDF7F9FE0446082804D0112CF5D083
:1072800008B1FDF7D5F92046BDE8F0813480020051
:10729000387B00207C7E00207FB5041D18300190D3
:1072A000E07C251DC008ADF8000002AA694609204F
:1072B000FDF726F930B102AA69460820FDF720F94A
:1072C00000281AD10D48FCF75AF8002815D0BDF84F
:1072D00008200A480399FCF767F800280DD10748F1
:1072E000211D001DFEF7DEFE002806D0034A012303
:1072F0001432A2F1080128468CDF7FBD18800200FD
:107300002DE9F84F05460C460888B5F8CA128842A0
:1073100059D195F8C602DFF8F8A000EB8001C1EB67
:10732000801005EB400160884FF003094FF0000822
:10733000F0BBE6880879A21DF3B250FA86F6062E55
:1073400001D8034400E006230B7100261CE000BFB7
:1073500000EBC00306EB860702EB470701EB430394
:10736000D7F802C0C3F80AC0D7F806C0C3F80EC0E9
:107370007F895F82A3F81480A3F81680A3F8188091
:10738000401CA3F81A80761C0B798342E0D895F84C
:10739000C62200EBC00002EB8203C3EB821205EBB6
:1073A000420231F81000128990420ED2087900E0B2
:1073B0000BE0062809D085F8C50221882846FEF78B
:1073C00091F901000AD1BDE8F88F85F8C5822288BD
:1073D00069462846FEF71EFA01000BD085F8C782E1
:1073E00022882846FEF7D4FA8AF800902188AAF865
:1073F0000210E8E79DF800000028E4D0228801216F
:107400002846FEF77DFA2188284600F0E3F8DAE7FF
:10741000988000207CB58E88027900EBC605AC1DF3
:107420002A73C97B012902D0022904D101E0008816
:1074300000E04088208021886088814209D9304658
:107440009EDF012110B1112802D002E0617100E03D
:107450002171A079E17988420CD900210091019134
:10746000297BADF80010297BADF8021030460022D0
:10747000694690DF7CBD0000F8B505460C460888DB
:10748000B5F8CA1288425DD195F8C602A61D00EB78
:107490008001C1EB801005EB400395F8C5026188BF
:1074A00000EBC00003EB40000A3039B329E000BF15
:1074B00001EB410206EB42029788B7F5245F0CD03E
:1074C0006FF4245C17EB0C070AD0012F02D0072FB2
:1074D0000BD108E05288428107E05288828104E0A3
:1074E0005288C28101E05288028242892AB182898F
:1074F0001AB1C2890AB1028A1AB9491C32888A4271
:10750000D6D800268DF8006095F8C5021979401C80
:10751000884203D101208DF8000018E085F8C502EB
:10752000228869462846FEF775F901000BD085F8D8
:10753000C76222882846FEF72BFA0A480321017009
:1075400021884180F8BD9DF800000028FAD02288EB
:1075500001212846FEF7D4F92188284600F03AF8A0
:10756000F8BD00009880002070B505460C4690F8E4
:10757000C602228800EB8001C1EB801005EB4001C0
:10758000B5F8CA02824222D1608848B1002128465B
:10759000FEF7B6F921882846BDE8704000F01AB819
:1075A000A2680A60E068C1F8060021882846FEF754
:1075B00099F801000BD0002085F8C70222882846E0
:1075C000FEF7E6F90248032101702188418070BD71
:1075D000988000202DE9F041044690F8C9020E463B
:1075E000401C1949C0B284F8C902C9680327174D65
:1075F0004FF0000E884224D284F8C5E294F8C60207
:10760000401CC0B200EB8001C1EB801104EB4102D1
:1076100084F8C602A5F1180101EB80000121006881
:10762000106082F804E0304694DF010007D084F84F
:10763000C7E232462046FEF7ABF92F706E80BDE8F8
:10764000F08184F8C7E2F8E7FC77002098800020FA
:107650000449084490F93000082801DB01207047F4
:1076600000207047AC8300200449084490F93000A2
:10767000082801D20120704700207047AC83002009
:1076800070B50C4B00210A4ADC680DE002EB810565
:107690008678AD78B54206D132F821500688B542D9
:1076A00001D1586870BD491CA142EFD3002070BDC4
:1076B00080800020FC770020124810B5407820B967
:1076C0001048001D90F8C70238B10F48002240F65C
:1076D000CD418068FDF7A2F80CE00B480C308ADF42
:1076E00008B1FCF7A5FFFDF721FA002808D1012019
:1076F000FDF780FE002803D0BDE81040FCF798BFDE
:1077000010BD0000107500201880020070B5012621
:1077100070044FF0E0210025C1F88001084C4010B2
:10772000C4F84803C4F8080366602F20FEF788FFFA
:10773000A660044C2F20A560FEF782FFA57070BDE7
:10774000001001403078002070B50546C87D0C4619
:1077500000284FF4847128460AD0FFF70DFDD5F8B4
:107760001805627EE1688854607E401C607670BDBA
:10777000FFF702FDD5F8180570BD1FB501238DF880
:1077800000308DF808100192D0E900126846904749
:107790001FBD10B5044600684FF49271FFF7ECFC72
:1077A0004FF484712068FFF7E7FC20680121016035
:1077B00010BD000010B58BDF0A4881780A4859B126
:1077C000002240F6CD418068FDF728F8002808D057
:1077D000BDE81040FCF72CBF8068BDE81040FDF705
:1077E00061B810BD107500201880020070B50D46FC
:1077F0000446FCF731FC70B12846FCF73FFC68B149
:107800006807000E002C0CDA04F00F0101F1E021F2
:1078100081F8140D09E042F2010070BD42F202004D
:1078200070BD04F1E02484F80004002070BD000065
:1078300038B50021012558B101280ED003280BD1FD
:1078400007210020FEF77EFFBDE83840FEF764BF49
:107850004FF0E020C0F8805138BD8DF80010684628
:10786000FDF7C2F8064C207808B9FEF72FFFE06854
:10787000401CE060A5709DF80000FDF7D9F838BD08
:10788000988300203EB5044609496846FFF748FC46
:1078900008E000BFD0E900212046904730B168469B
:1078A000FFF755FC02980028F4D13EBD11203EBDE3
:1078B000A08202003EB5044608496846FFF730FC46
:1078C00007E000BFD0E90021204690476846FFF757
:1078D0003EFC02980028F5D13EBD0000AC820200BB
:1078E00070B50028049D18D0002916D0002A14D0A5
:1078F0005FF0000430F814609E420FD10020012395
:10790000A34008E001EB800426680DB11E4300E0AF
:107910009E43401C26609042F4D370BD641C202C12
:10792000E8D370BD70B5054600242146284600F016
:107930000AF808B1204670BD641CA4B2202CF4D310
:107940004FF6FF7070BD01228A40024201D0012033
:107950007047002070472DE9F04192B080464FF00B
:10796000000017460D00009012D000246E46A1B210
:107970003846FFF7E8FF40B1009935F8140006EBF0
:10798000410188800098401C0090641C202CEED39C
:10799000442269464046FBF7CEFC12B0BDE8F081B8
:1079A00070B5002506462C46A1B23046FFF7CBFF46
:1079B00000B16D1C641C202CF6D3284670BD08B5A0
:1079C000009313460122FFF78BFF08BD10B5044654
:1079D0000020FDF70FFD08B1FCF72AFE24B9FDF7E2
:1079E0006BFC08B1FCF724FE012010BD70B5164DEC
:1079F000164C07E0016820788847002822D01248FA
:107A0000FFF7A5FBA8680028F4D1207803280CD044
:107A100002280AD0FFF760FB00B132DF0C490120D9
:107A20000860BFF34F8F20BFFDE7BFF34F8F0948BA
:107A30000168094A01F4E06111430160BFF34F8F0F
:107A400000BFFDE770BD00007C8500205478002059
:107A5000000500400CED00E00400FA05002801D10B
:107A6000FDF762BE7047000010B51620FCF7F4FA6F
:107A700080B10F4890F800044009FCF7FFFA60B1AC
:107A80000C4882684FF480016AB1016841F48001BA
:107A9000016010BD42F2010001E042F20200BDE8C7
:107AA0001040FCF7C5BD4FF0E020C0F8001110BD3C
:107AB00016E000E0508500202DE9F84F1D4C002510
:107AC0006846D4E901A6FDF7AFFF002738B30023CD
:107AD000009A61681CE0D1F800C00846944503D9BB
:107AE000ACEB02020A6015E0A2EB0C0263440760F3
:107AF000D0F80CC0C1698146BCF1000F08D006EB7C
:107B0000030828F07F48C0E9018CC9F81C500546DD
:107B10000029E0D128466160FEF788FB03E0284693
:107B2000FEF784FB10B15046FDF712FEE770BDE88A
:107B3000F88F0000307800200D4B10B5596831B136
:107B400002680C68A24204D8A21A0A60C161586097
:107B500010BD0B4603E00B46C969121B21B10C682E
:107B60009442F8D3A41A0C600260C161D86110BDC0
:107B7000307800202DE9F041144E77683D462C46C0
:107B800003E0844204D02546E469002CF9D11BE0CF
:107B9000D4B1A5420BD1F869706040B90C490120FD
:107BA00088600021B160F0702F20FEF749FD216848
:107BB000E069E86110B102681144016070688742B1
:107BC00002D00120BDE8F0810020FBE730780020E2
:107BD000001001407CB5064600240D468DF800409B
:107BE0006846FCF701FF01A800F0EAF970B10570E2
:107BF000094946609DF8040048709DF80000FCF7B4
:107C000017FF1420FCF70AF820467CBD04249DF8D9
:107C10000000FCF70DFFF7E7448400202DE9F04158
:107C2000194D6C68002C2CD0184800270068A968F2
:107C3000B846401A20F07F462068B0420CD8214652
:107C4000361A0744E469087C20B181F810808869FD
:107C500049698847002CEFD129786878814206D19C
:107C6000401CC0B26870022801D185F80180064826
:107C700069780C3040F82170BDE8F0411420FBF722
:107C8000CDBFBDE8F0810000307800200415014030
:107C900070B50C4605464FF48E71FFF76DFAA18A58
:107CA000A068415CA08A401CA082C5F81C1570BD6C
:107CB0001FB500228DF800208DF808108168019111
:107CC0008275D0E90012684690471FBD38B501782B
:107CD00041B1012901D0022914D14068BDE83840E2
:107CE000FCF7A6BC084C207800280BD12046009059
:107CF000064A04216846FCF7CFFC002802D1207810
:107D0000401C207038BD000010750020F17F02007B
:107D10007CB50178244D81B301290BD002292BD1E8
:107D20008DF80010C068691C01900122C81DFEF783
:107D300055FE2EE0406801781C48FCF79FFC1B4C68
:107D4000012618B18DF80060019006E0A068E16896
:107D5000814205D000208DF8000069686846884798
:107D6000A068E168081AA188884207D80E49012254
:107D7000491CC81DFEF732FE7CBD01E0AE70FBE77A
:107D80000A4809491030FCF75EFC30B103208DF839
:107D90000000696868468847EEE70349012201F15F
:107DA0000800FEF737FFE7E7447800205C850020F5
:107DB0002DE9FF470C4605464FF40071FFF7E2F945
:107DC00001274FF40178002618B34FF49279494601
:107DD0002846FFF7CCF9E0B149462846FFF7CCF931
:107DE000C5F80883A07E00B96F6002208DF80000FE
:107DF000D5F88004C5F880040390E07D8DF8080074
:107E0000E0680190E6752676D4E90012684690474E
:107E100027E004212846FFF7B5F910B34FF4847129
:107E20002846FFF7A4F9E0B121462846FFF78CFC6D
:107E3000E07D617E884214D1207E38B1617EE268A7
:107E4000E0752069E0602676667607E0A07E00B9DE
:107E50006F60C5F80883E675617EE2682046FFF72B
:107E60008CFC4FF48E7841462846FFF780F988B1A4
:107E7000A08AA17D884204D221462846FFF708FF48
:107E800008E041462846FFF777F9A17D11B1204669
:107E9000FFF70EFF4FF4A27841462846FFF767F937
:107EA000002812D041462846FFF766F9A07E00B1AF
:107EB0002F60E07D002808D0E675617EE26804B09E
:107EC0002046BDE8F047FFF758BCBDE8FF872DE925
:107ED000FF410C464FF4927705463946FFF758F9B3
:107EE0000026C0B139462846FFF757F902208DF821
:107EF0000000D5F88004C5F880040390D5F83C054F
:107F00008DF80800E0680190E6752676D4E9001245
:107F10006846904724E04FF4887739462846FFF7B3
:107F200037F9E8B139462846FFF737F9D5F83C0567
:107F3000C1B2E07D884213D1207E60B1E268D5F8FD
:107F4000000220F02000C5F80002207EE0752069C4
:107F5000E060267601E0E675E2682046FFF70DFC5A
:107F60004FF4A27739462846FFF712F968B139462F
:107F70002846FFF712F9E07D38B1E675D5F83C05E3
:107F8000E268C1B22046FFF7F8FB4FF49076314625
:107F90002846FFF7FDF800280FD031462846FFF7A6
:107FA000FCF8A07D002808D0D5F84C0504B0C1B27B
:107FB0002046BDE8F041FFF77BBEBDE8FF81000031
:107FC0000A494A788B78521CD2B2934200D10022DF
:107FD0000B78934201D1002070470270487800EB83
:107FE000400001EBC000001D7047000044840020E9
:107FF00008B550B1042908D100680021017004E0DF
:1080000001219DF80000FDF787FD6846FCF75AFC4A
:108010000028F5D008BD00005146420001000200D2
:10802000687800200000A000500000000600480012
:1080300000009001000000000000000000000000AF
:108040000000000000000000000000000000000030
:108050000000000000000000000000000000000020
:1080600000000000000102030405060708090000E3
:1080700000000000000A0B0C0D0E0F0000000000B5
:1080800000000000000000000000000000000000F0
:1080900000000000000A0B0C0D0E0F000000000095
:1080A00000000000000000000000000000000000D0
:1080B00000000000000000000000000000000000C0
:1080C00000000000000000000000000000000000B0
:1080D00000000000000000000000000000000000A0
:1080E0000000000000000000000000000000000090
:1080F0000000000000000000000000000000000080
:10810000000000000000000000000000000000006F
:10811000000000000000000000000000000000005F
:10812000000000000000000000000000000000004F
:10813000000000000800000006000000070000002A
:10814000050000000100000000E0D7011112131427
:108150000D0E0F105C7F00207C7F0020A87F002088
:108160000D000300D95202000E000300D952020094
:108170000F000300D952020010000300D952020080
:1081800001000000000000000000000000000000EE
:1081900000000000000000000000000000000000DF
:1081A00000000000000000000000000000000000CF
:1081B00000000000000000000000000000000000BF
:1081C00000000000000000000000000000000000AF
:1081D000000000000000000000000000000000009F
:1081E000000000000000000000000000000000008F
:1081F000000000000000000000000000770A0000FE
:1082000000000000770A0000000000007ADA000099
:10821000000000009ECADC240EE5A9E093F3A3B59C
:108220000000406E0101000000000200000000009C
:1082300002010000000000000000000000000050EB
:108240002484002003000000FFFFFFFFFFFFFFFF6B
:10825000FFFFFFFFFFFFFFFF000000000000000026
:108260000000D6010701000000000000000000002F
:1082700090830200948302000000000000000000D0
:1082800068820200808202000400000000000000FA
:1082900000000000000000000000000002000007D5
:1082A0008C8202009C82020008000000C48202004E
:1082B000D482020008000000D4820200E48202009E
:1082C00008000000148402001C840200000000006A
:1082D000000000000484020014840200000000007A
:1082E00000000000948302009C8302009C83020033
:1082F000B4830200B4830200F4830200F48302001A
:10830000FC83020010750020E48202000483020056
:1083100008000000FC83020004840200000000004A
:108320000000000014830200248302000800000003
:10833000DDDDDDDDDCBBBBDDDDDDDDDDDDDDDDDDB2
:1083400098888888888888887777777777888888F2
:10835000855555566666666666666666666888888A
:108360008333333222222222222222222228888D83
:108370001C84020010750020580300000C3A020013
:108380003084020068780020202D00004840020060
:10839000CD790200B54D020000000000B964020072
:1083A000307E0020994B020014750020454D0200DC
:1083B000000000007D4F02007C7E00207D4F020007
:1083C000987E00207D4F0200B47E00207D4F020089
:1083D000D07E00207D4F0200EC7E00207D4F020009
:1083E000087F00207D4F0200247F00207D4F020087
:1083F000407F0020514C0200000000005D7A020026
:1084000000000000F96F020000000000E5700200AB
:1084100000000000317802000000000001FF01FFB1
:1084200001D3031AFFFF045290D003041920004027
:0400000500023201C2
:00000001FF
