:020000040007F3
:1080000058540020698407007184070073840700B6
:10801000758407007784070079840700000000005A
:108020000000000000000000000000005584070070
:108030007D840700000000007F8407008184070022
:108040000198070083840700838407008384070066
:1080500083840700838407008384070083840700E8
:1080600083840700838407008384070083840700D8
:1080700083840700838407008384070083840700C8
:1080800083840700599807008384070083840700CE
:108090007D98070083840700819807008384070088
:1080A0008384070083840700838407008384070098
:1080B00083840700838407000000000000000000A4
:1080C0008384070083840700838407008384070078
:1080D0008384070083840700838407000000000076
:1080E0000000000000000000000000000000000090
:1080F0000000000000000000000000000000000080
:10810000000000000000000000000000000000006F
:10811000000000000000000000000000000000005F
:10812000000000000000000000000000000000004F
:10813000000000000000000000000000000000003F
:10814000000000000000000000000000000000002F
:10815000000000000000000000000000000000001F
:10816000000000000000000000000000000000000F
:1081700000000000000000000000000000000000FF
:1081800000000000000000000000000000000000EF
:1081900000000000000000000000000000000000DF
:1081A00000000000000000000000000000000000CF
:1081B00000000000000000000000000000000000BF
:1081C00000000000000000000000000000000000AF
:1081D000000000000000000000000000000000009F
:1081E000000000000000000000000000000000008F
:1081F000000000000000000000000000000000007F
:10820000DFF80CD000F082F90048004785AC070089
:1082100058540020056885F308884068FF2464B23C
:10822000EFF30585002D07D1EFF31481022291436E
:1082300081F31488A64600472546064621273FBA03
:10824000F0B40024002500260027F0B4F92040B245
:108250000047000030B450E8012F93B2C489234492
:108260008489A34228BF1B1B0489A34202BFBFF31A
:108270002F8F002007E0C3EA020340E80134002CFE
:10828000E9D14FF001000A6030BC704750E8012F7F
:10829000C2EA024240E801210029F7D1704730B418
:1082A00050E8022F1FFAA2F3C488A34202BFBFF313
:1082B0002F8F00200DE0C48923448489A34228BF66
:1082C0001B1BC2EA034340E80234002CE8D14FF004
:1082D00001000A6030BC704750E8022FC2EA224217
:1082E00040E802210029F7D17047034653E8022FE6
:1082F000D988B2EB324F4FF0000017BF92B241EA7B
:10830000014142EA014104E05A68B2EB324F08BF32
:10831000012043E80212002AE8D1704730B4044635
:1083200054E8000F0D4644E80053002BF8D11560C7
:1083300030BC704730B4044654E8000F40EA0105F1
:1083400044E80053002BF7D1156030BC704730B4BF
:10835000044654E8000F00EA010544E80053002BEE
:10836000F7D1156030BC704730B4044654E8000FB4
:1083700080EA010544E80053002BF7D1156030BCBA
:10838000704730B4044654E8000F00EB010544E8A0
:108390000053002BF7D1156030BC704730B4044651
:1083A00054E8000FA0EB010544E80053002BF7D17F
:1083B000156030BC7047000030B4044654E8000F2C
:1083C0000D4644E80053002BF8D1156030BC7047CF
:1083D00030B4044654E8000F40EA010544E8005375
:1083E000002BF7D1156030BC704730B4044654E818
:1083F000000F00EA010544E80053002BF7D1156097
:1084000030BC704730B4044654E8000F80EA0105E0
:1084100044E80053002BF7D1156030BC704730B4EE
:10842000044654E8000F00EB010544E80053002B1C
:10843000F7D1156030BC704730B4044654E8000FE3
:10844000A0EB010544E80053002BF7D1156030BCC8
:10845000704700001EF0040F0CBFEFF30880EFF32D
:10846000098003F0A1BF0000064880470648004786
:10847000FEE7FEE7FEE7FEE7FEE7FEE7FEE7FEE7D4
:10848000FEE7FEE7A198070001820700202A04DB2F
:10849000203A00FA02F1002070479140C2F1200317
:1084A00020FA03F319439040704740EA01039B0709
:1084B00003D009E008C9121F08C0042AFAD203E059
:1084C00011F8013B00F8013B521EF9D27047D2B2BD
:1084D00001E000F8012B491EFBD270470022F6E7AD
:1084E00010B513460A4604461946FFF7F0FF20462A
:1084F00010BD30B504460020034600E05B1C9342EB
:1085000003D2E05CCD5C401BF8D030BD064C074D7B
:1085100006E0E06840F0010394E807009847103453
:10852000AC42F6D3FFF770FE78DD070098DD070058
:108530002DE9F0438BB01446129D15F9046B00969B
:108540001F46804689462B460246214602A800F077
:108550009DFC02A9129A084600F088FC129B02AA10
:108560004146404600F072FC129B02AA214620467A
:1085700000F06CFC2B464A4639463846009600F01F
:1085800085FC129A394602A800F070FC02A92B461D
:1085900042460846009600F079FC02A92B46224686
:1085A0000846009600F072FC2B46424621462046C3
:1085B000009600F06BFC129B22464946484600F0AC
:1085C00045FC2B4602AA41462046009600F05EFC80
:1085D000129B22463946384600F038FC2B464A4664
:1085E00039463846009600F051FC324602A9204632
:1085F00000F013FE0BB0BDE8F083F0B5154689B06E
:108600001C4607460E461A462946684600F02EFCD0
:1086100023466A463946384600F018FC23462A4667
:108620006946684600F012FC23466A4631463046E9
:1086300000F00CFC09B0F0BD8B1802448B4200D155
:10864000704713F8010D02F8010DF7E72DE9F04727
:10865000B3F9024088461E4604F11F012023073467
:1086600091FBF3F708234FFA87F994FBF3F4944254
:1086700028BF14464946054600F060FA22464146A6
:10868000FFF7DAFFB6F90230E4009C421FD9E41A82
:1086900005EB87010022C4F120078D420ED324365A
:1086A0004A462946304600F054FA01280FD04B467E
:1086B00032462846BDE8F04700F002BF51F8040DED
:1086C00020FA04F313430B6000FA07F2E5E7BDE874
:1086D000F0872DE9F04793F9006092B0044689468F
:1086E000104631461546984600F05AFA002840F0E8
:1086F00091804246494602A800F0B8FB434602AAD0
:1087000021460AA800F0A2FB02A90846424600F052
:10871000ADFB43462A464946484600F097FB08F120
:10872000040742462946284600F0A0FB3B462A465D
:1087300021462046009600F0DCFA3B462A462946B0
:108740002846009600F0D5FA3B462A4621462846A0
:10875000009600F09BFB43462A462146204600F047
:1087600075FB3B46224621462846009600F0C1FA9A
:108770003B4600962A462146204600F0BAFA236876
:10878000DB074AD533463A462146204600F0A8F991
:1087900031468246204600F033FD06F18043013B1E
:1087A00054F8230040EACA7044F8230042462146A8
:1087B000284600F05BFB3B460AAA2946284600965D
:1087C00000F064FB3B460AAA29462846009600F0C2
:1087D0005DFB0AA908463B462A46009600F056FB78
:1087E00043460AAA2146204600F030FB02AA3B4637
:1087F00010462146009600F049FB324629462046A5
:1088000000F00BFD4946284600F007FD02A9484646
:1088100000F003FD12B0BDE8F0873146204600F0BD
:10882000EFFCC3E700487047C8DC07002DE9F04FB4
:10883000EDB01F46DDF8D8810590B8F9026098F9CF
:10884000005020231F3696FBF3F676B206F1FF396F
:1088500024AB002443F829406CAB03EB89034CA8FC
:108860008A469346394698F9012043F8804C43F8EC
:10887000604CFFF7E1FE98F9012054A8B918FFF702
:10888000DBFE29464CA800F08BF90746002840F093
:10889000208154A800F084F90390002840F01B8147
:1088A00008F1240332464CA91846029300F051F90E
:1088B000012840F01281324654A9029800F049F98B
:1088C0000128069040F009811CAC0CAF3346029A97
:1088D00054A9204600F026FA039B47F829305A464F
:1088E000514638464346FFF7B1FE39463846029BAB
:1088F0000096224600F099FA0DF5B879029B009691
:1089000022464CA914A800F090FA2A464846059938
:1089100000F083FCAB0009EB030A0793059BA90059
:10892000591808F1440B504600F077FC594634A81A
:1089300000F073FCAB000BEB03013CA800F06DFCF6
:1089400008F10403494634AA20460095049300F038
:108950009DFA53464A463CA934A8CDF80080FFF75B
:10896000E7FD2B46049A2146204600F0DBF922461B
:10897000514648464346FFF740FE039BCDE9083B7E
:10898000059B31463846CDE90A3900F01AFC3146DC
:10899000814614A800F015FC8145B8BF81461FFA36
:1089A00089F909F1FF3B0FFA8BFB5946384600F075
:1089B000B7FD5946071C14A818BF012700F0B0FDE9
:1089C000002814BF022300231F430DF1200A2A466A
:1089D0005AF8277024A8394600F01FFC0DF1B00B9F
:1089E000AB00F918584600F018FC2946204600F064
:1089F000A5F8A9F10209069B23600FFA89F90DF188
:108A0000900AB9F1000F1FDA2B46049A214620463E
:108A100000F088F94346224659465046FFF7EDFDDF
:108A200032465146029800F094F8012804D03346AB
:108A3000029A504600F044FD2A464CA9504600F0E8
:108A40009DF86DB0BDE8F08F43462246D8F8A4707B
:108A500059465046B84749460CA800F061FD4946C2
:108A6000071C14A818BF012700F05AFD002814BFE6
:108A7000022300231F4308AB53F8277027B32A466D
:108A8000394634A800F0C9FB079B3CA8F91800F050
:108A9000C4FB434622463CA934A8FFF7AEFD049B25
:108AA000009534AA514644A800F0F0F95B465246BE
:108AB0003CA934A8CDF80080FFF73AFD434644AA0C
:108AC0002146204600F0C2F909F1FF390FFA89F971
:108AD00097E72046B5E73846B3E70398B1E70000CB
:108AE000C3F10803DB0070B50133002403A500BF08
:108AF0005B1920C940CAAD1920C0184720C940CA17
:108B0000754120C020C940CA754120C020C940CA53
:108B1000754120C020C940CA754120C020C940CA43
:108B2000754120C020C940CA754120C020C940CA33
:108B3000754120C06441204670BD00BF002310B5C0
:108B40001C465AB2914200DC10BD40F8234001336C
:108B5000F7E710B5013A52B2130601D5002010BD57
:108B600050F8224051F822309C4205D802F1FF32E1
:108B7000F2D24FF0FF30F2E70120F0E730B5013AD2
:108B800052B20023140603D5B3FA83F0400930BD76
:108B900050F8224051F822506C402343013AF1E74B
:108BA00010B500231A465CB2A14203DCB2FA82F08F
:108BB000400910BD50F8234001332243F3E72DE96B
:108BC000F04FA5B01D4614ABCDE9023181462946D0
:108BD0001046174600F0F5FAC0EB851004B2634268
:108BE00003F01F034FF0200694FBF6F676B204F074
:108BF0001F0804A858BFC3F100083146FFF79EFFC5
:108C0000B8F1000F30B22DDD04AB002203EB800081
:108C1000C8F1200C13469D4219D82FB27B00019356
:108C200004AB03EB870705F1FF3824AB012603EB08
:108C30008808002C53DA24AB03EB86062A4656F844
:108C4000881C484600F0E9FA25B0BDE8F08F57F8D7
:108C5000236006FA08F10A4340F8232026FA0CF2B2
:108C60000133D8E704AB2A46394603EB800000F015
:108C7000D4FAD2E70FFA82FE5AF8883C53F82EB0A5
:108C800024AB03EB820252F8803CABEB03031B1ACC
:108C90009B4502D034BF012000205CF8882C42F8AC
:108CA0002E300131019B4AB29A42E3DB331A5E4215
:108CB000294604A85E4100F0A3FA24AB03EB850328
:108CC000294653F8802C58F8803C384643EAC27352
:108CD000013C48F8803C24B200F092FAA9E724ABAA
:108CE0000021C6F1010C084603EB860A03EB8C0C4D
:108CF000D8E770B59DF910401E4623460546FFF79C
:108D0000EFFE30B9224629463046FFF722FF012800
:108D100007D02346324629462846BDE8704000F079
:108D2000CFBB70BDF0B50F46A1B006461946384618
:108D300015461C46FFF734FF20B13046FFF7FEFE14
:108D400021B0F0BD22463946684600F066FA294651
:108D500008A800F062FA10A82146FFF7EFFE0123F1
:108D600018A81093FFF7EAFE224608A96846FFF705
:108D7000F0FE28B9224610A9304600F04EFADFE78F
:108D8000009BDA0709D42146684600F039FA2246EA
:108D9000294610A800F0A4FCE6E7089BDB0707D4EF
:108DA000214608A800F02CFA2246294618A8F1E727
:108DB000002823461CDD08AA6946684600F080FBAF
:108DC0002146684600F01CFA224618A910A8FFF7B1
:108DD000C0FE002805DA10A923462A460846FFF7F8
:108DE0007FFE10A9234618AA084600F069FBCEE7CB
:108DF00008A96A46084600F063FB214608A800F06F
:108E0000FFF9224610A918A8FFF7A3FE002805DAEB
:108E100018A923462A460846FFF762FE18A92346EA
:108E200010AA084600F04CFBBEE770B590B00546AE
:108E30009DF950401E466846234600F039F83246F8
:108E400069462846FFF7BBFE10B070BD30B51C4622
:108E500091B0054693F90030684600F029F8D4F83F
:108E6000AC3069462846984711B030BD30B514463D
:108E700091B0054692F90020684600F0DAF9D4F87E
:108E8000AC3069462846984711B030BD70B59DF9A1
:108E900010401E462346054600F012FB38B123461B
:108EA000324629462846BDE87040FFF719BE70BD1E
:108EB0002DE9F04F08B4F8CA04B451F8042BA3FB11
:108EC000028940F8048B4FF0000AE4FB629A4FF0ED
:108ED000000BE5FB62AB4FF0000CE6FB62BC4FF011
:108EE000000EE7FB62CE51F8042B4FF00008E3FBC5
:108EF000628940F8048BE4FB629AE5FB62ABE6FB17
:108F000062BCE7FB62CE51F8042B4FF00008E3FB94
:108F1000628940F8048BE4FB629AE5FB62ABE6FBF6
:108F200062BCE7FB62CE51F8042B4FF00008E3FB74
:108F3000628940F8048BE4FB629AE5FB62ABE6FBD6
:108F400062BCE7FB62CE51F8042B4FF00008E3FB54
:108F5000628940F8048BE4FB629AE5FB62ABE6FBB6
:108F600062BCE7FB62CE40F8049B40F804AB40F8DB
:108F700004BB40F804CB40F804EB0CBC052B00F01C
:108F80001E810C68A0F11400A1F11401A2F11402D9
:108F900052F804EB4FF0000550F8046BE4FB6E56FA
:108FA00052F804EB50F8047BE4FB6E6752F804EBD4
:108FB00050F8048BE4FB6E7852F804EB50F8049BF5
:108FC000E4FB6E8952F804EB50F804ABE4FB6E9AB4
:108FD000A0F1140052F8044B51F804EB4FF0000CD0
:108FE000E4FB6EC540F804CB51F804EBE4FB6E568D
:108FF00040F8045B51F804EBE4FB6E6740F8046B47
:1090000051F804EBE4FB6E7840F8047B51F804EB74
:10901000E4FB6E8940F8048B51F804EBE4FB6E9A94
:10902000A0E80006062B00F0CA800C68A0F118002A
:10903000A1F11801A2F1180252F804EB4FF000055B
:1090400050F8046BE4FB6E5652F804EB50F8047BC6
:10905000E4FB6E6752F804EB50F8048BE4FB6E7887
:1090600052F804EB50F8049BE4FB6E8952F804EBD1
:1090700050F804ABE4FB6E9A52F804EB50F804BBD2
:10908000E4FB6EABA0F1180052F8044B51F804EB6E
:109090004FF0000CE4FB6EC540F804CB51F804EB34
:1090A000E4FB6E5640F8045B51F804EBE4FB6E679A
:1090B00040F8046B51F804EBE4FB6E7840F8047B55
:1090C00051F804EBE4FB6E8940F8048B51F804EB93
:1090D000E4FB6E9A40F8049B51F804EBE4FB6EABA2
:1090E000A0E8000C072B6AD008B40C68A0F11C00A3
:1090F000A1F11C01A2F11C0252F804EB4FF0000593
:1091000050F8046BE4FB6E5652F804EB50F8047B05
:10911000E4FB6E6752F804EB50F8048BE4FB6E78C6
:1091200052F804EB50F8049BE4FB6E8952F804EB10
:1091300050F804ABE4FB6E9A52F804EB50F804BB11
:10914000E4FB6EAB52F804EB50F804CBE4FB6EBCCE
:10915000A0F11C0052F8044B51F804EB4FF000034F
:10916000E4FB6E3540F8043B51F804EBE4FB6E562B
:1091700040F8045B51F804EBE4FB6E6740F8046BC5
:1091800051F804EBE4FB6E7840F8047B51F804EBF3
:10919000E4FB6E8940F8048B51F804EBE4FB6E9A13
:1091A00040F8049B51F804EBE4FB6EAB40F804ABD1
:1091B00051F804EBE4FB6EBCA0E8001808BCBDE865
:1091C000F08F013949B20A06CBB205D4013900EB60
:1091D00081025268002AF6D001335BB273B103F109
:1091E0008042013A50F82220002022B9013B00EBD6
:1091F000431318B2704752080130F6E7184670471B
:1092000000EB81010023884200D3704751F8042D00
:1092100043EA52030B60D307F5E710B500235CB2B5
:10922000A24200DC10BD51F8234040F82340013336
:10923000F5E72DE9F04FB1E8005E06B4AAFB09128C
:109240004FF00003EBFB69234FF00004ECFB6934A3
:109250004FF00005EEFB69454FF00006EBFB6A633B
:10926000ECFB6A344918524176415B41A9FB09780D
:109270004FF0000949F1000918EB0108A0E880014E
:10928000AAFB0A78574158EB0608A0E88001EEFBDC
:109290006A454FF0000A4AF1000A4FF00001ECFB6A
:1092A0006B14EEFB6B454FF00002EEFB6C255FEAA2
:1092B00059094941644152416D4149F10009EBFBB3
:1092C0006B3A1AEB010AA0E80804ACFB0C6A664191
:1092D0005AEB020AA0E84004AEFB0E6A6E415AEB5C
:1092E000090AA0E8400406BC052A00F0E680A0F1C7
:1092F0001400A1F11401B1E8E043A5FB0E344FF0D6
:109300000005E6FB6E454FF00006E7FB6E564FF09A
:109310000007E8FB6E674FF00008E9FB6E784FF03E
:109320000009DB1864416D4176417F4158EB080824
:1093300059F1000950F804CB13EB0C0350F804CB9F
:1093400054EB0C0450F804CB55EB0C0550F804CB4F
:1093500056EB0C0650F804CB57EB0C0758F10008FD
:1093600059F10009A0F11400EEFB0E89A0E8F80302
:10937000062A00F0A280A0F11800A1F11801B1E8BE
:10938000E047A5FB0E344FF00005E6FB6E454FF0BD
:109390000006E7FB6E564FF00007E8FB6E674FF0E4
:1093A0000008E9FB6E784FF00009EAFB6E894FF088
:1093B000000ADB1864416D4176417F4158EB080893
:1093C00059EB09095AF1000A50F804CB13EB0C03CE
:1093D00050F804CB54EB0C0450F804CB55EB0C05BF
:1093E00050F804CB56EB0C0650F804CB57EB0C07A7
:1093F00050F804CB58EB0C0859F100095AF1000A57
:10940000A0F11800EEFB0E9AA0E8F807072A54D046
:10941000A0F11C00A1F11C01B1E8E04FA5FB0E3446
:109420004FF00005E6FB6E454FF00006E7FB6E5679
:109430004FF00007E8FB6E674FF00008E9FB6E781D
:109440004FF00009EAFB6E894FF0000AEBFB6E9AC1
:109450004FF0000BDB1864416D4176417F4158EBC2
:10946000080859EB09095AEB0A0A5BF1000B50F89E
:1094700004CB13EB0C0350F804CB54EB0C0450F862
:1094800004CB55EB0C0550F804CB56EB0C0650F80A
:1094900004CB57EB0C0750F804CB58EB0C0850F8F2
:1094A00004CB59EB0C095AF1000A5BF1000BA0F157
:1094B0001C00EEFB0EABA0E8F80FBDE8F08F00003B
:1094C000C3F10803DB0070B50133002403A500BF1E
:1094D0005B1920C940CAAD1B20C0184720C940CA2B
:1094E000B54120C020C940CAB54120C020C940CAEA
:1094F000B54120C020C940CAB54120C020C940CADA
:10950000B54120C020C940CAB54120C020C940CAC9
:10951000B54120C06441B4FA84F0400970BD00BF79
:109520004A11012350F8220001F01F0103FA01F152
:1095300008407047F0B5082289B00C460646FFF790
:109540006CFECB6A03930B6B04934B6B05938B6B95
:109550000693CB6B0793002708236A466946684643
:10956000CDE901770097FFF7BBFA082305466A4665
:1095700031463046FFF7B4FA236B0393636B0493D1
:10958000A36B0593E36B0544CDE906376A460823D0
:1095900069466846FFF7A4FA082305446A4631463F
:1095A0003046FFF79DFA236A0093636A0193A36A2A
:1095B0000293A36B0693E36B0793054408236A4663
:1095C00031463046CDE904770397FFF789FA636A9D
:1095D0000093A36AA26B0193E36A02930492636B04
:1095E000E26B0393CDE90523236A0793054408231F
:1095F0006A4631463046FFF773FAE36A0093236BFD
:109600000193636B0293236A0693A36A079305444D
:1096100008236A4631463046CDE904770397FFF7C1
:109620004FFF236B0093636B0193A36B0293E36B78
:109630000393636A0693E36A07932D1A08236A4625
:1096400031463046CDE90477FFF73AFF636B00936C
:10965000A36B0193E36B0293236A0393636A0493FE
:10966000A36ACDE90537236B07932D1A08236A46B1
:1096700031463046FFF724FFA36B0093E36BCDE93F
:109680000137636A0393A36A0493E36ACDE905375C
:10969000636B07932D1A08236A4631463046FFF75D
:1096A0000FFF2D1A0D4C0FD435B908223146204634
:1096B000FFF74FFA01280FD00823224631463046E3
:1096C000FFF7FEFE2D1AEFE708232246314630460B
:1096D000FFF706FA2D18F7D409B0F0BDCCDC07006F
:1096E00070B5036813F001050646144605D013460D
:1096F0000A460146FFF7F4F9054621463046FFF7D2
:109700007FFD45B104F18042013A56F8223043F022
:10971000004346F8223070BD2DE9F0438BB004467B
:10972000154689460AAE1C22002103A8FEF7D8FE82
:10973000032346F8203D95F900802A4649462046F5
:109740002F1DFFF793FB3B46324621462046CDF8BE
:109750000080FFF79BFB2B464A4621462046FFF739
:1097600075FBCDF800803B4605F18402214620467A
:10977000FFF7BFFA0BB0BDE8F08300F01F02012134
:1097800091404009800000F1E020C0F8801270474D
:1097900000F01F02012191404009800000F1E0200B
:1097A000C0F80011704700F01F02012191404009EC
:1097B000800000F1E020C0F8001270474907090E50
:1097C000002806DA00F00F0000F1E02080F8141DF8
:1097D000704700F1E02080F800147047BFF34F8F0E
:1097E00005480168054A01F4E06111430160BFF3D7
:1097F0004F8F00BFFDE700000CED00E00400FA050C
:109800002DE9F0414FF48077384601F0C8FA012481
:10981000104EA50748B1384601F0C8FA0120C5F836
:1098200008037470002000F045FD4FF4827738463D
:1098300001F0B5FA00280BD0384601F0B7FA022043
:10984000C5F80803B470BDE8F041012000F032BD56
:10985000BDE8F0810832002007480021C0F840111F
:10986000C0F84411C0F84811C0F84C11C0F80011FC
:10987000C0F8041103F050BF0010014003F09ABE7D
:1098800010B50021054A084600F014FA002803D05C
:10989000BDE8104000F00CBA10BD00005D9F07004D
:1098A000F0B5AE480023021D01780125101D4FF0D0
:1098B000805406290BD11678360708D10678C6F3EE
:1098C0000316032E06D0042E04D0052E02D006293E
:1098D00007D00EE0B4F82463A14FC6F304263E601F
:1098E00002E01678360704D10678C6F30316032E75
:1098F00002D0062904D00FE09B4F9A4E7E670EE0FF
:109900001678360708D10678C6F30316032E06D05C
:10991000042E04D0052E02D0062907D00EE0D4F87C
:109920004462924FC6F342363E6002E01678360734
:1099300004D10678C6F30316032E02D0062906D0FA
:1099400011E08B4E376827F0807737600EE016788D
:10995000360708D10678C6F30316032E06D0042E68
:1099600004D0052E02D006290AD011E04FF080461F
:10997000C6F80C31C6F810317C4E361F336002E059
:109980001678360704D10678C6F30316032E02D0E4
:10999000062905D00CE0754F032664373E600AE0C7
:1099A0001678360704D10678C6F30316032E02D0C4
:1099B00006290DD014E06F4F05263E606D4E7836B7
:1099C00035606C4E083633603F263F1D3E6002E036
:1099D0001678360704D10678C6F30316052E02D092
:1099E000062957D062E0644E3668644F3E60624E8E
:1099F000361D36683F1D3E605F4E083636683F1D97
:109A00003E605D4E0C3636683F1D3E605A4E103645
:109A100036683F1D3E60584E143636683F1D3E6026
:109A2000554E18363668554F20373E60524E1C361C
:109A300036683F1D3E60504E203636683F1D3E6002
:109A40004D4E243636683F1D3E604B4E28363668F4
:109A50003F1D3E60484E2C3636683F1D3E60464EE8
:109A600030363668454F40373E60434E34363668B0
:109A70003F1D3E60404E383636683F1D3E603E4ECC
:109A80003C3636683F1D3E603B4E403636683F1DD3
:109A90003E6002E01678360708D10678C6F3031652
:109AA000032E06D0042E04D0052E02D0062907D09E
:109AB00019E0D4F85812324A01F04F01116002E067
:109AC000117809070FD10078C0F30310032803D0E1
:109AD000042801D0052806D12A480168C90702D008
:109AE0006FF00101016022487438016841F470018F
:109AF0000160BFF34F8FBFF36F8F4FF01021D1F88C
:109B00000002002803DBD1F80402002822DA1E4AF2
:109B100015601E480468002CFCD01524C1F80042D2
:109B20000568002DFCD0C1F8044201680029FCD072
:109B3000136001680029FCD0BFF34F8F0C48F03848
:109B40000168134A01F4E06111430160BFF34F8FD4
:109B500000BFFDE710490F480860F0BDE00F00F0BE
:109B6000403501400DF0ADBA00C007403C05004053
:109B7000FCED00E0105600400404001020C5004039
:109B8000E40E00400004004004E5014000E4014010
:109B90000400FA050090D003B028002002E008C8B5
:109BA000121F08C1002AFAD170477047002001E057
:109BB00001C1121F002AFBD170470000012120289B
:109BC00003DA81400548014003E0402802DA2038EA
:109BD000814009B10120704700207047FC06FFBD9D
:109BE000082806D228B1012803D0042801D001207A
:109BF000704700207047800701D000207047012087
:109C00007047C3688B4206D811440069491E8142DF
:109C100001D80120704700207047000000B5224B9A
:109C20008DB00DF1240C0FCB8CE80F001621ADF890
:109C3000201002218DF80010012206208DF801204D
:109C40008DF8020003208DF803008DF804105920D0
:109C50008DF80500FE208DF8060008A90DF1090019
:109C60007DDF68B9BDF82000411C8DF8071009217F
:109C700009308DF80810C1B200231A46684672DF19
:109C800000280FD174DF012109A873DF002809D152
:109C90004FF0A0404FF40031C0F80C15122002F034
:109CA00042FA00200DB000BD34DA0700FFF796FD40
:109CB000FFF794FD2DE9F84F254C814692466088C8
:109CC0000E46814241D800274FF6FF788DF800708C
:109CD000684600F005F922786078A188884201DAA8
:109CE000401C00E00020C0B2904204D19DF800006A
:109CF00000F01AF927E065786078884201DA401CA4
:109D000000E0002060709DF8000000F00DF945456E
:109D100019D0A068B9F1000F40F835A00DD066B198
:109D20006188E068324605FB01004946FEF7BDFB4D
:109D3000A06800EBC500868002E000EBC5008780CC
:109D40000020BDE8F88F0420FBE70920F9E70000B8
:109D50007C28002010B50E4C03E0401C00E00020E1
:109D6000207020786178814210D022786188E06884
:109D7000A36802FB010003EBC20153F8322089887B
:109D800090472078A1888842E9DAE6E710BD000014
:109D90007C28002030B5CB0008339DB293074FF0EC
:109DA000000401D0072030BD044B9A602A44DA60D9
:109DB0005C701C7058809980002030BD7C28002089
:109DC000074B9B7823B12AB120B10068037C1BB1FB
:109DD0000820704707207047417442610020704797
:109DE0001C32002070B503F07DF9104800240B21CF
:109DF000047044700E4D817014206C602C706C7077
:109E0000FFF7BBFC07211420FFF7D8FC1420FFF755
:109E1000BFFC0848046007211120FFF7CFFC05486C
:109E2000001F0068A860002070BD00001C320020E8
:109E30008C280020081501402DE9FC47DFF87890B8
:109E400099F8023073B368B3052902D20720BDE840
:109E5000FC87436933B3437C012B25D0002704469C
:109E60000025884616468DF80050684600F038F800
:109E700001A803F0ADFCC8B1012101700F49446095
:109E80000968C0E90218C0E904769DF8040089F861
:109E900001009DF8000000F047F81420FFF783FC54
:109EA0002846D4E70820D2E70F46D8E704259DF8D6
:109EB000000000F039F8F3E71C32002004150140DF
:109EC0000649897839B130B1416921B10021017465
:109ED000022103F0FDBB0820704700001C32002067
:109EE00030B5EFF3108172B60D4A9468012324B1A6
:109EF0000370002900D162B630BD93604FF0E023BB
:109F0000D3F88051074C25401560C3F88041D3F841
:109F1000844154605A17C3F8842100220270E8E794
:109F200028330020FC06FFBD0B498A68002A11D0A7
:109F300000280FD1EFF3108072B60B684FF0E022CB
:109F4000C2F800314B68C2F8043100228A60002850
:109F500000D162B6704700002833002002F0B8B983
:109F600030B50546154C85B04FF6FF7020800120B6
:109F70008DF812004FF65960ADF810002A4604A97A
:109F80000120A0DF002817D10D4B0FCB8DE80F006B
:109F9000A91C684662DF00280ED1284600F018FC94
:109FA000002809D1284600F0C9FA002804D1A06889
:109FB00040F00100A060002005B030BD68280020FE
:109FC00044DA07000D4810B502880024A2F57F414D
:109FD000FF390CD0816841F00401816013211046E3
:109FE00076DF040008D1064801F010F803E074DFC2
:109FF000112002F098F8204610BD000068280020CB
:10A00000400D030010B5112002F085F8122002F077
:10A0100082F8112002F087F8122002F084F8012063
:10A0200000F0CEF8002818D101F040FE38B10B48FE
:10A0300001F030FE0A48816841F00201816000F0C1
:10A04000C5FC002809D105482838FFF789FF0028FA
:10A0500003D1BDE81040FFF7E1BD10BD2C2D00205D
:10A0600068280020FEB5514D0446008800212B8849
:10A0700004F1080623287DD024DC13283BD014DC0F
:10A0800001285FD0102827D011280DD1122002F00E
:10A090004AF8287A400704D4FFF7C0FD08B1FFF75B
:10A0A00007FE4FF6FF702880FEBD14285ED01A28E8
:10A0B00064D01F2836D02128F6D10091A0886946A7
:10A0C0008FDF2AE050380828EED2DFE800F05D3F4D
:10A0D000570404642F10E7E74FF0A0414FF48020AD
:10A0E000C1F80C05112002F01EF8A088DBE7BDE8DE
:10A0F000FE4001F017BD2E486A4642F60521006871
:10A10000009002A801901846A5DF08B1FFF7D0FD26
:10A1100000231A46852128887FDF0028C4D0FFF756
:10A12000C7FDFEBD3146184675DF05E0A079002861
:10A13000F7D11321184676DF0028F2D0BDE8FE40A3
:10A14000FFF7B6BD0021184666DFF5E7A0790028C5
:10A15000E7D02146174802F0F3F90028E1D003B018
:10A160003146BDE8F040134802F04CB900210A46E0
:10A17000A08800E013E00B4686DFDDE70023A0881F
:10A180001A461946A9DFD7E703B02146BDE8F040DB
:10A19000084802F01FBAA0881721ADDFCCE7009174
:10A1A0000191A0880022694690DFB6E76828002068
:10A1B0002CDA0700042D0020007800F00100704721
:10A1C0007FB50024009401940294039418B101F027
:10A1D00083FB00282CD1174813DF002828D102F078
:10A1E00041F808B1FFF764FD684601F0E9FF002877
:10A1F0001ED1012501948DF804508DF8054002947C
:10A2000003948DF8064001A94020009A69DF01946B
:10A210008DF804501720ADF806000294039401A9AC
:10A220002320009A69DF002802D1684601F0D2FF9E
:10A2300004B070BD008007000249085C012101F0F4
:10A2400079BF000024DA07000249085C002101F010
:10A2500071BF000024DA07007CB50024084E2546B3
:10A260000122305D009500231146019501F041FF68
:10A27000641C042CF4D3BDE87C4000F003B800005B
:10A2800024DA070010B500242046FFF7D5FF641C30
:10A29000042CF9D310BD10B543689C18446021B953
:10A2A00005E013F8010B01F8010B521EF9D2012051
:10A2B00010BD000070B5084C050009D010342168AD
:10A2C000002907D008682060496828468847F6E7D3
:10A2D0000834F4E770BD0000083200202DE9F05F7B
:10A2E00026484168F1B3DFF898B00E688146DBF884
:10A2F000004087688078E11B21F07F45ED1CB0B9F4
:10A30000DFF880804FF48030C8F84403C8F80403B5
:10A310001120FFF732FA1120FFF73AFA4FF0010A45
:10A32000C8F800A02F2000F0B7FE89F802A0B542BF
:10A3300000D23546124BE8193C3320F07F401860BC
:10A34000DBF800105A46091B21F07F41001B20F06A
:10A350007F40C91C81420FD9106818602F2000F07F
:10A360009BFE00E004E0BDE8F05F1120FFF71BBAA0
:10A37000BDE8F05F02F0B6BEBDE8F09F8C2800207B
:10A380000415014000100140F0B54FF0FF3622B136
:10A390001268D24300230A4D0DE03246FAE7C45C4E
:10A3A00062400824D70700D037462F4087EA520280
:10A3B000641EF7D15B1C8B42F1D3D043F0BD00008B
:10A3C0002083B8EDF0B5146906468DB020681546B7
:10A3D000271DE0B1022920D00A2000906B4609AA6F
:10A3E000304602F085FD00280FD009A901A8009A87
:10A3F00002F070FC01AE96E80F0005AE86E80F0093
:10A40000236869683A4605A898470DB0F0BD0DB0BD
:10A410003046BDE8F04002F0D1BC6946304602F05B
:10A4200063FC0028F1D0236869683A46684698477B
:10A430000028EAD002980028F5D101987060012028
:10A44000E3E753685B7813F0C00303D0402B03D0DD
:10A450000020704700F002B8FFF7B4BF2DE9FF41BC
:10A460000B465168064614464878334D00F00F02FB
:10A4700010F0300055F8225006D0102806D02028C1
:10A4800008D0302856D13EE022694DE061690120B4
:10A49000087047E0022B28D1042A26D84FF0010883
:10A4A00069463046676902F01FFC00281AD009E0AF
:10A4B0000B79226913FB00226846A84770B13878EF
:10A4C000401C3870029820B1616838784A7990420F
:10A4D000EED301987060029860BB02E04FF0000874
:10A4E000F7E7404604B0BDE8F081D4E904300F79C5
:10A4F000027817FB023349798A421BD2521C027040
:10A500001A46616810E008786169072A087009D165
:10A51000606801792069FDF7E1FF60682169806862
:10A5200002F0FDFB2269616804B03046AC46BDE82C
:10A53000F04160470020D5E7A4DC070010B58EB0DD
:10A5400004461C216846FDF7C9FF142108A8FDF741
:10A55000C5FF9DF80010002041F0180107908DF80C
:10A560000010A1788DF836100121ADF834109DF857
:10A570001C1004F10C0321F0FF018DF81C109DF854
:10A580001D1008AA21F00F01491C21F0F001103123
:10A590008DF81D109DF81E1021F00601891C41F058
:10A5A00011018DF81E100DA9089107A90991172115
:10A5B000ADF82C100C9020886946A2DF0EB010BDBB
:10A5C0001FB50E4800F15C01826B684602F082FB09
:10A5D0000B489DE80E0080E80E00094909480B4A27
:10A5E000C86009490020086048600949044802F031
:10A5F0000BF9002800D0012004B010BD503000201D
:10A60000542C00203DCB070040280020C828002003
:10A61000B4D9070005490A6812B10A68521E0A60D7
:10A620000169002900D00847704700007428002005
:10A630002DE9F04799461600054600F104044FF055
:10A64000000110D0B9F1000F0DD094F88F0018B1AF
:10A6500094F89000012854D0207A20B1E068342882
:10A6600003D006203AE0042038E094F85520032A6D
:10A6700011D000204FF44057237C08E004EB800CFD
:10A68000B7F80C80DCF814C0C44504D0401C8342E9
:10A69000F4DC072022E04A487AB1012A07D0022AD6
:10A6A00001D0032ADFD121780029DCD0C1684AB16A
:10A6B000022A0CD0032A0DD109E021780029D2D03A
:10A6C0008168F4E76068884204D2052006E060688B
:10A6D0008842FAD995F8A00020B10B20BDE8F047D8
:10A6E00000F06EB9374F384B4A463146386800F0B3
:10A6F000F9FB30B9344895F8A120083841689142F7
:10A7000002D00A20BDE8F087006805F1A201FDF73C
:10A71000CCFE2D4B2C4AD7F80200083BA2F11001C9
:10A7200000F096FB08B10520ECE7274D0020283DFE
:10A73000E86094F85510C9B1012924D023480229B2
:10A74000C0F5FC2018D003298DD194F85C100029A5
:10A7500089D094F85610002985D0A26D216E531827
:10A76000EB6042B339B3814223D812E094F864001D
:10A7700000289AD0A06E0BE094F85C10002994D0C9
:10A78000216EE960EFE794F8560000288DD0A06DA7
:10A79000E8600D482022083004F16F010068FDF7E1
:10A7A00084FEE86838B1084A0021203A00F08AFFA8
:10A7B00018B10420A6E70320A4E70120A2E70000C7
:10A7C0005030002018DA07005828002000800700C9
:10A7D00010B58EB004461C216846FDF77FFE14219B
:10A7E00008A8FDF77BFE9DF80010002041F0040151
:10A7F00007908DF80010A1788DF836100221ADF881
:10A8000034109DF81C1008AA21F0FF018DF81C10CF
:10A810009DF81D1021F00F01491C21F0F0011031AD
:10A820008DF81D109DF81E1021F00601891C41F0C5
:10A8300001018DF81E100DA9089107A90991142195
:10A84000ADF82C100C902088231D6946A2DF0EB0B5
:10A8500010BD00000E4910B50A784C780023A242C2
:10A8600012D0521CD2B20A70022A00D10B70084AD0
:10A870000B780C3252F8232002608868104420F0D4
:10A880007F408860012010BD0360002010BD0000E3
:10A890008C2800202DE9F84380461F4615460E46B9
:10A8A00000240D4800F056FA38B11120BDE8F883B5
:10A8B00006EB043001F04AFC641CAC42F8D10648B7
:10A8C00000F041FA2B46324602214046009700F044
:10A8D0002BF80020EAE70000A02800202DE9F8432B
:10A8E000104D0F4680461E4691466946286800F086
:10A8F000FEF9040014D01C21FDF7F0FD01202071A9
:10A90000C4F81490380BC4F80080C4E902606946AA
:10A91000286800F00DFA02F0C9FA0020BDE8F883BB
:10A920000420FBE7D0DA07002DE9F04186B00446A9
:10A930008068DDF830801D4616460F4600280CD092
:10A9400014216846FDF7CAFDCDE902658DF8007057
:10A95000CDF81080A1686846884706B0BDE8F08150
:10A9600030B50446006885B00D46806800281CD0CC
:10A9700014216846FDF7B2FD0195A0680490207986
:10A9800010B101280DD104E001208DF800002069EC
:10A9900004E002208DF80000E06800030290606986
:10A9A0000390206881686846884705B030BD000084
:10A9B0000249002208780A707047000078280020B9
:10A9C000014908700B2070477828002010B586B028
:10A9D00000249DF80000019420F00F00401C20F09E
:10A9E000F00010308DF80000029403A86DDF0028FD
:10A9F00025D19DF80D00401C8DF80D0003A86CDFDB
:10AA000000281CD10F48007A800703D50E48011D8D
:10AA1000806901E00DA1072082B268467CDF002832
:10AA20000DD10620ADF804001820ADF80600ADF8F1
:10AA300008404FF4C870ADF80A0001A87ADF06B0EC
:10AA400010BD0000682800202C2D0020446675549D
:10AA50006172670010B501F04DFC08B140DF10BD18
:10AA6000054901200860012000F0A8F90028FAD16A
:10AA70000249487010BD0000040000400832002068
:10AA800010B50A4C2068FFF71BFA08B1FFF710F960
:10AA900000224FF4C0212068FFF7CEF9002803D030
:10AAA000BDE81040FFF704B910BD000054DA0700FC
:10AAB0000149416000207047A4DA070038B5044618
:10AAC0000A4801216A46FDF783FC68B908486060BE
:10AAD00001F010FC05491C23FC2208740448FC39D1
:10AAE000001F006800F0F0F8002038BD303400206E
:10AAF000D4DA070002480068002800D0012070471F
:10AB0000A02800200248007A002800D001207047C9
:10AB100030340020800701D00020704701207047AA
:10AB20000268134602E08A4204D01268002AFAD171
:10AB30000B600160704770B5054608680C464A68AE
:10AB400086682846314602F00BF86068286104F1F7
:10AB50000C00686170780221B1EB901F01D1241DB7
:10AB60002C6170BD06490120086006480168C1F3E8
:10AB700000410029FAD10449002088707047000084
:10AB80000C00004018040040083200202DE9F04776
:10AB9000394E002780463D46DFF8E090D6F804A005
:10ABA00057E003D00446D0F81C8035E099F8002027
:10ABB00002EB4201521CD2B289F8002009EBC1011C
:10ABC00099F80230091D9A4201D189F8005048686D
:10ABD0000A780446012A12D0022A02D0032A3BD165
:10ABE00008E002F045FD00B10127257434E005744A
:10ABF000C06900E070680028F9D170602CE0207C0A
:10AC000050BB88686060C868A0600869E0604869F7
:10AC1000A061F07800B165606268B168184B501AA5
:10AC200020F07F40984202D2A168084406E0881ACA
:10AC3000A16820F07F40814202D9081A206000E01C
:10AC4000256065600120A56020742046E56102F062
:10AC5000F1FCB8F10000A4D199F8001099F80100B6
:10AC60008142A3D117B97168514502D00120BDE8D6
:10AC7000F0870020FBE700008C2800201C32002019
:10AC8000FFFF7F0010B5FFF7E7FA0220FFF7DCFABD
:10AC900008490748C1F8000700F079F808B1FEF745
:10ACA0009DFD4FF44050806800F05AF8002010BD20
:10ACB0000C0003004000005010B5FDF716FB08B172
:10ACC000002010BD112010BD10B531B1B2FBF3F45E
:10ACD00003FB14241CB1092010BD0E2010BD01601F
:10ACE0000021416081608281C381084610BD70B53A
:10ACF0000C460546FDF7AEFA002802D021882868E8
:10AD0000084470BD10B50A8849888A4203D1FDF70E
:10AD1000E3FA012010BD002010BD70B50C460546B9
:10AD2000FDF7BDFA002802D061882868084470BD8C
:10AD300010B50A8849888A4203D1FDF7A7FA012095
:10AD400010BD002010BD08B500216A46FDF7FFFACE
:10AD5000009808BD08B501216A46FDF7EBFA08BD69
:10AD600010B5044600F0B8FD00280FD14FF0E021E7
:10AD7000401EC1F88001C1F88002204613DF002880
:10AD800004D12046BDE81040FDF744BA10BD10B50F
:10AD900000F068FD002801D100F0FCFC10BD00F1BE
:10ADA00080400068002800D00120704708B500F1FD
:10ADB0008040002101600068009008BD05490968D5
:10ADC00040F4803001F00111814201D1012070472F
:10ADD000002070470C0400402DE9F00300F0FF0C48
:10ADE0000023182530221C26382420274FF0400944
:10ADF000BCF10A0F25D2DFE80CF024051D0B20154D
:10AE0000181D0B2014224A60282211E08A6002E0FB
:10AE1000C1E900468C60BDE8F003C0F307200C31A7
:10AE200000F0D1B84A60602202E042224A608422E7
:10AE30000A60EBE7C1E90025E8E7C1E900974A4667
:10AE4000E4E74B600B608B60BDE8F00306207047C1
:10AE50002DE9F04186B01C4615460E468046FDF7AA
:10AE6000E1FC074646B33DB334B3306830B32968DC
:10AE700021B3216811B3FFF74DFEF8B12868FFF741
:10AE800049FED8B12068FFF745FEB8B101A9404698
:10AE9000FFF7A2FF00280CD170680199884207D102
:10AEA0006A680498824203D160680399884207D097
:10AEB000092006B0BDE8F0810E20FAE71020F8E77F
:10AEC00008F0FF00042801D00620F2E7009723686D
:10AED00029683068FDF7AAFC08B10020E9E70B20DB
:10AEE000E7E70000F0B506461A48A1B01C0040682C
:10AEF000029004A817460D46019008D03DB1206885
:10AF000038B1F0B2052806D0062021B0F0BD0E20E1
:10AF1000FBE71020F9E7694600F055F80028F4D166
:10AF200060680099884201D00920EEE701A9304607
:10AF300000F035F80028E8D13A46294601A800F08B
:10AF400059F80028E1D1224601A9304600F004F862
:10AF5000DBE700009CDA0700F8B51446054621B18E
:10AF60001CB1486870280DD101E00720F8BD0E68BB
:10AF7000E8B2694600F027F80028F7D16068009928
:10AF8000884201D00920F8BDC5F3072028B100226E
:10AF90003046216802F052F9F8BD0122F8E731B1DC
:10AFA0000A6832B14968702905D2092070470E201D
:10AFB000704710207047C0B2052801D006207047A6
:10AFC000104602F0C3B91422082811D2DFE800F0BD
:10AFD0001004100406080C0E0A6003E01C2000E0B8
:10AFE00020200860002070473020FAE74020F8E772
:10AFF0000620704728B121B14368702B03D2092085
:10B00000704707207047006802F060BA00283ED001
:10B010001F49204A096800BF00BF00BF00BF00BF32
:10B0200000BF00BF00BF91422FD000BF00BF00BFD4
:10B0300000BF00BF00BF00BF00BF00BF00BF00BF18
:10B0400000BF00BF00BF00BF00BF00BF00BF00BF08
:10B0500000BF00BF00BF00BF00BF00BF00BF00BFF8
:10B0600000BF00BF00BF00BF00BF00BF00BF00BFE8
:10B0700000BF00BF00BF00BF00BF00BF00BF00BFD8
:10B0800000BF00BF00BF00BF00BF0138C3D1704781
:10B09000B02800200024F40000283ED01F49204A98
:10B0A000096800BF00BF00BF00BF00BF00BF00BFF6
:10B0B00000BF91422FD000BF00BF00BF00BF00BF44
:10B0C00000BF00BF00BF00BF00BF00BF00BF00BF88
:10B0D00000BF00BF00BF00BF00BF00BF00BF00BF78
:10B0E00000BF00BF00BF00BF00BF00BF00BF00BF68
:10B0F00000BF00BF00BF00BF00BF00BF00BF00BF58
:10B1000000BF00BF00BF00BF00BF00BF00BF00BF47
:10B1100000BF00BF00BF0138C3D17047B028002076
:10B120000024F4002DE9F05F244C4FF440594FF413
:10B130008058216B666AD9F80830771A03EB010B47
:10B1400001EB000A4546AF4200D83D4600220121EE
:10B15000584600F0EFFA00282ED100232A46514627
:10B16000584600F005FB002826D12A46514658468D
:10B1700000F086FB00281FD1206B284420630020AC
:10B1800000F0F2FDAB44AA447F1BDBD10022314624
:10B19000D9F80800FFF7F8F8A16A814203D101212C
:10B1A000A661C4E907010548243000F05DFBBDE855
:10B1B000F05F002000F0D8BDBDE8F09F50300020C7
:10B1C00010B50A4C206A01280BD1E06958B14FF440
:10B1D0004050A16980680022FFF7D6F8E1698142FA
:10B1E00001D0002010BD012010BD00005030002013
:10B1F00070B506460C4608681049496B451AA068A8
:10B20000AC2806D12A46A6F580410D4800F038FB4F
:10B2100058B12A4631460A4800F032FB28B1294687
:10B220003046BDE8704000F039BB204600F01CFB02
:10B23000BDE87040034800F097BD0000503000208A
:10B24000008007008DCF07004FF0A040D0F8100518
:10B25000000C10F0010F01D0002070470120704752
:10B260002DE9F041454C0B780F4616460125D4E9EF
:10B270000E102A02DFF80881072B7DD2DFE803F0E9
:10B280007C04213C1D7C7700B86820B1904204D931
:10B290000420BDE8F0810320FBE73A480068FEF790
:10B2A0000FFE3648002688F8036020213830FDF76D
:10B2B00015F92663B868A06355E07060206CB06033
:10B2C00053E0BA6813188B4203D97060206CB060E9
:10B2D000E1E72A4B79685C331844FDF7E6F8E06B48
:10B2E000B968264A0844E063D7E901014032FFF714
:10B2F0004BF82064E06BE0E7884201D00820C8E703
:10B3000098F80300444608B10120C2E7FFF758F956
:10B31000012824D11C4890F8A410B1B100F5637144
:10B3200090F8AA20A830012A01D005200BE0144A89
:10B3300010320CCAFFF77CF9012804D1002000F07C
:10B3400013FD70B10A2005460DE0007838B10320E6
:10B35000FFF736FB0546012803D004E00CE005208A
:10B3600097E70120E070FFF78BFB284691E77060BC
:10B37000206C3260B060F8E70225F6E7503000201C
:10B380003028002098DA0700C828002030B40B4B82
:10B3900002464FF440501C69816803F11800012CEB
:10B3A00008D05C6934B19B690C3003F6FF736FF30E
:10B3B0000B03194430BC00F003B8000050300020EB
:10B3C0002DE9F04116460C4682680021DFF87C80AA
:10B3D0000546012A09D040460127806CA52A0CD0D9
:10B3E000AA2A1BD0AC2A1ED120E0D8F814000128CC
:10B3F00019D12046FFF796FE14E000B10446294615
:10B40000204600F0ABFB010006D1284600F02CFAE4
:10B410000F4800F0A9FC16E0376004E029462046FA
:10B42000FFF7E6FE01460846BDE8F08100B104469C
:10B430002946204600F092FB28B9D8F83400294666
:10B440002044FFF7D5FE0146E6E70000503000201B
:10B450008DCF07002DE9F05F894E91F800C0874F2E
:10B460000C461546D6E91410FA78B36C4FF0010B70
:10B470004FF4805A4FF00009BCF1070F7ED2DFE88D
:10B480000CF0FA0433D7D3FAF500A168B1B37B4BC3
:10B490000D05DB6802D045189D4237D151452BD8A8
:10B4A000002A6CD00144994269D8F16CB164A1685A
:10B4B000306571643063716909B9C6F82090B97854
:10B4C000491C01F00301B970A7F80690A168BA6899
:10B4D00001F6FF711044090B002200F02BF900283F
:10B4E0007ED00520BDE8F09F6960B06CA860002A9E
:10B4F00045D0A168802902D90420F3E706E0306D29
:10B50000726D0844801A726C904201D90320E9E7F9
:10B510005B4A60684832FEF737FFB064306DA2685E
:10B52000B046104430656860B06CA860F888A268C6
:10B53000DFF850A111183E46802905D2B77861681E
:10B540000AEBC713184436E0C0F18001B3788FB21C
:10B550000AEBC31210443A466168FCF7A6FFF08874
:10B56000384482B2F280A068C01BA0606068384492
:10B5700060604746D8F83000B16801E07BE05BE0EE
:10B58000B37808440AEBC311002300F0F1F840B38C
:10B59000F86CB864786D38656860F86CA860B0784D
:10B5A000401C00F00300B070A6F80690A26882B3B9
:10B5B0000AEBC0106168FCF778FF2089F188084425
:10B5C0000204F080120C4ED0D8F85410D8F8300095
:10B5D000D8F84430411A11444446994243D301E01B
:10B5E0003FE017E0B168B37808440AEBC3110023C9
:10B5F00000F0BEF898B1E06CA064606D20656860F2
:10B60000E06CA860B078401C00F00300B070A6F8B1
:10B61000069028E0F188386B08443863BFE7F1886A
:10B62000206B08442063EDE76960B06CA8601AE005
:10B63000726C081A904201D0082053E7C6F8449073
:10B64000F3640020716500F08FFB08B10A2049E720
:10B65000306DF968884204D10A48E03800F048F9B2
:10B660008346FFF70DFA58463CE7FFE7AB60306DC5
:10B67000C5E900A0F7E74FF0020BF4E730280020FF
:10B6800050300020542A002010B5FFF7DDFD90B99E
:10B690000A480068C0B2B1280DD00948816D01295F
:10B6A00001D0002010BD00218165084600F05CFB40
:10B6B00008B1FEF7FDFA012010BD00001C05004096
:10B6C00050300020F0B54FF010235C694FF4405328
:10B6D0009B68E61AA6F5405682B186421BD3144CED
:10B6E0001360A4F1180300251F6A012F08D01D6103
:10B6F0005D616560A56020600020F0BD0720F0BDA1
:10B70000276807F6FF776FF30B07A6EB070C0126F8
:10B71000604505D909B10420F0BDC3E90465E8E737
:10B72000C3E904561168024C39440C341160E0E757
:10B7300068300020054B30B41C68641C1C60134644
:10B740000A46014630BC024800F004BC74280020C0
:10B75000B428002008B1034900E00349002203484F
:10B7600000F01FBCE0DA0700B0DA0700B4280020C0
:10B7700038B5064C25686D1C2560009313460A46B3
:10B780000146034800F082FC38BD00007428002008
:10B79000B428002038B50020009000F0BBFA00F07B
:10B7A00033FB08B1FEF784FA002000F069FB28485B
:10B7B0000168C1F300410029FAD0FEF713FB08B17C
:10B7C000FEF776FA234A00212348FEF7F9FA08B17A
:10B7D000FEF76EFA6846FFF7D9FD012400B1009428
:10B7E000FFF752FF00B100941C4900200860009848
:10B7F00090B9FFF7E5FC78B100F032FA00280AD1E1
:10B80000FFF7DEFC30B100F06FFB4FF44050806872
:10B81000FFF7A6FA002038BD114A10210820FEF7D4
:10B82000B9FA08B1FEF744FA0B4800224FF4C021E0
:10B830000068FEF701FB0028EDD100F0CFFA0028E8
:10B84000E9D100F025F900BFFEF784FA3EDFFBE7FF
:10B850001804004039BB070054DA07001C050040FB
:10B86000682D002000207047002101604160816048
:10B87000024801634163016141617047503000201B
:10B880001FB5054B01AC92081B6A009384E80700C2
:10B89000684618DF04B010BD58DA07001FB58908E4
:10B8A000002201AB009283E80700684618DF04B06D
:10B8B00010BD00001FB59208930502D0092004B006
:10B8C00010BD044B1B6800930392CDE9011068463C
:10B8D00018DFF4E758DA07001FB5044B0FCB8DE8EB
:10B8E0000F00684618DF04B010BD000068DA0700DA
:10B8F0002DE9F047064690F86D000127DFF87C81BE
:10B90000032801D0092013E05D485C4BD8E90212FE
:10B9100000683033FFF7E6FA00B10A2757482022C3
:10B92000303006F16F010068FCF7E3FD18B10C2020
:10B93000FFF746F80746534D6A6922B1012A05D040
:10B940000A20BDE8F0874F4C183401E04D4C2434F8
:10B9500096F855304FF0010A4FF00009ABB34A4951
:10B960004FF44050012B05D0022B38D0032B19D0B7
:10B970000A2736E00278142A01D9406900E0002045
:10B98000D8F80820B0FBF1F002F500521378142B20
:10B9900001D9526900E00022B2FBF1F188421ED0C9
:10B9A00005271EE00378142B01D9406900E0002030
:10B9B000D8F80830B0FBF1F003F5005393F800C05D
:10B9C000BCF1140F02D95B6901E008E00023B3FB6E
:10B9D000F1F1884203D0012A01D1C5F82090012F4E
:10B9E00005D0C4F808904846C4F804902FE096F8B3
:10B9F000550088B1012817D0022817D0032818D085
:10BA00000420FEF7DDFF074696F85500B0B1022886
:10BA100017D0032817D114E0C4F808A068690128DA
:10BA2000F2D1C5F82090EFE7A52003E0AA20A0609E
:10BA3000EAE7AC20A060B06D6863E5E77068A860D5
:10BA400001E07068E860A86C6060D8F80C002060C5
:10BA50000C4820213830FCF741FD0A48FF22FC2128
:10BA60005C30FCF734FDC5F8309088F805A0074835
:10BA700000F07AF900B10A27384662E73028002042
:10BA800018DA07005030002040420F00FDC40700C4
:10BA900070B50120FFF75EFE00281DD10F4CA06B92
:10BAA00078B1FEF78DFD60B10D4D206A68B9A069CF
:10BAB00058B10B4A00210832E860FFF703FE01206D
:10BAC000E8700020FEF77CFF05E0E06A18B9A06985
:10BAD00008B1606AEDE7002070BD00005030002022
:10BAE0003028002030B40C780D4B012C01D0062CEE
:10BAF00008D10C79012C04D0022C02D0072030BCD4
:10BB000070475C705B78012B03D0022B04D00520BA
:10BB1000F5E730BCFFF7A4BB30BCFFF79BBC0000CF
:10BB20003028002003484179002901D0012101710A
:10BB30007047000030280020BFF34F8F0548016890
:10BB4000054A01F4E06111430160BFF34F8F00BF6C
:10BB5000FDE700000CED00E00400FA052DE9F041DE
:10BB6000204A034640F6FF76106B516B00F5805576
:10BB70000C1A04F6FF746FF30B0406EB94066FF3D4
:10BB80000B06C71821B1884202D10020BDE8F08120
:10BB9000904608B9C8F84870A64203D904F6FF7069
:10BBA000060B3603324639462846FFF783FE002847
:10BBB000ECD1324639462846FFF762FE0028E5D12F
:10BBC00035443744A64201D9002400E0A41BD8F82C
:10BBD00034100020091BC8F8301000F0C5F8002C04
:10BBE000DAD1D3E75030002038B10549016005496A
:10BBF000416001210172002070470E207047000053
:10BC000009BC07003BBC070030B40246112039B123
:10BC10000B78052B05D2DFE803F00E060C0E0E00A4
:10BC20000E2030BC70470220087030BC104600F077
:10BC30004DB81120F5E70820F3E70246112041B185
:10BC40000B78022B04D1022A05D0032A00D1082048
:10BC500070470E207047002003220A7070470000D2
:10BC600070B50B480024D0F85C11491C03D1D0F802
:10BC70009C01401C09D04FF4FE25284600F066FACE
:10BC800057220349284600F079FA204670BD00008B
:10BC90005030002010B528B11C220349FCF705FCE8
:10BCA000002010BD0E2010BD9CF1070010B5064C01
:10BCB00000221821201DFEF767FB2168814201D177
:10BCC000012010BD002010BD9CF1070070B50C4D87
:10BCD0000400D5F89C0105F5CE7503D0401C03D0B7
:10BCE000082070BD0E2070BD00221821201DFEF717
:10BCF0004BFB206007222146284629DF70BD00004B
:10BD000000F00700002258210148FEF73DBB00006B
:10BD10005430002070B5FFF71DFD08B1FDF7C8FFD6
:10BD20004FF4DC752A460E490E48FCF7BEFB0D4C5D
:10BD30002068401C04D0FFF7E5FF216881420ED047
:10BD400029460848FCF7CAFB01206060002000F08B
:10BD50000BF8002803D0BDE87040FDF7A9BF70BD07
:10BD600000F007005030002070B504460022012189
:10BD70000C48FFF7DFFC90B9FFF7C4FF0A494FF406
:10BD8000DC752A460860A1F5DC70FCF78EFB2346C3
:10BD90002A4606490348FFF7EBFC002800D00320A1
:10BDA00070BD000000F0070050300020982E0020E9
:10BDB00070B50848084D401BC6080020044606E040
:10BDC00005EBC40040688047002802D1641CB442DF
:10BDD000F6D370BDA0DD070098DD070070B50848F8
:10BDE000084D401BC6080020044605E055F8340005
:10BDF0008047002802D1641CB442F7D370BD000014
:10BE0000A0DD070098DD070070B5104C00252078F4
:10BE100008B1852517E00021A16061602161E16022
:10BE20004FF0E020D0F80001012610F0010F03D1FF
:10BE30000721002000F072F800F05CFA10B9044904
:10BE4000022008602670284670BD000008320020DD
:10BE50001805004008B500208DF800006846FEF780
:10BE60003FF80648C168491EC160C06808B9FEF7BE
:10BE700079FE9DF80000FEF757F808BD0832002053
:10BE8000F8B5174D0446A878002648B114B161688A
:10BE9000012088478DF800606846FEF721F817E01A
:10BEA0008DF800606846FEF71BF824B10C48214667
:10BEB0001030FEF735FEE86850B94FF48270FEF797
:10BEC00075FF02204107C1F80403064901200860FC
:10BED000E868401CE8609DF80000FEF725F8F8BD12
:10BEE000083200200800004010B500F011F84FF0B3
:10BEF00080414FF0FF30C1F80803FEF733FEFEF734
:10BF0000A9FD02490020087010BD00000832002081
:10BF10004FF0E0210120C1F8800170474907090E68
:10BF2000002806DA00F00F0202F1E02282F8141D68
:10BF300003E000F1E02282F8001400F01F0201216A
:10BF400091404009800000F1E020C0F88012C0F864
:10BF5000001170472DE9F0411F46154604000E46BA
:10BF600016D02068B8B1C5B160680268501E304272
:10BF700015D16A432046FDF744FE80B120683B4658
:10BF80002A46D0F810C031462046BDE8F04160474F
:10BF90000E20BDE8F0810820FBE70920F9E710201A
:10BFA000F7E720B119B101600B68114618470E2060
:10BFB00070470000044801214174007A08B1002054
:10BFC000704701207047000030340020012801D064
:10BFD000032808D10449002201284A7400D0002017
:10BFE000087400F019BF70473034002070B5244C3D
:10BFF0000246207A012835D002283FD1214800236B
:10C00000022A006802D0032A2CD119E0E3600179EA
:10C0100011B1012926D10BE0D0E90565711B142966
:10C0200000D31421294481614569A9420ED019E049
:10C030000169491C01614269914213D1237217E0E1
:10C04000E168491CE16008290CD9E3602372022AE7
:10C050000ED00D21FEF784FC0B480A49091D00682B
:10C06000FEF750FE607C28B1BDE8704000F048B992
:10C070000021EFE7BDE8704000F0CEBE70BD0000CB
:10C0800030340020A4280020D0DA07002DE9F8433E
:10C090001D46089F1646884604000DD066B12068EC
:10C0A00060B135B160684068B5FBF0F100FB11503C
:10C0B00030B10920BDE8F8830E20FBE70820F9E73E
:10C0C0004046FDF798FD90B13046FDF794FD70B104
:10C0D0002A4641462046FDF794FD40B1009720686E
:10C0E0002B463246C76841462046B847E2E7102053
:10C0F000E0E770B541EA4201DDE904564FF0A044A3
:10C1000041EA830141EA052104EB800041EA06414E
:10C11000C0F8001770BD4FF0A04202EB8000032171
:10C12000C0F8001770474FF0A04201218140C2F8CB
:10C130000815704701224FF0A043824011B1C3F8A7
:10C1400008257047C3F80C257047000009490222F2
:10C150000A60BFF36F8FBFF34F8F0A1D1060064850
:10C160000268002AFCD000200860BFF36F8FBFF385
:10C170004F8F704704E5014000E4014070B50E4C5C
:10C1800001232360BFF36F8FBFF34F8F00230B4D4D
:10C1900008E000BF51F8236040F823602E68002EAD
:10C1A000FCD05B1C9342F5D300202060BFF36F8F5F
:10C1B000BFF34F8F70BD000004E5014000E4014073
:10C1C00020B1034909680160002070470E207047C4
:10C1D00078DC070060DF704730B593B05FF038055A
:10C1E000ADF8445011A903A861DF30B1052816D07D
:10C1F00013B0BDE83040FDF75BBD03AC09496846AC
:10C2000000F0AAF807E000BFD0E9002120469047DF
:10C21000684600F0B8F802980028E1D0F4E713B0BF
:10C2200030BD00007CDC070010B50D4C2078A0B1BB
:10C230000120A07000F0C0FF11280CD0022000F0F7
:10C24000D3FF11DF002807D12070A07001F06EF934
:10C25000032000F0C9FF002010BD082010BD000021
:10C26000AC28002038B5174C207808B1082038BD1C
:10C270000125A570002000F09FFF112820D000208C
:10C2800000F0B2FF1048114900680090684610DFC6
:10C290000028ECD12570A07060700721162000F0F6
:10C2A0003FFF08B1FDF704FD0721152000F038FF1E
:10C2B00008B1FDF7FDFC01F055F9012000F094FFF5
:10C2C000002038BDAC28002010DC0700AD9C070022
:10C2D0000EB50749684600F03FF805E0D0E90010C8
:10C2E0008847684600F04FF802980028F6D10EBD46
:10C2F0002CDC07000148007870470000AC280020C3
:10C300000548817819B1007818B1FFF78DBF082072
:10C310007047FFF7A7BF0000AC2800201FB5684694
:10C3200048DF30B1052814D004B0BDE81040FDF757
:10C33000BFBC084901A800F00FF806E0D0E90021D1
:10C340000098904701A800F01EF803980028E6D056
:10C35000F4E71FBD98DC0700016009684160AFF396
:10C36000008010B5D0E900215368994201D1002125
:10C3700004E0D1E90034A34202D01946816010BD27
:10C3800008314160F0E7816800290BD002689268AB
:10C390000A44826041684B689A4203D10831416087
:10C3A000FFF7DFBF704700002DE9F0410446134856
:10C3B000134BC01A0C21B0FBF1F6A0694FF0FF310E
:10C3C00010F8022C02B92169002011E000EB4005B1
:10C3D00003EB85052F68974209D14F1C02D06F6887
:10C3E0008F4204D194E80F00AD68A84703E0401CD9
:10C3F000B042EBD301202060BDE8F081ECDD070006
:10C40000E0DD070010B586B00446002000900190E2
:10C4100002900390049005900B7B3748072B67D25E
:10C42000DFE803F0660429351E6649004A89062ABA
:10C4300001D0032212E042888280487B04904A7C2B
:10C44000D1F80E0003A962F31F60059001208DF85A
:10C450000C006A460020FFF745FB024601213DE043
:10C4600003208DF80C006A4603A90020FFF73AFB71
:10C470000246042132E04A89032A01D0032204E063
:10C48000B1F80D10418081800122022126E00420B4
:10C490008DF80C006A4603A90020FFF723FB024633
:10C4A000012801D0032119E0DDE90112204600F046
:10C4B0008DFD06B010BD4889022801D003220CE092
:10C4C000487B049006208DF80C006A4603A90020E2
:10C4D000FFF708FB0246012804D00621204600F0A1
:10C4E000D3FDE6E79DE80E00204600F09BFDE0E767
:10C4F00003221946F2E700006828002010B50D4C11
:10C500002078002814D10C4A01210C48FDF758FC72
:10C5100008B1FDF7CDFB09480022083840F26661FA
:10C520008068FDF789FC08B1FDF7C2FB012020708F
:10C5300010BD00003028002055CF070020DA07008A
:10C5400030B587B0002401940294039404948A1DAA
:10C550008B790831022B35D153888589AB4231D193
:10C56000127A042A2ED0062A2CD0052A2AD002229A
:10C5700001238DF804208DF80A300B89ADF80C30BA
:10C580004B890C31CDE90414ADF81420104DADF8F1
:10C590000E30CDF818D0018A05AA2888A5DF18B971
:10C5A0006846FDF709FE30B1ADF8084001A92888BA
:10C5B000A8DF50B106E040F2FD10ADF8080001A977
:10C5C0002888A8DF002007B030BD0120FBE700006D
:10C5D0006828002030B50546C888AA8887B09042F0
:10C5E00023D1002005900390049000900290022037
:10C5F0008DF8000001F112000190088A029003AA50
:10C6000069460020FFF76EFA094C608800280CD0BC
:10C61000A088401E0004000CA08006D1DDE90412B1
:10C62000284600F0D3FC6088A08007B030BD000031
:10C6300068280020F8B50D4614460646694600F005
:10C6400057FA00280ED0009BFF2B0AD8581C8342B3
:10C6500007D869780222B2EB911F02D02979814272
:10C6600001D20020F8BD2370611C3046009A00F012
:10C6700069FBF8BD114600F0D6B8114600F0E3B8EA
:10C68000F8B50C4615460646694600F031FA002812
:10C690000CD0009A501C904207D361780223B3EB70
:10C6A000911F02D02179814201D20020F8BD294694
:10C6B000304600F047FB009A0021A954F8BD2DE94F
:10C6C000FF410C468E6817460546694600F00CFB94
:10C6D00000280ED0A06800280BD060783A46C0F33E
:10C6E000011002283146684606D000F0DBF80199B7
:10C6F000696004B0BDE8F08100F086F8F7E77CB52A
:10C700000D461446694600F090F9002820D028799B
:10C71000082806D0042809D002280AD001280CD005
:10C7200015E0DDE90001C4E900010AE0009820609D
:10C7300006E0009800B2208002E0009840B220702D
:10C74000C117DDE9002350405940084301D00020C3
:10C750007CBD01207CBD7CB50D461446694600F0C9
:10C76000A2F9002820D02879082807D00021042821
:10C7700009D002280AD001280CD014E0DDE900011C
:10C78000C4E9000109E00098206006E0009880B24A
:10C79000208002E00098C0B22070DDE90023504004
:10C7A0005940084301D000207CBD01207CBD7CB5F0
:10C7B0000D461446694600F076F9002821D0297903
:10C7C000082908D00098C21704290BD002290DD0DF
:10C7D00001290ED014E0DDE90002C4E9000201469F
:10C7E000134609E0C3170146206005E001B221802D
:10C7F00001E041B22170CB1741405340194301D0B1
:10C8000000207CBD01207CBD70B50D460646144657
:10C810001146284600F083FA224629463046BDE8F4
:10C82000704000F03FB838B50C460422694600F06D
:10C8300089FA002806D09DF80310009861F31F6064
:10C840002060012038BD1CB50C460822694600F066
:10C8500079FA002824D09DF801109DF800209DF859
:10C860000230080E42EA012242EA034240EA134043
:10C870009DF803309DF8041040EA132008439DF80A
:10C88000051042EA036240EA01209DF8061040EAE2
:10C8900001409DF8071040EA0160C4E90020012032
:10C8A0001CBD00002DE9F04F04469DB00020009013
:10C8B000064601904FF0FF3A0AA800F051F94FF0F8
:10C8C000010BE94682E012AB05AA06A9204600F05A
:10C8D000C9F850B10AA8059900F053F960B10B9856
:10C8E000407810F0300F53D060E09DF848000028E9
:10C8F00070D11DB0BDE8F08F0598B04242D30B9DBA
:10C900000AAE0B98407800F00F00082812D030468D
:10C9100000F04EF90B98A842F3D156460599B14262
:10C9200030D3D4F8088009919DF8181008910E9919
:10C930000D6820E00B980678F0E729680F682FB1A2
:10C94000DDE9083229462046B84711E0119489688C
:10C95000DDE90872097891420CD1294617A8FEF743
:10C96000EAF885F80CB017AA39461198FDF769FD69
:10C970000028BED0AD6815B1A1684145DDD0A168E1
:10C98000414523D19DF81810204600F017FA1BE00E
:10C990000C9840280AD200F01F010BFA01F00C9904
:10C9A0004A0959F82230034349F82230E5682DB18D
:10C9B0000AAB9DF8182020460599A8470AAA9DF8B9
:10C9C00018102046FDF73DFD002892D0A0680028F1
:10C9D0007FF479AFDDE90B0445780AA800F0E8F8A8
:10C9E0000028F7D115F0300F03D10B98007800B173
:10C9F000641CC4B10020494605E000BF51F8202066
:10CA0000521C0ED1401CB0EB541FF7D3600959F8EB
:10CA1000201004F01F00C0F120022AFA02F0814227
:10CA200001D0002065E7012063E71CB50C4669468C
:10CA300000F039F8002814D0DDE90002C10709D060
:10CA400051084FEA30006FEA00026FEA0100C4E9C2
:10CA5000002004E051084FEA3000C4E900014FF023
:10CA600001001CBDF8B507460020187008700E467E
:10CA700010601C4615466946384600F039F801003A
:10CA80004FF0010009D0009959B1C80828600098FA
:10CA900000F0070030700120F8BDB96809B100202E
:10CAA000F8BD2070FBE72DE9F84300268846814653
:10CAB0003446354604E0402E02D30020BDE8F8831A
:10CAC0006946484600F06AF90028F7D09DF80070E2
:10CAD000324607F07F00C10FFBF7D8FC294304431F
:10CAE000F61D0D463806E6D4C8E900410120E5E709
:10CAF000F8B50E460746694600F050F900280AD0FE
:10CB00009DF80040200616D5072504F07F0403E0B9
:10CB1000202D01D30020F8BD6946384600F03EF9CB
:10CB20000028F8D09DF8001001F07F00A8400443D1
:10CB3000ED1D0806ECD401203460F8BD5968064AA2
:10CB40008968914206D1D0E90110044A401E491C6F
:10CB5000C2E9001070470000C4D807004028002038
:10CB6000C26000230160C0E901138B781A4402619E
:10CB700091F903301A4442610878002800D001205E
:10CB8000704770B545680E46044660680178B1424A
:10CB900006D1407800F00F00082801D0012070BDB8
:10CBA000204600F005F86068A842EED1002070BD74
:10CBB00030B541680A785AB101F10C0343600A7B31
:10CBC00042B14C780A79C4F30115032D07D00BE06C
:10CBD000002030BDC2680168FFF7C2FFF8E75D784A
:10CBE000C5F30115032D07D00225B5EB141F09D19C
:10CBF0004C7914FB02F209E08D7804690022641B71
:10CC0000046103E0B5EB941F00D10422497811F0D0
:10CC1000300F02D18168491C81609C7801692144F0
:10CC20001144016193F9032011444161012030BD99
:10CC300030B54168002487B0497801F00F02082A16
:10CC400011D08A091ED00222B2EB911F09D10269CC
:10CC5000C1F301110229146001D0032901D14069F7
:10CC6000047007B030BD0069056808E02C732946E0
:10CC70006846FDF760FF6846FFF7DAFFAD68002DF4
:10CC8000F4D1EEE7C1F30111012912D00229E6D057
:10CC90000329E4D04268517801F00F0107290BD035
:10CCA000916881B11279006907B0BDE83040FBF7A7
:10CCB000FCBB41690C70EDE70169906807B0BDE805
:10CCC000304000F02CB81179006907B0BDE8304061
:10CCD000FBF704BC10B5034B002408C080E8160025
:10CCE00010BD000097A2070038B50D4604466946FE
:10CCF000FFF7FEFE00280BD0D4E90002D4E90213AE
:10CD0000C5E90002C5E902130098814201D2002062
:10CD100038BDA860A168081AA060012038BD00B520
:10CD20000A4687B001466846FFF71AFF002807D079
:10CD30006846FFF77DFF6846FFF73AFF0028F7D106
:10CD400007B000BD7FB514460546A9B9124A286848
:10CD5000904208D110E0102269462846FFF7F2FF02
:10CD6000002807D0103C102CF5D8224669462846EA
:10CD7000FFF7E8FF04B070BDA868A04201D2002010
:10CD8000F8E72B682246284698470028F2D0A86882
:10CD9000001BA8600120EDE797A2070010B504462C
:10CDA0008068002809D0236801222046984700287F
:10CDB00003D0A068401EA060012010BD38B500243B
:10CDC00039B1012912D0022912D005291DD0002025
:10CDD00038BD0546012269462846FFF7B3FF90B1EA
:10CDE0009DF800000006F5D4012038BD08220DE0B2
:10CDF00005466946FFF77CFE28B100212846009AC7
:10CE0000FFF7A0FF38BD204638BD0422BDE83840FA
:10CE10000021FFF797BF00002DE9F041204C0025CD
:10CE2000204E207A012730B91F48311D0068FDF7D8
:10CE300074FF306038B1022020723168087928B15F
:10CE400001281CD114E06560BDE8F081D1E905033B
:10CE5000C01A142800D31420B7EB900F01D2820817
:10CE600000E001220869C9681844194429DF03E079
:10CE7000D1E90301084428DF38B111280ED003217D
:10CE80003068FDF76DFD2572DDE7207C0028DBD1E1
:10CE9000BDE8F04100210220FFF7A8B82772D3E7D0
:10CEA00030340020A4280020D0DA070038B5084C20
:10CEB0000121201D6A46FBF77FFA0090002806D169
:10CEC000607C002803D1BDE83840FFF7A5BF38BD1E
:10CED0003034002010B510461A46FBF7E6FA002061
:10CEE00010BD10B510461A46FBF7DFFA002010BD42
:10CEF0002DE9F0411E681C461546074621B101295F
:10CF000018D0052923D119E000202060401C2060A2
:10CF1000B0421CD8012229463846FFF713FF0028EB
:10CF200006D015F8010B000601D52068EEE70120B8
:10CF3000BDE8F08108200246186002E004200246A5
:10CF4000186029463846BDE8F041FFF7FBBE0020D7
:10CF5000EEE700000A4810B5007900280ED0FEF771
:10CF600027FFBFF34F8F07480168074A01F4E061CC
:10CF700011430160BFF34F8F00BFFDE710BD0000FC
:10CF8000302800200CED00E00400FA0510B5FEF793
:10CF900017F9002814D00B4A00210B48FCF710FFAA
:10CFA00008B1FCF785FE084800224FF4A021006874
:10CFB000FCF742FF002803D0BDE81040FCF778BE24
:10CFC00010BD000039BB070098DA07002DE9F041D9
:10CFD000124D0646904628880A46A0F57F41FF3943
:10CFE00019D0287AC00716D00D4C6020012120707E
:10CFF00003206070A170E11C104600F0C7FBC71C45
:10D00000E119404600F0C2FBC219B1892888BDE889
:10D01000F04100F0FFB80820BDE8F081682800204A
:10D02000182D00202DE9F047154D0646904628881A
:10D030000A46A0F57F419946FF391ED0287AC007DD
:10D040001BD0104C60200621207061700120A07060
:10D05000E11C104600F09AFBC71CE119404600F0A5
:10D0600095FB0744E119484600F090FBC219B189CD
:10D070002888BDE8F04700F0CDB80820BDE8F0876B
:10D0800068280020182D00202DE9F041114D074699
:10D090002888A0F57F43FF3B0BD0287AC00708D033
:10D0A0000D4C6020032620706170A2700B2A03D003
:10D0B00009E00820BDE8F081FDF77AFCE070042665
:10D0C0000020FDF77DFCB98932462888BDE8F04193
:10D0D00000F0A0B868280020182D002008467047EE
:10D0E0000846704770B5012670044FF0E021002516
:10D0F000C1F88001084C4010C4F84803C4F8080384
:10D1000066602F20FDF7C8FFA660044C2F20A560A5
:10D11000FDF7C2FFA57070BD001001408C280020F3
:10D1200070B50D460446FCF749FD70B12846FCF782
:10D1300057FD68B16807000E002C0CDA04F00F01EF
:10D1400001F1E02181F8140D09E042F2010070BD07
:10D1500042F2020070BD04F1E02484F800040020D3
:10D1600070BD000038B50021012558B101280ED04E
:10D1700003280BD107210020FEF7D0FEBDE8384080
:10D18000FEF768BE4FF0E020C0F8805138BD8DF842
:10D1900000106846FCF7A4FE064C207808B9FEF79C
:10D1A00033FEE068401CE060A5709DF80000FCF7CD
:10D1B000BBFE38BD083200203EB50446094968462A
:10D1C000FFF7CAF808E000BFD0E9002120469047E9
:10D1D00030B16846FFF7D7F802980028F4D13EBD79
:10D1E00011203EBD14DC07003EB5044608496846E0
:10D1F000FFF7B2F807E000BFD0E9002120469047D2
:10D200006846FFF7C0F802980028F5D13EBD00003F
:10D2100020DC070007B584B000220092ADF80010B2
:10D2200001218DF8021006A9029103490391019290
:10D230006946A6DF07B000BD182D002070B5164660
:10D240000D46040007D035B1206C8022002138281B
:10D25000225403D307E00E2070BD2154401C38280F
:10D26000FBD30BE02154401C4028FBD32146084649
:10D2700000F096F838212046FBF730F9216CD4E90C
:10D2800012304A0FC900383459185041C4E904100B
:10D29000227CE2710A0A42EA0062A2710A0C42EAA6
:10D2A00000426271020242EA116020716069E0701E
:10D2B000010AA170010C6170000E04F838092146C2
:10D2C000084600F06DF84FF00002EEB1E06ED100BC
:10D2D000C840A854A36ECB40A8180371636ECB401E
:10D2E0000372236ECB400373E36DCB400374A36DD5
:10D2F000CB400375636DCB400376236DCB40521C4E
:10D300000377042AE2D31FE018235042216D03EB78
:10D31000C000C140A954666DC640A9180E71A66D23
:10D32000C6400E72E66DC6400E73266EC6400E7481
:10D33000666EC6400E75A66EC6400E76E66EC64098
:10D34000521C0E77042AE0D3002070BDA8B1002142
:10D350000164C0E912110A4901650A4941650A4997
:10D3600081650A49C1650A4901660A4941660A4957
:10D3700081660A49C166002070470E207047000090
:10D3800067E6096A85AE67BB72F36E3C3AF54FA556
:10D390007F520E518C68059BABD9831F19CDE05B82
:10D3A0002DE9F04FC8B0002213466F46CC181B1D64
:10D3B0002568E4782DBA25F0FF05254347F822506B
:10D3C000521C102AF2D31BE007EB820151F8083CF3
:10D3D0004FEA734484EAF34484EA932451F83C3CD2
:10D3E0004FEAF31585EAB34585EAD303234451F8A0
:10D3F0001C4C51F8401C2144194447F82210521C7F
:10D40000402AE1D3036D4793416D4691846D459465
:10D41000C26D44929246026E4392456E4295A94671
:10D42000856E4195C66E4096B34600264FEAB21708
:10D4300087EAF22787EA726C02EA090725EA0208FE
:10D4400087EA0807BC44204F57F8268008EB0B07F3
:10D45000BC445DF82670AB460CEB070E4FEAB307F1
:10D4600087EA733787EAB35C81EA04074D4601EA2D
:10D47000040891461F400AEB0E02A24687EA0807FD
:10D480000C46BC441946761C0EEB0C03402ECDD343
:10D49000479E33440365469B1944416545992144A1
:10D4A000816544995144C16543991144016642998B
:10D4B0004944416641992944816640995944C1666D
:10D4C00048B0BDE8F08F000000DB07002DE9F04117
:10D4D00016460F46040004D006B317B10025A8462F
:10D4E0001AE00E20BDE8F081216C785D6054206C5C
:10D4F000401C206440280ED121460846FFF750FF0B
:10D50000D4E912014FF40072801841F10001C4F80F
:10D510004080C4E912016D1CB542E5D30020E1E76B
:10D52000002801D1FCF7C6BE7047000010B51620D8
:10D53000FCF744FB48B10A4882684FF4800152B1BD
:10D54000016821F48001016010BDBDE8104042F285
:10D550000100FCF7ADBB4FF0E020C0F8801110BD1A
:10D560002833002010B51620FCF728FB80B10F48A7
:10D5700090F800044009FCF733FB60B10C48826866
:10D580004FF480016AB1016841F48001016010BD6F
:10D5900042F2010001E042F20200BDE81040FCF757
:10D5A00087BB4FF0E020C0F8001110BD16E000E08E
:10D5B000283300202DE9F84F1D4C00256846D4E99A
:10D5C00001A6FDF747F9002738B30023009A6168E8
:10D5D0001CE0D1F800C00846944503D9ACEB020228
:10D5E0000A6015E0A2EB0C0263440760D0F80CC09F
:10D5F000C1698146BCF1000F08D006EB030828F092
:10D600007F48C0E9018CC9F81C5005460029E0D1CB
:10D6100028466160FDF7BAFA03E02846FDF7B6FA3E
:10D6200010B15046FCF75AFEE770BDE8F88F0000D5
:10D630008C2800200D4B10B5596831B102680C6878
:10D64000A24204D8A21A0A60C161586010BD0B46FC
:10D6500003E00B46C969121B21B10C689442F8D350
:10D66000A41A0C600260C161D86110BD8C28002032
:10D670002DE9F041144E77683D462C4603E0844284
:10D6800004D02546E469002CF9D11BE0D4B1A542B1
:10D690000BD1F869706040B90C4901208860002105
:10D6A000B160F0702F20FDF7F7FC2168E069E861B8
:10D6B00010B10268114401607068874202D00120F5
:10D6C000BDE8F0810020FBE78C280020001001401D
:10D6D0007CB5064600240D468DF800406846FCF7F0
:10D6E000FFFB01A800F074F870B1057009494660AD
:10D6F0009DF8040048709DF80000FCF715FC14200C
:10D70000FCF751F820467CBD04249DF80000FCF78E
:10D710000BFCF7E71C3200202DE9F041194D6C6835
:10D72000002C2CD0184800270068A968B846401A79
:10D7300020F07F462068B0420CD82146361A0744B4
:10D74000E469087C20B181F81080886949698847BC
:10D75000002CEFD129786878814206D1401CC0B2F4
:10D760006870022801D185F80180064869780C307C
:10D7700040F82170BDE8F0411420FCF714B8BDE872
:10D78000F08100008C280020041501400870020A76
:10D790004A70020C8A70000EC870042070470000A6
:10D7A00010B50248FDF7CFFA002010BDA0280020D8
:10D7B00010B514210448FAF791FE04480068FDF7FB
:10D7C0007BFA002010BD000030340020D0DA0700C2
:10D7D0000A494A788B78521CD2B2934200D1002277
:10D7E0000B78934201D1002070470270487800EB1B
:10D7F000400001EBC000001D704700001C320020FB
:10D8000000207047002070472DE9F84380461C46F1
:10D8100017460E460C48089DFDF79CFA10B11120E2
:10D82000BDE8F883A20839463046FEF7A7FC064853
:10D83000FDF789FA23463246012140460095FDF75F
:10D8400073F80020ECE70000A02800202DE9F84F35
:10D85000114D884681461E4617466946DDF828A0C8
:10D860002868FDF744FA040013D01C21FAF736FEAD
:10D8700000202071C4F80090C4E90486C4E902A71E
:10D8800069462868FDF754FAFFF710FB0020BDE851
:10D89000F88F0420FBE70000D0DA0700000000004A
:10D8A000010100000100000000000000020500006E
:10D8B0002100000000000000000000000000000047
:10D8C00000000000011104FC040000000000000042
:10D8D000021104FC0400000000000000032104FC0D
:10D8E0000410000000000000041101FF010000000E
:10D8F00000000000051102FE04000000000000000E
:10D90000061104FC0400000000000000071104FCE4
:10D910000400000000000000081701FF22000000C2
:10D92000A0D80700091001FF010000009CD80700E3
:10D9300000000000000000000000000001010000E5
:10D9400004000000000000000000000000000000D3
:10D9500000000000011101FF0100000000000000B4
:10D96000021702FE94000000C4D80700031704FC4D
:10D97000040000003CD90700000000000000000087
:10D980000000000001070000A000000054D90700BB
:10D99000020100000100000000000000030500007B
:10D9A0004100000000000000000000000000000036
:10D9B00000000000011704FCA000000054D907007B
:10D9C000021704FCE400000084D9070000000000F6
:10D9D00000000000000000003423E1A1400576684B
:10D9E00009E7B0BDB252D64CFAF6E7F60F106EBD9D
:10D9F0009DCF5E71F56DD43C6C281482C32852E132
:10DA0000102AB5DAAA84C01CD81DDC0ED1E97F82A9
:10DA1000715B76EED1D1C440050004050000000022
:10DA2000642C0020111213140D0E0F1002000000C0
:10DA300000000000000000000000000000002800BE
:10DA40000000000050EADA308883B89F604F15F379
:10DA50000000C98E482D00200100000000000000D9
:10DA600000000000000000000200000000000000B4
:10DA700000000000000000000300000000000000A3
:10DA80000000000000000000040000000000000092
:10DA90000000000000000000782E002000000000C0
:10DAA00070000000001000000400000001000000F1
:10DAB000B1AA0700A1D70700D5CE070009D80700F3
:10DAC00095A80700DDD0070001D80700F5AA0700D8
:10DAD0004434002000100000040000000100000099
:10DAE000BDAA0700B1D70700E3CE07004DD8070055
:10DAF000DDA80700E1D0070005D8070005AB070047
:10DB0000982F8A4291443771CFFBC0B5A5DBB5E9A8
:10DB10005BC25639F111F159A4823F92D55E1CAB1C
:10DB200098AA07D8015B8312BE853124C37D0C55AA
:10DB3000745DBE72FEB1DE80A706DC9B74F19BC1F2
:10DB4000C1699BE48647BEEFC69DC10FCCA10C24E2
:10DB50006F2CE92DAA84744ADCA9B05CDA88F976C6
:10DB600052513E986DC631A8C82703B0C77F59BF30
:10DB7000F30BE0C64791A7D55163CA06672929145C
:10DB8000850AB72738211B2EFC6D2C4D130D3853F9
:10DB900054730A65BB0A6A762EC9C281852C7292BB
:10DBA000A1E8BFA24B661AA8708B4BC2A3516CC7E9
:10DBB00019E892D1240699D685350EF470A06A1022
:10DBC00016C1A419086C371E4C774827B5BCB03471
:10DBD000B30C1C394AAAD84E4FCA9C5BF36F2E680F
:10DBE000EE828F746F63A5781478C8840802C78C9E
:10DBF000FAFFBE90EB6C50A4F7A3F9BEF27871C6A1
:10DC0000A8DD0700B0DD07000000000000000000F4
:10DC10000200000700DC070010DC0700080000001D
:10DC200038DC070048DC07000800000048DC07007B
:10DC300058DC070008000000D0DD0700E0DD070029
:10DC40000000000000000000C0DD0700D0DD07007C
:10DC500000000000000000000000000000000000C4
:10DC60000000000000000000A0DD0700A8DD0700A4
:10DC700000000000000000003028002058DC0700F1
:10DC800078DC070008000000B0DD0700C0DD0700F9
:10DC9000000000000000000088DC070098DC07009E
:10DCA00008000000AFC7070057C70700FFC60700FE
:10DCB00075C607007BC6070035C6070081C607008A
:10DCC000BFC607000000000008200001FFFFFFFFA3
:10DCD000FFFFFFFFFFFFFFFF00000000000000004C
:10DCE0000000000001000000FFFFFFFF512563FC62
:10DCF000C2CAB9F3849E17A7ADFAE6BCFFFFFFFFC7
:10DD0000FFFFFFFF00000000FFFFFFFF96C298D853
:10DD10004539A1F4A033EB2D817D0377F240A46354
:10DD2000E5E6BCF847422CE1F2D1176BF551BF375D
:10DD30006840B6CBCE5E316B5733CE2B169E0F7C30
:10DD40004AEBE78E9B7F1AFEE242E34F4B60D227FD
:10DD50003E3CCE3BF6B053CCB0061D65BC869876F3
:10DD600055BDEBB3E7933AAAD835C65AD386070018
:10DD70001997070035950700ECDD070030280020D3
:10DD8000980000009C9B070084DE0700C828002044
:10DD9000902B0000AC9B070005A00700C59F070063
:10DDA00065A0070000000000B5BF070000000000EC
:10DDB00021D5070000000000EDBF070000000000B3
:10DDC000D9C10700000000001DC3070000000000CB
:10DDD00065D1070000000000CDBF07000000000073
:10DDE0000000000003000000E9BB07000001000084
:10DDF0000000000000000000000000000000000023
:10DE000000000000D8D9070040000000842C00204A
:10DE100040000000C42C002020000000E42C002062
:10DE200020000000FFFF00000000000000000000D4
:10DE300000000000000000000000000000000000E2
:10DE400000000000000000000000000000000000D2
:10DE500000000000000000000000000000000000C2
:10DE60000000000000000000000000000090D0034F
:10DE7000000000000000000015A6070000100000D0
:04DE80000000080096
:10F0000030FDF69401000000010000000100000046
:10F01000000000000000000030540000750CE660A5
:10F0200001000000000000000000000000000000DF
:10F0300000000000000000000000000000000000D0
:10F0400000000000000000000000000000000000C0
:0CF05000000000000000000000000000B4
:020000041000EA
:081014000080070000E0070066
:00000001FF
