:020000040002F8
:103000003083002051350200593502005B35020043
:103010005D3502005F3502006135020000000000EE
:103020000000000000000000000000001532020057
:1030300065350200000000005932020069350200C7
:10304000D53802006B350200253D02006B350200C9
:103050006B3502006B350200613702006B350200F0
:103060006B3502006B3502006B3502006B350200D8
:103070006B3502006B3502006B3502006B350200C8
:103080006B3502002D3902006B3502006B350200F2
:103090006B3502006B350200F53902006B3502001A
:1030A0006B3502006B3502006B3502006B35020098
:1030B0006B3502006B3502000000000000000000CC
:1030C0006B3502006B3502006B3502006B35020078
:1030D0006B3502006B3502006B350200000000000A
:1030E00000000000000000000000000000000000E0
:1030F00000000000000000000000000000000000D0
:1031000000000000000000000000000000000000BF
:1031100000000000000000000000000000000000AF
:10312000000000000000000000000000000000009F
:10313000000000000000000000000000000000008F
:10314000000000000000000000000000000000007F
:10315000000000000000000000000000000000006F
:10316000000000000000000000000000000000005F
:10317000000000000000000000000000000000004F
:10318000000000000000000000000000000000003F
:10319000000000000000000000000000000000002F
:1031A000000000000000000000000000000000001F
:1031B000000000000000000000000000000000000F
:1031C00000000000000000000000000000000000FF
:1031D00000000000000000000000000000000000EF
:1031E00000000000000000000000000000000000DF
:1031F00000000000000000000000000000000000CF
:10320000DFF80CD000F050FA00480047256D0200AE
:1032100030830020264B19680868B0E8F04F80F32F
:103220000988BFF36F8F4FF0000080F3118870475B
:10323000000000000748006880F3088862B661B6A5
:10324000BFF34F8FBFF36F8F4FF4F07080F311888F
:1032500000DF000000300200EFF30980BFF36F8F42
:10326000134B1A681EF0100F08BF20ED108A20E9DA
:10327000F04F106008B44FF0200080F31188BFF3C6
:103280004F8FBFF36F8F07F0BFFD4FF0000080F34B
:10329000118808BC19680868B0E8F04F1EF0100FDC
:1032A00008BFB0EC108A80F30988BFF36F8F7047B6
:1032B000E827002030B450E8012F93B2C48923449A
:1032C0008489A34228BF1B1B0489A34202BFBFF30A
:1032D0002F8F002007E0C3EA020340E80134002CEE
:1032E000E9D14FF001000A6030BC704750E8012F6F
:1032F000C2EA024240E801210029F7D1704730B408
:1033000050E8022F1FFAA2F3C488A34202BFBFF302
:103310002F8F00200DE0C48923448489A34228BF55
:103320001B1BC2EA034340E80234002CE8D14FF0F3
:1033300001000A6030BC704750E8022FC2EA224206
:1033400040E802210029F7D17047034653E8022FD5
:10335000D988B2EB324F4FF0000017BF92B241EA6A
:10336000014142EA014104E05A68B2EB324F08BF22
:10337000012043E80212002AE8D1704730B4044625
:1033800054E8000F0D4644E80053002BF8D11560B7
:1033900030BC704730B4044654E8000F40EA0105E1
:1033A00044E80053002BF7D1156030BC704730B4AF
:1033B000044654E8000F00EA010544E80053002BDE
:1033C000F7D1156030BC704730B4044654E8000FA4
:1033D00080EA010544E80053002BF7D1156030BCAA
:1033E000704730B4044654E8000F00EB010544E890
:1033F0000053002BF7D1156030BC704730B4044641
:1034000054E8000FA0EB010544E80053002BF7D16E
:10341000156030BC7047000030B4044654E8000F1B
:103420000D4644E80053002BF8D1156030BC7047BE
:1034300030B4044654E8000F40EA010544E8005364
:10344000002BF7D1156030BC704730B4044654E807
:10345000000F00EA010544E80053002BF7D1156086
:1034600030BC704730B4044654E8000F80EA0105D0
:1034700044E80053002BF7D1156030BC704730B4DE
:10348000044654E8000F00EB010544E80053002B0C
:10349000F7D1156030BC704730B4044654E8000FD3
:1034A000A0EB010544E80053002BF7D1156030BCB8
:1034B0007047000030B4044654E8000F0D4644E85D
:1034C0000053002BF8D1156030BC704730B404466F
:1034D00054E8000F40EA010544E80053002BF7D1FF
:1034E000156030BC704730B4044654E8000F00EA61
:1034F000010544E80053002BF7D1156030BC70473C
:1035000030B4044654E8000F80EA010544E8005353
:10351000002BF7D1156030BC704730B4044654E836
:10352000000F00EB010544E80053002BF7D11560B4
:1035300030BC704730B4044654E8000FA0EB0105DE
:1035400044E80053002BF7D1156030BC70470000F1
:103550000648804706480047FEE7FEE7FEE7FEE72D
:10356000FEE7FEE7FEE7FEE7FEE7FEE7293A020098
:10357000013202000048704710BD020040EA01031A
:103580009B0703D009E008C9121F08C0042AFAD219
:1035900003E011F8013B00F8013B521EF9D27047DD
:1035A000D2B201E000F8012B491EFBD27047002285
:1035B000F6E710B513460A4604461946FFF7F0FF32
:1035C000204610BD421C10F8011B0029FBD1801AB7
:1035D000704710B5002200E0521C835C8C5CA34253
:1035E00001D1002BF8D1D8B2E1B2401A10BD034688
:1035F00011F8012B00F8012B002AF9D11846704769
:1036000070B500B91068002512E00B4602E0A64232
:1036100003D05B1C1C78002CF9D1E3B22B4305D0FE
:103620002CB125B1002100F8011B04E00546401C27
:103630000678002EE9D11060284670BD004ADFE709
:10364000E02800202DE9F05F0546002092469B46C9
:1036500088460646814640241BE0284641464746A8
:10366000224600F042F853465A46C01A914110D300
:1036700011461846224600F029F82D1A67EB01087A
:103680004F4622460120002100F020F817EB0009E8
:103690004E41201EA4F10104DFDC484631462A4693
:1036A0004346BDE8F09F0000064C074D06E0E06889
:1036B00040F0010394E8070098471034AC42F6D379
:1036C000FFF7A2FD90C40200B0C40200202A04DB70
:1036D000203A00FA02F1002070479140C2F1200325
:1036E00020FA03F3194390407047202A04DB203A64
:1036F00021FA02F00021704721FA02F3D040C2F112
:103700002002914008431946704770B58C1810F894
:10371000015B15F0070301D110F8013B2A1106D116
:1037200010F8012B03E010F8016B01F8016B5B1E30
:10373000F9D12B0705D40023521E0DD401F8013B0B
:10374000FAE710F8013BCB1A921C03E013F8015B77
:1037500001F8015B521EF9D5A142D8D3002070BDFB
:103760002DE9F04700268CB0DFF86091B0464FF4A9
:103770008075012437460696284604F075FB38B15B
:10378000D9F80403204203D0284604F063FB264303
:103790002D1D64007F1CADB2082FEDD34FF4BE7415
:1037A000204604F061FB48B1204604F053FB46F08C
:1037B000004606AA0121002004F038FB444D16F013
:1037C000FF0F15D00127002437420DD009EB8401EB
:1037D000D1F81005D1F81015C0F3042055F82420B5
:1037E000C1F3014102B190477F00641C082CEBD368
:1037F000002E67DA4FF0FF30CDE90880002634460E
:10380000281910F8507F90F9000027F0C008401CDC
:1038100044D009A9404603F0C6FC58B34FEA9719B3
:10382000404602F01FFE55F820701FB1B9F1030F9A
:1038300003D00FE0B9F1030F30D108A84FEAD80246
:1038400008F00703815C4FF0010C0CFA03FC41EA1D
:103850000C0181544FF0A04101EB8800D0F8000723
:1038600006A9C0F3014A404603F09DFC18B1BAF125
:10387000020F03D012E0BAF1030F0FD1B9F1030F19
:1038800008D1BAF1020F1BD00221404604F0B2FA6F
:10389000761CF6B217B149464046B847641C042C62
:1038A000AED3002E0ED06A460121002004F0BEFAED
:1038B00006990098884205D00690089809909DE7DF
:1038C0000321E2E70CB0BDE8F08700000060004093
:1038D000047200202DE9F0414FF48077384603F060
:1038E000E1FC0124104EA50748B1384603F0E1FC85
:1038F0000120C5F808037470002002F0BBFD4FF4EE
:103900008277384603F0CEFC00280BD0384603F00F
:10391000D0FC0220C5F80803B470BDE8F0410120D6
:1039200002F0A8BDBDE8F081F07100202DE9F04162
:10393000164E4FF4A071304604F014FE0025EFF34C
:103940001184202080F31188D6F80475C100304618
:1039500004F008FE07F07CFD381A20F07F46012EA7
:1039600007D907F067FD022803D0002607F07CFD89
:103970000543761EFAD225B105494FF08050086004
:1039800040BFE0B280F31188BDE8F0810010014033
:1039900004ED00E000F0D4B970B50E46144900EB18
:1039A000400001EBC0051446E86A183520B1012833
:1039B0000FD0022805D113E0284600F0F5F9A04207
:1039C00001D2002411E022463146284600F024FAB4
:1039D0000BE0284600F0E8F9A042F4D20446F2E7F2
:1039E0003146284600F0EBF90446204670BD000041
:1039F0006478002008B500200090094869460068F6
:103A000007F076F80098002808D006494FF080505B
:103A1000086040BFBFF34F8FBFF36F8F08BD00003A
:103A2000D428002004ED00E0F0B5AE480023021DCC
:103A300001780125101D4FF0805406290BD116780E
:103A4000360708D10678C6F30316032E06D0042ED7
:103A500004D0052E02D0062907D00EE0B4F8246366
:103A6000A14FC6F304263E6002E01678360704D163
:103A70000678C6F30316032E02D0062904D00FE001
:103A80009B4F9A4E7E670EE01678360708D106786F
:103A9000C6F30316032E06D0042E04D0052E02D042
:103AA000062907D00EE0D4F84462924FC6F342369E
:103AB0003E6002E01678360704D10678C6F3031696
:103AC000032E02D0062906D011E08B4E376827F06E
:103AD000807737600EE01678360708D10678C6F38F
:103AE0000316032E06D0042E04D0052E02D006297C
:103AF0000AD011E04FF08046C6F80C31C6F81031FC
:103B00007C4E361F336002E01678360704D1067803
:103B1000C6F30316032E02D0062905D00CE0754F1C
:103B2000032664373E600AE01678360704D106782B
:103B3000C6F30316032E02D006290DD014E06F4FF2
:103B400005263E606D4E783635606C4E0836336023
:103B50003F263F1D3E6002E01678360704D1067806
:103B6000C6F30316052E02D0062957D062E0644E34
:103B70003668644F3E60624E361D36683F1D3E60BB
:103B80005F4E083636683F1D3E605D4E0C36366827
:103B90003F1D3E605A4E103636683F1D3E60584EFF
:103BA000143636683F1D3E60554E18363668554F00
:103BB00020373E60524E1C3636683F1D3E60504EE8
:103BC000203636683F1D3E604D4E243636683F1D18
:103BD0003E604B4E283636683F1D3E60484E2C36C0
:103BE00036683F1D3E60464E30363668454F40379A
:103BF0003E60434E343636683F1D3E60404E383698
:103C000036683F1D3E603E4E3C3636683F1D3E6086
:103C10003B4E403636683F1D3E6002E01678360760
:103C200008D10678C6F30316032E06D0042E04D05E
:103C3000052E02D0062907D019E0D4F85812324ACE
:103C400001F04F01116002E0117809070FD10078EF
:103C5000C0F30310032803D0042801D0052806D19F
:103C60002A480168C90702D06FF0010101602248AB
:103C70007438016841F470010160BFF34F8FBFF3E6
:103C80006F8F4FF01021D1F80002002803DBD1F82C
:103C90000402002822DA1E4A15601E480468002C1F
:103CA000FCD01524C1F800420568002DFCD0C1F8F5
:103CB000044201680029FCD0136001680029FCD08F
:103CC000BFF34F8F0C48F0380168134A01F4E061EC
:103CD00011430160BFF34F8F00BFFDE710490F484C
:103CE0000860F0BDE00F00F0403501400DF0ADBAC6
:103CF00000C007403C050040FCED00E010560040CD
:103D00000404001020C50040E40E00400004004000
:103D100004E5014000E401400400FA050090D003EE
:103D2000E02700200448017F04480029024901D00F
:103D300006F06EBB06F0CCBA843F002000200040A5
:103D400010B5124C02202061606111A0A06104F145
:103D50007800E0614FF4007020620020A062606291
:103D60000BA1A164E06204F51E71E1641021A0655D
:103D7000C4E91410E06509A1E01DFFF738FC08A1B3
:103D80002046FFF734FC2020A07110BD647800208D
:103D90005465726D696E616C0000000052545400ED
:103DA00053454747455200000269C1688A4203D81B
:103DB0008068401A104400E0501A401E70472DE9F8
:103DC000F047C4681746894606464FF00008306938
:103DD000A04201D9051B02E0B168201A0D1AB06893
:103DE0006D1E001BA84200D80546BD4200D33D46CB
:103DF00070682A4620444946FFF7C0FBB0687F1B25
:103E00002C44A844A944A04200D10024F460002F0F
:103E1000DDD14046BDE8F0872DE9F04104468846F3
:103E2000D4E90207C51BE168606816460844B5423C
:103E300006D94146FFF7A2FBB819E060BDE8F08162
:103E40002A464146FFF79AFB761B08EB05013246EE
:103E50006068FFF793FBE660F0E700000FB4054BE6
:103E600010B503A9044A029800F036F810BC5DF8BA
:103E700014FB0000B1680200A827002002E008C877
:103E8000121F08C1002AFAD170477047002001E0D4
:103E900001C1121F002AFBD1704700000121202818
:103EA00003DA81400548014003E0402802DA203867
:103EB000814009B10120704700207047FC06FFBD1A
:103EC000082806D228B1012803D0042801D00120F7
:103ED00070470020704700002DE9FF4F8DB00F465E
:103EE0000546002606E025280BD0DDE90F12904795
:103EF0006D1C761C28780028F5D111B03046BDE83D
:103F0000F08F0024A246A1460122EC4900E00443C0
:103F100015F8013F203B02FA03F00842F7D1287858
:103F20002A2810D06FF02F022878A0F1300109293B
:103F300014D80AEB8A0102EB410144F0020400EBC1
:103F4000010A6D1CF0E701CF5FEA000A03D544F4D3
:103F50000054CAF1000A44F002046D1C28782E288F
:103F600017D115F8010F44F004042A280ED06FF081
:103F70002F022878A0F1300109290AD809EB89011C
:103F800002EB410100EB01096D1CF2E757F8049BBD
:103F90006D1C28786C280FD006DC4C2817D06828B8
:103FA0000DD06A2814D104E0742810D07A280FD1DB
:103FB0000DE044F400140AE044F4801401E044F4F9
:103FC00040146978814202D104F580146D1C6D1C87
:103FD0002A786E2A1FD00CDC632A31D004DC002A38
:103FE0008BD0582A11D1A3E0642A68D0692A0CD159
:103FF00065E0732A2ED004DC6F2A73D0702A04D1B6
:104000009BE0752A6FD0782A6ED01046DDE90F123A
:104010009047761C50E1C4F30250022806D00328D2
:1040200009D0042801CF09D0066045E101CFF1177E
:10403000C0E9006140E101CF06803DE106703BE14F
:1040400017F8040B8DF8000000208DF80100EB46F6
:10405000012003E057F804BB4FF0FF3061074FF039
:10406000000102D40DE008F10101884649450FDA4C
:104070008045F8DB1BF808100029F4D108E008F1AE
:10408000010188468142FADB1BF808100029F6D1AD
:10409000DDE90F23AAEB08008146214600F036F93E
:1040A000304400EB080604E0DDE90F121BF8010BB9
:1040B0009047B8F10108F7D221464846F7E00A21B7
:1040C000C4F302534FF0000B0891022B04D001CF30
:1040D000C117032B09D00AE0FF1D27F00707F7E8F7
:1040E000020108E032E01FE020E000B2C117042B1B
:1040F00001D140B2C117031E71F1000307DA4FF07E
:10410000000CD0EB0C006CEB01012D2302E0230529
:1041100004D52B238DF82430012303E0E30701D0DD
:104120002023F7E7984658E00A2110E010210EE01E
:1041300010204FF0000B08900CE010214FF0000B06
:1041400044F004044FF00809089103E008214FF0FF
:10415000000B0891C4F30253022B04D001CF0021BD
:10416000032B06D006E0FF1D27F00707F7E8020142
:1041700003E080B2042B00D1C0B24FF00008230747
:104180002BD5702A07D0DDF820C08CF0100C5CEA2B
:104190000B0C05D00EE040238DF82430012308E0FD
:1041A00050EA010306D030238DF824308DF8252005
:1041B00002239846DDF820C08CF0080C5CEA0B0C5A
:1041C0000BD150EA010301D1630706D530238DF8E6
:1041D00024304FF00108A9F10109582A04D038A26F
:1041E0000B9208AA0A920BE03AA2F9E75B46089AFA
:1041F000FFF728FA0B9B9B5C0A9A521E0A921370D7
:1042000050EA0102F2D10A98ADEB000000F1200B58
:10421000600702D524F4803401E04FF00109D9454C
:1042200002DDA9EB0B0000E0002000EB0B01414494
:104230000890AAEB010AE00306D4DDE90F2321462A
:10424000504600F063F806444FF0000908E009A961
:1042500011F80900DDE90F12904709F10109761CF8
:10426000C145F4DBE0030CD5DDE90F2321465046C0
:1042700000F04CF8064404E0DDE90F1230209047CE
:10428000761C0899481E08900029F5DC08E00A9879
:104290000A990078491C0A91DDE90F129047761CB3
:1042A000BBF10001ABF1010BF1DC21465046DDE929
:1042B0000F2300F019F806446D1C1BE609280100C5
:1042C000303132333435363738396162636465668C
:1042D000000000003031323334353637383941424E
:1042E00043444546000000002DE9F0410446002506
:1042F0001E461746880404D405E039462020B047FE
:104300006D1C641EF9D52846BDE8F0812DE9F04109
:10431000044600251E469046C80301D5302700E01C
:104320002027880404D505E041463846B0476D1C77
:10433000641EF9D52846BDE8F08110B5012202219E
:10434000002001F08FFE08B1072810D107220221BA
:10435000012001F087FE08B1072808D100210A22B8
:10436000084601F07FFE08B1072800D1002010BDEB
:1043700000B5A9B0A0216846FFF719F902208DF811
:10438000000000208DF8020005208DF803000120B8
:104390000F490591ADF8100040211E22CDE92212EF
:1043A0008DF87C008DF87D008021CDE924128DF8F8
:1043B0007800084826906946074800F04FFE08B18B
:1043C00000F0A8F80121044800F045FE29B000BD26
:1043D00094270020398C02008C3B0020022001F041
:1043E00039BD000070B50024064D06E06868012163
:1043F00010F8340002F0F4FF641C28788442F5D3EE
:10440000002070BD58280020F8B515460C46064619
:10441000052A01D20720F8BD03F0C8F818B903F047
:1044200097F80028F7D1104900204E600C70C1E9C0
:1044300002500E4D08610DE006EBC4006968009162
:1044400081788DF801100078094A694603F01AF85E
:104450000028E0D1641EE4B2EED2BDE8F840054A7F
:104460000021024800F09AB8582800209CBA0200A7
:10447000F169020001660200074910B5496801EBC5
:10448000C004207803F05AF86178012901D0012195
:1044900000E00021484010BD5828002003F064FFD0
:1044A00003F0B2FD0028FBD1104C0121208801EB64
:1044B00000400FA103F0A0FE10480068C00700D024
:1044C00000BE2088022101EB00400DA103F094FE04
:1044D000BFF34F8F0948E43801680D4A01F4E061E9
:1044E00011430160BFF34F8F00BFFDE72C2900206F
:1044F000466174616C206572726F7200F0ED00E0CD
:1045000053797374656D20726573657400000000E3
:104510000400FA050EB500210091CDE901106A46AC
:1045200044F20100FFF7BAFF0EBD10B58268C36800
:10453000934203D002F0CBF8002010BD052010BD3F
:104540008168C068401A704729B112B1531E1342E6
:1045500003D0092070470E2070470160838000213E
:104560008160C1600846704710B58268C3689A1AB6
:1045700083889A4203D802F0B4F8002010BD0420CA
:1045800010BD10B505F090F9017B002905D0016838
:104590008268BDE810400846104710BD38B5046871
:1045A00000251AB110B1207B20B901E0072038BDE9
:1045B000606808B1082038BD00202060A060E0607D
:1045C00069B10120A26008490246009123464FF4D8
:1045D0007A7106A007F012F9606010B102E00020C5
:1045E000F0E70E25284638BD834502002000000074
:1045F000002070472DE9FC41466815460F460446E9
:1046000056B1207B002809D0304607F05FF900281A
:1046100004D00020BDE8FC810820FBE7EFF3058013
:10462000256008B30025019501AB3A4609213046C3
:10463000009507F023F901282BD106F00FFF024661
:1046400001AB06213046009507F018F9012820D16A
:10465000019800B311494FF08050086040BFBFF38C
:104660004F8FBFF36F8F16E0022500233A460421D7
:104670003046009507F002F901280AD106F0E8FE5D
:104680000246002301213046009507F0F7F8012883
:1046900001D00420BEE701202073BAE704ED00E05A
:1046A0007CB504464068002500280CD0EFF3058156
:1046B000B9B1019501AB00220821009507F0DEF8A1
:1046C000012817D101E008207CBD0198A0B10C4958
:1046D0004FF08050086040BFBFF34F8FBFF36F8F24
:1046E0000AE00221002300911A46032107F0C6F8D0
:1046F000012801D004207CBD257300207CBD000072
:1047000004ED00E070B50B4E01460B487578FFF7DD
:104710000CFF04465DB1002070704FF4F872074939
:1047200006F1140002F058FA08B1FFF7F3FE204634
:1047300070BD0000AC270020543F0020643D0020E5
:104740000148FFF7FDBE0000543F00202DE9F04175
:104750003E4E8CB098460D00044632614AD0A8887F
:10476000296882B23A48FFF7EFFE002843D1A889B2
:10477000A96882B236481030FFF7E6FE00283AD129
:104780004FF4F87739463348FEF711FF31490025D9
:1047900001F504708560016020222F4904A875602E
:1047A000FEF7ECFE60690A90207C00B101208DF8D4
:1047B00024008DF82C80607C00B10E208DF825003F
:1047C000E0680690A06807902068059060680490F3
:1047D0001E48224A0C30089004A9083002F0F8FE66
:1047E000002808D175702068401C04D09DF82D0069
:1047F00020B107E007200CB0BDE8F0811348143069
:1048000002F074FFB06890B910480321009108309D
:10481000CDE9010500234FF4807211A112480395E0
:1048200006F0F6FC012802D00420FFF773FE0748CB
:104830003A460849143002F0CFF90028DBD103488A
:104840003A460449143002F0C7F9D4E7AC270020F7
:10485000543F0020643D002008BA020015A2020067
:10486000756172745F687700F566020010B50146E5
:104870000B48FFF779FE040010D10A4803F0A6F8B0
:1048800060B9084906481439FFF74FFE30B90549A9
:1048900001221439034803F013F80446204610BDE2
:1048A000643F0020C027002030B5EFF3108172B6BE
:1048B0000D4A9468012324B10370002900D162B627
:1048C00030BD93604FF0E023D3F88051074C254072
:1048D0001560C3F88041D3F8844154605A17C3F877
:1048E000842100220270E8E77C720020FC06FFBDF4
:1048F0000B498A68002A11D000280FD1EFF31080ED
:1049000072B60B684FF0E022C2F800314B68C2F873
:10491000043100228A60002800D162B6704700008E
:104920007C7200202DE9F04389B04FF0000906AAFF
:1049300086A1CDF81890FEF763FE5FEA00083FD02D
:1049400083A1FEF746FE854E0427854C4FF6FF7582
:10495000002838D083A14046FEF73BFE00284BD00C
:1049600083A14046FEF735FE00285BD083A1404678
:10497000FEF72FFE002879D084A14046FEF729FEDD
:10498000002872D084A14046FEF723FE002870D094
:1049900084A14046FEF71DFE002874D084A1404645
:1049A000FEF717FE00280BD183A0FFF757FA0699F0
:1049B000087810B184A0FFF751FA84A0FFF74EFAEF
:1049C00009B0BDE8F0832088A84202D180A0FFF79B
:1049D00045FA308883A107EB004003F00DFC2088E6
:1049E000A842EDD174DF0321814800F03DFC00288E
:1049F000E6D0FFF78FFDE3E730887EA107EB0040AC
:104A000003F0FAFB2088A84206D0132176DF08289D
:104A100002D008B1FFF77EFD74DF002001F044FBF7
:104A200078A0CBE72088A842CAD107A86DDF08B1DB
:104A300079A0C3E79DF8220002AC7CA37CA282A1EE
:104A400084E80F009DF821109DF82000CDE90001B9
:104A50009DF81F309DF81E209DF81D107BA0FFF7CC
:104A6000FDF9ADE702E000E003E0032003F05AFDAA
:104A7000A6E74FF0FF3100203BDFB12100203ADFF5
:104A80000220F3E7FFE74FF080510C694FF0102050
:104A90004269521C05D041698269521C02D0816969
:104AA00000E04969604201EBC005601E854306983D
:104AB000F0B30078E0B30026B5FBF4F028DF38B19E
:104AC000662005F0E5FF761CF6B2032EF4D377E7F7
:104AD0000698FEF777FD461C401D04F08DFE07008A
:104AE00089D032460699FEF749FDA64202D9391906
:104AF00001F8019CFF3626F0FF00A04200D92046B5
:104B000081460024662005F0C3FF4A463946284600
:104B100029DF060003D0641CE4B2032CF2D3142076
:104B200005F0B6FF384605F0BBFE002E99D100E037
:104B300001E02A4604E028782A467F2800D912A2FC
:104B4000414651A0FFF78AF93AE700002000000033
:104B50007365745F62746F70656E00002C290020AD
:104B6000902700207365745F6274636C6F736500D7
:104B70006765745F6274696E666F00007365745F69
:104B8000706F7765726F6666000000007365745F12
:104B900062747265736574007365745F62746466D1
:104BA00075000000736176655F6E766D0000000031
:104BB0006563686F000000000D0A23675F7072690B
:104BC0006E74203100000000202573000D0A0000E3
:104BD0000D0A7265745F6274737461747573203149
:104BE0000D0A0000656E61626C65207379732E009A
:104BF0008C3B002064697361626C65207379732E4D
:104C0000000000000D0A7265745F62747374617451
:104C1000757320300D0A00000D0A7265745F6274AE
:104C2000696E666F206661696C0D0A0031000000D4
:104C300030383A35333A3436204E6F7620203620DD
:104C40003230313900000000313000000D0A726549
:104C5000745F6274696E666F206F6B202530325806
:104C60003A253032583A253032583A253032583ABF
:104C7000253032583A2530325820257320257320AC
:104C800025730D0A000000000D0A23675F7072692A
:104C90006E7420312025732025730D0A000000005A
:104CA00070B58AB00321002500913248CDE9010595
:104CB0004FF480762B4632462FA13148039506F0FB
:104CC000A7FA012802D00420FFF724FC294C0C3C51
:104CD000606970B900220421082006F0DDF86061E7
:104CE00020B90020FFF716FC606910B125A105F07E
:104CF0009FFE204801210091001DCDE90105002300
:104D00003446324621A12348039506F081FA012852
:104D100002D00420FFF7FEFB18221F496846FEF769
:104D20002DFC1E4806904FF4805007901C48CDE99A
:104D3000080407231B4A06A96846FFF707FD08B1C8
:104D4000FFF7E8FB1448332201210838FFF75CFB2A
:104D500008B9FFF747FB0020FFF78EFB002806D0BD
:104D60000AB00021BDE870400FA005F0DFB80AB01E
:104D700070BD00009C2700204E55535F530000007B
:104D80002D8B020053797351000000005359535F7B
:104D9000446F0000919F0200F0B8020068290020D3
:104DA0006839002019A102007365745F62746F7026
:104DB000656E00002DE9F041064608680C46411C6E
:104DC0004FF0A0474FF0010506D005FA00F1C7F8F3
:104DD0000815206802F0F3FF6068411C02D0002132
:104DE00002F0E4FF3079204901EB4010A169007F17
:104DF00000283068C0F8241525D0607D227D3168F8
:104E00001043C1F86C05D4E900123068C0F80C15E5
:104E1000C0F8142524E0A068411C02D0002102F053
:104E2000C5FFE068411C05D08540C7F80855E0681B
:104E300002F0C5FFD4E902123068C0F80825C0F8B6
:104E40001015BDE8F081607D217D32680843C2F80D
:104E50006C05D4E900123068C0F81425C0F80C15B0
:104E6000207D0128D7D0ECE7843F00202DE9FC47C6
:104E7000002517880646158090F82D0014468946AF
:104E800030B13A462146484600F008FB050009D1FA
:104E9000B0784FF00C0A18B32088C846001DB842FD
:104EA00002D95046BDE8FC87684679DF0028F9D171
:104EB0002088032108F8001020881921401C80B2A6
:104EC000208008F800102088401C80B2208000EB71
:104ED0000801BDF8000005F030FB2188084420805F
:104EE000F0780222C8B1218896F9033001F1030C51
:104EF0004846BC45D5D8425421884FF0010C491C86
:104F000089B2218000F801C02188491C89B2218022
:104F100009F801302088401C20807068B8B12188D1
:104F200090F9003001F1030C4846BC45B9D8425411
:104F300021880A22491C89B2218042542188491CB7
:104F400089B2218009F801302088401C20803089F6
:104F500050B1CDE900474B460622022106F1080078
:104F600005F0D8FB05009DD1308A50B1CDE900474E
:104F70004B460722032106F1100005F0CBFB05008C
:104F800090D1308B50B1CDE900474B46152214210A
:104F900006F1180005F0BEFB050083D1306A30B180
:104FA0003B462246494601F079FA0500DBD1706A9A
:104FB00030B13B462246494601F066FF0500D2D19A
:104FC00096F82C0038B13B4622464946304604F05C
:104FD0005DFE0500C7D1307838B13B4622464946D0
:104FE000304602F023F80500BDD128465AE7F0B557
:104FF0000C4693B01F210726ADF80010ADF8041041
:10500000002750B1C17849070DD56A4602A9FFF7BC
:105010002DFF002808D102AD02E00025ADF8007098
:105020006CB1E07810B1304613B0F0BD01AA0AA906
:105030002046FFF71BFF0028F6D10AAA02E0002253
:10504000ADF80470BDF80400C3B2BDF80000C1B2F1
:10505000284672DFE8E780F82410704770B50D002D
:10506000044653D0F4B3012020700026E6702022BD
:1050700005F17801201DFEF781FA84F82460D5F847
:105080009800C4F8CC00D5F89C00C4F8D0004FF6C6
:10509000FF70A4F8C800C4F82560A4F8296084F85B
:1050A0002B6004F130003C210646FEF780FA287898
:1050B00084F83000A87884F83200E87884F8330067
:1050C000687884F83100D5E90401C4E91001D5E914
:1050D0000201C4E90E01D5E90601C4E9120195F8FF
:1050E0002D0000E012E084F85D00686AD8B104F198
:1050F000780104F16C0061676065696A0988018064
:10510000686A616D80888880002008E00E2070BD8C
:10511000696A22188968095C82F87810401C616D00
:1051200089888142F4D8A86AE8B104F1A400C4F8DF
:10513000A0000C38A065A96A89888180A86AA16D41
:1051400000880880002006E0A96A22188968095CA6
:1051500082F8A410401CA16D89888142F4D895F88A
:105160002C0084F85C00286A48B104F1C400206572
:10517000296A49884180286A216D0088088068680A
:1051800000B1606305F13C013046BDE87040FFF7B7
:105190002EBF10B50288102A1AD0112A1FD01B2A40
:1051A0001CD1007A0C46002818D1E0780521401C5B
:1051B000B0FBF1F201FB1201204600F055F8002887
:1051C0000CD0D4F8D010002908D0BDE81040084712
:1051D000C27B012A02D18088A1F8C80010BD0C460C
:1051E000002184F8D4108088B4F8C8108842F5D122
:1051F00020790028F2D10121DEE710B50C46022803
:1052000001D0032811D1607800280ED000206070F2
:10521000E178204600F028F8002806D0D4F8D01015
:10522000002902D0BDE81040084710BD10B5044663
:1052300074DF012084F8D400002084F8D600062012
:1052400084F83300002104F13000FFF7D0FE00287D
:1052500009D1E178204600F007F818B1D4F8D01051
:1052600001B18847002010BD2DE9FF4704460078B2
:105270000F4638B1E770002002F0BAFC012628B1D1
:105280006670D2E0082004B0BDE8F0870025C4F8BD
:105290002550A4F8295084F82B50A07910B1E0785B
:1052A000012806D0E07970B1E078012801D0022809
:1052B00009D1D4F8CC1021B184F82C60082088479B
:1052C00001E084F82C5004F1260100200A5C0AB1A8
:1052D000304603E0401C0628F8D300204FF00208B7
:1052E0004FF0030A4FF00409012F06D0022F09D016
:1052F000032F0CD0042F12D10DE0A17911B108B108
:1053000030460DE0E17911B108B1404608E0207A5D
:1053100008B1504604E0607A08B1484600E02846EB
:10532000E070D4F8CC1041B1032801D0042804D196
:10533000607910B194F8D400A8B184F8D5500095E4
:105340000295019503958DF800508DF80850E1788D
:1053500004F1250004F13002052958D2DFE801F0FC
:10536000670A131F3B0084F8D65084F8D5600720E5
:105370008847E4E7A67001908DF80060ADF80C5006
:10538000ADF80A5043E084F8028001908DF8006087
:10539000208AADF80C00A089ADF80A0037E0A08A99
:1053A000ADF80A00208BADF80C00607980B194F85C
:1053B000D40068B994F8D60050B18DF8088084F80C
:1053C000339000211046FFF712FE00BB05211AE0C2
:1053D00084F802A01BE0A08BADF80A00208CADF889
:1053E0000C00607988B194F8D40070B994F8D600B4
:1053F00058B18DF8088084F8339000211046FFF7EB
:10540000F6FD20B90621A17001E084F80290E07851
:1054100030B194F82410684673DF00287FF433AF6E
:10542000D4F8CC1009B1A078884700202BE7A570EC
:10543000F6E7000070B5040012D001461C221448A3
:10544000FEF79CF81248134D0560206850B17ADFD2
:10545000002806D12068016829604068686005E07E
:105460000E2070BD0B487BDF0028FAD108484FF6AC
:10547000FF711438084A20F8041B054934390160CB
:105480000021FFF78BF80028EBD0032070BD00004F
:105490001C71002050280020ADA602007CB50546F6
:1054A00008880C460930904201D90C207CBD684622
:1054B0006DDF0028FAD121880820685420881B213C
:1054C000401C80B2208029542088401C80B220805B
:1054D0002844DDF801100160BDF8051081802088A6
:1054E000801D80B220809DF80010490800D0012165
:1054F00029542088401C208000207CBD0D4810B518
:105500000088042101EB00400BA102F075FE4FF072
:10551000FF3100203BDF00280BD1B1213ADF00280A
:1055200007D11248416901208847022002F0FAFFA2
:10553000002010BD2C290020496E20626C655F643C
:1055400066755F627574746F6E6C6573735F626F9E
:105550006F746C6F616465725F73746172745F669F
:10556000696E616C697A650D0A000000EC7A0020B2
:10557000044810B50068416900208847BDE8104024
:10558000FFF7BCBFDC28002010B500280FD0018831
:10559000204C502926D00BDC10291DD0112906D112
:1055A000A1888088814202D14FF6FF70A08010BD93
:1055B000512913D05329FAD1C088E1888842F6D105
:1055C000607E0028F3D0FFF7D3FF0028EFD0616999
:1055D000BDE81040022008478088E7E7BDE810409A
:1055E00003F0D2BD30F8061F62899142DFD14189B4
:1055F0000229DCD10C3000F00FFC07492076032291
:105600000988BDE8104002EB0143024603A1184699
:1056100002F0F6BDEC7A00202C290020526563656B
:105620006976656420696E6469636174696F6E2070
:105630007374617465202564000000002DE9F04159
:105640000546007B0426234C4FF0010801280FD0AB
:1056500002281FD00226287B4FEA060100F064F8DA
:10566000002832D020684169BDE8F0410320084796
:1056700020680027817E11B106210120EEE780F825
:1056800019800121084600F04FF800281DD020683D
:105690004776E0E76A7B142A19D8C2B10E4F05F1AC
:1056A0000E01381DFDF76AFF687BB8612168384636
:1056B000897E0029CFD1A0F10C010A68011F904713
:1056C0000028C8D1216881F81A80BDE8F08105263C
:1056D000C1E70000DC280020147B002070B51049D1
:1056E00000250A68002A19D04A68002A16D0083115
:1056F0009047112812D00B4C0028206885760BD0DB
:105700000421022000F010F8002807D02068416929
:10571000BDE87040032008470121F2E770BD00009A
:10572000087B0020DC28002086B00323ADF8003081
:1057300020238DF814308DF8150000220E480192B8
:1057400002928DF81610C188ADF8041002218DF870
:10575000061005A90491ADF80820CDF80CD080887A
:1057600001A9A6DF002804D1BDF80010032900D04C
:105770000C2006B070470000EC7A00202DE9F043C1
:10578000DFF8C481044601880422B8F8000000262E
:105790006C4D012789B04FF0030902EB004022292C
:1057A00072D034DC684A4FF003034FF0A0471288F0
:1057B000112903EB024343D01DDC012977D01029C6
:1057C00016D1208A00EB4001C1EBC0106421B0FB70
:1057D000F1F218465DA102F013FD072000F064FC11
:1057E00008B1FEF797FEA08828802020C7F80C0596
:1057F00009B0BDE8F083132958D02129F8D158A168
:1058000002F0FAFC0196A08801A98FDF62E051291D
:1058100074D00ADC232954D03B29E9D155A102F0E8
:10582000EBFCA088132176DF22E0522955D05629BF
:10583000DED156A102F0E0FCA088132176DF17E04C
:10584000227A184657A102F0DBFC4FF6FF70288041
:105850002020C7F808055A4800790128C8D100203F
:10586000FEF70AFE0028C3D003215548FFF7FCFCD1
:105870000028BDD009B0BDE8F043FEF74BBE00BF25
:10588000FEF748FEB4E7FFE74EA102F0B5FC207A30
:105890000028ADD1B8F80010A37A627A09EB014074
:1058A00009B04BA1BDE8F04302F0B1BC00E01DE03F
:1058B0004CA102F0A1FC00231A46852128887FDF35
:1058C000D6E74EA102F098FC01960296A08800222D
:1058D00001A990DF0028D3D18AE750A102F08CFC07
:1058E00000231A4619462888A9DFC1E751A102F012
:1058F00083FC0021288866DFBAE7FFE753A102F0A6
:105900007BFC1022A11D01A8FDF738FE9DF80410B4
:105910000029B7D09DF80C00042803D0062801D038
:105920000528AFD1022909D08DF814704FF4C17049
:10593000ADF81800A08805A9A8DFCBE702208DF8F4
:105940001400F3E7902700202C290020436F6E6E8F
:105950006563746564206D696E3D25646D73000038
:105960005048592075706461746520726571756561
:1059700073742E004741545420436C69656E742043
:1059800054696D656F75742E0000000047415454D2
:10599000205365727665722054696D656F75742E3B
:1059A00000000000446973636F6E6E656374656424
:1059B0002C20726561736F6E2025642E000000003C
:1059C0008C3B0020504859207570646174652E002E
:1059D0005048592074783D25642C2072783D256408
:1059E0002E0A00004576745F5365635F50617261F3
:1059F0006D735F526571756573742E004576745FC3
:105A0000446174615F4C656E6774685F5570646172
:105A100074655F526571756573742E004576745FA9
:105A20005379735F417474725F4D697373696E6704
:105A30002E0000004576745F557365725F4D656D8D
:105A40005F526571756573742E0000004576745F52
:105A500052775F417574686F72697A655F526571DC
:105A6000756573742E00000010B51A4C01886068CB
:105A700010290ED011292BD1401E606028D1FEF7CD
:105A80005CFC002824D02168002921D0BDE810400A
:105A90000847D0B900210122084600F0E3FA08B116
:105AA00007280FD107220221012000F0DBFA08B1FC
:105AB000072807D104220221002000F0D3FA20B1E8
:105AC000072802D0216801B188476068401C6060E7
:105AD00010BD0000D82700202DE9F04701883B4E7B
:105AE00040F2F3194FF6FF7510291BD011293ED053
:105AF000122954D0502946D1C188F289841D91427F
:105B000041D1618902293ED18688304600F09CFF50
:105B1000050038D004F10C0000F082F9A8B3294642
:105B200030464EE0C17B8788044601292BD1A84628
:105B3000284600F089FF050017D02F80002028722A
:105B4000234843464A460168C5F80A104068C5F82C
:105B50000E0004F1100105F10A0001F00FF868725F
:105B6000F08900280FD129462AE0042013E080881C
:105B700000F06AFF040006D06068FEF791FD08B1EE
:105B800004F066F82580BDE8F087FFE76868FEF757
:105B900087FD0028F7D0BDE8F04704F059B88788A2
:105BA0000646384600F050FF0400ECD02B464A462B
:105BB00006F1080104F10A0000F0E0FF60722146DE
:105BC0003846BDE8F04700F0AFBC00001C71002073
:105BD000502800202DE9F047044603883F48012261
:105BE000A4B000F1480A102B09D0112B54D01A2B65
:105BF00070D1217AB2EB111F53D2012352E0D0E9C8
:105C000011218A430546011D12A803F0F4FF442226
:105C100012A901A8FDF7B2FCDFF8C09000263746B4
:105C200009F144090DF104080AE000BF08EB460041
:105C30001D2283884946281D009703F0A1FF761C8A
:105C40000198B042F2D8686CA688C04303F0BAFF4E
:105C5000A0F57F41FF3917D005EB40000123868076
:105C600032465146281D03F0EBFF012332464946D8
:105C7000281D03F0E5FFE07B02280BD00023174925
:105C8000A2884C31281D20E024B00420BDE8F04754
:105C9000FEF740BC0123F2E70023A2885146001D15
:105CA00013E000230D490546A2885031001D03F082
:105CB000C7FF207A0221B1EB101F01D2012300E0BF
:105CC00000230649A2885431281D24B0BDE8F047BE
:105CD00003F0B6BF24B0BDE8F087000038710020A3
:105CE00030B5174B0D4604000FCB85B08DE80F0083
:105CF00023D015B34FF6FF70A0822868A061002062
:105D0000A0752146684662DF002814D120788DF8FE
:105D100012000120ADF81000A21C04A9A0DF002889
:105D200009D12946204603F044FE002803D1294624
:105D3000204604F075F905B030BD0E20FBE70000E9
:105D400088BA02007FB5002917D0002815D0028834
:105D5000102A0DD0112A0DD0502A0FD0572A0CD15D
:105D60001A4B1868D3E902238DE80F0089692AE0ED
:105D7000808801E04FF6FF7088827FBD01910C465C
:105D8000821DC3880989002512308B4202D15189B6
:105D900002290CD0A1898B42EFD1A1690029ECD056
:105DA00002905089ADF80C008DF800500AE000F028
:105DB00037F818B10120A075022001E0A575032075
:105DC0008DF80000A169684688477FBD78BA020057
:105DD0001FB560B1838AA3F57F44FF3C09D0837D62
:105DE0003BB11388F42B06D9072004B010BD0E2058
:105DF000FBE70820F9E70023009301930293039344
:105E00008388CDE90221ADF8003001218DF8021020
:105E1000808A6946A6DFE8E70078C0F34000704753
:105E2000007800F0010070470149085C70470000ED
:105E30002CBA02000649095C4FF0A040D0F81005CA
:105E4000C84010F0010000D0012080F00100704730
:105E50002CBA020007490B5C4FF0A041D1F8042591
:105E60000120984020EA0203C1F808351040C1F82B
:105E70000C05704728BA02000249085C012101F0B4
:105E8000CABF000028BA02000249085C002101F0E4
:105E9000C2BF000028BA02000649095C4FF0A040CA
:105EA000D0F80405C84010F0010000D0012080F0B7
:105EB0000100704728BA02007CB50024084E254630
:105EC0000122305D009500231146019501F04AFF43
:105ED000641C042CF4D3BDE87C4000F003B800003F
:105EE00028BA020010B500242046FFF7C5FF641C45
:105EF000042CF9D310BD10B500242046FFF7C4FFD1
:105F0000641C042CF9D310BD10B50246064B4FF0AB
:105F1000FF3000215C5C944201D1084610BD491C51
:105F20000429F7D310BD00002CBA020070B50C4E46
:105F30000C004FF0000530600BD0012000F06AF833
:105F400008B1022004E0002000F064F800B10B204A
:105F50002070706810B9FEF7F0F90546284670BD4C
:105F6000D827002010B5002000F0C0F908B106289D
:105F700006D1012000F0BAF908B1062800D10020AE
:105F800010BD00002DE9F0470D468146FFF7BCFF2C
:105F90000446042836D2DFF874801B481C4EA8F152
:105FA0000C0725B3012D0ED0022D2BD104EB44009C
:105FB00030444578002D25D0B968002922D02846E4
:105FC000BDE8F047084704EB4401755C0E44717866
:105FD00049B10E4A4FF48061093A8068FEF70AFB26
:105FE00008B987F80390B17808F80410E2E78068F0
:105FF000FEF756FB04EB4401314418F804008D7899
:10600000A842D7D0BDE8F08730BA0200D4270020DC
:10601000E43F0020FFF70EBF0146104810B500888E
:10602000042907D007290ED00A2915D1BDE8104050
:1060300003F0AEBE132176DF0CE000280CD0BDE8E3
:106040001040FEF767BAA0F57F41FF3904D104483C
:10605000FFF7ECF80828F0D110BD000090270020D1
:106060008C3B002070B50023042810D20D4D00EBAE
:106070004004012A02D101290CD00022094E00EB74
:106080004000304461B1012906D0022906D007231F
:10609000184670BD0E30C2B22A55F9E74270F7E7D4
:1060A0008270F5E7E43F0020044A0146002012799F
:1060B000D20702D0084600F04BB87047C82700202E
:1060C00070B506461D480024C0E90161B0071FD520
:1060D0000025012211462846FFF7C4FF6D1C044627
:1060E000042D02D2002CF4D012E08CB9332204210A
:1060F0001348FEF789F904000AD1FEF773F904008A
:1061000006D10F480F4A0021001FFEF747FA044648
:10611000F00701D0FFF7D0FE74B909480A4A002100
:106120000C38FEF73BFA040006D10548074A012166
:106130000838FEF733FA0446204670BDC827002011
:106140003CBA0200956302002D6C0200DD430200A0
:106150002DE9F05F624C05460026607818B10020FA
:10616000607000F04BFD5F4F4FF47A6B4FF4FA7A9A
:106170004FF47A784FF00109182D5AD2DFE805F074
:106180009A0C0C2837445A5F636B636BAC7474745D
:1061900074749A9DA0A3ACAC0020FFF77DFE00288C
:1061A0004FF0000008D0FFF767FE022D02D14FF438
:1061B000E16009E0584607E0FFF766FE022D01D1D5
:1061C000C82001E04FF4C87025700AEB802129E057
:1061D0000020FFF761FE00284FF0000004D0FFF719
:1061E0004BFE4FF44870EFE7FFF74EFEE8E7002064
:1061F000FFF752FE00284FF0000002D0FFF73CFEF0
:10620000D8E7FFF741FEDDE70020FFF745FE002855
:106210004FF0000002D0FFF72FFE01E0FFF734FE41
:1062200031492570B1FBF8F100223868FEF7E2F938
:1062300006463CE00020FFF70DFE257008E0002038
:1062400047E0257033E084F801900120FFF702FE5B
:1062500000226621E9E784F801900120FFF7FAFDAA
:1062600000224FF40071E0E77868FEF719FA06465D
:10627000D5F1110000D02EB10220FFF7FDFD002066
:10628000A07014E001280DD980B200EBC00101EB31
:1062900000110AEB413191FBF8F100227868FEF71A
:1062A000A9F906460220FFF7EFFD84F80290304678
:1062B000BDE8F09F00F0A2FCC3E700F09FFCBEE742
:1062C00000F09CFC04E000F099FC0020FFF7DCFDEE
:1062D0000120FFF7D9FDB4E7FFF70DFEB1E700009D
:1062E000C827002030BA0200F421030010B5FFF7E0
:1062F0009BFD032101F06DFD002010BDF8B5871C4A
:1063000000208DF800000E4601256846FEF7CCFA05
:10631000124C20683060D4E90001401AA168091AC3
:10632000BE1C06E000F0ACFCD4E90001401AA168F4
:10633000091A491C8E42F5D8A1682068084004EB70
:106340008000C16841F00301C160206838442060CA
:106350009DF80000FEF7CCFA2846F8BD44740020F2
:1063600030B482680468531C8360A154D0E90112E0
:106370008A4202D330BC01F042BB30BC70470000FF
:10638000034803C8814201D10120704700207047B3
:106390004474002000780221FFF7F4BD3EB50446A6
:1063A00016490120FFF78CFE08B1FEF7B3F802A9E9
:1063B0000020FFF7BBFD08B1FEF7ACF89DF8080020
:1063C000022818D000202070002407200123009408
:1063D00022462146019401F0A1FC4FF0A04120206B
:1063E000C1F80805012205200094002311460194FC
:1063F00001F094FC3EBD0120E5E7000019600200B9
:1064000005494FF0FF32082841F8202002D3084404
:1064100080F848207047000004720020F0B54FF06B
:10642000FF3512B10023082601E008230C260C4C8E
:1064300005E000BF54F823707F1C04D05B1CB342FE
:10644000F8D32846F0BD26185DB286F8305044F8DF
:106450002310002AF5D1E11881F84800F1E7000087
:10646000047200200249084490F93000704700008F
:106470000472002070B5084C050009D01034216862
:10648000002907D008682060496828468847F6E751
:106490000834F4E770BD0000F07100202DE9F041F0
:1064A00017880646B81D14460D46984202D90C209E
:1064B000BDE8F0813188072206290AD34FF4486CE1
:1064C0004FF6FF73614501D9994202D170880628C1
:1064D00001D21046ECE7604501D99842F9D19942C2
:1064E00003D0984201D08142F3D80520E855208896
:1064F0001221401C80B2208029542088401C80B288
:1065000020804119308804F018F82188084480B2AE
:1065100020804119708804F010F8218808442080F8
:106520000020C5E7FDF7F6BF38B54A7A0F4B62B1D8
:1065300000220A725969002906D001228DF8002034
:10654000ADF802006846884738BD0A7A62B19B6898
:106550004C68024619462046FEF74CF80028F3D056
:10656000BDE8384003F074BB5B68F1E71C710020A4
:106570007CB50446114E01EBC405042130882A7B0A
:1065800001EB004023460EA101F041FE00200090E7
:106590000190287BADF80000287BADF802000022B6
:1065A0006946204690DF030007D03088012101EBC7
:1065B00000402246114901F02AFE7CBDF02800204F
:1065C00052657175657374696E6720746F2075709C
:1065D000646174652064617461206C656E677468C1
:1065E00020746F202575206F6E20636F6E6E65635B
:1065F00074696F6E20307825782E00002CBE020062
:106600002DE9F04100260125144C22E06068226942
:1066100000EBC607387805FA00F1114217D08A431B
:10662000226100F08BFF02463878E36805FA00F13A
:10663000194002FA00F3994209D17978012901D071
:10664000012100E0002151407A6802B19047761C98
:10665000F6B220788642D9D3BDE8F08158280020D0
:1066600005490120096809B1002070470349096AFA
:106670000029F9D17047000084400020E82700205D
:1066800030B50446006885B00D46806800281CD0EF
:1066900014216846FCF78BFF0195A06804902079CF
:1066A00010B101280DD104E001208DF8000020690F
:1066B00004E002208DF80000E068000302906069A9
:1066C0000390206881686846884705B030BD8268BD
:1066D00083881A4003689A5C0A708168491C81604B
:1066E0007047C26883881A4003689954C168491C7E
:1066F000C160704700208AB00546074607901F20FA
:1067000006904D484FF005090188042000EB014038
:106710004AA101F071FD4F4CDFF83CB14FF0000A87
:106720004D480121143001F0B9F80120069903F019
:1067300015FF80466AE0A168A268465C00F802A0E6
:10674000A068B0F5F77F02D8A068401C00E00020E8
:10675000A060072E0CD8052E04D0062E06D0072EDA
:1067600054D103E00021304600F082F8B14646E003
:106770004846B9F1050F05D0062809D0B9F1070F31
:1067800044D13EE001252946304600F071F83DE055
:10679000280000F10105EDB207F101072CD02F48C8
:1067A0000799825D405C02EB0010C1B22948203895
:1067B000FDF7DAFE78B120480188042000EB0140A3
:1067C00027A101F019FD01208DF808000390DBF8E6
:1067D000101002A888471F482038FDF7B1FE70B19D
:1067E0008DF808A0CDF80C80DBF8101002A88847BF
:1067F000B8F1000F02D002E0079607E0002700255D
:1068000004E02946304600F033F80125A1682068ED
:10681000415C00298FD1B8F1000F81D1002F3FF4E6
:106820007FAF8DF804A0CDF808A0DBF8101001A808
:106830008847002774E700002C290020456E746506
:10684000722068776669666F5F7468726561642E2E
:1068500000000000743F0020AC27002008B90200AF
:106860006274206F7665726C6F61642E00000000A8
:1068700070B50E4C0546002601B926700D2D0BD0C3
:106880000A2D09D00948FCF79DFE80B2FF2802D2EC
:1068900025542044467070BD20780028FBD000218C
:1068A000024803F043FB267070BD0000643C0020EA
:1068B00010B50446C0B2FDF7D9FF204610BD000058
:1068C00070B5044610484A88104D03889A4210D18A
:1068D0000A88A2F52063773B0BD18988C91E8AB24A
:1068E00042802888032101EB0040134608A101F0F3
:1068F0008EFC288823886288BDE87040042101EB63
:1069000000400AA101F083BC902700202C29002020
:1069100044617461206C656E206973207365742016
:10692000746F20307825582825642900415454205C
:106930004D54552065786368616E676520636F6D9F
:10694000706C657465642E2063656E7472616C2072
:1069500030782578207065726970686572616C2086
:1069600030782578000000001CB51349134800F06A
:106970002EFC08B1FDF7CEFD5321104800F01BFCA2
:1069800008B1FDF7C7FD00210091012001918DF8AC
:1069900000006946022067DF08B1FDF7BBFD9DF8E6
:1069A0000000042100F001020548008801EB0040CE
:1069B00004A101F025FC1CBDC1680200783B002049
:1069C0002C29002053657474696E6720636F6E6EA6
:1069D000656374696F6E206576656E742065787482
:1069E000656E73696F6E20746F2025640D0A000058
:1069F0002DE9F041124E07460125BD403068FDF7F4
:106A00004FFE00280DD10F4C2069284207D138468F
:106A100000F094FD0028E06805D0284304E0A84376
:106A20002061BDE8F081A843E0602069284320612F
:106A3000A1683068BDE8F0410022FDF7DBBD000031
:106A40009CBA0200582800200146034802888A4266
:106A500000D0002070470000087100202DE9FC5F85
:106A60000E008346DDE90C47C6F1000098469246C9
:106A7000814600D40846012503E000BF90FBFAF0F0
:106A80006D1C5045FADAA84500D9454624B1002EC0
:106A900001DB780700D5641EB80702D5B8F1000FF6
:106AA0000AD0F80708D13CB1A54205D220215846AA
:106AB000641EFFF755FCF6E7002E02DA4E462D2144
:106AC00002E0780703D52B215846FFF749FC07F071
:106AD000030002280BD1B8F1000F08D13CB1A54248
:106AE00005D230215846641EFFF73AFCF6E7CDE99F
:106AF0000047434652463146584603F07DFDBDE807
:106B0000FC9F000070B50E460446007918494FF40A
:106B1000A27501EB4010017F2068A1B14FF488718C
:106B200001F0BAFF4FF49071206801F0B5FF4FF407
:106B30009271206801F0B0FF2946206801F0ACFF97
:106B40000C49206809E04FF48E7101F094FF29464A
:106B5000206801F090FF08492068C0F804132068FD
:106B600000F03AFC3146BDE8704000F019BC00006E
:106B7000843F00201003020080000200F0B58488EA
:106B8000A518944200D82246A41AC288D6189A4260
:106B900000D81346D21A4B880788BB420CD34088D2
:106BA000834209D88888A04206D3A84204D8C8885E
:106BB000904201D3B04201D90020F0BD0120F0BDC8
:106BC0000268134602E08A4204D01268002AFAD111
:106BD0000B6001607047000070B5074D6B688B4219
:106BE00001D101EB52010C46C2F3470200F024FD33
:106BF000002800D16C6070BDAC2700200A4810B599
:106C0000807860B1002401E0022C06D02046FFF716
:106C100033F9641C042CF7D310BD0324F6E7BDE858
:106C20001040FFF75FB90000C82700200348017932
:106C3000C90702D00078FFF78BBA7047C827002039
:106C400006490120086006480168C1F30041002997
:106C5000FAD1044900208870704700000C00004001
:106C600018040040F0710020F721018017214180B5
:106C7000002101714171FB2181711B21C17170479C
:106C800070B588B0214800F035FA2048001F06464C
:106C900000F030FA1E4DD5E9014105E0C0F389123C
:106CA00002EB9050641C044404EA010005EB8000F0
:106CB000C0688207F2D000200DF1080204EA010347
:106CC00005EB8303641CDB6842F82030401C02287B
:106CD000F4D3029800F00300012808D002280AD15A
:106CE0000298032101EB905004EB900403E002981A
:106CF000C0F3831004443046002101AAFCF7F3FBE3
:106D0000002800D06C6008B070BD00005C780020E6
:106D10004474002001F078F90028FBD104F01CF83D
:106D2000F8E7000088B000F0CDFA08B1FDF7F2FBFB
:106D3000002001F0D3FA08B1FDF7ECFB01F056F9A1
:106D40000121002400914348CDE901040A022346B1
:106D500041A14348039404F05BFA012802D00420C7
:106D6000FDF7D8FB3F48016841F00401016001F0E4
:106D700065FD08B1FDF7CEFB69460120009401F0E6
:106D800001FC08B1FDF7C6FB684601F0A5FC08B19F
:106D9000FDF7C0FBFDF72CFC08B1FDF7BBFB07A816
:106DA000FFF7FCFA9DF808002FA120F00F00401C0F
:106DB00020F0F00010308DF808000B2202A87CDFD4
:106DC00008B1FDF7A7FB00941820ADF800003C20A7
:106DD0000194ADF80200ADF804404FF4C870ADF86E
:106DE000060068467ADF08B1FDF794FBFFF7BCFDAB
:106DF0002048009069462048FEF772FF08B1FDF771
:106E000089FBFDF7B5FA1C216846FCF7D0FB4FF46F
:106E1000A050CDE900404FF4F040029003208DF8DF
:106E20000C001648059016480690ADF80E408DF8F7
:106E300010406846FEF7FEFA08B1FDF76BFB07A9A4
:106E4000104801F043FD03F057FF0F20FDF762FBF0
:106E5000FBE70000982700204C4F474745520000B1
:106E6000156D020010ED00E0506C61796D61746584
:106E700041697200B58A02005C3B0020CD8C0200A3
:106E800025650200A14C020070B5144682880E46AA
:106E900005462088111D0144921C994201D8FE2A02
:106EA00001D90C2070BD521C32542088FF21401C97
:106EB00080B2208031542088401C80B2208081190B
:106EC000288803F03AFB2188084480B22080AA88F1
:106ED00042B1A96841B13044FCF750FB2088A98831
:106EE00008442080002070BD072070BD2DE9F047C8
:106EF000C7880446181D16468946B0FBF7F1B0FB5B
:106F0000F7F207FB12009A193A44D21CB2FBF7F2CF
:106F1000DDF820A001E02468491E0029FBD13D1ABC
:106F20008846B54216D818E0BAF1000F05D02118EE
:106F300009EB08002A46091D04E0204409EB08017A
:106F40002A46001DFCF71AFB00202468761BA84483
:106F5000B74201D9354600E03D46002EE4D1BDE8F8
:106F6000F087000030B5024669B101F0E5F9002173
:106F7000084C0BE001EB410304EB830315685B88CD
:106F8000AB4202D11160002030BD491C8142F1D3D7
:106F9000052030BDE4280020F8B50246144804233B
:106FA00000240088134E9D0603EB004089B101299F
:106FB0000ED1072A0CD110A101F01EF9694611A0CB
:106FC00000940EE0356040BFBFF34F8FBFF36F8F6B
:106FD000F8BD072AFCD10EA101F00EF9694610A0F8
:106FE000009402F0A3FF00980028EBD1F8BD000048
:106FF0002C29002004ED00E04354532050757368A1
:1070000065642E007365745F62746F70656E000056
:107010004354532052656C65617365642E00000013
:107020007365745F6274636C6F736500F8B50E46C8
:10703000017814460546012901D1687830B12088CD
:10704000821C9A422DD8012902D006E00720F8BD03
:1070500069780144891C994223D8181A801E87B286
:10706000ADF800702188B01C084469467DDF002817
:10707000EDD12878022805D1BDF80010B94201D819
:1070800009210AE00821012805D16878B84202D810
:10709000ADF8000001E0ADF80070BDF80000FE287A
:1070A00001D90C20F8BD2288401CB0542088401C17
:1070B00080B2208031542088401C2080BDF8001010
:1070C000084420800020F8BD10B50A8849888A420B
:1070D00003D1FCF731F9012010BD002010BD70B5BF
:1070E0000C460546FCF70BF9002802D06188286899
:1070F000084470BD08B501216A46FCF7E7F900981D
:1071000008BD38B5044600258DF800506846FDF7E7
:10711000CBFB21686268086890420ED9401E086067
:107120000178238AE26801FB0325227A2168101A7C
:10713000C0B20A79824200D208719DF80000FDF7C2
:10714000D7FB284638BD38B5054600208DF800002D
:107150000C466846FDF7A8FBE868298A201AB0FBB0
:10716000F1F12A681068431C136001709DF800005B
:10717000FDF7BEFB38BD10B530B1017A4268036837
:10718000891AC9B21A6006E00E2010BD03681A6899
:10719000541C1C601170491EC9B2F7D2006800214E
:1071A0000171084610BDC20800F007030120895C88
:1071B00098400840704728B1A1F11702E12A03D393
:1071C000072070470E20704701800020704710B5DF
:1071D00060B10161F72120F8021B20F8021BFB219E
:1071E00000F8021BFFF740FD002010BD0E2010BD6F
:1071F00070B585880C46002D4DD1018824291FD0FB
:1072000006DC102909D011290CD0232921D11CE03A
:107210003A290BD055291CD10DE00146204601F03A
:1072200063FD16E0A01DFFF71FFD12E0014620469A
:1072300001F058FF0DE00146204601F0C3FE08E0D2
:107240000146204601F0BCFD03E00146204601F066
:1072500047FEA07A00281ED0E18828469EDF020063
:107260000D484FF0010109D0112A14D00088BDE863
:10727000704001EB0040094900F0C2BF0023A37237
:10728000E1720088E288BDE87040042101EB004013
:10729000034900F0BCBF70BDF02800205CBD0200B7
:1072A00014BD020000F180400068002800D00120D9
:1072B000704708B500F1804000210160006800902F
:1072C00008BD000070B50F4C0025207808B1852559
:1072D00016E00021A16061602161E1604FF0E020D3
:1072E000D0F80001012610F0010F03D10721002082
:1072F00000F056F801F03AFB08B903480660267022
:10730000284670BDF07100201805004008B5002027
:107310008DF800006846FDF7C7FA0648C168491EA7
:10732000C160C06808B9FFF78BFC9DF80000FDF74D
:10733000DFFA08BDF0710020F8B5174D0446A878B3
:10734000002648B114B16168012088478DF80060BB
:107350006846FDF7A9FA17E08DF800606846FDF76A
:10736000A3FA24B10C4821461030FFF729FCE86845
:1073700050B94FF48270FFF79CFF02204107C1F81B
:107380000403064901200860E868401CE8609DF895
:107390000000FDF7ADFAF8BDF071002008000040D4
:1073A0004907090E002806DA00F00F0202F1E02278
:1073B00082F8141D03E000F1E02282F8001400F0CE
:1073C0001F02012191404009800000F1E020C0F837
:1073D0008012C0F800117047000B40B270470000E7
:1073E0002DE9F0418846054601F006FF234E0028AE
:1073F00028461AD0FFF736F8304490F84800800944
:10740000032802D001280ED007E04FF0A040D0F8AA
:107410001005E84010F0010F05D003212846BDE813
:10742000F04100F0E7BC0221F8E701F0F1FE00288E
:1074300022D02846FFF716F804464FF4807000EB80
:1074400084000F4F81B207EB8400D0F8102542F082
:107450000102C0F81025084600F0FCFCB8F1000F4E
:107460000AD02846FEF7FEFF56F82000002803D079
:107470000120A040C7F80403BDE8F0810472002099
:10748000006000402DE9FC41DFF8A480044608EBD1
:107490000400002790F930001346C0170E46401C28
:1074A00001D0082741E0F27819462046FEF7B6FFE2
:1074B0000546401C38D0B07850B14FF0A04000EBEA
:1074C0008400D0F8001721F00201C0F8001707E08F
:1074D00000217378204600910A46019100F054FC87
:1074E000F078C0B11348317800EB8500D0F8102552
:1074F000114B1A40C0F810254FF4F8524FF44033A6
:1075000002EA042203EA01410A43D0F810150A43B3
:10751000C0F8102509E008EB0500327810F8481F84
:1075200041EA8211017000E004273846BDE8FC8181
:107530000472002000600040FFE0FCFF4FF0A0411B
:10754000D1F81015C14011F0010000D001207047A2
:1075500070B5144D95F8540008B1082070BD002096
:10756000411E2A18401CC0B282F830102028F8D3DF
:1075700000242046FEF744FF641CE4B20C2CF8D330
:1075800007210620FFF70CFF4FF4BE7000F062FCED
:1075900005494FF00040C1F80403012085F854006C
:1075A000002070BD0472002000600040034890F885
:1075B0005400002800D00120704700000472002011
:1075C0000121B1EB507F01D10120704700207047AD
:1075D0002DE9F04105460079164F904607EB40141F
:1075E0000E46E07E10B10820BDE8F081707F207764
:1075F0002846FDF7DFFB5FEA080060603169216023
:1076000003D0317F2846FFF77DFA287907EB401039
:10761000007F0028286801D0082100E00421C0F87C
:1076200000150020E0752076A0750121E176A07696
:10763000DAE70000843F00202DE9F041054600799B
:10764000284E904606EB40140F46207F18B108469E
:10765000FFF7B6FF78B1616800234FF4017079B18C
:10766000297906EB4111097F0029296806D01E4AB5
:10767000C1F8082304E01020BDE8F081C1F8080338
:10768000E17DC1B1217E89B1616869B1297906EBDB
:107690004111097F29B128684FF40471C0F804131F
:1076A00002E02968C1F804031120E5E727610123FE
:1076B00084F8188005E084F817800020E760607681
:1076C00020762879424606EB40103946007F002894
:1076D000284603D0BDE8F04100F074B8BDE8F041A1
:1076E00000F01CB8843F00201002020070B5044670
:1076F0000079094D05EB4010017F00290AD1807EF9
:10770000002807D1204602F0B1F92179012005EBCC
:107710004111887670BD0000843F00202DE9F05FA4
:1077200004460079264901EB4015A87E184302D192
:10773000204602F09BF968680028206806D04FF4C4
:107740000171C0F804130020BDE8F09F4FF4A27649
:10775000314601F090F9B1464FF4927A4FF4847BB0
:107760005146206801F082F906465946206801F02A
:107770007DF980464946206801F078F9074648EAD5
:1077800007003043ECD056EA070007D129462068AD
:1077900002F0F6F8E87D697E8842E1D80020E875BD
:1077A0000EB10320D0E70FB10F20CDE7A97E012055
:1077B0000029216801D00860C5E74860C3E70000E0
:1077C000843F00202DE9F05F884604464FF4A277FD
:1077D0009946154600260068394601F05DF9206893
:1077E000C0F83485C0F8385520684FF48875B9F171
:1077F000000F14D0D0F8001241F02001C0F80012A0
:107800002179DFF8948008EB4110406808B32068C4
:107810004FF40571C0F804133046BDE8F09F2946C7
:1078200001F03AF9206801F03DF920680421C0F820
:1078300004132068012101604FF4A67841462068B6
:1078400001F025F90028F9D04146206801F024F91B
:10785000D6E7BA46A9464FF4927B4946206801F024
:1078600016F907465146206801F011F905465946B8
:10787000206801F00CF9014647EA05000843ECD006
:107880002379002208EB4310C27501B10326002DB5
:10789000C2D00F26C0E70000843F0020074B0279CA
:1078A000006803EB42120029127F4FF0040102D05E
:1078B000C0F804137047C0F808137047843F0020D5
:1078C0002DE9F047054600793F4E904606EB4014FF
:1078D0000F46207F18B10846FFF772FE30B12846E8
:1078E00000F074F820B11120BDE8F0871020FBE70C
:1078F00084F81680A7600027A78228794FF0010836
:1079000006EB40143E46207F0028286825D04FF41F
:107910009079494601F0C0F84FF4AC7A5146286896
:1079200001F0BAF82868A17DA268C0F84425C0F823
:1079300048152868C0F808806068F0B9494628688A
:1079400001F0A5F880465146286801F0A0F858EAF1
:107950000001F3D058BBA7750FE04FF48E7A514663
:1079600001F089F82868C0F808802146286802F0EC
:1079700047FB61684FF4807089B13046B4E75146E7
:10798000286801F073F810B9A08A4845F7D1A08A99
:10799000484505D02146286802F032FB00E08146C8
:1079A000A08AA17D8842EAD3A08A484501D10F264A
:1079B000D1E75146286801F059F80028F9D0286825
:1079C000C0F80C80C7E70000843F0020007904491C
:1079D00001EB4010807D002800D00120704700009E
:1079E000843F00200FB408B50399002904D004AAED
:1079F00000926A4600F00FF801B05DF814FB10B574
:107A000082680446002A05D0D4E904032168984717
:107A10000020A06010BD2DE9FC4791460C00804677
:107A200076D014F8011B39B125290ED04046FEF757
:107A300097FC20780028F4D198F80C00002867D033
:107A40004046BDE8FC47FFF7DABF0020012221785D
:107A50002B291BD02D2902D0302908D102E040F07B
:107A6000010001E040F00200641C002AEFD1002573
:107A70002A290ED02178A1F130020A2A11D205EB71
:107A8000850201EB4205641C303DF1E740F0040043
:107A9000EAE7D9F800100B1DC9F800300968641C2A
:107AA0000D44217800232E290BD114F8011FA1F1D8
:107AB00030020A2A05D203EB830201EB4203303B7A
:107AC000F3E76C290DD068290BD0692921D00BDC94
:107AD000252918D0582931D063290ED0642915D111
:107AE00017E014F8011FECE7702969D0732932D030
:107AF00075291BD0782909D120E0D9F80000011D93
:107B0000C9F8001001784046FEF72AFC641C90E793
:107B10006CE0D9F800100A1DC9F800200968CDE909
:107B200000500A224046FEF799FFEFE7D9F800100F
:107B30000A1DC9F8002009680A2206E0D9F80010D9
:107B40000A1DC9F8002009681022CDE900504046FE
:107B500002F052FDDAE7D9F8001000270A1DC9F833
:107B600000200E68C00705D112E04046761C7F1C3D
:107B7000FEF7F6FB31780029F7D104E020214046DA
:107B80006D1EFEF7EDFBBD42C0D9002DF6D1BDE75D
:107B90004EB13046FBF716FD074604E02021404673
:107BA0006D1EFEF7DDFBBD4206D9002DF6D103E0C8
:107BB0004046761CFEF7D4FB31780029F8D1A5E7C2
:107BC000D9F80000011DC9F80010056830214046B1
:107BD000FEF7C6FB78214046FEF7C2FB08200021D5
:107BE000CDE90001034610222946B0E7BDE8FC8735
:107BF0002DE9F04128B1016819B1C969BDE8F0412A
:107C000008470D4D0D480024461B14270DE000BF0A
:107C100004EB840005EB8000016829B1C96988473D
:107C200010B10120BDE8F081641CB6FBF7F0A04262
:107C3000EED80020F6E70000000000000000000081
:107C4000044801214174007A08B1002070470120E6
:107C50007047000014730020012801D0032808D1C8
:107C60000449002201284A7400D00020087401F061
:107C70003BBE70471473002070B5254C0246207A35
:107C8000012837D0022841D122480023022A006867
:107C900002D0032A2ED11BE0E360017911B1012942
:107CA00028D10DE0D0E90565711B4FF48056B14233
:107CB00000D33146294481614569A9420ED019E0BB
:107CC0000169491C01614269914213D1237217E095
:107CD000E168491CE16008290CD9E3602372022A9B
:107CE0000ED00D21FEF7CCFC0B480A49091D006897
:107CF000FFF7EAF9607C28B1BDE8704000F03CBEB7
:107D00000021EFE7BDE8704001F0EEBD70BD00005E
:107D1000147300206C280020B4BA020070B541EA48
:107D20004201DDE904564FF0A04441EA830141EAF3
:107D3000052104EB800041EA0641C0F8001770BD40
:107D400070B541EA4201DDE904564FF0A04441EA32
:107D5000830141EA052104EB800041EA0641C0F8B5
:107D6000001770BD70B541EA4201DDE904564FF0DD
:107D7000A04441EA830141EA052104EB800041EA85
:107D80000641C0F8001770BD70B541EA4201DDE957
:107D900004564FF0A04441EA830141EA052104EB77
:107DA000800041EA0641C0F8001770BD1CB50022F2
:107DB0000B46009211460192FFF7C2FF1CBD1CB595
:107DC000002100910B46012201911146FFF7B8FFF7
:107DD0001CBD4FF0A04202EB8000D0F8002722F437
:107DE0004032C0F80027D0F8002742EA0141C0F82D
:107DF000001770474FF0A04202EB8000D0F8002738
:107E000022F44032C0F80027D0F8002742EA0141AE
:107E1000C0F80017704701224FF0A043824011B113
:107E2000C3F808257047C3F80C25704718B5084BF0
:107E30006C4601441B68009306E000BF54F82030F4
:107E4000D3F81035401C08C28142F7D818BD000095
:107E500098BA0200034908B508440021016000688F
:107E6000009008BD0060004002494058012800D041
:107E7000002070470060004030B5124B01460020E2
:107E8000D3F81044224609E0157A854205D1401CFA
:107E90000A28F7DB4FF0FF3030BD5268002AF3D1DB
:107EA000421CF9D00872D3F810242AB152684A60F3
:107EB000D3F81024516030BD0022C3F810144A607A
:107EC00030BD0000447400207047FBF763BD70476D
:107ED00008B5034A00924023024A00F005F808BDA5
:107EE000619C020044730020F0B595B01C46154615
:107EF0000F4608461A9E00F0EFFA182109A8FBF772
:107F000056FB0E96CDE909540023082203A93846F2
:107F100000F0FCFA059806900498ADF81C000020CB
:107F20008DF820000398082600F00300012802D0F5
:107F300002281DD03CE003983346850AC0F3C200F6
:107F40008DF81E0003980FA9C0F380008DF81F0064
:107F50000398C0F38314A200384600F0D7FA09A8AA
:107F6000009006AB22460FA9284600F011FA1FE048
:107F70000398840DC0F3C2008DF81E000398C0F36F
:107F800080008DF81F00082C01D2254600E008254E
:107F900033462A460FA9384600F0B8FA2E44641B2F
:107FA00009AB06AA29460FA800F042F9002CEAD135
:107FB000384600F09AFA15B0F0BD00000A4A0129CF
:107FC00002EBC00007D0022907D0032907D00429FB
:107FD00007D00020704702207047042070470079C6
:107FE0007047407970470000B0C4020010B5FFF739
:107FF0006CFF04210348FFF73FFF0249012048724C
:1080000010BD00007C2800202DE9F04F8DB0FEF758
:10801000B7F918B100200DB0BDE8F08F7448002109
:10802000C0F81814BFF34F8FD0E9014604EA0601E7
:1080300000EB81014FF000090AE000BFC1F3891293
:1080400002EB9151641C0C4404EA060100EB81012F
:10805000C9688A07F2D0002103AA804604EA060014
:1080600008EB8000641CC06842F82100491C4346AC
:108070000229F3D3039800F00300022806D0012858
:1080800003984FD0C04380077ED0ACE003985022C5
:10809000810D8A46B2EB905F00D850210D4665F302
:1080A0009F5003900831534800F0CDF907006CD081
:1080B00000F012FA4B46082203A9384600F02CFAC9
:1080C00004EA0601701A8000001D09F1080B8542C0
:1080D00021D9474E0C3630B1C2B208EB8101281AC3
:1080E00091460C3104E03146EAB200269146304612
:1080F000C5B25B46384600F00FFA0BEB09032EB110
:108100002A4631464FEA070000F006FA0AF103005A
:1081100004EB90043BE008EB81015B462A463846BD
:108120000C31F1E7C0F38310062800D30620039931
:1081300060F38911C1F38310801C039181002D48E5
:1081400000F081F907004ED000F0C6F94B46082236
:1081500003A9384600F0E0F909F1080900250DE00F
:1081600004EA060008EB80014B46042238460C3135
:10817000641C00F0D1F909F104096D1C0398C0F3E7
:108180008310A842ECD801E00BE02CE05FB3D8F8F4
:108190001054D8F81804464690B1384600F0A5F9B6
:1081A00021E0D3F8180400283FF435AF1BE0687ACB
:1081B000012804D1296828460A68394690476D6825
:1081C000002DF4D1384600F090F900208DF8000021
:1081D0006846FCF769FBD6F8180400B974609DF88E
:1081E0000000FCF785FBFEF7CBF880F0010012E7FA
:1081F00044740020D4BB020000231A4601F04EBE96
:1082000008B5012300926A4601F048FE08BD1CB57E
:10821000CDE9002302236A4601F040FE1CBD3EB5B5
:10822000069C8DE81C0003236A4601F037FE3EBD24
:108230002DE9F0470E4680461C46924608293ED856
:1082400094F80C90002020731946104601F00AF8AB
:108250000025B54206D218F805201AA12046FFF7DE
:10826000C1FB03E019A12046FFF7BCFB6D1C082DE4
:10827000EFD317A12046FFF7B5FB0025B54210D27A
:1082800018F80570FBF776F90068C05D10F03E0F36
:1082900001D03A4600E02E220EA12046FFF7A2FBB5
:1082A00003E00DA12046FFF79DFB6D1C082DE5D3D3
:1082B00001222146504600F0B7FF84F80C90BDE83B
:1082C000F0870000202530327800000020202000B8
:1082D0007C0000002563000020000000114810B55C
:1082E000FF218160002101604160C0F81814C0F8CE
:1082F000141480F81C140C4800F0F5F800280FD175
:108300000A480B490B4B401AC108002005E000BF8A
:1083100000EB400223F82200401C8842F8D30020E2
:1083200010BD000044740020D4BB020008C5020048
:10833000B0C40200E428002002480349401AC008E3
:108340007047000008C50200B0C4020013B56846BB
:10835000FEF708FE08B100201CBD0248009950F845
:1083600031001CBDB0C4020070B508480125D0F82A
:10837000104480F81C5405E0657221682046496865
:1083800088476468002CF7D170BD00004474002059
:108390002DE9FF4781460C9D00200C462F7B28735A
:1083A000984616462946184600F05CFF072E42D232
:1083B000DFE806F004090F161F2A36004946284652
:1083C000FFF710FB37E0494628462268FFF70AFB13
:1083D00031E0D4E9002349462846FFF703FB2AE0B1
:1083E000A0680090D4E9002349462846FFF7FAFA2E
:1083F00021E0D4E90201CDE90001D4E90023494696
:108400002846FFF7EFFA16E004F1080007C88DE8E8
:108410000700D4E9002349462846FFF7E3FA0AE0BB
:1084200004F108000FC88DE80F00D4E90023494685
:108430002846FFF7D7FA00222946404600F0F4FE0E
:108440002F73BDE8FF872DE9F041058A80462D1F77
:108450004819C01CB0FBF5F0C6B24046FEF751FE0D
:10846000041E19D00020207101206071E5800027D2
:108470002546761EC4F800800BE04046FEF741FE1C
:1084800060B16179491C6171286005467F1CC0F8A4
:108490000080B742F1D32046BDE8F081204600F0CD
:1084A00002F80020F8E72DE9F041457901466B1EFE
:1084B000002201E00968521C9A42FBD30F68014672
:1084C000002605E038460C68FEF73DFE2146761C86
:1084D000AE42F7D3BDE8F08108B501216A46001D20
:1084E000FAF77FFF08BDFEF746BE38B50446001D0B
:1084F00001216A46FAF782FF009810F0FF0F04D1BD
:108500002046BDE83840FFF7CEBF38BD38B501245E
:108510000094FEF7EBFC38BD38B500240094FEF75C
:10852000E5FC38BDF8B504460D4801216A46FAF766
:1085300073FFBFF35F8F002500280AD10121084E89
:10854000042C09D0301F427822B100BFBFF35F8FE7
:108550003560F8BD0470417001F0DCFBF6E7000007
:108560007828002008B5002242504058009008BDED
:1085700020B1034909680160002070470E20704750
:1085800060BC02002DE9FE4306460D460846FFF793
:10859000EFFF00287ED18046CDF80080CDF8048022
:1085A000012403208DF80060ADF80400CDF80880A8
:1085B0008DF80240694620202A6869DF3F4F40B1AC
:1085C00000F04AFA024638883D4904EB0040FFF7C4
:1085D00017FECDF800808DF800408DF80180CDF8B1
:1085E0000480CDF808808DF80280694640202A6812
:1085F00069DF40B100F030FA02463888314904EBB7
:108600000040FFF7FDFDCDF800808DF80060F720F9
:10861000ADF80200CDF80480CDF80880694623202B
:108620002A6869DF40B100F017FA02463888264907
:1086300004EB0040FFF7E4FDCDF80080CDF80480A6
:10864000CDF808808DF800404646694601202A682A
:1086500069DF40B100F000FA024638881B4904EB9C
:108660000040FFF7CDFD4FF4B060009001960296F8
:108670006946A1202A6869DF40B100F0EDF90246A1
:108680003888134904EB0040FFF7BAFD00960196C5
:10869000029600E010E08DF800606946A0202A688C
:1086A00069DF40B100F0D8F902463888094904EB87
:1086B0000040FFF7A5FD0020BDE8FE83442900200F
:1086C00044C302008CC30200D8C30200A4C202004B
:1086D000F0C2020050C202002DE9F0410446D0F879
:1086E00000E060DF2368144D0646734515D02888E6
:1086F000022707EB0040724610A1FFF788FDF8063D
:10870000D0F80C012168800200F10050421A28883C
:1087100016A107EB0040FFF773FD56B1304600F09D
:108720009BF902462888012101EB004018A1FFF7C0
:1087300067FD3046BDE8F0814429002052414D20BC
:1087400073746172747320617420307825782C20E2
:1087500063616E2062652061646A7573746564206C
:10876000746F20307825782E0000000052414D2093
:1087700073697A652063616E2062652061646A7541
:108780007374656420746F20307825782E000000A3
:1087900073645F626C655F656E61626C6528292039
:1087A00072657475726E65642025732E000000007A
:1087B00030B5EBB04FF4CE75ADF8A8516AA9684654
:1087C00061DF30B1052816D06BB0BDE83040FBF753
:1087D000A1BE6C46094967A800F0FAF807E000BF9F
:1087E000D0E900212046904767A800F008F9699871
:1087F0000028E1D0F4E76BB030BD000064BC02009B
:1088000010B50D4C2078A0B10120A07001F08AF9BC
:1088100011280CD0022001F09DF911DF002807D1AA
:108820002070A07001F0CEFA032001F093F900202F
:1088300010BD082010BD0000D028002038B5174C0E
:10884000207808B1082038BD0125A570002001F06E
:1088500069F9112820D0002001F07CF91048114955
:1088600000680090684610DF0028ECD12570A070E9
:1088700060700721162001F009F908B1FBF74AFEE4
:108880000721152001F002F908B1FBF743FE01F0C2
:10889000DDFA012001F05EF9002038BDD02800206B
:1088A000F8BB02009D4402000EB50749684600F07F
:1088B0008FF805E0D0E900108847684600F09FF87F
:1088C00002980028F6D10EBD14BC02007FB5144CEE
:1088D00006460D462088042101EB004011A1FFF758
:1088E0008BFC17480222002146600092CDE901016D
:1088F00003912B46D20113A1134802F089FC0128F1
:108900000CD02088012101EB004010A1FFF774FC7E
:1089100004B00420BDE87040FBF7FCBD7FBD000043
:10892000502900204372656174696E67206120538D
:108930006F6674446576696365207461736B2E009D
:10894000D4280020424C4500FD9D0200536F667400
:10895000446576696365207461736B206E6F742063
:10896000637265617465642E000000000148007840
:1089700070470000D02800200548817819B10078A0
:1089800018B1FFF73DBF08207047FFF757BF000041
:10899000D02800201FB5684648DF30B1052814D024
:1089A00004B0BDE81040FBF7B5BD084901A800F0D0
:1089B0000FF806E0D0E900210098904701A800F0E8
:1089C0001EF803980028E6D0F4E71FBD80BC020023
:1089D000016009684160AFF3008010B5D0E9002163
:1089E0005368994201D1002104E0D1E90034A34247
:1089F00002D01946816010BD08314160F0E78168FE
:108A000000290BD0026892680A44826041684B6872
:108A10009A4203D108314160FFF7DFBF7047000081
:108A20000C4A10B502F1F0030EE0991AC91001EBDF
:108A3000D171491002EBC1010C68844201D90B4687
:108A400002E005D201F108029A42EED3002010BDE7
:108A5000486810BDD8BA020000B5FFF7E1FF002852
:108A600000D1014800BD0000C4BA020040580028EF
:108A700000D00120704708B50022425040580090B5
:108A800008BDD0F80403084000D0012070474058CA
:108A9000002800D00120704708B5002242504058FD
:108AA000009008BD08B50021C0F80811D0F80801F1
:108AB000009008BD2DE9F0410646007800281BD142
:108AC00000250E4F4FF0010813E0B068405DFBF742
:108AD000CDFE04000BD0112CF7D03988224608EBCC
:108AE000014007A1FFF78CFB2046FBF713FD6D1C2F
:108AF000ADB2B089A842E8D8BDE8F0812C290020A9
:108B00004661696C656420726563656976696E6744
:108B1000204E5553206D6573736167652E20457235
:108B2000726F7220307825782E2000000B4808B52F
:108B30000088042101EB00404FF0FF3408A1FFF74B
:108B40005BFB23466A460321002002F033FD0098B8
:108B500040F34000401C00F00FF8F2E72C29002001
:108B6000456E746572204E55535F53656E645F7435
:108B700068726561642E00002DE9F8438146264E37
:108B8000264F4FF0040840E0B9F1000F04D0FBF786
:108B9000D7FD718888423CD30025214C05E060193F
:108BA000FBF7B0FD20B96D1CADB270888542F6D3DD
:108BB0001B49ADF800506A4601F1F400FDF708F9D1
:108BC000044608281BD094B1112C0CD0132C0AD0C9
:108BD0003988224608EB014012A1FFF711FB20461D
:108BE000FBF798FC0BE0012001F052FFE0E7398829
:108BF000BDF8002008EB01400CA1FFF701FB39880C
:108C000008EB01400BA1FFF7F7FAFBF799FD0028ED
:108C1000BAD1BDE8F8830000902700202C2900205D
:108C2000683A00206572725B25645D003E5B2564D6
:108C30005D0000003E6F6B00134910B509880422E7
:108C400002EB0142C0B1032809D0042806D1104626
:108C50000EA1FFF7D1FA12490320C87010BD1046CB
:108C600010A1FFF7C9FA0220FDF71EFA0028F5D07F
:108C7000BDE81040FBF74EBC10460FA1FFF7BCFA51
:108C8000BDE8104001F084B82C290020536C6F77A8
:108C9000206164766572746973696E672E000000E6
:108CA0008C3B002046617374206164766572746940
:108CB00073696E672E000000416476657274697393
:108CC000696E672069646C652E00000000780028DA
:108CD00007D104483B21008876DF002801D0FBF74C
:108CE00019BC7047902700202DE9F0418E88054679
:108CF00000EBC60400792073C87BA41D012802D0B4
:108D0000022804D101E0288800E0688820802288B9
:108D10006088824218D9174F4FF0040833463988CB
:108D200008EB014014A1FFF772FA218830469EDF5C
:108D300002004FF0010011D0112A11D0398800EB48
:108D400001401D49FFF75CFAA079E17988420ED90C
:108D500029463046BDE8F041FDF70ABC6071F3E7F3
:108D600020713988324608EB01401449EAE7BDE832
:108D7000F0810000F02800205265717565737469F8
:108D80006E6720746F20757064617465204154545F
:108D9000204D545520746F202575206279746573B9
:108DA000206F6E20636F6E6E656374696F6E203026
:108DB0007825782E000000005CBD02008CBE020009
:108DC0002DE9F04190B0074634226846091DFAF7B4
:108DD000D5FBBDF80060BDF8040007EBC608204CC9
:108DE000C2B288F80D202088042505EB00403346E8
:108DF0001CA1FFF70CFA2088BDF8062005EB004007
:108E000024A1FFF7FDF92088BDF8042005EB004000
:108E100025A1FFF7F5F92088BDF80A2005EB0040F1
:108E200026A1FFF7EDF92088BDF8082005EB0040EA
:108E300026A1FFF7E5F9386900280ED02749D1E9C6
:108E40000401CDE90D01ADF8366098F80D008DF8FC
:108E500038003A690DA93846904710B0BDE8F08156
:108E6000F028002044617461206C656E677468208E
:108E70007570646174656420746F202575206F6E51
:108E800020636F6E6E656374696F6E203078253075
:108E9000782E00006D61785F72785F6F637465741F
:108EA000733A2025750000006D61785F74785F6FFC
:108EB00063746574733A2025750000006D61785FF6
:108EC00072785F74696D653A202575006D61785F11
:108ED00074785F74696D653A2025750060BA020088
:108EE0002DE9FC41002200920192164D0F7A0C1DD3
:108EF0008A88298800EBC2064FF0040808EB01407D
:108F00003B4611A1FFF783F9327BBA4200D33A46C0
:108F1000ADF80020ADF802202988238808EB014035
:108F200019A1FFF774F920880022694690DF02003A
:108F300006D02888012101EB00402149FFF760F9A4
:108F4000BDE8FC81F028002050656572206F6E201E
:108F5000636F6E6E656374696F6E2030782578205C
:108F600072657175657374656420612064617461F4
:108F7000206C656E677468206F66202575206279A5
:108F80007465732E000000005570646174696E672B
:108F90002064617461206C656E67746820746F2052
:108FA0002575206279746573206F6E20636F6E6E15
:108FB000656374696F6E20307825782E000000009C
:108FC000E4BD02002DE9FC478E88DFF89080CD8853
:108FD00000EBC604B8F8001007464FF0040909EB8F
:108FE00001402B4632461EA1A41DFFF710F9172D94
:108FF00000D217252088A84200D8054665800020A9
:1090000020710096B8F80010238809EB01406288AF
:10901000454622A1FFF703F921883046ADDF020063
:1090200006D02888012101EB00402C49FFF7E8F821
:109030006079002810D1386900280DD02849D1E97D
:109040000201CDE90001ADF802606088ADF80400CE
:109050003A69694638469047BDE8FC87F028002009
:1090600050656572206F6E20636F6E6E6563746904
:109070006F6E203078257820726571756573746520
:109080006420616E20415454204D5455206F662059
:1090900025752062797465732E0000005570646137
:1090A00074696E6720415454204D545520746F20CC
:1090B000257520627974657320286465736972650B
:1090C000643A20257529206F6E20636F6E6E65638C
:1090D00074696F6E20307825782E0000A0BD0200E4
:1090E00060BA02007CB58D88064600EBC5044A894B
:1090F00034F8060F904200D802466280172A00D248
:10910000172210486280042100882B4601EB0040A2
:109110000DA1FFF77CF8306978B1607968B1194921
:10912000D1E90001CDE90001ADF802506088ADF849
:109130000400326969463046904700206071207112
:109140007CBD0000F0280020415454204D5455208F
:109150007570646174656420746F20257520627970
:10916000746573206F6E20636F6E6E656374696FD4
:109170006E20307825782028726573706F6E736565
:10918000292E000060BA02007FB51A4D8188AA8896
:1091900091422DD110F8061F022929D14188EA8871
:1091A000914225D1017A042922D0062920D005290F
:1091B0001ED0841C00200090022101900290039098
:1091C0008DF80010297E19B101218DF8061001E0FB
:1091D00040F2FD10ADF80400A8886946A8DF112808
:1091E000FAD0BDF80400002802D12046FCF726FA88
:1091F0007FBD0000EC7A00200449084490F930005B
:10920000082801DB0120704700207047047200200D
:109210000449084490F93000082801D20120704721
:10922000002070470472002010B50C46C17949B186
:109230001AB109A12046FEF7D5FB2046BDE8104033
:10924000FEF7DDBB007A0028F3D0044804A10268D1
:109250002046FEF7C7FBECE70D0A0000AC28002013
:109260002573000070B50446C0790D4600281CD156
:10927000207A50B1A179A088FEF7A0FE0B4951F8E1
:1092800020200BA12846FEF7ADFBA0880021FFF7A8
:109290005DF803460549A079143951F82020284685
:1092A000BDE8704003A1FEF79DBB70BDAC28002057
:1092B000257300003C25733E2025733A20000000F2
:1092C00070B50B4C054620684560206921688542D1
:1092D00005D2A06BBDE87040091D01F0A9BA606B12
:1092E000091D01F0A5FAE06A854200D2E56270BD71
:1092F000E827002010B501F0BFFA0E4C2068A0B995
:109300000D4801F087FA0C48143001F083FA0A483E
:10931000E0601430206100221021202001F0BCFD0B
:10932000206010B105A101F083FBBDE8104001F001
:10933000ADBA000024280020C0400020546D7251B6
:109340000000000070B5124E124C1AE001F054FDFE
:109350003068D0B102F0FAF901F08EFAF068C56811
:10936000281D01F03EFAE068401EE0606068401E83
:10937000606001F08BFA286B01F092FA284601F048
:109380008FFA60680028E1D170BD02F0DFF9F8E7DC
:1093900098400020E827002030B4026C0B46002AD9
:1093A0000BD0C1681144C1604468A14201D3016877
:1093B000C16030BC1846FAF7E1B830BC704770B5F0
:1093C0001646026C0446002582B1C6B1E068FAF781
:1093D000D5F8E168206C091AE1602268914202D256
:1093E0006168081AE060022E16D01AE02068C0B941
:1093F000606802F03DF905460020606011E0A06859
:10940000FAF7BCF8216CA0680844A0606168884243
:1094100007D32068A06004E0A06B10B1A06B401ED1
:10942000A063A06B401CA063284670BD064801687D
:10943000C96A09B100207047044909680129F9D8AF
:10944000C16A0069081A7047E82700202040002000
:1094500010484FF44051420706D0C01D0D4920F07E
:109460000700411AC1F540510B4A00230144C2E9EB
:1094700000030839103A21F0070111604B600B60BE
:109480000B1AC0E9001393604FF000405360D060A6
:1094900070470000E8400020482800200F4C4FF0A3
:1094A00080550F4EFFF74EFF2068012805D9356023
:1094B00040BFBFF34F8FBFF36F8F01F0A5F9FFF7E8
:1094C000B5FF0228EED301F097FCFFF7AFFF0228AB
:1094D00001D301F025FA02F039F9E3E7204000203A
:1094E00004ED00E030B5114900E011460A688242FF
:1094F000FBD34B685C18844203D140681844486031
:10950000084643681C18944209D1084C103C246852
:10951000A24209D052681A4442600A681268026086
:10952000814200D0086030BD0460F9E7482800207F
:1095300070B5002441600B4D0061914206D8D11AEC
:109540008269914206D2011D286907E09A4203D23E
:10955000994201D3012403E0011DE86801F068F994
:10956000204670BD2428002030B589B0274D42E048
:109570000498002806DADDE90601059A9047049868
:10958000002838DB069C606910B1201D01F029F924
:1095900002A800F099F8024604980A282BD2DFE8C6
:1095A00000F00505052A1F2705052A1F0598A16952
:1095B000034601442046FFF7BBFF01281BD1616A27
:1095C00020468847E069012815D1002000900598C1
:1095D000A169002342181946204602F04FF90AE01B
:1095E0000598A061811813462046FFF7A1FF02E00D
:1095F000204601F055F900231A4604A9286801F015
:1096000069FC0028B4D109B030BD00002428002036
:109610002DE9FC410F46054601F0EEFB01A800F0E4
:1096200053F80446019818B102F090F8BDE8FC81A7
:109630001B4E17BBA54220D802F088F8F0682746D9
:10964000C068C468201D01F0CCF8E069012810D181
:10965000A0692B4641193A462046FFF769FF0128C9
:1096600007D100200346014600902A46204602F01A
:1096700005F9616A20468847D8E7291B306801F060
:10968000EBF902F063F80028D0D106494FF0805082
:10969000086040BFBFF34F8FBFF36F8FC6E7000076
:1096A0002428002004ED00E00648416B096829B138
:1096B000416BC968C9684968C16270474FF0FF31A2
:1096C000FAE70000E827002070B5054601F0C0FE6B
:1096D000064E0446B068844203D200F009F8012027
:1096E00000E0002028602046B46070BD24280020DF
:1096F000F8B5144D1EE0C068C4680668201D01F06E
:1097000070F8616A20468847E069012812D1A06993
:109710003044B04206D924616060211DE86801F040
:1097200087F807E0002003460146009032462046B5
:1097300002F0A4F8E86801680029DCD12969C5E9CC
:109740000310F8BD24280020202080F31188FEE7B4
:10975000064B426900219A4206D1806AA3F1280291
:10976000904201D000B9012108467047AC4000206A
:10977000074CE068016841B1C0680021D0F80000E2
:10978000FFF746FFFFF7F0FEF3E701210020F7E7C0
:109790002428002070B5044601F06EF804F1240579
:1097A0000AE0606A58B1284601F09AFF08B101F05A
:1097B00099F9A06C401EA064A06C0028F1DC4FF069
:1097C000FF36A66401F062F801F056F804F11005C6
:1097D0000AE0206958B1284601F082FF08B101F083
:1097E00081F9606C401E6064606C0028F1DC666486
:1097F000BDE8704001F04AB82DE9F0410546002768
:1098000001F0FAFA214E306808B9FFF721FEF0683E
:10981000054236D1ADB30835680704D005F007001E
:10982000C0F10800054465B37068854229D817481F
:10983000103001460C6801E020460C466168A942E0
:1098400002D221680029F7D131688C4219D007680B
:109850002168016060680837411B102904D960192C
:1098600041606560FFF73EFE61687068401A706095
:10987000B268904200D2B060F06801430020C4E9B1
:10988000000101F063FF3846BDE8F0813828002070
:109890000449086818B10868C26B521CC2630868A2
:1098A00070470000E827002010B5044600F0E4FFF0
:1098B000246A00F0EBFF204610BD000010B5084CF4
:1098C000031F24681C601B1F1960191F054B0B60C8
:1098D00014390A60091F6FF0020244380A6010BD93
:1098E0005CBA0200499702002DE9F041214C0025A5
:1098F000214E207A012730B92048311D0068FDF73C
:10990000EEFB306038B1022020723168087928B14E
:1099100001281ED116E06560BDE8F081D1E905039C
:10992000C01A4FF48052904200D31046B7EB900F0C
:1099300001D2820800E001220869C968184419446C
:1099400029DF03E0D1E90301084428DF38B11128F9
:109950000ED003213068FCF793FE2572DBE7207CF4
:109960000028D9D1BDE8F04100210220FEF784B9DA
:109970002772D1E7147300206C280020B4BA0200CB
:1099800070B50546C87D0C4600284FF48471284602
:109990000AD0FFF770F8D5F81805627EE1688854A0
:1099A000607E401C607670BDFFF765F8D5F818053D
:1099B00070BD30B58FB005461C216846F9F7F7FD3C
:1099C00000249DF80000019440F00C008DF8000088
:1099D000039404940594069428788DF836000220A8
:1099E000ADF834000C949DF83000142120F00F00E5
:1099F000401C20F0F00010308DF830009DF8310050
:109A000020F00F00401C20F0F00010308DF83100E5
:109A10009DF8320020F00600801C20F0180040F075
:109A200001008DF8320007A8F9F7C1FD0DA80790D5
:109A30000CA808900120ADF82400F420ADF82640D1
:109A4000ADF82800688805F10C0307AA6946A2DF73
:109A50000FB030BD1FB501238DF800308DF8081010
:109A60000192D0E90012684690471FBD10B5044628
:109A700000684FF49271FEF7FEFF4FF48471206886
:109A8000FEF7F9FF20680121016010BD70B50D4699
:109A90000446FAF703FA70B12846FAF711FA68B1EA
:109AA0006807000E002C0CDA04F00F0101F1E02130
:109AB00081F8140D09E042F2010070BD42F202008B
:109AC00070BD04F1E02484F80004002070BD0000A3
:109AD00038B50021012558B101280ED003280BD13B
:109AE00007210020FDF75CFCBDE83840FDF70EBC07
:109AF0004FF0E020C0F8805138BD8DF80010684666
:109B0000FAF7D2FE064C207808B9FDF7DBFBE068D7
:109B1000401CE060A5709DF80000FAF7E9FE38BD32
:109B2000F07100203EB5044609496846FEF750FF33
:109B300008E000BFD0E900212046904730B16846D8
:109B4000FEF75DFF02980028F4D13EBD11203EBD16
:109B5000FCBB02003EB5044608496846FEF738FFE4
:109B600007E000BFD0E90021204690476846FEF795
:109B700046FF02980028F5D13EBD000008BC020057
:109B800070B50028049D18D0002916D0002A14D0E2
:109B90005FF0000430F814609E420FD100200123D2
:109BA000A34008E001EB800426680DB11E4300E0ED
:109BB0009E43401C26609042F4D370BD641C202C50
:109BC000E8D370BD70B5054600242146284600F054
:109BD0000AF808B1204670BD641CA4B2202CF4D34E
:109BE0004FF6FF7070BD01228A40024201D0012071
:109BF0007047002070472DE9F04192B080464FF049
:109C0000000017460D00009012D000246E46A1B24D
:109C10003846FFF7E8FF40B1009935F8140006EB2D
:109C2000410188800098401C0090641C202CEED3D9
:109C3000442269464046F9F7A1FC12B0BDE8F08124
:109C400008B5009313460122FFF79AFF08BD0000F4
:109C500002498969002900D0084770471C7100201B
:109C60002DE9F04114000F460DD000250A26791980
:109C700022460020F9F790FE0544241A08B9761E02
:109C800001D0002CF3D1BDE8F08100002DE9F041B6
:109C90000746806A14468846C8B3002531E000BFF5
:109CA000B96A05EB450001EB8006B088801CFE28F0
:109CB00002D90C20BDE8F0812288401C08F802007F
:109CC00020881622401C80B2208008F800202088BE
:109CD000401C80B2208000EB0801308800F02DFC91
:109CE0002188084480B22080B28842B1B16871B145
:109CF0004044F9F743FC2088B188084420806D1C5B
:109D0000EDB297F82C00A842CAD80020D2E7FFE7AE
:109D10000720CFE770B5194D194C07E0016820788E
:109D20008847002829D01548FEF769FEA868002852
:109D3000F4D1FEF719FB00BFFEF766F90028FBD14E
:109D4000207803280CD002280AD0FEF70FFE00B1BD
:109D500032DF0C4901200860BFF34F8F20BFFDE7C1
:109D6000BFF34F8F08480168084A01F4E0611143CE
:109D70000160BFF34F8F00BFFDE770BD3873002057
:109D800074280020000500400CED00E00400FA05F6
:109D900010B50020FCF788F908B1FAF7BBFBFCF717
:109DA000E1F808B1FAF7B6FB32DF002803D0BDE8CE
:109DB0001040FAF7AFBB10BD002801D1FCF75ABB29
:109DC0007047000010B51620FAF768F848B10A4845
:109DD00082684FF4800152B1016821F48001016072
:109DE00010BDBDE8104042F20100FAF793BB4FF0FE
:109DF000E020C0F8801110BD7C72002004460B48A2
:109E00000421008801EB004009A1FEF7F5F90E4896
:109E1000416809B1204688474FF0FF34FEF744FD02
:109E20002146012000F09AFBF8E7000050290020AD
:109E3000456E74657220736F6674646576696365D8
:109E40005F7461736B2E0000D428002010B51620BB
:109E5000FAF724F880B10F4890F800044009FAF7A7
:109E60002FF860B10C4882684FF480016AB1016834
:109E700041F48001016010BD42F2010001E042F2B4
:109E80000200BDE81040FAF745BB4FF0E020C0F8F3
:109E9000001110BD16E000E07C7200202DE9F843AF
:109EA000214C8846054691461F4669461846A668D5
:109EB000FCF724FA70B30098811C00220AE000BF6E
:109EC00001EA060C59F8223004EB8C0C491C521C98
:109ED000CCF80C30BA42F3D30246401C304004EBBD
:109EE00080002B0CC36002EA060004EB8002E80647
:109EF00052F80C0F02D540F0040001E020F00400FD
:109F000065F3C50067F3891068F39F2020F0030014
:109F1000401C106094F81C0402E000BFFEF774F8C7
:109F20000028FBD1BDE8F883447400202DE9F843F4
:109F3000884607004FF0000424D0144E706908B31F
:109F40003846F9F73FFB401C0546FFF755FC0090EB
:109F5000C0B12A463946F9F711FBB8F10000234693
:109F600005D002466946706901F0FEF804E000225F
:109F70006946706901F07AF80446012802D0009819
:109F800000F08EFC2046BDE8F883000090270020FA
:109F900008B5174E174D132768690028FCD04FF0FD
:109FA000FF38002342466946686900F093FF0028A5
:109FB000F2D000980028F4D0017820290FD2441C58
:109FC00003E00DA1FEF71CF9641C3088227847EAF3
:109FD0000040002AF5D109A1FEF70EF901E0FAF7D9
:109FE000A1FC009800F05CFC00200090D9E7000084
:109FF0002C29002090270020256300000A00000083
:10A0000070B50C4605464FF48E71FEF734FDA18AFB
:10A01000A068415CA08A401CA082C5F81C1570BDD8
:10A0200030B58FB00024054607949DF81C001C2114
:10A0300020F00F00401C20F0F00010308DF81C00C4
:10A040009DF81D0020F00F00401C20F0F0001030A3
:10A050008DF81D009DF81E0020F00600801C8DF874
:10A060001E006846F9F7A3FA9DF80000019440F03D
:10A0700010008DF8000007A8CDE904400394069471
:10A0800028788DF83A000320ADF838000D949DF83B
:10A090003400142120F00F00401C20F0F00010309C
:10A0A0008DF834009DF8350020F00F00401C20F0A2
:10A0B000F00010308DF835009DF8360020F00600D5
:10A0C000801C20F0180040F001008DF8360008A830
:10A0D000F9F76DFA0EA808900DA809900120ADF8C7
:10A0E0002800F420ADF82A40ADF82C0068882B1D1C
:10A0F00008AA6946A2DF0FB030BD1FB500228DF857
:10A1000000208DF80810816801918275D0E9001255
:10A11000684690471FBD00002DE9F84302780021F2
:10A12000DFF8C480314E0427314C4FF08055002AAF
:10A1300008D0012A44D0022A1FD14068BDE8F84364
:10A14000FAF7E8B9EFF30582EAB100914068B0B1DF
:10A15000FAF7F6FA6188884205D301226B46114668
:10A16000E06801F0D1F90098002806D0C8F8005046
:10A1700040BFBFF34F8FBFF36F8FBDE8F88301225D
:10A180006B460221ECE7406868B1FAF7D9FA6188BA
:10A190008842F2D3002301221146E06801B0BDE8F5
:10A1A000F04301F0F3B8FAF7CBFA0246308811A178
:10A1B00007EB0040FEF724F8002301220221ECE720
:10A1C000EFF3058008B10091D9E7002301220221B5
:10A1D000E06801F0DBF8308808A107EB0040BDE83B
:10A1E000F843FEF709B8000004ED00E02C29002038
:10A1F000902700205258544F3D2564005541525439
:10A20000206669666F206572725B66756C6C5D2E88
:10A2100000000000FEB50178294CE9B34FF4F87650
:10A22000012918D0002502291CD0032912D1A068C9
:10A2300000280FD002A9029500F05AFC02980028CD
:10A2400008D020494FF08050086040BFBFF34F8FC7
:10A25000BFF36F8FFEBD1A4832461B491430FCF71E
:10A26000BBFCFEBD02218DF80010C0680190216981
:10A270006846884731461448F9F799F9124901F5BB
:10A280000470856001600E48324614306560FCF74A
:10A29000A3FC0028DFD0FEBDFFE709490B48FAF711
:10A2A00044F930B103208DF80000216968468847E1
:10A2B000F1E70349012201F11400FDF701FBEAE790
:10A2C000AC27002004ED00E0643D0020643F002046
:10A2D0002DE9FF470C4605464FF40071FEF7D1FB10
:10A2E00001274FF40178002638B34FF4927949469C
:10A2F0002846FEF7BBFB00B349462846FEF7BBFBEA
:10A30000C5F80883A07E00B96F60206808B1C0F866
:10A31000009002208DF80000D5F88004C5F8800474
:10A320000390E07D8DF80800E0680190E6752676E0
:10A33000D4E90012684690472CE004212846FEF735
:10A34000A0FB38B34FF4847949462846FEF78EFBCC
:10A3500000B321462846FFF713FB206808B1C0F878
:10A360000090E07D617E884214D1207E38B1617E0C
:10A37000E268E0752069E0602676667607E0A07EF8
:10A3800000B96F60C5F80883E675617EE268204613
:10A39000FFF760FB4FF48E7841462846FEF766FBD8
:10A3A000A8B1A08AA17D884204D221462846FFF7A1
:10A3B00027FE0CE041462846FEF75DFB206808B109
:10A3C000C0F80080A17D11B12046FFF796FE4FF442
:10A3D000A27841462846FEF749FB002816D04146A0
:10A3E0002846FEF748FB206808B1C0F80080A07E30
:10A3F00000B12F60E07D002808D0E675617EE2683C
:10A4000004B02046BDE8F047FFF724BBBDE8FF8756
:10A410002DE9FF410546D0F808010C4660B12846F9
:10A42000FEF740FB0420C5F8080303208DF8000068
:10A43000D4E90012684690474FF49277394628468F
:10A44000FEF725FB0026D8B139462846FEF724FB47
:10A45000206800B1076002208DF80000D5F8800464
:10A46000C5F880040390D5F83C058DF80800E06835
:10A470000190E6752676D4E900126846904727E0F9
:10A480004FF4887739462846FEF701FB00B339467A
:10A490002846FEF701FBD5F83C05C1B2206800B1A3
:10A4A0000760E07D884213D1207E60B1E268D5F874
:10A4B000000220F02000C5F80002207EE07520692F
:10A4C000E060267601E0E675E2682046FFF7C2FA12
:10A4D0004FF4A27739462846FEF7D9FA80B13946BB
:10A4E0002846FEF7D9FA206800B10760E07D38B150
:10A4F000E675D5F83C05E268C1B22046FFF7AAFA36
:10A500004FF4907631462846FEF7C1FA002812D063
:10A5100031462846FEF7C0FA206800B10660A07DEB
:10A52000002808D0D5F84C0504B0C1B22046BDE8DB
:10A53000F041FFF7E2BDBDE8FF810870000A4870F6
:10A5400002207047EFF31180202181F311887047BA
:10A55000EFF31180202181F3118870472DE9F0413C
:10A560000D46074600F088F9204C2068006C00BBBF
:10A570002068012680F84460DDB12068001D00F0ED
:10A5800030F930B9206890F82C0086406069B043FB
:10A590006061681C19D020692844FEF791FE00BF55
:10A5A00013494FF08050086040BFBFF34F8FBFF397
:10A5B0006F8F00F06BF900F05FF92068056C0021E7
:10A5C00065B120683FB1016408E021680948091DB0
:10A5D00000F046F9E4E7026C521E0264206880F83D
:10A5E000441000F053F92846BDE8F081E827002028
:10A5F00004ED00E0AC4000202DE9F05F8346DDE98A
:10A600000A4A994690460D460846012703E000BFD6
:10A61000B0FBF8F07F1C4045FAD2B94500D94F464F
:10A620005FEACA7012D18CB15FEA8A7002D5B9F1C3
:10A63000000F01D0202607E0302605E031465846BD
:10A64000641EFBF78DFE0CB1A742F7D35FF0010645
:10A65000B9F1010F02D9A9F1010903E0B5FBF6F048
:10A66000404502D306FB08F6F2E7DFF83C9000BF56
:10A67000B5FBF6F000FB165519F800105846FBF72D
:10A680006FFEB6FBF8F6002EF2D15FEACA7009D071
:10A69000002C07D0A74205D220215846641EFBF7A4
:10A6A0005FFEF5E7BDE8F09FA4BA0200F8B50546E5
:10A6B00080B2FCF7C9F9040013D0154E207A0027A8
:10A6C000317B88420ED2A8B204F10A0175DF28B1AD
:10A6D000112806D0BDE8F840FFF7BABA207A401C2E
:10A6E0002072F8BD2772307C38B1A8B23B2176DFEA
:10A6F00018B1082801D0FFF7ABFA71690029F0D032
:10A700008DF80070ADF8025068468847F8BD00002B
:10A710001C7100202DE9FC411646DDE90854CDE905
:10A7200000541F468046022200F00CF8002807D192
:10A73000CDE900543B4610223146404600F002F875
:10A74000BDE8FC812DE9FC5F0026DDE90C4B994654
:10A7500092468E4680462788354630E0D8F8040079
:10A76000002200EB850069460068019001A864DFC3
:10A77000002830D19DF8000050451FD10EB10021B6
:10A7800000E00221228808441118594522D846B910
:10A79000521C90B2208009F800E02088401C2080E4
:10A7A0000126218801A801EB0902694664DF00281F
:10A7B00011D120889DF80010084420806D1CB8F845
:10A7C0000000A842CADC56B12088C01B401E80B2DF
:10A7D000FF2802D90C20BDE8FC9F09F807000020E3
:10A7E000F9E7D0E9013201699A60D0E901235A60A2
:10A7F0004A68824201D182684A6000220261086888
:10A80000401E0860704700000148806800F034BABC
:10A810009027002000F108014FF0FF32C0E901123B
:10A82000C160016100210160704700210161704732
:10A8300030B50B685A1C02D000F1080202E0026930
:10A8400004E02246546825689D42FAD953684B605B
:10A8500099608A60516008610168491C016030BDDF
:10A8600042684A6093688B609368596091600861A0
:10A870000168491C01607047202080F3118802485C
:10A880000168491C01607047E427002003490868FB
:10A89000401E086001D180F311887047E427002032
:10A8A00070B5002818D00D4DA0F108046068E96863
:10A8B000084211D02268002A0ED18843606000F05F
:10A8C0009BFA60686968084468602046FEF70AFEE3
:10A8D000BDE8704000F03ABF70BD0000382800208D
:10A8E00010B50020FCF728FD0B481F21C0F8081503
:10A8F0000121C0F80413816001600221C0F84413F3
:10A900000649E02081F800044FF0E0214FF40030C8
:10A91000C1F8000110BD00000010014011E000E08E
:10A920002DE9F05F04463E48844200D904460021E8
:10A93000EFF3108072B63B4EB36801224FF0E02572
:10A940006BB9B260D5F88031374A13403360C5F82F
:10A950008021D5F8842172606A17C5F8842100B976
:10A9600062B68A46DFF8C480D8F80475FBF778FE33
:10A97000F0B33819012120F07F40C8F80813C8F857
:10A9800040054FF4A07B59464046FDF7EBFD4FF4E0
:10A990008039C8F80493BFF34F8F74B1FDF7E6FF19
:10A9A00020B13EDF48B1F9F7B5FD06E020BFD5F88C
:10A9B0000002D5F804120843F8D0C8F808935946A5
:10A9C0004046FDF7CFFD4FF480714046FDF7CAFDCC
:10A9D0000120C8F80403D8F804054FF40031C01B67
:10A9E00020F07F40C5F88012A04200D9204600E048
:10A9F00002E008B100F0A8F9B06800280DD0EFF32C
:10AA0000108072B63168C5F800117168C5F804117C
:10AA1000C6F808A0002800D162B6BDE8F09F00008B
:10AA2000FDFFFF007C720020FC06FFBD001001400E
:10AA300010B5084B002200BF53F832401CB1521C25
:10AA4000022AF9D310BD43F8321003EBC20148606B
:10AA500010BD00001040002070B50D460446FFF701
:10AA60000BFF616C0020491C00D16064A16C491C83
:10AA700000D1A064FFF70AFFA06B20B9294604F1BA
:10AA8000240000F09BF82046BDE87040FEF782BE2F
:10AA900070B5020018D000F0AFF9104C206985188D
:10AAA0002068001DFFF79DFE38B9206890F82C1033
:10AAB000012088406169814361612846FEF700FCFE
:10AAC00000F044FE002808D105494FF0805008608E
:10AAD00040BFBFF34F8FBFF36F8F70BDE8270020DB
:10AAE00004ED00E00149012008627047E8270020DA
:10AAF0002DE9F0410E460446FFF72AFD05462046A3
:10AB000010F8441F022200F804290268521C026057
:10AB1000012911D1134F386B884690B1124804F1C6
:10AB2000180100BFFFF79CFEE06A3968C96A8842D5
:10AB300002D90EB1C6F80080E8B280F31188BDE8F2
:10AB4000F081201DFFF74DFEE06A7A6908FA00F1F6
:10AB500011437961044900EB8000643901EB800006
:10AB6000211DDFE7E82700208440002070B5114C4C
:10AB70000D4621681831FFF75BFE2068001DFFF7C6
:10AB800030FE38B9206890F82C10012088406169A7
:10AB900081436161681C05D020692844BDE870408C
:10ABA000FEF78EBB2168BDE870400348091DFFF722
:10ABB00057BE0000E8270020AC40002070B50C4CC8
:10ABC0000D4621681831FFF74BFE2068001DFFF786
:10ABD00008FE38B9206890F82C100120884061697F
:10ABE0008143616120692844BDE87040FEF768BB7D
:10ABF000E827002070B5040039D01D4DE06A2968AF
:10AC0000C96A884233D2A069002804DB2868C06A78
:10AC1000C0F10300A061E16A164E01EB8101606999
:10AC200006EB810188421FD1201DFFF7DAFD0121CB
:10AC300050B9E06A00EB800256F8222022B96A6916
:10AC400001FA00F082436A612868C06AE0626A69BA
:10AC500081401143696100EB800006EB8000211DFB
:10AC6000BDE87040FFF7FCBD2868C06AE06270BDB7
:10AC7000E82700202040002070B504002DD0174D9B
:10AC80002868844229D0FFF7F7FD2046FEF760FDD3
:10AC900001281ED1201DFFF7A4FDE06A01216A6989
:10ACA0008140114369610E4900EB800001EB800097
:10ACB000211DFFF7D5FDE06A2968C96A884208D3DB
:10ACC00008494FF08050086040BFBFF34F8FBFF37B
:10ACD0006F8FBDE87040FFF7D9BD70BDE827002039
:10ACE0002040002004ED00E002494A6A0260096940
:10ACF00041607047E82700201FB500240E480294E9
:10AD0000CDE9004023463C220CA10E48039400F0FC
:10AD10007FFA01280FD100F08FFD01280BD12020F0
:10AD200080F3118804480121083881610461BDE87D
:10AD30001F4000F08BB81FBDF027002049444C4550
:10AD4000000000009D94020002490A691044086155
:10AD500070470000E827002070B50446FFF78CFD1F
:10AD6000224D04B92C68201DFFF73BFD58B9E06A5D
:10AD70001F4A00EB800152F8211021B901218140C6
:10AD8000686988436861A06A18B104F11800FFF788
:10AD900028FD1748211D8C30FFF762FDFFF776FD77
:10ADA00028688442A86917D148B112494FF08050F1
:10ADB000086040BFBFF34F8FBFF36F8F70BD0C486B
:10ADC000E9688C300068884202D10020286070BD9C
:10ADD000BDE8704000F018B80028F8D0FFF74CFD2F
:10ADE000FEF762FCBDE87040FFF750BDE827002089
:10ADF0002040002004ED00E00248016B491C016383
:10AE000070470000E82700200E48016B11B10121B6
:10AE1000016270470021016241690B4AB1FA81F178
:10AE2000C1F11F0101EB810102EB810101F1080376
:10AE30004A6852684A609A4201D152684A60D168B1
:10AE400001607047E8270020204000200E49E020E4
:10AE500081F8140DFFF744FD0C49002008600C48F0
:10AE6000016841F4700101600A48016841F0404105
:10AE7000016007487838016841F010010160F8F777
:10AE8000D9F9FEF761FC00000EE000E0E4270020A5
:10AE900088ED00E034EF00E070B50E0005464FF09D
:10AEA000000413D005FB06F0401C4C30FEF7A4FC58
:10AEB00050B1044666B104F14C002060C4E90F565D
:10AEC0000121204600F09AF8204670BD0020ECE7F2
:10AED0002460F3E72DE9FF470027474E82B09946EB
:10AEE0008A460446B8464FF0805500BFFFF7C4FCC1
:10AEF000A06B68B351462046E768FEF74DFAB9F1FA
:10AF0000000F13D0E760606A50B104F1240000F034
:10AF1000E7FB28B1356040BFBFF34F8FBFF36F8FA2
:10AF2000FFF7B4FC012006B0BDE8F087A06B401E1F
:10AF3000A063206810B9FEF7ABFC606020690028B0
:10AF4000EED004F1100000F0CBFB0128E2D0E7E7DF
:10AF5000049808B11FB106E0FFF798FC1FE06846AF
:10AF6000FFF7C2FE0127FFF791FCFFF745FFFFF750
:10AF700083FC606C401C01D1C4F84480A06C401C70
:10AF800001D1C4F84880FFF781FC04A9684600F0AD
:10AF90001BF930B12046FEF7FDFB00F0D7FB002087
:10AFA000C1E7FFF769FCA06B38B1FFF76FFC2046E3
:10AFB000FEF7F0FB00F0CAFB98E7FFF767FC20689C
:10AFC00030B9FFF759FC6068FFF714FEFFF75EFC2D
:10AFD00004F124000499FFF7C9FD2046FEF7DAFBCF
:10AFE00000F0B4FB002881D1356040BFBFF34F8F24
:10AFF000BFF36F8F7AE7000004ED00E070B50D46F7
:10B000000446FFF739FCD4E90F12206801FB020067
:10B0100060600020A0632068A0600146E06B401ED5
:10B0200000FB0210E0604FF0FF306064A06404F1A8
:10B0300010004DB1FFF7EEFB04F12400FFF7EAFB2F
:10B04000FFF724FC012070BD21690029F8D000F031
:10B0500047FB0128F4D104490007086040BFBFF353
:10B060004F8FBFF36F8FEBE704ED00E02DE9FF4753
:10B0700000273C4E82B099468A460446B8464FF0B7
:10B08000805500BFFFF7F8FBA06BE16B884206D349
:10B09000B9F1020F03D00498E0B1F7B121E04A46BC
:10B0A00051462046FEF78BF9616A31B104F1240064
:10B0B00000F016FB012801D006E028B1356040BF42
:10B0C000BFF34F8FBFF36F8FFFF7E0FB012006B098
:10B0D000BDE8F087FFF7DAFB1FE06846FFF704FEE4
:10B0E0000127FFF7D3FBFFF787FEFFF7C5FB606C77
:10B0F000401C01D1C4F84480A06C401C01D1C4F8AC
:10B100004880FFF7C3FB04A9684600F05DF830B142
:10B110002046FEF73FFB00F019FB0020D7E7FFF7C2
:10B12000ABFBA06BE16B884214D1FFF7AFFB04F1DE
:10B1300010000499FFF71AFD2046FEF72BFB00F0E4
:10B1400005FB00289ED1356040BFBFF34F8FBFF392
:10B150006F8F97E7FFF79AFB2046FEF71BFB00F087
:10B16000F5FA8FE704ED00E02DE9F0411F461646A1
:10B1700088460446FFF7E6F90546A06BE16B884276
:10B1800007D3022F05D00020E9B281F31188BDE872
:10B19000F0813A4641462046FEF711F9A06C401C6A
:10B1A00004D0A06C401CA0640120EDE7606A002878
:10B1B000FAD004F1240000F093FA0028F4D0002E15
:10B1C000F2D001203060EFE770B50D460446FFF77E
:10B1D00053FB0E4A11692868431C0FD02368526A3A
:10B1E000934202D062688A420AD96268891A81420F
:10B1F00006D2401A28602046FFF776FD002400E0C2
:10B200000124FFF743FB204670BD0000E827002023
:10B210002DE9FF5F8A46DDE90F9091000E9F9B4666
:10B220001546884610B90846FEF7E6FA060018D01B
:10B230004820FEF7E1FA0400304610D0A52241462E
:10B240002063F8F7ADF96FF0030101EB8501206B86
:10B250003D46084420F007085146002004E0FFF76F
:10B260001FFB4FF0FF3486E022180B5C82F834306D
:10B270000A5C12B1401C0428F6D3002684F837601B
:10B28000032D00D30225E562C4E90E56201DFFF709
:10B29000CCFA04F11800FFF7C8FA2461C5F10301E4
:10B2A0006462A161266484F844605A46404600996D
:10B2B000FEF704FB2060B9F1000F01D0C9F800408F
:10B2C000FFF7DAFA2E4DE868401CE8602868DFF8DE
:10B2D000B48010B1A86940B32CE02C60E868012864
:10B2E00028D1002606EB860108EB8100FFF792FAD1
:10B2F000761C032EF6D323483C30FFF78BFA214807
:10B300005030FFF787FA1F486430FFF783FA1D4873
:10B310007830FFF77FFA1B488C30FFF77BFA19482B
:10B320003C3068631430A86304E02868C06AB842FF
:10B3300000D82C60A86A0121401CA862E06A6A69F2
:10B3400081401143696100EB800108EB8100211D00
:10B35000FFF786FA0124FFF799FAA86958B128681F
:10B36000C06AB84207D208492007086040BFBFF34F
:10B370004F8FBFF36F8F04B02046BDE8F09F0000F1
:10B38000E82700202040002004ED00E02DE9F041F6
:10B390001F4690460D4601260446FFF76DFA0FB191
:10B3A000206C386094F84400022184F84410B8F10D
:10B3B000050F0ED2DFE808F00D03060C0A00216C21
:10B3C000294301E0216C491C216402E0022803D0DA
:10B3D0002564012802D021E000261FE0201DFFF790
:10B3E00000FA114DE06A01216A69814011436961E7
:10B3F0000E4900EB800001EB8000211DFFF730FAC1
:10B40000E06A2968C96A884208D909494FF0805022
:10B41000086040BFBFF34F8FBFF36F8FFFF736FA5F
:10B420003046BDE8F0810000E827002020400020E1
:10B4300004ED00E00548816919B1006B18B10020E6
:10B44000704701207047022070470000E827002065
:10B450000148006970470000E827002001480069A2
:10B4600070470000E82700202DE9F041244C002718
:10B47000206B40B1E069401CE061206A00B1012707
:10B480003846BDE8F0812069401C2061266946B934
:10B49000606BA16B6163A063606A401C6062FEF731
:10B4A00003F9E06A8642E8D3606B006838B1606BEC
:10B4B000C068C5686868864204D2E062DDE74FF084
:10B4C000FF30FAE7281DFFF78CF9A86A18B105F1DB
:10B4D0001800FFF786F9E96A012062698840104385
:10B4E000606101EB8100074901EB8000291DFFF736
:10B4F000B7F9E86A2168C96A8842D5D30127D3E73A
:10B50000E8270020204000202DE9F047984691468A
:10B510000D4601270446FFF71BF80646204610F8A3
:10B52000441F02220270B9F1050F0ED2DFE809F0C4
:10B530000D03060C0A00206C284301E0206C401C1F
:10B54000206402E0022903D02564012902D015E01D
:10B55000002713E0154D286B4FF00109A0B104F14D
:10B5600018011348FFF77CF9E06A2968C96A884224
:10B5700004D9B8F1000F01D0C8F80090F0B280F300
:10B5800011883846BDE8F087201DFFF72AF9E06AE8
:10B590006A6909FA00F111436961054900EB80000D
:10B5A000643901EB8000211DDCE70000E827002062
:10B5B000844000202DE9F0411D4616468846074686
:10B5C000FFF75AF9274C206890F84400022824D04D
:10B5D0002068016CB94301642068012780F8447039
:10B5E000DDB12068001DFFF7FCF830B9206890F845
:10B5F0002C0087406069B8436061681C29D02069CD
:10B600002844FDF75DFE00BF17494FF080500860E9
:10B6100040BFBFF34F8FBFF36F8FFFF737F9FFF7CF
:10B620002BF916B12068006C3060206890F8440057
:10B63000012814D02068016C21EA08010164012569
:10B640002168002081F84400FFF720F92846BDE872
:10B65000F08121680548091DFFF702F9D4E70025AC
:10B66000EEE70000E827002004ED00E0AC400020F9
:10B6700070B504004FF000012BD0E06B401EE0637A
:10B68000A36BE26A9A4224D018BB201DFFF7A9F8E9
:10B69000114B124A012150B9E06A00EB800553F8C2
:10B6A000255025B9556901FA00F085435561A06B15
:10B6B000E062C0F10300A061E06A5569814029435E
:10B6C000516100EB800003EB8000211DFFF7C8F8FB
:10B6D0000121084670BD000020400020E82700201E
:10B6E0002DE9F041C068C46804F118000746FFF76F
:10B6F00078F8144D286B012660B11348394600BF15
:10B70000FFF7AEF8E06A2968C96A884213D90124B4
:10B710002E6211E0201DFFF764F8E16A6A6906FAFB
:10B7200001F01043686101EB81000749643901EBC6
:10B730008000211DE4E70024FDF7B6FF2046BDE8A8
:10B74000F0810000E8270020844000202DE9F04728
:10B750000027FFF791F8264C206B401E2063206BDA
:10B7600098BBE168234E012079B3A6F164098046B5
:10B770003068E8B1F068C56805F11800FFF731F8E6
:10B78000281DFFF72EF8E96A626908FA01F01043F4
:10B79000606101EB810109EB8100291DFFF760F871
:10B7A000E86A2168C96A8842E2D3C4F82080DFE7EA
:10B7B000E06958B14546E06940B1FFF755FE00B178
:10B7C0002562E069401EE061F5E70BE0206A012890
:10B7D00008D1094901270007086040BFBFF34F8F18
:10B7E000BFF36F8FFFF752F83846BDE8F0870000CF
:10B7F000E82700208440002004ED00E02DE9F04718
:10B800001E46DDF8209017460D00804612D02820F5
:10B81000FDF7F2FF04000AD0FDF76CFDC4F80080CC
:10B82000C4E90657C4E90869201DFEF7FEFF20465B
:10B83000BDE8F0870024FAE71FB50024FDF75AFDA4
:10B840000A48006870B10949022200200092091DCF
:10B85000CDE9011003460390502205A10648FFF7E9
:10B86000D7FC044604B0204610BD00002428002068
:10B87000546D722053766300719702002DE9FF41E9
:10B88000114C1F460346266800200A9D002E0ED04C
:10B890008DE80E0006290FDAFFF7CCFD02284FF0E5
:10B8A000000307D0002269462068FFF7DFFB04B0E1
:10B8B000BDE8F0812A46F6E700233A46694630465D
:10B8C000FFF752FCF3E700002428002010B50446DF
:10B8D000FEF7D2FF606908B1012400E00024FEF702
:10B8E000D5FF204610BD000007010100996F02003E
:10B8F0000800000006000000FFFFFFFFFFFFFFFF42
:10B9000000000000000040070000000000000000F0
:10B910000000000000000000000000000000000027
:10B920000000000000000000000000000000000017
:10B9300000000000000000000001020304050607EB
:10B940000809000000000000000A0B0C0D0E0F009B
:10B9500000000000000000000000000000000000E7
:10B960000000000000000000000A0B0C0D0E0F008C
:10B9700000000000000000000000000000000000C7
:10B9800000000000000000000000000000000000B7
:10B9900000000000000000000000000000000000A7
:10B9A0000000000000000000000000000000000097
:10B9B0000000000000000000000000000000000087
:10B9C0000000000000000000000000000000000077
:10B9D0000000000000000000000000000000000067
:10B9E0000000000000000000000000000000000057
:10B9F0000000000000000000000000000000000047
:10BA00000000000000000000FFFFFFFFFFFFFFFF3E
:10BA1000FFFFFFFFFFFFFFFF00000000000000002E
:10BA20000000D60107010000111213140D0E0F10B3
:10BA3000A43F0020C43F0020F03F00200D00030081
:10BA4000855F02000E000300855F02000F00030007
:10BA5000855F020010000300855F02000000000106
:10BA6000770A000000000000770A000000000000D4
:10BA70007ADA000000000000010000000000000071
:10BA800000000000000000009ECADC240EE5A9E0D2
:10BA900093F3A3B50000406E000000505C720020DC
:10BAA0000300000030313233343536373839414203
:10BAB00043444546287300200010000004000000A5
:10BAC00001000000556E6B6E6F776E206572726FAD
:10BAD0007220636F6465000000000000B8C10200BE
:10BAE0000100000078C0020002000000F8BE020061
:10BAF00003000000ECC002000400000040C102008E
:10BB00000500000038C0020006000000D8BF020097
:10BB10000700000028C10200080000004CC002001D
:10BB20000900000098C002000A000000A0C1020045
:10BB30000B000000E0BE02000C00000064C0020028
:10BB40000D000000C4C102000E00000018C1020078
:10BB50000F00000054C102001000000088C1020064
:10BB600011000000D8C102008000000018C00200CF
:10BB7000810000009CBF0200820000005CBF020048
:10BB8000830000003CBF02008400000078BF020078
:10BB900085000000F0BF02008600000000C1020026
:10BBA00090000000B8BF0200910000001CBF02001E
:10BBB0000082000068C1020001820000B4C00200DF
:10BBC00002820000D0C00200D17E0200CF7E0200BF
:10BBD000C97E02009028002088280020902800209C
:10BBE000847300201800000048C5020050C5020000
:10BBF000000000000000000001000007E8BB020098
:10BC0000F8BB02000800000020BC020030BC0200AB
:10BC10000800000030BC020040BC02000800000028
:10BC200080C5020090C50200000000000000000076
:10BC300070C5020080C50200000000000000000086
:10BC400008C5020010C5020010C5020030C5020080
:10BC500030C5020040C5020040C5020048C50200D0
:10BC60009027002040BC020060BC020008000000D9
:10BC700050C5020060C5020060C5020070C5020028
:10BC800070BC020080BC0200080000000040404080
:10BC9000404040404040414141414140404040409F
:10BCA000404040404040404040404040400502024B
:10BCB000020202020202020202020202022020200A
:10BCC0002020202020202002020202020202909066
:10BCD0009090909010101010101010101010101064
:10BCE00010101010101010100202020202028888B8
:10BCF00088888888080808080808080808080808C4
:10BD000008080808080808080202020240000000AB
:10BD10008DBC020052657175657374696E6720741D
:10BD20006F2075706461746520415454204D5455E2
:10BD300020746F202575206279746573206F6E20E2
:10BD4000636F6E6E656374696F6E2030782578203E
:10BD5000287265747279292E0000000073645F6296
:10BD60006C655F67617474635F65786368616E6753
:10BD7000655F6D74755F72657175657374282920D0
:10BD800072657475726E656420756E657870656332
:10BD90007465642076616C756520307825782E0096
:10BDA00073645F626C655F67617474735F65786309
:10BDB00068616E67655F6D74755F7265706C792818
:10BDC000292072657475726E656420756E65787071
:10BDD00065637465642076616C75652030782578BC
:10BDE0002E00000073645F626C655F6761705F6462
:10BDF0006174615F6C656E6774685F7570646174AF
:10BE000065282920287265706C79292072657475FF
:10BE1000726E656420756E65787065637465642004
:10BE200076616C756520307825782E0073645F62CA
:10BE30006C655F6761705F646174615F6C656E679C
:10BE400074685F7570646174652829202872657153
:10BE50007565737429206F6E20636F6E6E656374F1
:10BE6000696F6E20307825782072657475726E6502
:10BE70006420756E65787065637465642076616CA6
:10BE8000756520307825782E0000000073645F62AD
:10BE90006C655F67617474635F65786368616E6722
:10BEA000655F6D74755F726571756573742829209F
:10BEB0006F6E20636F6E6E656374696F6E2030788D
:10BEC00025782072657475726E6564206275737969
:10BED0002C2077696C6C2072657472792E000000DA
:10BEE0004E52465F4552524F525F494E56414C4961
:10BEF000445F4441544100004E52465F4552524F08
:10BF0000525F534F46544445564943455F4E4F5444
:10BF10005F454E41424C4544000000004E52465F92
:10BF20004552524F525F464541545552455F4E4F20
:10BF3000545F454E41424C45440000004E52465F1E
:10BF40004552524F525F4D555445585F554E4C4FD8
:10BF5000434B5F4641494C45440000004E52465F0A
:10BF60004552524F525F4D555445585F4C4F434BCD
:10BF70005F4641494C4544004E52465F4552524F40
:10BF8000525F4D555445585F434F4E445F494E49AB
:10BF9000545F4641494C4544000000004E52465F04
:10BFA0004552524F525F4D555445585F494E495482
:10BFB0005F4641494C4544004E52465F4552524F00
:10BFC000525F4150495F4E4F545F494D504C454D73
:10BFD000454E5445440000004E52465F4552524F74
:10BFE000525F4E4F545F535550504F52544544008A
:10BFF0004E52465F4552524F525F4D4F44554C454D
:10C000005F414C52454144595F494E495449414C66
:10C01000495A4544000000004E52465F4552524F77
:10C02000525F4D4F44554C455F4E4F545F494E490A
:10C030005449414C5A4544004E52465F4552524F76
:10C04000525F4E4F545F464F554E44004E52465F2E
:10C050004552524F525F494E56414C49445F5354EA
:10C06000415445004E52465F4552524F525F444143
:10C0700054415F53495A45004E52465F4552524F14
:10C08000525F5356435F48414E444C45525F4D49C1
:10C090005353494E470000004E52465F4552524F9F
:10C0A000525F494E56414C49445F4C454E475448B7
:10C0B000000000004E52465F4552524F525F4452BC
:10C0C000565F5457495F4552525F414E41434B00C2
:10C0D0004E52465F4552524F525F4452565F54573C
:10C0E000495F4552525F444E41434B004E52465FBA
:10C0F0004552524F525F494E5445524E414C0000FA
:10C100004E52465F4552524F525F53544F52414731
:10C11000455F46554C4C00004E52465F4552524FCB
:10C12000525F4E554C4C00004E52465F4552524FA6
:10C13000525F494E56414C49445F504152414D0077
:10C140004E52465F4552524F525F4E4F5F4D454DE6
:10C15000000000004E52465F4552524F525F464F1C
:10C160005242494444454E004E52465F4552524F5A
:10C17000525F4452565F5457495F4552525F4F5683
:10C18000455252554E0000004E52465F4552524FA6
:10C19000525F494E56414C49445F4144445200006D
:10C1A0004E52465F4552524F525F494E56414C499E
:10C1B000445F464C414753004E52465F53554343FC
:10C1C000455353004E52465F4552524F525F5449B9
:10C1D0004D454F55540000004E52465F4552524F58
:10C1E000525F4255535900007761726E696E670065
:10C1F00064656275670000001B5B313B33306D0086
:10C200001B5B306D000000001B5B313B33316D0068
:10C210001B5B313B33326D001B5B313B33336D00B5
:10C220001B5B313B33346D001B5B313B33356D00A1
:10C230001B5B313B33366D001B5B313B33376D008D
:10C24000696E666F000000006572726F7200000018
:10C2500073645F626C655F6366675F7365742829EA
:10C260002072657475726E65642025732077686529
:10C270006E20617474656D7074696E6720746F20D0
:10C2800073657420424C455F47415454535F4346A5
:10C29000475F534552564943455F4348414E4745E2
:10C2A000442E000073645F626C655F6366675F7352
:10C2B000657428292072657475726E656420257313
:10C2C000207768656E20617474656D7074696E673F
:10C2D00020746F2073657420424C455F434F4D4D71
:10C2E0004F4E5F4346475F56535F555549442E00B6
:10C2F00073645F626C655F6366675F73657428294A
:10C300002072657475726E65642025732077686588
:10C310006E20617474656D7074696E6720746F202F
:10C3200073657420424C455F47415454535F434604
:10C33000475F415454525F5441425F53495A452E1E
:10C340000000000073645F626C655F6366675F7323
:10C35000657428292072657475726E656420257372
:10C36000207768656E20617474656D7074696E679E
:10C3700020746F2073657420424C455F434F4E4ECE
:10C380005F4346475F4741502E00000073645F6281
:10C390006C655F6366675F736574282920726574D6
:10C3A00075726E6564202573207768656E206174F0
:10C3B00074656D7074696E6720746F207365742086
:10C3C000424C455F4741505F4346475F524F4C45A3
:10C3D0005F434F554E542E0073645F626C655F631C
:10C3E00066675F73657428292072657475726E655F
:10C3F00064202573207768656E20617474656D70A4
:10C4000074696E6720746F2073657420424C455FB9
:10C41000434F4E4E5F4346475F474154542E000002
:10C420007561727400000000626C655F676174740E
:10C4300000000000636C6F636B0000006770696F41
:10C440007465000062616C6C6F6300007077725FEE
:10C450006D676D7400000000617070006E72665F41
:10C46000736468006E72665F7364685F626C650017
:10C470006E72665F7364685F6672656572746F730F
:10C48000000000006E72665F7364685F736F630024
:10C4900090C5020090270020D80100000A37020052
:10C4A000D8C5020068290020C85900008C3E02004F
:10C4B00020C402000000000028C4020000000400A4
:10C4C00034C40200000000003CC402000000000070
:10C4D00044C40200000000004CC402000000000040
:10C4E00058C40200000004005CC402000000030005
:10C4F00064C402000000030070C4020000000400D5
:10C5000084C4020000000300D55B020000000000AC
:10C51000F1710200783B0020935102008C3B002017
:10C52000695A020000000000D95A02000000000011
:10C53000455D02005C3B002089550200EC7A00203A
:10C540007D57020000000000417C02000000000056
:10C55000B99D020000000000797C0200000000008C
:10C56000FB5102008C3B0020DD5602000000000061
:10C57000B187020000000000958902000000000061
:10C58000D19A020000000000597C02000000000067
:10C5900014FFFF141201022A021220021D4004306F
:10C5A00090D0031AFF0101640B1CC8BBE81448C2F9
:10C5B0000214E8C1021A40081AF0081119081AF802
:10C5C000081A08081A10041A18041A20041A280451
:08C5D0001A30041A3804019826
:0400000500023201C2
:00000001FF
